{
  "_format": "hh3-artifact-1",
  "contractName": "PropertyEscrow",
  "sourceName": "contracts/PropertyEscrow.sol",
  "abi": [
    {
      "inputs": [
        {
          "internalType": "address",
          "name": "_registry",
          "type": "address"
        },
        {
          "internalType": "uint256",
          "name": "_platformFeeBps",
          "type": "uint256"
        },
        {
          "internalType": "address",
          "name": "_feeRecipient",
          "type": "address"
        }
      ],
      "stateMutability": "nonpayable",
      "type": "constructor"
    },
    {
      "inputs": [],
      "name": "ECDSAInvalidSignature",
      "type": "error"
    },
    {
      "inputs": [
        {
          "internalType": "uint256",
          "name": "length",
          "type": "uint256"
        }
      ],
      "name": "ECDSAInvalidSignatureLength",
      "type": "error"
    },
    {
      "inputs": [
        {
          "internalType": "bytes32",
          "name": "s",
          "type": "bytes32"
        }
      ],
      "name": "ECDSAInvalidSignatureS",
      "type": "error"
    },
    {
      "inputs": [],
      "name": "EnforcedPause",
      "type": "error"
    },
    {
      "inputs": [],
      "name": "ExpectedPause",
      "type": "error"
    },
    {
      "inputs": [
        {
          "internalType": "address",
          "name": "owner",
          "type": "address"
        }
      ],
      "name": "OwnableInvalidOwner",
      "type": "error"
    },
    {
      "inputs": [
        {
          "internalType": "address",
          "name": "account",
          "type": "address"
        }
      ],
      "name": "OwnableUnauthorizedAccount",
      "type": "error"
    },
    {
      "inputs": [],
      "name": "ReentrancyGuardReentrantCall",
      "type": "error"
    },
    {
      "anonymous": false,
      "inputs": [
        {
          "indexed": true,
          "internalType": "uint256",
          "name": "dealId",
          "type": "uint256"
        },
        {
          "indexed": true,
          "internalType": "address",
          "name": "buyer",
          "type": "address"
        }
      ],
      "name": "BuyerDeposited",
      "type": "event"
    },
    {
      "anonymous": false,
      "inputs": [
        {
          "indexed": true,
          "internalType": "uint256",
          "name": "dealId",
          "type": "uint256"
        },
        {
          "indexed": true,
          "internalType": "address",
          "name": "buyer",
          "type": "address"
        }
      ],
      "name": "BuyerSigned",
      "type": "event"
    },
    {
      "anonymous": false,
      "inputs": [
        {
          "indexed": true,
          "internalType": "uint256",
          "name": "dealId",
          "type": "uint256"
        },
        {
          "indexed": false,
          "internalType": "string",
          "name": "reason",
          "type": "string"
        }
      ],
      "name": "DealCancelled",
      "type": "event"
    },
    {
      "anonymous": false,
      "inputs": [
        {
          "indexed": true,
          "internalType": "uint256",
          "name": "dealId",
          "type": "uint256"
        },
        {
          "indexed": true,
          "internalType": "uint256",
          "name": "tokenId",
          "type": "uint256"
        },
        {
          "indexed": true,
          "internalType": "address",
          "name": "buyer",
          "type": "address"
        }
      ],
      "name": "DealCompleted",
      "type": "event"
    },
    {
      "anonymous": false,
      "inputs": [
        {
          "indexed": false,
          "internalType": "uint256",
          "name": "newExpiry",
          "type": "uint256"
        }
      ],
      "name": "DealExpiryUpdated",
      "type": "event"
    },
    {
      "anonymous": false,
      "inputs": [
        {
          "indexed": true,
          "internalType": "uint256",
          "name": "dealId",
          "type": "uint256"
        },
        {
          "indexed": true,
          "internalType": "uint256",
          "name": "tokenId",
          "type": "uint256"
        },
        {
          "indexed": true,
          "internalType": "address",
          "name": "seller",
          "type": "address"
        },
        {
          "indexed": false,
          "internalType": "uint256",
          "name": "amount",
          "type": "uint256"
        }
      ],
      "name": "DealOpened",
      "type": "event"
    },
    {
      "anonymous": false,
      "inputs": [
        {
          "indexed": true,
          "internalType": "uint256",
          "name": "dealId",
          "type": "uint256"
        },
        {
          "indexed": true,
          "internalType": "address",
          "name": "seller",
          "type": "address"
        },
        {
          "indexed": false,
          "internalType": "uint256",
          "name": "amount",
          "type": "uint256"
        }
      ],
      "name": "FundsQueued",
      "type": "event"
    },
    {
      "anonymous": false,
      "inputs": [
        {
          "indexed": true,
          "internalType": "address",
          "name": "recipient",
          "type": "address"
        },
        {
          "indexed": false,
          "internalType": "uint256",
          "name": "amount",
          "type": "uint256"
        }
      ],
      "name": "FundsWithdrawn",
      "type": "event"
    },
    {
      "anonymous": false,
      "inputs": [
        {
          "indexed": true,
          "internalType": "address",
          "name": "previousOwner",
          "type": "address"
        },
        {
          "indexed": true,
          "internalType": "address",
          "name": "newOwner",
          "type": "address"
        }
      ],
      "name": "OwnershipTransferStarted",
      "type": "event"
    },
    {
      "anonymous": false,
      "inputs": [
        {
          "indexed": true,
          "internalType": "address",
          "name": "previousOwner",
          "type": "address"
        },
        {
          "indexed": true,
          "internalType": "address",
          "name": "newOwner",
          "type": "address"
        }
      ],
      "name": "OwnershipTransferred",
      "type": "event"
    },
    {
      "anonymous": false,
      "inputs": [
        {
          "indexed": false,
          "internalType": "address",
          "name": "account",
          "type": "address"
        }
      ],
      "name": "Paused",
      "type": "event"
    },
    {
      "anonymous": false,
      "inputs": [
        {
          "indexed": false,
          "internalType": "uint256",
          "name": "feeBps",
          "type": "uint256"
        },
        {
          "indexed": true,
          "internalType": "address",
          "name": "recipient",
          "type": "address"
        }
      ],
      "name": "PlatformFeeUpdated",
      "type": "event"
    },
    {
      "anonymous": false,
      "inputs": [
        {
          "indexed": false,
          "internalType": "address",
          "name": "account",
          "type": "address"
        }
      ],
      "name": "Unpaused",
      "type": "event"
    },
    {
      "inputs": [],
      "name": "acceptOwnership",
      "outputs": [],
      "stateMutability": "nonpayable",
      "type": "function"
    },
    {
      "inputs": [
        {
          "internalType": "uint256",
          "name": "",
          "type": "uint256"
        }
      ],
      "name": "activeDeal",
      "outputs": [
        {
          "internalType": "bool",
          "name": "",
          "type": "bool"
        }
      ],
      "stateMutability": "view",
      "type": "function"
    },
    {
      "inputs": [
        {
          "internalType": "uint256",
          "name": "dealId",
          "type": "uint256"
        },
        {
          "internalType": "bytes",
          "name": "buyerSig",
          "type": "bytes"
        }
      ],
      "name": "buyerSign",
      "outputs": [],
      "stateMutability": "nonpayable",
      "type": "function"
    },
    {
      "inputs": [
        {
          "internalType": "uint256",
          "name": "dealId",
          "type": "uint256"
        }
      ],
      "name": "cancelDeal",
      "outputs": [],
      "stateMutability": "nonpayable",
      "type": "function"
    },
    {
      "inputs": [],
      "name": "dealCount",
      "outputs": [
        {
          "internalType": "uint256",
          "name": "",
          "type": "uint256"
        }
      ],
      "stateMutability": "view",
      "type": "function"
    },
    {
      "inputs": [],
      "name": "dealExpiry",
      "outputs": [
        {
          "internalType": "uint256",
          "name": "",
          "type": "uint256"
        }
      ],
      "stateMutability": "view",
      "type": "function"
    },
    {
      "inputs": [
        {
          "internalType": "uint256",
          "name": "",
          "type": "uint256"
        }
      ],
      "name": "deals",
      "outputs": [
        {
          "internalType": "uint256",
          "name": "tokenId",
          "type": "uint256"
        },
        {
          "internalType": "address",
          "name": "seller",
          "type": "address"
        },
        {
          "internalType": "address",
          "name": "buyer",
          "type": "address"
        },
        {
          "internalType": "uint256",
          "name": "amount",
          "type": "uint256"
        },
        {
          "internalType": "bool",
          "name": "buyerSigned",
          "type": "bool"
        },
        {
          "internalType": "bool",
          "name": "sellerConfirmed",
          "type": "bool"
        },
        {
          "internalType": "enum PropertyEscrow.DealStatus",
          "name": "status",
          "type": "uint8"
        },
        {
          "internalType": "uint256",
          "name": "createdAt",
          "type": "uint256"
        }
      ],
      "stateMutability": "view",
      "type": "function"
    },
    {
      "inputs": [
        {
          "internalType": "uint256",
          "name": "dealId",
          "type": "uint256"
        }
      ],
      "name": "deposit",
      "outputs": [],
      "stateMutability": "payable",
      "type": "function"
    },
    {
      "inputs": [
        {
          "internalType": "uint256",
          "name": "dealId",
          "type": "uint256"
        }
      ],
      "name": "expireDeal",
      "outputs": [],
      "stateMutability": "nonpayable",
      "type": "function"
    },
    {
      "inputs": [],
      "name": "feeRecipient",
      "outputs": [
        {
          "internalType": "address",
          "name": "",
          "type": "address"
        }
      ],
      "stateMutability": "view",
      "type": "function"
    },
    {
      "inputs": [
        {
          "internalType": "uint256",
          "name": "dealId",
          "type": "uint256"
        }
      ],
      "name": "getDeal",
      "outputs": [
        {
          "components": [
            {
              "internalType": "uint256",
              "name": "tokenId",
              "type": "uint256"
            },
            {
              "internalType": "address",
              "name": "seller",
              "type": "address"
            },
            {
              "internalType": "address",
              "name": "buyer",
              "type": "address"
            },
            {
              "internalType": "uint256",
              "name": "amount",
              "type": "uint256"
            },
            {
              "internalType": "bool",
              "name": "buyerSigned",
              "type": "bool"
            },
            {
              "internalType": "bool",
              "name": "sellerConfirmed",
              "type": "bool"
            },
            {
              "internalType": "enum PropertyEscrow.DealStatus",
              "name": "status",
              "type": "uint8"
            },
            {
              "internalType": "uint256",
              "name": "createdAt",
              "type": "uint256"
            }
          ],
          "internalType": "struct PropertyEscrow.Deal",
          "name": "",
          "type": "tuple"
        }
      ],
      "stateMutability": "view",
      "type": "function"
    },
    {
      "inputs": [
        {
          "internalType": "uint256",
          "name": "tokenId",
          "type": "uint256"
        }
      ],
      "name": "getDealByToken",
      "outputs": [
        {
          "components": [
            {
              "internalType": "uint256",
              "name": "tokenId",
              "type": "uint256"
            },
            {
              "internalType": "address",
              "name": "seller",
              "type": "address"
            },
            {
              "internalType": "address",
              "name": "buyer",
              "type": "address"
            },
            {
              "internalType": "uint256",
              "name": "amount",
              "type": "uint256"
            },
            {
              "internalType": "bool",
              "name": "buyerSigned",
              "type": "bool"
            },
            {
              "internalType": "bool",
              "name": "sellerConfirmed",
              "type": "bool"
            },
            {
              "internalType": "enum PropertyEscrow.DealStatus",
              "name": "status",
              "type": "uint8"
            },
            {
              "internalType": "uint256",
              "name": "createdAt",
              "type": "uint256"
            }
          ],
          "internalType": "struct PropertyEscrow.Deal",
          "name": "",
          "type": "tuple"
        }
      ],
      "stateMutability": "view",
      "type": "function"
    },
    {
      "inputs": [
        {
          "internalType": "address",
          "name": "account",
          "type": "address"
        }
      ],
      "name": "getPendingWithdrawal",
      "outputs": [
        {
          "internalType": "uint256",
          "name": "",
          "type": "uint256"
        }
      ],
      "stateMutability": "view",
      "type": "function"
    },
    {
      "inputs": [
        {
          "internalType": "uint256",
          "name": "tokenId",
          "type": "uint256"
        }
      ],
      "name": "hasActiveDeal",
      "outputs": [
        {
          "internalType": "bool",
          "name": "",
          "type": "bool"
        }
      ],
      "stateMutability": "view",
      "type": "function"
    },
    {
      "inputs": [
        {
          "internalType": "uint256",
          "name": "tokenId",
          "type": "uint256"
        }
      ],
      "name": "openDeal",
      "outputs": [
        {
          "internalType": "uint256",
          "name": "",
          "type": "uint256"
        }
      ],
      "stateMutability": "nonpayable",
      "type": "function"
    },
    {
      "inputs": [],
      "name": "owner",
      "outputs": [
        {
          "internalType": "address",
          "name": "",
          "type": "address"
        }
      ],
      "stateMutability": "view",
      "type": "function"
    },
    {
      "inputs": [],
      "name": "pause",
      "outputs": [],
      "stateMutability": "nonpayable",
      "type": "function"
    },
    {
      "inputs": [],
      "name": "paused",
      "outputs": [
        {
          "internalType": "bool",
          "name": "",
          "type": "bool"
        }
      ],
      "stateMutability": "view",
      "type": "function"
    },
    {
      "inputs": [],
      "name": "pendingOwner",
      "outputs": [
        {
          "internalType": "address",
          "name": "",
          "type": "address"
        }
      ],
      "stateMutability": "view",
      "type": "function"
    },
    {
      "inputs": [
        {
          "internalType": "address",
          "name": "",
          "type": "address"
        }
      ],
      "name": "pendingWithdrawals",
      "outputs": [
        {
          "internalType": "uint256",
          "name": "",
          "type": "uint256"
        }
      ],
      "stateMutability": "view",
      "type": "function"
    },
    {
      "inputs": [],
      "name": "platformFeeBps",
      "outputs": [
        {
          "internalType": "uint256",
          "name": "",
          "type": "uint256"
        }
      ],
      "stateMutability": "view",
      "type": "function"
    },
    {
      "inputs": [],
      "name": "registry",
      "outputs": [
        {
          "internalType": "contract IPropertyRegistry",
          "name": "",
          "type": "address"
        }
      ],
      "stateMutability": "view",
      "type": "function"
    },
    {
      "inputs": [],
      "name": "renounceOwnership",
      "outputs": [],
      "stateMutability": "nonpayable",
      "type": "function"
    },
    {
      "inputs": [
        {
          "internalType": "uint256",
          "name": "newExpiry",
          "type": "uint256"
        }
      ],
      "name": "setDealExpiry",
      "outputs": [],
      "stateMutability": "nonpayable",
      "type": "function"
    },
    {
      "inputs": [
        {
          "internalType": "uint256",
          "name": "feeBps",
          "type": "uint256"
        },
        {
          "internalType": "address",
          "name": "recipient",
          "type": "address"
        }
      ],
      "name": "setPlatformFee",
      "outputs": [],
      "stateMutability": "nonpayable",
      "type": "function"
    },
    {
      "inputs": [
        {
          "internalType": "uint256",
          "name": "",
          "type": "uint256"
        }
      ],
      "name": "tokenToDeal",
      "outputs": [
        {
          "internalType": "uint256",
          "name": "",
          "type": "uint256"
        }
      ],
      "stateMutability": "view",
      "type": "function"
    },
    {
      "inputs": [],
      "name": "totalEscrowedFunds",
      "outputs": [
        {
          "internalType": "uint256",
          "name": "",
          "type": "uint256"
        }
      ],
      "stateMutability": "view",
      "type": "function"
    },
    {
      "inputs": [
        {
          "internalType": "address",
          "name": "newOwner",
          "type": "address"
        }
      ],
      "name": "transferOwnership",
      "outputs": [],
      "stateMutability": "nonpayable",
      "type": "function"
    },
    {
      "inputs": [],
      "name": "unpause",
      "outputs": [],
      "stateMutability": "nonpayable",
      "type": "function"
    },
    {
      "inputs": [],
      "name": "withdrawFunds",
      "outputs": [],
      "stateMutability": "nonpayable",
      "type": "function"
    }
  ],
  "bytecode": "0x60a060405262093a80600855348015610016575f5ffd5b506040516152803803806152808339818101604052810190610038919061043b565b335f73ffffffffffffffffffffffffffffffffffffffff168173ffffffffffffffffffffffffffffffffffffffff16036100a9575f6040517f1e4fbdf70000000000000000000000000000000000000000000000000000000081526004016100a0919061049a565b60405180910390fd5b6100b88161028160201b60201c565b5060016100d76100cc6102b760201b60201c565b6102e060201b60201c565b5f01819055505f73ffffffffffffffffffffffffffffffffffffffff168373ffffffffffffffffffffffffffffffffffffffff160361014b576040517f08c379a00000000000000000000000000000000000000000000000000000000081526004016101429061050d565b60405180910390fd5b6103e8821115610190576040517f08c379a000000000000000000000000000000000000000000000000000000000815260040161018790610575565b60405180910390fd5b5f73ffffffffffffffffffffffffffffffffffffffff168173ffffffffffffffffffffffffffffffffffffffff16036101fe576040517f08c379a00000000000000000000000000000000000000000000000000000000081526004016101f5906105dd565b60405180910390fd5b8273ffffffffffffffffffffffffffffffffffffffff1660808173ffffffffffffffffffffffffffffffffffffffff16815250508160098190555080600a5f6101000a81548173ffffffffffffffffffffffffffffffffffffffff021916908373ffffffffffffffffffffffffffffffffffffffff1602179055505050506105fb565b60015f6101000a81549073ffffffffffffffffffffffffffffffffffffffff02191690556102b4816102e960201b60201c565b50565b5f7f9b779b17422d0df92223018b32b4d1fa46e071723d6817e2486d003becc55f005f1b905090565b5f819050919050565b5f5f5f9054906101000a900473ffffffffffffffffffffffffffffffffffffffff169050815f5f6101000a81548173ffffffffffffffffffffffffffffffffffffffff021916908373ffffffffffffffffffffffffffffffffffffffff1602179055508173ffffffffffffffffffffffffffffffffffffffff168173ffffffffffffffffffffffffffffffffffffffff167f8be0079c531659141344cd1fd0a4f28419497f9722a3daafe3b4186f6b6457e060405160405180910390a35050565b5f5ffd5b5f73ffffffffffffffffffffffffffffffffffffffff82169050919050565b5f6103d7826103ae565b9050919050565b6103e7816103cd565b81146103f1575f5ffd5b50565b5f81519050610402816103de565b92915050565b5f819050919050565b61041a81610408565b8114610424575f5ffd5b50565b5f8151905061043581610411565b92915050565b5f5f5f60608486031215610452576104516103aa565b5b5f61045f868287016103f4565b935050602061047086828701610427565b9250506040610481868287016103f4565b9150509250925092565b610494816103cd565b82525050565b5f6020820190506104ad5f83018461048b565b92915050565b5f82825260208201905092915050565b7f496e76616c6964207265676973747279206164647265737300000000000000005f82015250565b5f6104f76018836104b3565b9150610502826104c3565b602082019050919050565b5f6020820190508181035f830152610524816104eb565b9050919050565b7f46656520746f6f20686967682c206d61782031302500000000000000000000005f82015250565b5f61055f6015836104b3565b915061056a8261052b565b602082019050919050565b5f6020820190508181035f83015261058c81610553565b9050919050565b7f496e76616c69642066656520726563697069656e7400000000000000000000005f82015250565b5f6105c76015836104b3565b91506105d282610593565b602082019050919050565b5f6020820190508181035f8301526105f4816105bb565b9050919050565b608051614c3561064b5f395f8181610e3c01528181610ff901528181611a3001528181611e130152818161210e0152818161227101528181612355015281816126ab0152612c2a0152614c355ff3fe6080604052600436106101cc575f3560e01c8063839a4641116100f6578063e30c397811610094578063f3e31f8411610063578063f3e31f84146105f7578063f3f4370314610633578063f8b460931461066f578063ffa3ffd4146106ab576101cc565b8063e30c397814610553578063ea3d0b001461057d578063eadb3c9c146105a5578063f2fde38b146105cf576101cc565b8063b4d884f6116100d0578063b4d884f6146104ab578063b6b55f25146104d3578063ccbda9e8146104ef578063cf4cb99b14610517576101cc565b8063839a4641146104415780638456cb591461046b5780638da5cb5b14610481576101cc565b80633f4ba83a1161016e57806379ba50971161013d57806379ba5097146103895780637b1039991461039f5780637ee8b2f8146103c957806382fd5bac14610405576101cc565b80633f4ba83a14610309578063469048401461031f5780635c975abb14610349578063715018a614610373576101cc565b806322dcd13e116101aa57806322dcd13e1461027957806324600fc3146102a357806331ce2a10146102b957806331ea1a39146102e1576101cc565b806303988f84146101d057806311d4475e14610213578063226ec9eb1461024f575b5f5ffd5b3480156101db575f5ffd5b506101f660048036038101906101f191906132d0565b6106e7565b60405161020a9897969594939291906133d6565b60405180910390f35b34801561021e575f5ffd5b50610239600480360381019061023491906132d0565b61078f565b604051610246919061352e565b60405180910390f35b34801561025a575f5ffd5b5061026361094a565b6040516102709190613548565b60405180910390f35b348015610284575f5ffd5b5061028d610950565b60405161029a9190613548565b60405180910390f35b3480156102ae575f5ffd5b506102b7610956565b005b3480156102c4575f5ffd5b506102df60048036038101906102da91906132d0565b610b25565b005b3480156102ec575f5ffd5b50610307600480360381019061030291906132d0565b610bc3565b005b348015610314575f5ffd5b5061031d610f09565b005b34801561032a575f5ffd5b50610333610f1b565b6040516103409190613561565b60405180910390f35b348015610354575f5ffd5b5061035d610f40565b60405161036a919061357a565b60405180910390f35b34801561037e575f5ffd5b50610387610f56565b005b348015610394575f5ffd5b5061039d610f69565b005b3480156103aa575f5ffd5b506103b3610ff7565b6040516103c091906135ee565b60405180910390f35b3480156103d4575f5ffd5b506103ef60048036038101906103ea9190613631565b61101b565b6040516103fc9190613548565b60405180910390f35b348015610410575f5ffd5b5061042b600480360381019061042691906132d0565b611061565b604051610438919061352e565b60405180910390f35b34801561044c575f5ffd5b50610455611216565b6040516104629190613548565b60405180910390f35b348015610476575f5ffd5b5061047f61121c565b005b34801561048c575f5ffd5b5061049561122e565b6040516104a29190613561565b60405180910390f35b3480156104b6575f5ffd5b506104d160048036038101906104cc919061365c565b611255565b005b6104ed60048036038101906104e891906132d0565b6113a9565b005b3480156104fa575f5ffd5b50610515600480360381019061051091906137d6565b6116fc565b005b348015610522575f5ffd5b5061053d600480360381019061053891906132d0565b611b18565b60405161054a919061357a565b60405180910390f35b34801561055e575f5ffd5b50610567611b3e565b6040516105749190613561565b60405180910390f35b348015610588575f5ffd5b506105a3600480360381019061059e91906132d0565b611b66565b005b3480156105b0575f5ffd5b506105b9612010565b6040516105c69190613548565b60405180910390f35b3480156105da575f5ffd5b506105f560048036038101906105f09190613631565b612016565b005b348015610602575f5ffd5b5061061d600480360381019061061891906132d0565b6120c2565b60405161062a9190613548565b60405180910390f35b34801561063e575f5ffd5b5061065960048036038101906106549190613631565b6120d7565b6040516106669190613548565b60405180910390f35b34801561067a575f5ffd5b50610695600480360381019061069091906132d0565b6120ec565b6040516106a29190613548565b60405180910390f35b3480156106b6575f5ffd5b506106d160048036038101906106cc91906132d0565b612790565b6040516106de919061357a565b60405180910390f35b6004602052805f5260405f205f91509050805f015490806001015f9054906101000a900473ffffffffffffffffffffffffffffffffffffffff1690806002015f9054906101000a900473ffffffffffffffffffffffffffffffffffffffff1690806003015490806004015f9054906101000a900460ff16908060040160019054906101000a900460ff16908060040160029054906101000a900460ff16908060050154905088565b61079761320d565b5f60055f8481526020019081526020015f205490505f81036107ee576040517f08c379a00000000000000000000000000000000000000000000000000000000081526004016107e59061388a565b60405180910390fd5b60045f8281526020019081526020015f20604051806101000160405290815f8201548152602001600182015f9054906101000a900473ffffffffffffffffffffffffffffffffffffffff1673ffffffffffffffffffffffffffffffffffffffff1673ffffffffffffffffffffffffffffffffffffffff168152602001600282015f9054906101000a900473ffffffffffffffffffffffffffffffffffffffff1673ffffffffffffffffffffffffffffffffffffffff1673ffffffffffffffffffffffffffffffffffffffff16815260200160038201548152602001600482015f9054906101000a900460ff161515151581526020016004820160019054906101000a900460ff161515151581526020016004820160029054906101000a900460ff16600281111561092257610921613363565b5b600281111561093457610933613363565b5b8152602001600582015481525050915050919050565b60035481565b60095481565b61095e6127ad565b5f60075f3373ffffffffffffffffffffffffffffffffffffffff1673ffffffffffffffffffffffffffffffffffffffff1681526020019081526020015f205490505f81116109e1576040517f08c379a00000000000000000000000000000000000000000000000000000000081526004016109d8906138f2565b60405180910390fd5b5f60075f3373ffffffffffffffffffffffffffffffffffffffff1673ffffffffffffffffffffffffffffffffffffffff1681526020019081526020015f20819055505f3373ffffffffffffffffffffffffffffffffffffffff1682604051610a489061393d565b5f6040518083038185875af1925050503d805f8114610a82576040519150601f19603f3d011682016040523d82523d5f602084013e610a87565b606091505b5050905080610acb576040517f08c379a0000000000000000000000000000000000000000000000000000000008152600401610ac29061399b565b60405180910390fd5b3373ffffffffffffffffffffffffffffffffffffffff167feaff4b37086828766ad3268786972c0cd24259d4c87a80f9d3963a3c3d999b0d83604051610b119190613548565b60405180910390a25050610b236127cf565b565b610b2d6127e9565b620151808110158015610b43575062278d008111155b610b82576040517f08c379a0000000000000000000000000000000000000000000000000000000008152600401610b7990613a03565b60405180910390fd5b806008819055507fd51288cc47fa91b74c14b0f64166478b661c64bce7e9c5c4f8615b0e24597a7581604051610bb89190613548565b60405180910390a150565b805f81118015610bd557506002548111155b610c14576040517f08c379a0000000000000000000000000000000000000000000000000000000008152600401610c0b90613a6b565b60405180910390fd5b813373ffffffffffffffffffffffffffffffffffffffff1660045f8381526020019081526020015f206001015f9054906101000a900473ffffffffffffffffffffffffffffffffffffffff1673ffffffffffffffffffffffffffffffffffffffff1614610cb6576040517f08c379a0000000000000000000000000000000000000000000000000000000008152600401610cad90613ad3565b60405180910390fd5b610cbe6127ad565b610cc6612870565b5f60045f8581526020019081526020015f2090505f6002811115610ced57610cec613363565b5b8160040160029054906101000a900460ff166002811115610d1157610d10613363565b5b14610d51576040517f08c379a0000000000000000000000000000000000000000000000000000000008152600401610d4890613b3b565b60405180910390fd5b5f73ffffffffffffffffffffffffffffffffffffffff16816002015f9054906101000a900473ffffffffffffffffffffffffffffffffffffffff1673ffffffffffffffffffffffffffffffffffffffff1614610de2576040517f08c379a0000000000000000000000000000000000000000000000000000000008152600401610dd990613ba3565b60405180910390fd5b60028160040160026101000a81548160ff02191690836002811115610e0a57610e09613363565b5b02179055505f60065f835f015481526020019081526020015f205f6101000a81548160ff0219169083151502179055507f000000000000000000000000000000000000000000000000000000000000000073ffffffffffffffffffffffffffffffffffffffff16633a1b3d31825f01545f6040518363ffffffff1660e01b8152600401610e98929190613c07565b5f604051808303815f87803b158015610eaf575f5ffd5b505af1158015610ec1573d5f5f3e3d5ffd5b50505050837fa8b8b3efbebafa658fb44a735ae6b22cee3289a25c09ff2a8cd300c915b20132604051610ef390613c78565b60405180910390a250610f046127cf565b505050565b610f116127e9565b610f196128b1565b565b600a5f9054906101000a900473ffffffffffffffffffffffffffffffffffffffff1681565b5f600160149054906101000a900460ff16905090565b610f5e6127e9565b610f675f612913565b565b5f610f72612943565b90508073ffffffffffffffffffffffffffffffffffffffff16610f93611b3e565b73ffffffffffffffffffffffffffffffffffffffff1614610feb57806040517f118cdaa7000000000000000000000000000000000000000000000000000000008152600401610fe29190613561565b60405180910390fd5b610ff481612913565b50565b7f000000000000000000000000000000000000000000000000000000000000000081565b5f60075f8373ffffffffffffffffffffffffffffffffffffffff1673ffffffffffffffffffffffffffffffffffffffff1681526020019081526020015f20549050919050565b61106961320d565b815f8111801561107b57506002548111155b6110ba576040517f08c379a00000000000000000000000000000000000000000000000000000000081526004016110b190613a6b565b60405180910390fd5b60045f8481526020019081526020015f20604051806101000160405290815f8201548152602001600182015f9054906101000a900473ffffffffffffffffffffffffffffffffffffffff1673ffffffffffffffffffffffffffffffffffffffff1673ffffffffffffffffffffffffffffffffffffffff168152602001600282015f9054906101000a900473ffffffffffffffffffffffffffffffffffffffff1673ffffffffffffffffffffffffffffffffffffffff1673ffffffffffffffffffffffffffffffffffffffff16815260200160038201548152602001600482015f9054906101000a900460ff161515151581526020016004820160019054906101000a900460ff161515151581526020016004820160029054906101000a900460ff1660028111156111ee576111ed613363565b5b6002811115611200576111ff613363565b5b8152602001600582015481525050915050919050565b60085481565b6112246127e9565b61122c61294a565b565b5f5f5f9054906101000a900473ffffffffffffffffffffffffffffffffffffffff16905090565b61125d6127e9565b6103e88211156112a2576040517f08c379a000000000000000000000000000000000000000000000000000000000815260040161129990613ce0565b60405180910390fd5b5f73ffffffffffffffffffffffffffffffffffffffff168173ffffffffffffffffffffffffffffffffffffffff1603611310576040517f08c379a000000000000000000000000000000000000000000000000000000000815260040161130790613d48565b60405180910390fd5b8160098190555080600a5f6101000a81548173ffffffffffffffffffffffffffffffffffffffff021916908373ffffffffffffffffffffffffffffffffffffffff1602179055508073ffffffffffffffffffffffffffffffffffffffff167ff0c09f5238364083d828870e877edaebb364d9f19f4093fdbf24e486bbdca4848360405161139d9190613548565b60405180910390a25050565b805f811180156113bb57506002548111155b6113fa576040517f08c379a00000000000000000000000000000000000000000000000000000000081526004016113f190613a6b565b60405180910390fd5b611402612870565b61140a6127ad565b5f60045f8481526020019081526020015f2090505f600281111561143157611430613363565b5b8160040160029054906101000a900460ff16600281111561145557611454613363565b5b14611495576040517f08c379a000000000000000000000000000000000000000000000000000000000815260040161148c90613b3b565b60405180910390fd5b5f73ffffffffffffffffffffffffffffffffffffffff16816002015f9054906101000a900473ffffffffffffffffffffffffffffffffffffffff1673ffffffffffffffffffffffffffffffffffffffff1614611526576040517f08c379a000000000000000000000000000000000000000000000000000000000815260040161151d90613ba3565b60405180910390fd5b8060030154341461156c576040517f08c379a000000000000000000000000000000000000000000000000000000000815260040161156390613db0565b60405180910390fd5b806001015f9054906101000a900473ffffffffffffffffffffffffffffffffffffffff1673ffffffffffffffffffffffffffffffffffffffff163373ffffffffffffffffffffffffffffffffffffffff16036115fd576040517f08c379a00000000000000000000000000000000000000000000000000000000081526004016115f490613e18565b60405180910390fd5b600854816005015461160f9190613e63565b421115611651576040517f08c379a000000000000000000000000000000000000000000000000000000000815260040161164890613ee0565b60405180910390fd5b33816002015f6101000a81548173ffffffffffffffffffffffffffffffffffffffff021916908373ffffffffffffffffffffffffffffffffffffffff1602179055503460035f8282546116a49190613e63565b925050819055503373ffffffffffffffffffffffffffffffffffffffff16837f3afec170c849ada92fb1d7eb3a01019f692be764858f69d345a7ebf9e47e596860405160405180910390a3506116f86127cf565b5050565b815f8111801561170e57506002548111155b61174d576040517f08c379a000000000000000000000000000000000000000000000000000000000815260040161174490613a6b565b60405180910390fd5b823373ffffffffffffffffffffffffffffffffffffffff1660045f8381526020019081526020015f206002015f9054906101000a900473ffffffffffffffffffffffffffffffffffffffff1673ffffffffffffffffffffffffffffffffffffffff16146117ef576040517f08c379a00000000000000000000000000000000000000000000000000000000081526004016117e690613f48565b60405180910390fd5b6117f7612870565b6117ff6127ad565b5f60045f8681526020019081526020015f2090505f600281111561182657611825613363565b5b8160040160029054906101000a900460ff16600281111561184a57611849613363565b5b1461188a576040517f08c379a000000000000000000000000000000000000000000000000000000000815260040161188190613b3b565b60405180910390fd5b806004015f9054906101000a900460ff16156118db576040517f08c379a00000000000000000000000000000000000000000000000000000000081526004016118d290613fb0565b60405180910390fd5b60085481600501546118ed9190613e63565b42111561192f576040517f08c379a000000000000000000000000000000000000000000000000000000000815260040161192690613ee0565b60405180910390fd5b5f85825f0154836001015f9054906101000a900473ffffffffffffffffffffffffffffffffffffffff16338560030154604051602001611973959493929190614033565b6040516020818303038152906040528051906020012090505f611995826129ac565b90505f6119a282886129df565b90503373ffffffffffffffffffffffffffffffffffffffff168173ffffffffffffffffffffffffffffffffffffffff1614611a12576040517f08c379a0000000000000000000000000000000000000000000000000000000008152600401611a09906140db565b60405180910390fd5b6001846004015f6101000a81548160ff0219169083151502179055507f000000000000000000000000000000000000000000000000000000000000000073ffffffffffffffffffffffffffffffffffffffff166358131af7855f0154896040518363ffffffff1660e01b8152600401611a8c929190614159565b5f604051808303815f87803b158015611aa3575f5ffd5b505af1158015611ab5573d5f5f3e3d5ffd5b505050503373ffffffffffffffffffffffffffffffffffffffff16887f7749be28cf64fe132c4475feb0aec4133f13f95a84f1869a42911a8a7a0f0f3160405160405180910390a3611b0688612a09565b50505050611b126127cf565b50505050565b5f60065f8381526020019081526020015f205f9054906101000a900460ff169050919050565b5f60015f9054906101000a900473ffffffffffffffffffffffffffffffffffffffff16905090565b805f81118015611b7857506002548111155b611bb7576040517f08c379a0000000000000000000000000000000000000000000000000000000008152600401611bae90613a6b565b60405180910390fd5b611bbf6127ad565b5f60045f8481526020019081526020015f2090505f6002811115611be657611be5613363565b5b8160040160029054906101000a900460ff166002811115611c0a57611c09613363565b5b14611c4a576040517f08c379a0000000000000000000000000000000000000000000000000000000008152600401611c4190613b3b565b60405180910390fd5b806001015f9054906101000a900473ffffffffffffffffffffffffffffffffffffffff1673ffffffffffffffffffffffffffffffffffffffff163373ffffffffffffffffffffffffffffffffffffffff161480611cf55750806002015f9054906101000a900473ffffffffffffffffffffffffffffffffffffffff1673ffffffffffffffffffffffffffffffffffffffff163373ffffffffffffffffffffffffffffffffffffffff16145b611d34576040517f08c379a0000000000000000000000000000000000000000000000000000000008152600401611d2b906141d1565b60405180910390fd5b6008548160050154611d469190613e63565b4211611d87576040517f08c379a0000000000000000000000000000000000000000000000000000000008152600401611d7e90614239565b60405180910390fd5b60028160040160026101000a81548160ff02191690836002811115611daf57611dae613363565b5b02179055505f60065f835f015481526020019081526020015f205f6101000a81548160ff0219169083151502179055505f816003015490505f82600301819055505f811115611e11578060035f828254611e099190614257565b925050819055505b7f000000000000000000000000000000000000000000000000000000000000000073ffffffffffffffffffffffffffffffffffffffff16633a1b3d31835f01545f6040518363ffffffff1660e01b8152600401611e6f929190613c07565b5f604051808303815f87803b158015611e86575f5ffd5b505af1158015611e98573d5f5f3e3d5ffd5b50505050837fa8b8b3efbebafa658fb44a735ae6b22cee3289a25c09ff2a8cd300c915b20132604051611eca90613ee0565b60405180910390a25f73ffffffffffffffffffffffffffffffffffffffff16826002015f9054906101000a900473ffffffffffffffffffffffffffffffffffffffff1673ffffffffffffffffffffffffffffffffffffffff1614158015611f3057505f81115b15612002575f826002015f9054906101000a900473ffffffffffffffffffffffffffffffffffffffff1673ffffffffffffffffffffffffffffffffffffffff1682604051611f7d9061393d565b5f6040518083038185875af1925050503d805f8114611fb7576040519150601f19603f3d011682016040523d82523d5f602084013e611fbc565b606091505b5050905080612000576040517f08c379a0000000000000000000000000000000000000000000000000000000008152600401611ff7906142d4565b60405180910390fd5b505b505061200c6127cf565b5050565b60025481565b61201e6127e9565b8060015f6101000a81548173ffffffffffffffffffffffffffffffffffffffff021916908373ffffffffffffffffffffffffffffffffffffffff1602179055508073ffffffffffffffffffffffffffffffffffffffff1661207d61122e565b73ffffffffffffffffffffffffffffffffffffffff167f38d16b8cac22d99fc7c124b9cd0de2d3fa1faef420bfe791d8c362d765e2270060405160405180910390a350565b6005602052805f5260405f205f915090505481565b6007602052805f5260405f205f915090505481565b5f6120f5612870565b3373ffffffffffffffffffffffffffffffffffffffff167f000000000000000000000000000000000000000000000000000000000000000073ffffffffffffffffffffffffffffffffffffffff16636352211e846040518263ffffffff1660e01b81526004016121659190613548565b602060405180830381865afa158015612180573d5f5f3e3d5ffd5b505050506040513d601f19601f820116820180604052508101906121a49190614306565b73ffffffffffffffffffffffffffffffffffffffff16146121fa576040517f08c379a00000000000000000000000000000000000000000000000000000000081526004016121f19061437b565b60405180910390fd5b60065f8381526020019081526020015f205f9054906101000a900460ff1615612258576040517f08c379a000000000000000000000000000000000000000000000000000000000815260040161224f90614409565b60405180910390fd5b3073ffffffffffffffffffffffffffffffffffffffff167f000000000000000000000000000000000000000000000000000000000000000073ffffffffffffffffffffffffffffffffffffffff1663b909acc56040518163ffffffff1660e01b8152600401602060405180830381865afa1580156122d8573d5f5f3e3d5ffd5b505050506040513d601f19601f820116820180604052508101906122fc9190614306565b73ffffffffffffffffffffffffffffffffffffffff1614612352576040517f08c379a000000000000000000000000000000000000000000000000000000000815260040161234990614497565b60405180910390fd5b5f7f000000000000000000000000000000000000000000000000000000000000000073ffffffffffffffffffffffffffffffffffffffff166332665ffb846040518263ffffffff1660e01b81526004016123ac9190613548565b5f60405180830381865afa1580156123c6573d5f5f3e3d5ffd5b505050506040513d5f823e3d601f19601f820116820180604052508101906123ee91906148e0565b90505f600281111561240357612402613363565b5b816101200151600281111561241b5761241a613363565b5b1461245b576040517f08c379a000000000000000000000000000000000000000000000000000000000815260040161245290614971565b60405180910390fd5b5f8160800151116124a1576040517f08c379a0000000000000000000000000000000000000000000000000000000008152600401612498906149d9565b60405180910390fd5b60025f8154809291906124b3906149f7565b91905055505f60025490506040518061010001604052808581526020013373ffffffffffffffffffffffffffffffffffffffff1681526020015f73ffffffffffffffffffffffffffffffffffffffff168152602001836080015181526020015f151581526020016001151581526020015f600281111561253657612535613363565b5b81526020014281525060045f8381526020019081526020015f205f820151815f01556020820151816001015f6101000a81548173ffffffffffffffffffffffffffffffffffffffff021916908373ffffffffffffffffffffffffffffffffffffffff1602179055506040820151816002015f6101000a81548173ffffffffffffffffffffffffffffffffffffffff021916908373ffffffffffffffffffffffffffffffffffffffff160217905550606082015181600301556080820151816004015f6101000a81548160ff02191690831515021790555060a08201518160040160016101000a81548160ff02191690831515021790555060c08201518160040160026101000a81548160ff0219169083600281111561265857612657613363565b5b021790555060e082015181600501559050508060055f8681526020019081526020015f2081905550600160065f8681526020019081526020015f205f6101000a81548160ff0219169083151502179055507f000000000000000000000000000000000000000000000000000000000000000073ffffffffffffffffffffffffffffffffffffffff16633a1b3d318560016040518363ffffffff1660e01b8152600401612705929190613c07565b5f604051808303815f87803b15801561271c575f5ffd5b505af115801561272e573d5f5f3e3d5ffd5b505050503373ffffffffffffffffffffffffffffffffffffffff1684827fd03c253ac07c258c871bcbf3e1a8864bbdb266b37ae278630ac1f7b9e9d3b95e856080015160405161277e9190613548565b60405180910390a48092505050919050565b6006602052805f5260405f205f915054906101000a900460ff1681565b6127b5612ddf565b60026127c76127c2612e20565b612e49565b5f0181905550565b60016127e16127dc612e20565b612e49565b5f0181905550565b6127f1612943565b73ffffffffffffffffffffffffffffffffffffffff1661280f61122e565b73ffffffffffffffffffffffffffffffffffffffff161461286e57612832612943565b6040517f118cdaa70000000000000000000000000000000000000000000000000000000081526004016128659190613561565b60405180910390fd5b565b612878610f40565b156128af576040517fd93c066500000000000000000000000000000000000000000000000000000000815260040160405180910390fd5b565b6128b9612e52565b5f600160146101000a81548160ff0219169083151502179055507f5db9ee0a495bf2e6ff9c91a7834c1ba4fdd244a5e8aa4e537bd38aeae4b073aa6128fc612943565b6040516129099190613561565b60405180910390a1565b60015f6101000a81549073ffffffffffffffffffffffffffffffffffffffff021916905561294081612e92565b50565b5f33905090565b612952612870565b60018060146101000a81548160ff0219169083151502179055507f62e78cea01bee320cd4e420270b5ea74000d11b0c9f74754ebdbfc544b05a258612995612943565b6040516129a29190613561565b60405180910390a1565b5f7f19457468657265756d205369676e6564204d6573736167653a0a3332000000005f5281601c52603c5f209050919050565b5f5f5f5f6129ed8686612f53565b9250925092506129fd8282612fa8565b82935050505092915050565b5f60045f8381526020019081526020015f2090508060040160019054906101000a900460ff168015612a485750806004015f9054906101000a900460ff165b612a87576040517f08c379a0000000000000000000000000000000000000000000000000000000008152600401612a7e90614a88565b60405180910390fd5b60018160040160026101000a81548160ff02191690836002811115612aaf57612aae613363565b5b02179055505f60065f835f015481526020019081526020015f205f6101000a81548160ff0219169083151502179055505f816003015490505f82600301819055508060035f828254612b019190614257565b925050819055505f61271060095483612b1a9190614aa6565b612b249190614b14565b90505f8183612b339190614257565b90508060075f866001015f9054906101000a900473ffffffffffffffffffffffffffffffffffffffff1673ffffffffffffffffffffffffffffffffffffffff1673ffffffffffffffffffffffffffffffffffffffff1681526020019081526020015f205f828254612ba49190613e63565b925050819055505f821115612c28578160075f600a5f9054906101000a900473ffffffffffffffffffffffffffffffffffffffff1673ffffffffffffffffffffffffffffffffffffffff1673ffffffffffffffffffffffffffffffffffffffff1681526020019081526020015f205f828254612c209190613e63565b925050819055505b7f000000000000000000000000000000000000000000000000000000000000000073ffffffffffffffffffffffffffffffffffffffff1663a59f6ca3855f0154866001015f9054906101000a900473ffffffffffffffffffffffffffffffffffffffff16876002015f9054906101000a900473ffffffffffffffffffffffffffffffffffffffff166040518463ffffffff1660e01b8152600401612cce93929190614b44565b5f604051808303815f87803b158015612ce5575f5ffd5b505af1158015612cf7573d5f5f3e3d5ffd5b50505050836002015f9054906101000a900473ffffffffffffffffffffffffffffffffffffffff1673ffffffffffffffffffffffffffffffffffffffff16845f0154867f4c64a78d82982b8bfbb5b3bc9a6e8b4e024bb84db4aaf997d36667cd611183dc60405160405180910390a4836001015f9054906101000a900473ffffffffffffffffffffffffffffffffffffffff1673ffffffffffffffffffffffffffffffffffffffff16857f2300a73f1cda2df8a72bbf531a1e8dea67d05e38e41e44ee8def9c4c939e930183604051612dd09190613548565b60405180910390a35050505050565b612de761310a565b15612e1e576040517f3ee5aeb500000000000000000000000000000000000000000000000000000000815260040160405180910390fd5b565b5f7f9b779b17422d0df92223018b32b4d1fa46e071723d6817e2486d003becc55f005f1b905090565b5f819050919050565b612e5a610f40565b612e90576040517f8dfc202b00000000000000000000000000000000000000000000000000000000815260040160405180910390fd5b565b5f5f5f9054906101000a900473ffffffffffffffffffffffffffffffffffffffff169050815f5f6101000a81548173ffffffffffffffffffffffffffffffffffffffff021916908373ffffffffffffffffffffffffffffffffffffffff1602179055508173ffffffffffffffffffffffffffffffffffffffff168173ffffffffffffffffffffffffffffffffffffffff167f8be0079c531659141344cd1fd0a4f28419497f9722a3daafe3b4186f6b6457e060405160405180910390a35050565b5f5f5f6041845103612f93575f5f5f602087015192506040870151915060608701515f1a9050612f8588828585613126565b955095509550505050612fa1565b5f600285515f1b9250925092505b9250925092565b5f6003811115612fbb57612fba613363565b5b826003811115612fce57612fcd613363565b5b03156131065760016003811115612fe857612fe7613363565b5b826003811115612ffb57612ffa613363565b5b03613032576040517ff645eedf00000000000000000000000000000000000000000000000000000000815260040160405180910390fd5b6002600381111561304657613045613363565b5b82600381111561305957613058613363565b5b0361309d57805f1c6040517ffce698f70000000000000000000000000000000000000000000000000000000081526004016130949190613548565b60405180910390fd5b6003808111156130b0576130af613363565b5b8260038111156130c3576130c2613363565b5b0361310557806040517fd78bce0c0000000000000000000000000000000000000000000000000000000081526004016130fc9190614b88565b60405180910390fd5b5b5050565b5f600261311d613118612e20565b612e49565b5f015414905090565b5f5f5f7f7fffffffffffffffffffffffffffffff5d576e7357a4501ddfe92f46681b20a0845f1c1115613162575f600385925092509250613203565b5f6001888888886040515f81526020016040526040516131859493929190614bbc565b6020604051602081039080840390855afa1580156131a5573d5f5f3e3d5ffd5b5050506020604051035190505f73ffffffffffffffffffffffffffffffffffffffff168173ffffffffffffffffffffffffffffffffffffffff16036131f6575f60015f5f1b93509350935050613203565b805f5f5f1b935093509350505b9450945094915050565b6040518061010001604052805f81526020015f73ffffffffffffffffffffffffffffffffffffffff1681526020015f73ffffffffffffffffffffffffffffffffffffffff1681526020015f81526020015f151581526020015f151581526020015f60028111156132805761327f613363565b5b81526020015f81525090565b5f604051905090565b5f5ffd5b5f5ffd5b5f819050919050565b6132af8161329d565b81146132b9575f5ffd5b50565b5f813590506132ca816132a6565b92915050565b5f602082840312156132e5576132e4613295565b5b5f6132f2848285016132bc565b91505092915050565b6133048161329d565b82525050565b5f73ffffffffffffffffffffffffffffffffffffffff82169050919050565b5f6133338261330a565b9050919050565b61334381613329565b82525050565b5f8115159050919050565b61335d81613349565b82525050565b7f4e487b71000000000000000000000000000000000000000000000000000000005f52602160045260245ffd5b600381106133a1576133a0613363565b5b50565b5f8190506133b182613390565b919050565b5f6133c0826133a4565b9050919050565b6133d0816133b6565b82525050565b5f610100820190506133ea5f83018b6132fb565b6133f7602083018a61333a565b613404604083018961333a565b61341160608301886132fb565b61341e6080830187613354565b61342b60a0830186613354565b61343860c08301856133c7565b61344560e08301846132fb565b9998505050505050505050565b61345b8161329d565b82525050565b61346a81613329565b82525050565b61347981613349565b82525050565b613488816133b6565b82525050565b61010082015f8201516134a35f850182613452565b5060208201516134b66020850182613461565b5060408201516134c96040850182613461565b5060608201516134dc6060850182613452565b5060808201516134ef6080850182613470565b5060a082015161350260a0850182613470565b5060c082015161351560c085018261347f565b5060e082015161352860e0850182613452565b50505050565b5f610100820190506135425f83018461348e565b92915050565b5f60208201905061355b5f8301846132fb565b92915050565b5f6020820190506135745f83018461333a565b92915050565b5f60208201905061358d5f830184613354565b92915050565b5f819050919050565b5f6135b66135b16135ac8461330a565b613593565b61330a565b9050919050565b5f6135c78261359c565b9050919050565b5f6135d8826135bd565b9050919050565b6135e8816135ce565b82525050565b5f6020820190506136015f8301846135df565b92915050565b61361081613329565b811461361a575f5ffd5b50565b5f8135905061362b81613607565b92915050565b5f6020828403121561364657613645613295565b5b5f6136538482850161361d565b91505092915050565b5f5f6040838503121561367257613671613295565b5b5f61367f858286016132bc565b92505060206136908582860161361d565b9150509250929050565b5f5ffd5b5f5ffd5b5f601f19601f8301169050919050565b7f4e487b71000000000000000000000000000000000000000000000000000000005f52604160045260245ffd5b6136e8826136a2565b810181811067ffffffffffffffff82111715613707576137066136b2565b5b80604052505050565b5f61371961328c565b905061372582826136df565b919050565b5f67ffffffffffffffff821115613744576137436136b2565b5b61374d826136a2565b9050602081019050919050565b828183375f83830152505050565b5f61377a6137758461372a565b613710565b9050828152602081018484840111156137965761379561369e565b5b6137a184828561375a565b509392505050565b5f82601f8301126137bd576137bc61369a565b5b81356137cd848260208601613768565b91505092915050565b5f5f604083850312156137ec576137eb613295565b5b5f6137f9858286016132bc565b925050602083013567ffffffffffffffff81111561381a57613819613299565b5b613826858286016137a9565b9150509250929050565b5f82825260208201905092915050565b7f4e6f206465616c20666f756e6420666f72207468697320746f6b656e000000005f82015250565b5f613874601c83613830565b915061387f82613840565b602082019050919050565b5f6020820190508181035f8301526138a181613868565b9050919050565b7f4e6f2066756e647320746f2077697468647261770000000000000000000000005f82015250565b5f6138dc601483613830565b91506138e7826138a8565b602082019050919050565b5f6020820190508181035f830152613909816138d0565b9050919050565b5f81905092915050565b50565b5f6139285f83613910565b91506139338261391a565b5f82019050919050565b5f6139478261391d565b9150819050919050565b7f5769746864726177616c206661696c65640000000000000000000000000000005f82015250565b5f613985601183613830565b915061399082613951565b602082019050919050565b5f6020820190508181035f8301526139b281613979565b9050919050565b7f4f7574206f662072616e676500000000000000000000000000000000000000005f82015250565b5f6139ed600c83613830565b91506139f8826139b9565b602082019050919050565b5f6020820190508181035f830152613a1a816139e1565b9050919050565b7f4465616c20646f6573206e6f74206578697374000000000000000000000000005f82015250565b5f613a55601383613830565b9150613a6082613a21565b602082019050919050565b5f6020820190508181035f830152613a8281613a49565b9050919050565b7f4e6f74207468652073656c6c65720000000000000000000000000000000000005f82015250565b5f613abd600e83613830565b9150613ac882613a89565b602082019050919050565b5f6020820190508181035f830152613aea81613ab1565b9050919050565b7f4465616c206e6f74206f70656e000000000000000000000000000000000000005f82015250565b5f613b25600d83613830565b9150613b3082613af1565b602082019050919050565b5f6020820190508181035f830152613b5281613b19565b9050919050565b7f427579657220616c7265616479206465706f73697465640000000000000000005f82015250565b5f613b8d601783613830565b9150613b9882613b59565b602082019050919050565b5f6020820190508181035f830152613bba81613b81565b9050919050565b60038110613bd257613bd1613363565b5b50565b5f819050613be282613bc1565b919050565b5f613bf182613bd5565b9050919050565b613c0181613be7565b82525050565b5f604082019050613c1a5f8301856132fb565b613c276020830184613bf8565b9392505050565b7f43616e63656c6c65642062792073656c6c6572000000000000000000000000005f82015250565b5f613c62601383613830565b9150613c6d82613c2e565b602082019050919050565b5f6020820190508181035f830152613c8f81613c56565b9050919050565b7f46656520746f6f206869676800000000000000000000000000000000000000005f82015250565b5f613cca600c83613830565b9150613cd582613c96565b602082019050919050565b5f6020820190508181035f830152613cf781613cbe565b9050919050565b7f496e76616c696420726563697069656e740000000000000000000000000000005f82015250565b5f613d32601183613830565b9150613d3d82613cfe565b602082019050919050565b5f6020820190508181035f830152613d5f81613d26565b9050919050565b7f57726f6e672045544820616d6f756e74000000000000000000000000000000005f82015250565b5f613d9a601083613830565b9150613da582613d66565b602082019050919050565b5f6020820190508181035f830152613dc781613d8e565b9050919050565b7f53656c6c65722063616e6e6f74206265206275796572000000000000000000005f82015250565b5f613e02601683613830565b9150613e0d82613dce565b602082019050919050565b5f6020820190508181035f830152613e2f81613df6565b9050919050565b7f4e487b71000000000000000000000000000000000000000000000000000000005f52601160045260245ffd5b5f613e6d8261329d565b9150613e788361329d565b9250828201905080821115613e9057613e8f613e36565b5b92915050565b7f4465616c206578706972656400000000000000000000000000000000000000005f82015250565b5f613eca600c83613830565b9150613ed582613e96565b602082019050919050565b5f6020820190508181035f830152613ef781613ebe565b9050919050565b7f4e6f7420746865206275796572000000000000000000000000000000000000005f82015250565b5f613f32600d83613830565b9150613f3d82613efe565b602082019050919050565b5f6020820190508181035f830152613f5f81613f26565b9050919050565b7f416c7265616479207369676e65640000000000000000000000000000000000005f82015250565b5f613f9a600e83613830565b9150613fa582613f66565b602082019050919050565b5f6020820190508181035f830152613fc781613f8e565b9050919050565b5f819050919050565b613fe8613fe38261329d565b613fce565b82525050565b5f8160601b9050919050565b5f61400482613fee565b9050919050565b5f61401582613ffa565b9050919050565b61402d61402882613329565b61400b565b82525050565b5f61403e8288613fd7565b60208201915061404e8287613fd7565b60208201915061405e828661401c565b60148201915061406e828561401c565b60148201915061407e8284613fd7565b6020820191508190509695505050505050565b7f496e76616c6964206275796572207369676e61747572650000000000000000005f82015250565b5f6140c5601783613830565b91506140d082614091565b602082019050919050565b5f6020820190508181035f8301526140f2816140b9565b9050919050565b5f81519050919050565b5f82825260208201905092915050565b8281835e5f83830152505050565b5f61412b826140f9565b6141358185614103565b9350614145818560208601614113565b61414e816136a2565b840191505092915050565b5f60408201905061416c5f8301856132fb565b818103602083015261417e8184614121565b90509392505050565b7f4e6f74206120706172747920746f2074686973206465616c00000000000000005f82015250565b5f6141bb601883613830565b91506141c682614187565b602082019050919050565b5f6020820190508181035f8301526141e8816141af565b9050919050565b7f4e6f7420796574206578706972656400000000000000000000000000000000005f82015250565b5f614223600f83613830565b915061422e826141ef565b602082019050919050565b5f6020820190508181035f83015261425081614217565b9050919050565b5f6142618261329d565b915061426c8361329d565b925082820390508181111561428457614283613e36565b5b92915050565b7f526566756e64206661696c6564000000000000000000000000000000000000005f82015250565b5f6142be600d83613830565b91506142c98261428a565b602082019050919050565b5f6020820190508181035f8301526142eb816142b2565b9050919050565b5f8151905061430081613607565b92915050565b5f6020828403121561431b5761431a613295565b5b5f614328848285016142f2565b91505092915050565b7f4e6f74207468652070726f7065727479206f776e6572000000000000000000005f82015250565b5f614365601683613830565b915061437082614331565b602082019050919050565b5f6020820190508181035f83015261439281614359565b9050919050565b7f416374697665206465616c2065786973747320666f72207468697320746f6b655f8201527f6e00000000000000000000000000000000000000000000000000000000000000602082015250565b5f6143f3602183613830565b91506143fe82614399565b604082019050919050565b5f6020820190508181035f830152614420816143e7565b9050919050565b7f5468697320636f6e7472616374206973206e6f742073657420617320657363725f8201527f6f77206f6e207265676973747279000000000000000000000000000000000000602082015250565b5f614481602e83613830565b915061448c82614427565b604082019050919050565b5f6020820190508181035f8301526144ae81614475565b9050919050565b5f5ffd5b5f5ffd5b5f67ffffffffffffffff8211156144d7576144d66136b2565b5b6144e0826136a2565b9050602081019050919050565b5f6144ff6144fa846144bd565b613710565b90508281526020810184848401111561451b5761451a61369e565b5b614526848285614113565b509392505050565b5f82601f8301126145425761454161369a565b5b81516145528482602086016144ed565b91505092915050565b5f81519050614569816132a6565b92915050565b5f819050919050565b6145818161456f565b811461458b575f5ffd5b50565b5f8151905061459c81614578565b92915050565b5f6145b46145af8461372a565b613710565b9050828152602081018484840111156145d0576145cf61369e565b5b6145db848285614113565b509392505050565b5f82601f8301126145f7576145f661369a565b5b81516146078482602086016145a2565b91505092915050565b6003811061461c575f5ffd5b50565b5f8151905061462d81614610565b92915050565b5f67ffffffffffffffff82111561464d5761464c6136b2565b5b602082029050602081019050919050565b5f5ffd5b5f61467461466f84614633565b613710565b905080838252602082019050602084028301858111156146975761469661465e565b5b835b818110156146c057806146ac88826142f2565b845260208401935050602081019050614699565b5050509392505050565b5f82601f8301126146de576146dd61369a565b5b81516146ee848260208601614662565b91505092915050565b5f610160828403121561470d5761470c6144b5565b5b614718610160613710565b90505f82015167ffffffffffffffff811115614737576147366144b9565b5b6147438482850161452e565b5f83015250602082015167ffffffffffffffff811115614766576147656144b9565b5b6147728482850161452e565b602083015250604082015167ffffffffffffffff811115614796576147956144b9565b5b6147a28482850161452e565b604083015250606082015167ffffffffffffffff8111156147c6576147c56144b9565b5b6147d28482850161452e565b60608301525060806147e68482850161455b565b60808301525060a082015167ffffffffffffffff81111561480a576148096144b9565b5b6148168482850161452e565b60a08301525060c061482a8482850161458e565b60c08301525060e082015167ffffffffffffffff81111561484e5761484d6144b9565b5b61485a848285016145e3565b60e08301525061010082015167ffffffffffffffff81111561487f5761487e6144b9565b5b61488b848285016145e3565b610100830152506101206148a18482850161461f565b6101208301525061014082015167ffffffffffffffff8111156148c7576148c66144b9565b5b6148d3848285016146ca565b6101408301525092915050565b5f602082840312156148f5576148f4613295565b5b5f82015167ffffffffffffffff81111561491257614911613299565b5b61491e848285016146f7565b91505092915050565b7f50726f7065727479206e6f7420617661696c61626c65000000000000000000005f82015250565b5f61495b601683613830565b915061496682614927565b602082019050919050565b5f6020820190508181035f8301526149888161494f565b9050919050565b7f496e76616c6964207072696365000000000000000000000000000000000000005f82015250565b5f6149c3600d83613830565b91506149ce8261498f565b602082019050919050565b5f6020820190508181035f8301526149f0816149b7565b9050919050565b5f614a018261329d565b91507fffffffffffffffffffffffffffffffffffffffffffffffffffffffffffffffff8203614a3357614a32613e36565b5b600182019050919050565b7f4e6f742066756c6c79207369676e6564000000000000000000000000000000005f82015250565b5f614a72601083613830565b9150614a7d82614a3e565b602082019050919050565b5f6020820190508181035f830152614a9f81614a66565b9050919050565b5f614ab08261329d565b9150614abb8361329d565b9250828202614ac98161329d565b91508282048414831517614ae057614adf613e36565b5b5092915050565b7f4e487b71000000000000000000000000000000000000000000000000000000005f52601260045260245ffd5b5f614b1e8261329d565b9150614b298361329d565b925082614b3957614b38614ae7565b5b828204905092915050565b5f606082019050614b575f8301866132fb565b614b64602083018561333a565b614b71604083018461333a565b949350505050565b614b828161456f565b82525050565b5f602082019050614b9b5f830184614b79565b92915050565b5f60ff82169050919050565b614bb681614ba1565b82525050565b5f608082019050614bcf5f830187614b79565b614bdc6020830186614bad565b614be96040830185614b79565b614bf66060830184614b79565b9594505050505056fea2646970667358221220c562fd006758e804a5bc05435fb346587c3c2d73a7987ad59ac706794258f33c64736f6c634300081c0033",
  "linkReferences": {},
  "deployedLinkReferences": {},
  "immutableReferences": {
    "8685": [
      {
        "length": 32,
        "start": 3644
      },
      {
        "length": 32,
        "start": 4089
      },
      {
        "length": 32,
        "start": 6704
      },
      {
        "length": 32,
        "start": 7699
      },
      {
        "length": 32,
        "start": 8462
      },
      {
        "length": 32,
        "start": 8817
      },
      {
        "length": 32,
        "start": 9045
      },
      {
        "length": 32,
        "start": 9899
      },
      {
        "length": 32,
        "start": 11306
      }
    ]
  },
  "inputSourceName": "project/contracts/PropertyEscrow.sol",
  "buildInfoId": "solc-0_8_28-300d38dc1e674d3f447dd8a65448a7cbebd6ceac"
}