{
  "_format": "hh3-artifact-1",
  "contractName": "PropertyRegistry",
  "sourceName": "contracts/PropertyRegistry.sol",
  "abi": [
    {
      "inputs": [],
      "stateMutability": "nonpayable",
      "type": "constructor"
    },
    {
      "inputs": [],
      "name": "ECDSAInvalidSignature",
      "type": "error"
    },
    {
      "inputs": [
        {
          "internalType": "uint256",
          "name": "length",
          "type": "uint256"
        }
      ],
      "name": "ECDSAInvalidSignatureLength",
      "type": "error"
    },
    {
      "inputs": [
        {
          "internalType": "bytes32",
          "name": "s",
          "type": "bytes32"
        }
      ],
      "name": "ECDSAInvalidSignatureS",
      "type": "error"
    },
    {
      "inputs": [
        {
          "internalType": "address",
          "name": "sender",
          "type": "address"
        },
        {
          "internalType": "uint256",
          "name": "tokenId",
          "type": "uint256"
        },
        {
          "internalType": "address",
          "name": "owner",
          "type": "address"
        }
      ],
      "name": "ERC721IncorrectOwner",
      "type": "error"
    },
    {
      "inputs": [
        {
          "internalType": "address",
          "name": "operator",
          "type": "address"
        },
        {
          "internalType": "uint256",
          "name": "tokenId",
          "type": "uint256"
        }
      ],
      "name": "ERC721InsufficientApproval",
      "type": "error"
    },
    {
      "inputs": [
        {
          "internalType": "address",
          "name": "approver",
          "type": "address"
        }
      ],
      "name": "ERC721InvalidApprover",
      "type": "error"
    },
    {
      "inputs": [
        {
          "internalType": "address",
          "name": "operator",
          "type": "address"
        }
      ],
      "name": "ERC721InvalidOperator",
      "type": "error"
    },
    {
      "inputs": [
        {
          "internalType": "address",
          "name": "owner",
          "type": "address"
        }
      ],
      "name": "ERC721InvalidOwner",
      "type": "error"
    },
    {
      "inputs": [
        {
          "internalType": "address",
          "name": "receiver",
          "type": "address"
        }
      ],
      "name": "ERC721InvalidReceiver",
      "type": "error"
    },
    {
      "inputs": [
        {
          "internalType": "address",
          "name": "sender",
          "type": "address"
        }
      ],
      "name": "ERC721InvalidSender",
      "type": "error"
    },
    {
      "inputs": [
        {
          "internalType": "uint256",
          "name": "tokenId",
          "type": "uint256"
        }
      ],
      "name": "ERC721NonexistentToken",
      "type": "error"
    },
    {
      "inputs": [],
      "name": "EnforcedPause",
      "type": "error"
    },
    {
      "inputs": [],
      "name": "ExpectedPause",
      "type": "error"
    },
    {
      "inputs": [
        {
          "internalType": "address",
          "name": "owner",
          "type": "address"
        }
      ],
      "name": "OwnableInvalidOwner",
      "type": "error"
    },
    {
      "inputs": [
        {
          "internalType": "address",
          "name": "account",
          "type": "address"
        }
      ],
      "name": "OwnableUnauthorizedAccount",
      "type": "error"
    },
    {
      "anonymous": false,
      "inputs": [
        {
          "indexed": true,
          "internalType": "address",
          "name": "owner",
          "type": "address"
        },
        {
          "indexed": true,
          "internalType": "address",
          "name": "approved",
          "type": "address"
        },
        {
          "indexed": true,
          "internalType": "uint256",
          "name": "tokenId",
          "type": "uint256"
        }
      ],
      "name": "Approval",
      "type": "event"
    },
    {
      "anonymous": false,
      "inputs": [
        {
          "indexed": true,
          "internalType": "address",
          "name": "owner",
          "type": "address"
        },
        {
          "indexed": true,
          "internalType": "address",
          "name": "operator",
          "type": "address"
        },
        {
          "indexed": false,
          "internalType": "bool",
          "name": "approved",
          "type": "bool"
        }
      ],
      "name": "ApprovalForAll",
      "type": "event"
    },
    {
      "anonymous": false,
      "inputs": [
        {
          "indexed": true,
          "internalType": "address",
          "name": "escrow",
          "type": "address"
        }
      ],
      "name": "EscrowContractSet",
      "type": "event"
    },
    {
      "anonymous": false,
      "inputs": [
        {
          "indexed": true,
          "internalType": "address",
          "name": "previousOwner",
          "type": "address"
        },
        {
          "indexed": true,
          "internalType": "address",
          "name": "newOwner",
          "type": "address"
        }
      ],
      "name": "OwnershipTransferStarted",
      "type": "event"
    },
    {
      "anonymous": false,
      "inputs": [
        {
          "indexed": true,
          "internalType": "address",
          "name": "previousOwner",
          "type": "address"
        },
        {
          "indexed": true,
          "internalType": "address",
          "name": "newOwner",
          "type": "address"
        }
      ],
      "name": "OwnershipTransferred",
      "type": "event"
    },
    {
      "anonymous": false,
      "inputs": [
        {
          "indexed": false,
          "internalType": "address",
          "name": "account",
          "type": "address"
        }
      ],
      "name": "Paused",
      "type": "event"
    },
    {
      "anonymous": false,
      "inputs": [
        {
          "indexed": true,
          "internalType": "uint256",
          "name": "tokenId",
          "type": "uint256"
        },
        {
          "indexed": true,
          "internalType": "address",
          "name": "seller",
          "type": "address"
        },
        {
          "indexed": false,
          "internalType": "string",
          "name": "location",
          "type": "string"
        }
      ],
      "name": "PropertyListed",
      "type": "event"
    },
    {
      "anonymous": false,
      "inputs": [
        {
          "indexed": true,
          "internalType": "uint256",
          "name": "tokenId",
          "type": "uint256"
        },
        {
          "indexed": true,
          "internalType": "address",
          "name": "from",
          "type": "address"
        },
        {
          "indexed": true,
          "internalType": "address",
          "name": "to",
          "type": "address"
        }
      ],
      "name": "PropertyTransferred",
      "type": "event"
    },
    {
      "anonymous": false,
      "inputs": [
        {
          "indexed": true,
          "internalType": "uint256",
          "name": "tokenId",
          "type": "uint256"
        },
        {
          "indexed": false,
          "internalType": "enum PropertyRegistry.Status",
          "name": "status",
          "type": "uint8"
        }
      ],
      "name": "StatusUpdated",
      "type": "event"
    },
    {
      "anonymous": false,
      "inputs": [
        {
          "indexed": true,
          "internalType": "address",
          "name": "from",
          "type": "address"
        },
        {
          "indexed": true,
          "internalType": "address",
          "name": "to",
          "type": "address"
        },
        {
          "indexed": true,
          "internalType": "uint256",
          "name": "tokenId",
          "type": "uint256"
        }
      ],
      "name": "Transfer",
      "type": "event"
    },
    {
      "anonymous": false,
      "inputs": [
        {
          "indexed": false,
          "internalType": "address",
          "name": "account",
          "type": "address"
        }
      ],
      "name": "Unpaused",
      "type": "event"
    },
    {
      "anonymous": false,
      "inputs": [
        {
          "indexed": true,
          "internalType": "address",
          "name": "lister",
          "type": "address"
        },
        {
          "indexed": false,
          "internalType": "bool",
          "name": "status",
          "type": "bool"
        }
      ],
      "name": "VerifiedListerUpdated",
      "type": "event"
    },
    {
      "inputs": [],
      "name": "acceptOwnership",
      "outputs": [],
      "stateMutability": "nonpayable",
      "type": "function"
    },
    {
      "inputs": [
        {
          "internalType": "address",
          "name": "to",
          "type": "address"
        },
        {
          "internalType": "uint256",
          "name": "tokenId",
          "type": "uint256"
        }
      ],
      "name": "approve",
      "outputs": [],
      "stateMutability": "nonpayable",
      "type": "function"
    },
    {
      "inputs": [
        {
          "internalType": "uint256",
          "name": "tokenId",
          "type": "uint256"
        },
        {
          "internalType": "bytes",
          "name": "buyerSig",
          "type": "bytes"
        }
      ],
      "name": "attachBuyerSig",
      "outputs": [],
      "stateMutability": "nonpayable",
      "type": "function"
    },
    {
      "inputs": [
        {
          "internalType": "address",
          "name": "owner",
          "type": "address"
        }
      ],
      "name": "balanceOf",
      "outputs": [
        {
          "internalType": "uint256",
          "name": "",
          "type": "uint256"
        }
      ],
      "stateMutability": "view",
      "type": "function"
    },
    {
      "inputs": [],
      "name": "escrowContract",
      "outputs": [
        {
          "internalType": "address",
          "name": "",
          "type": "address"
        }
      ],
      "stateMutability": "view",
      "type": "function"
    },
    {
      "inputs": [],
      "name": "escrowLocked",
      "outputs": [
        {
          "internalType": "bool",
          "name": "",
          "type": "bool"
        }
      ],
      "stateMutability": "view",
      "type": "function"
    },
    {
      "inputs": [
        {
          "internalType": "uint256",
          "name": "tokenId",
          "type": "uint256"
        }
      ],
      "name": "getApproved",
      "outputs": [
        {
          "internalType": "address",
          "name": "",
          "type": "address"
        }
      ],
      "stateMutability": "view",
      "type": "function"
    },
    {
      "inputs": [],
      "name": "getEscrowContract",
      "outputs": [
        {
          "internalType": "address",
          "name": "",
          "type": "address"
        }
      ],
      "stateMutability": "view",
      "type": "function"
    },
    {
      "inputs": [
        {
          "internalType": "uint256",
          "name": "tokenId",
          "type": "uint256"
        }
      ],
      "name": "getPreviousOwners",
      "outputs": [
        {
          "internalType": "address[]",
          "name": "",
          "type": "address[]"
        }
      ],
      "stateMutability": "view",
      "type": "function"
    },
    {
      "inputs": [
        {
          "internalType": "uint256",
          "name": "tokenId",
          "type": "uint256"
        }
      ],
      "name": "getProperty",
      "outputs": [
        {
          "components": [
            {
              "internalType": "string",
              "name": "location",
              "type": "string"
            },
            {
              "internalType": "string",
              "name": "latitude",
              "type": "string"
            },
            {
              "internalType": "string",
              "name": "longitude",
              "type": "string"
            },
            {
              "internalType": "string",
              "name": "size",
              "type": "string"
            },
            {
              "internalType": "uint256",
              "name": "price",
              "type": "uint256"
            },
            {
              "internalType": "string",
              "name": "description",
              "type": "string"
            },
            {
              "internalType": "bytes32",
              "name": "docsHash",
              "type": "bytes32"
            },
            {
              "internalType": "bytes",
              "name": "sellerSig",
              "type": "bytes"
            },
            {
              "internalType": "bytes",
              "name": "buyerSig",
              "type": "bytes"
            },
            {
              "internalType": "enum PropertyRegistry.Status",
              "name": "status",
              "type": "uint8"
            },
            {
              "internalType": "address[]",
              "name": "previousOwners",
              "type": "address[]"
            }
          ],
          "internalType": "struct PropertyRegistry.Property",
          "name": "",
          "type": "tuple"
        }
      ],
      "stateMutability": "view",
      "type": "function"
    },
    {
      "inputs": [
        {
          "internalType": "address",
          "name": "owner",
          "type": "address"
        },
        {
          "internalType": "address",
          "name": "operator",
          "type": "address"
        }
      ],
      "name": "isApprovedForAll",
      "outputs": [
        {
          "internalType": "bool",
          "name": "",
          "type": "bool"
        }
      ],
      "stateMutability": "view",
      "type": "function"
    },
    {
      "inputs": [
        {
          "internalType": "string",
          "name": "location",
          "type": "string"
        },
        {
          "internalType": "string",
          "name": "latitude",
          "type": "string"
        },
        {
          "internalType": "string",
          "name": "longitude",
          "type": "string"
        },
        {
          "internalType": "string",
          "name": "size",
          "type": "string"
        },
        {
          "internalType": "uint256",
          "name": "price",
          "type": "uint256"
        },
        {
          "internalType": "string",
          "name": "description",
          "type": "string"
        },
        {
          "internalType": "bytes32",
          "name": "docsHash",
          "type": "bytes32"
        },
        {
          "internalType": "bytes",
          "name": "sellerSig",
          "type": "bytes"
        }
      ],
      "name": "listProperty",
      "outputs": [
        {
          "internalType": "uint256",
          "name": "",
          "type": "uint256"
        }
      ],
      "stateMutability": "nonpayable",
      "type": "function"
    },
    {
      "inputs": [],
      "name": "name",
      "outputs": [
        {
          "internalType": "string",
          "name": "",
          "type": "string"
        }
      ],
      "stateMutability": "view",
      "type": "function"
    },
    {
      "inputs": [],
      "name": "owner",
      "outputs": [
        {
          "internalType": "address",
          "name": "",
          "type": "address"
        }
      ],
      "stateMutability": "view",
      "type": "function"
    },
    {
      "inputs": [
        {
          "internalType": "uint256",
          "name": "tokenId",
          "type": "uint256"
        }
      ],
      "name": "ownerOf",
      "outputs": [
        {
          "internalType": "address",
          "name": "",
          "type": "address"
        }
      ],
      "stateMutability": "view",
      "type": "function"
    },
    {
      "inputs": [],
      "name": "pause",
      "outputs": [],
      "stateMutability": "nonpayable",
      "type": "function"
    },
    {
      "inputs": [],
      "name": "paused",
      "outputs": [
        {
          "internalType": "bool",
          "name": "",
          "type": "bool"
        }
      ],
      "stateMutability": "view",
      "type": "function"
    },
    {
      "inputs": [],
      "name": "pendingOwner",
      "outputs": [
        {
          "internalType": "address",
          "name": "",
          "type": "address"
        }
      ],
      "stateMutability": "view",
      "type": "function"
    },
    {
      "inputs": [
        {
          "internalType": "uint256",
          "name": "",
          "type": "uint256"
        }
      ],
      "name": "properties",
      "outputs": [
        {
          "internalType": "string",
          "name": "location",
          "type": "string"
        },
        {
          "internalType": "string",
          "name": "latitude",
          "type": "string"
        },
        {
          "internalType": "string",
          "name": "longitude",
          "type": "string"
        },
        {
          "internalType": "string",
          "name": "size",
          "type": "string"
        },
        {
          "internalType": "uint256",
          "name": "price",
          "type": "uint256"
        },
        {
          "internalType": "string",
          "name": "description",
          "type": "string"
        },
        {
          "internalType": "bytes32",
          "name": "docsHash",
          "type": "bytes32"
        },
        {
          "internalType": "bytes",
          "name": "sellerSig",
          "type": "bytes"
        },
        {
          "internalType": "bytes",
          "name": "buyerSig",
          "type": "bytes"
        },
        {
          "internalType": "enum PropertyRegistry.Status",
          "name": "status",
          "type": "uint8"
        }
      ],
      "stateMutability": "view",
      "type": "function"
    },
    {
      "inputs": [],
      "name": "renounceOwnership",
      "outputs": [],
      "stateMutability": "nonpayable",
      "type": "function"
    },
    {
      "inputs": [
        {
          "internalType": "address",
          "name": "from",
          "type": "address"
        },
        {
          "internalType": "address",
          "name": "to",
          "type": "address"
        },
        {
          "internalType": "uint256",
          "name": "tokenId",
          "type": "uint256"
        }
      ],
      "name": "safeTransferFrom",
      "outputs": [],
      "stateMutability": "nonpayable",
      "type": "function"
    },
    {
      "inputs": [
        {
          "internalType": "address",
          "name": "from",
          "type": "address"
        },
        {
          "internalType": "address",
          "name": "to",
          "type": "address"
        },
        {
          "internalType": "uint256",
          "name": "tokenId",
          "type": "uint256"
        },
        {
          "internalType": "bytes",
          "name": "data",
          "type": "bytes"
        }
      ],
      "name": "safeTransferFrom",
      "outputs": [],
      "stateMutability": "nonpayable",
      "type": "function"
    },
    {
      "inputs": [
        {
          "internalType": "address",
          "name": "operator",
          "type": "address"
        },
        {
          "internalType": "bool",
          "name": "approved",
          "type": "bool"
        }
      ],
      "name": "setApprovalForAll",
      "outputs": [],
      "stateMutability": "nonpayable",
      "type": "function"
    },
    {
      "inputs": [
        {
          "internalType": "address",
          "name": "_escrow",
          "type": "address"
        }
      ],
      "name": "setEscrowContract",
      "outputs": [],
      "stateMutability": "nonpayable",
      "type": "function"
    },
    {
      "inputs": [
        {
          "internalType": "address",
          "name": "lister",
          "type": "address"
        },
        {
          "internalType": "bool",
          "name": "status",
          "type": "bool"
        }
      ],
      "name": "setVerifiedLister",
      "outputs": [],
      "stateMutability": "nonpayable",
      "type": "function"
    },
    {
      "inputs": [
        {
          "internalType": "bytes4",
          "name": "interfaceId",
          "type": "bytes4"
        }
      ],
      "name": "supportsInterface",
      "outputs": [
        {
          "internalType": "bool",
          "name": "",
          "type": "bool"
        }
      ],
      "stateMutability": "view",
      "type": "function"
    },
    {
      "inputs": [],
      "name": "symbol",
      "outputs": [
        {
          "internalType": "string",
          "name": "",
          "type": "string"
        }
      ],
      "stateMutability": "view",
      "type": "function"
    },
    {
      "inputs": [],
      "name": "tokenCount",
      "outputs": [
        {
          "internalType": "uint256",
          "name": "",
          "type": "uint256"
        }
      ],
      "stateMutability": "view",
      "type": "function"
    },
    {
      "inputs": [
        {
          "internalType": "uint256",
          "name": "tokenId",
          "type": "uint256"
        }
      ],
      "name": "tokenURI",
      "outputs": [
        {
          "internalType": "string",
          "name": "",
          "type": "string"
        }
      ],
      "stateMutability": "view",
      "type": "function"
    },
    {
      "inputs": [
        {
          "internalType": "address",
          "name": "from",
          "type": "address"
        },
        {
          "internalType": "address",
          "name": "to",
          "type": "address"
        },
        {
          "internalType": "uint256",
          "name": "tokenId",
          "type": "uint256"
        }
      ],
      "name": "transferFrom",
      "outputs": [],
      "stateMutability": "nonpayable",
      "type": "function"
    },
    {
      "inputs": [
        {
          "internalType": "address",
          "name": "newOwner",
          "type": "address"
        }
      ],
      "name": "transferOwnership",
      "outputs": [],
      "stateMutability": "nonpayable",
      "type": "function"
    },
    {
      "inputs": [
        {
          "internalType": "uint256",
          "name": "tokenId",
          "type": "uint256"
        },
        {
          "internalType": "address",
          "name": "from",
          "type": "address"
        },
        {
          "internalType": "address",
          "name": "to",
          "type": "address"
        }
      ],
      "name": "transferProperty",
      "outputs": [],
      "stateMutability": "nonpayable",
      "type": "function"
    },
    {
      "inputs": [],
      "name": "unpause",
      "outputs": [],
      "stateMutability": "nonpayable",
      "type": "function"
    },
    {
      "inputs": [
        {
          "internalType": "address",
          "name": "_escrow",
          "type": "address"
        }
      ],
      "name": "updateEscrowContract",
      "outputs": [],
      "stateMutability": "nonpayable",
      "type": "function"
    },
    {
      "inputs": [
        {
          "internalType": "uint256",
          "name": "tokenId",
          "type": "uint256"
        },
        {
          "internalType": "enum PropertyRegistry.Status",
          "name": "newStatus",
          "type": "uint8"
        }
      ],
      "name": "updateStatus",
      "outputs": [],
      "stateMutability": "nonpayable",
      "type": "function"
    },
    {
      "inputs": [
        {
          "internalType": "address",
          "name": "",
          "type": "address"
        }
      ],
      "name": "verifiedListers",
      "outputs": [
        {
          "internalType": "bool",
          "name": "",
          "type": "bool"
        }
      ],
      "stateMutability": "view",
      "type": "function"
    }
  ],
  "bytecode": "0x608060405234801561000f575f5ffd5b50336040518060400160405280601081526020017f50726f70657274795265676973747279000000000000000000000000000000008152506040518060400160405280600481526020017f50524f5000000000000000000000000000000000000000000000000000000000815250815f908161008b9190610459565b50806001908161009b9190610459565b5050505f73ffffffffffffffffffffffffffffffffffffffff168173ffffffffffffffffffffffffffffffffffffffff160361010e575f6040517f1e4fbdf70000000000000000000000000000000000000000000000000000000081526004016101059190610567565b60405180910390fd5b61011d8161012360201b60201c565b50610580565b60075f6101000a81549073ffffffffffffffffffffffffffffffffffffffff02191690556101568161015960201b60201c565b50565b5f60065f9054906101000a900473ffffffffffffffffffffffffffffffffffffffff1690508160065f6101000a81548173ffffffffffffffffffffffffffffffffffffffff021916908373ffffffffffffffffffffffffffffffffffffffff1602179055508173ffffffffffffffffffffffffffffffffffffffff168173ffffffffffffffffffffffffffffffffffffffff167f8be0079c531659141344cd1fd0a4f28419497f9722a3daafe3b4186f6b6457e060405160405180910390a35050565b5f81519050919050565b7f4e487b71000000000000000000000000000000000000000000000000000000005f52604160045260245ffd5b7f4e487b71000000000000000000000000000000000000000000000000000000005f52602260045260245ffd5b5f600282049050600182168061029757607f821691505b6020821081036102aa576102a9610253565b5b50919050565b5f819050815f5260205f209050919050565b5f6020601f8301049050919050565b5f82821b905092915050565b5f6008830261030c7fffffffffffffffffffffffffffffffffffffffffffffffffffffffffffffffff826102d1565b61031686836102d1565b95508019841693508086168417925050509392505050565b5f819050919050565b5f819050919050565b5f61035a6103556103508461032e565b610337565b61032e565b9050919050565b5f819050919050565b61037383610340565b61038761037f82610361565b8484546102dd565b825550505050565b5f5f905090565b61039e61038f565b6103a981848461036a565b505050565b5b818110156103cc576103c15f82610396565b6001810190506103af565b5050565b601f821115610411576103e2816102b0565b6103eb846102c2565b810160208510156103fa578190505b61040e610406856102c2565b8301826103ae565b50505b505050565b5f82821c905092915050565b5f6104315f1984600802610416565b1980831691505092915050565b5f6104498383610422565b9150826002028217905092915050565b6104628261021c565b67ffffffffffffffff81111561047b5761047a610226565b5b6104858254610280565b6104908282856103d0565b5f60209050601f8311600181146104c1575f84156104af578287015190505b6104b9858261043e565b865550610520565b601f1984166104cf866102b0565b5f5b828110156104f6578489015182556001820191506020850194506020810190506104d1565b86831015610513578489015161050f601f891682610422565b8355505b6001600288020188555050505b505050505050565b5f73ffffffffffffffffffffffffffffffffffffffff82169050919050565b5f61055182610528565b9050919050565b61056181610547565b82525050565b5f60208201905061057a5f830184610558565b92915050565b6157888061058d5f395ff3fe608060405234801561000f575f5ffd5b506004361061021a575f3560e01c806395d89b4111610123578063e42a96e7116100ab578063f2fde38b1161007a578063f2fde38b14610614578063f330ca4e14610630578063f42375b51461064c578063f7b1080814610668578063fc28bb7b146106a15761021a565b8063e42a96e714610578578063e985e9c514610596578063f1a0995c146105c6578063f2e76be1146105f65761021a565b8063b88d4fde116100f2578063b88d4fde146104c0578063b909acc5146104dc578063c87b56dd146104fa578063e1053a6a1461052a578063e30c39781461055a5761021a565b806395d89b411461044c5780639f181b5e1461046a578063a22cb46514610488578063a59f6ca3146104a45761021a565b80634bed0a20116101a657806370a082311161017557806370a08231146103e0578063715018a61461041057806379ba50971461041a5780638456cb59146104245780638da5cb5b1461042e5761021a565b80634bed0a201461034657806358131af7146103765780635c975abb146103925780636352211e146103b05761021a565b806323b872dd116101ed57806323b872dd146102b857806332665ffb146102d45780633a1b3d31146103045780633f4ba83a1461032057806342842e0e1461032a5761021a565b806301ffc9a71461021e57806306fdde031461024e578063081812fc1461026c578063095ea7b31461029c575b5f5ffd5b61023860048036038101906102339190613cbb565b6106bd565b6040516102459190613d00565b60405180910390f35b61025661079e565b6040516102639190613d89565b60405180910390f35b61028660048036038101906102819190613ddc565b61082d565b6040516102939190613e46565b60405180910390f35b6102b660048036038101906102b19190613e89565b610848565b005b6102d260048036038101906102cd9190613ec7565b61085e565b005b6102ee60048036038101906102e99190613ddc565b61095d565b6040516102fb919061421f565b60405180910390f35b61031e60048036038101906103199190614262565b610ea3565b005b610328610ffb565b005b610344600480360381019061033f9190613ec7565b61100d565b005b610360600480360381019061035b9190614494565b61102c565b60405161036d91906145fc565b60405180910390f35b610390600480360381019061038b9190614615565b611489565b005b61039a6115d3565b6040516103a79190613d00565b60405180910390f35b6103ca60048036038101906103c59190613ddc565b6115e9565b6040516103d79190613e46565b60405180910390f35b6103fa60048036038101906103f5919061466f565b6115fa565b60405161040791906145fc565b60405180910390f35b6104186116b0565b005b6104226116c3565b005b61042c611751565b005b610436611763565b6040516104439190613e46565b60405180910390f35b61045461178b565b6040516104619190613d89565b60405180910390f35b61047261181b565b60405161047f91906145fc565b60405180910390f35b6104a2600480360381019061049d91906146c4565b611821565b005b6104be60048036038101906104b99190614702565b611837565b005b6104da60048036038101906104d59190614752565b611b4e565b005b6104e4611b73565b6040516104f19190613e46565b60405180910390f35b610514600480360381019061050f9190613ddc565b611b9b565b6040516105219190613d89565b60405180910390f35b610544600480360381019061053f919061466f565b611c01565b6040516105519190613d00565b60405180910390f35b610562611c1e565b60405161056f9190613e46565b60405180910390f35b610580611c46565b60405161058d9190613e46565b60405180910390f35b6105b060048036038101906105ab91906147d2565b611c6b565b6040516105bd9190613d00565b60405180910390f35b6105e060048036038101906105db9190613ddc565b611cf9565b6040516105ed919061487c565b60405180910390f35b6105fe611dea565b60405161060b9190613d00565b60405180910390f35b61062e6004803603810190610629919061466f565b611dfd565b005b61064a600480360381019061064591906146c4565b611ea9565b005b6106666004803603810190610661919061466f565b611fc5565b005b610682600480360381019061067d9190613ddc565b61212c565b6040516106989a99989796959493929190614902565b60405180910390f35b6106bb60048036038101906106b6919061466f565b612532565b005b5f7f80ac58cd000000000000000000000000000000000000000000000000000000007bffffffffffffffffffffffffffffffffffffffffffffffffffffffff1916827bffffffffffffffffffffffffffffffffffffffffffffffffffffffff1916148061078757507f5b5e139f000000000000000000000000000000000000000000000000000000007bffffffffffffffffffffffffffffffffffffffffffffffffffffffff1916827bffffffffffffffffffffffffffffffffffffffffffffffffffffffff1916145b8061079757506107968261262e565b5b9050919050565b60605f80546107ac906149fa565b80601f01602080910402602001604051908101604052809291908181526020018280546107d8906149fa565b80156108235780601f106107fa57610100808354040283529160200191610823565b820191905f5260205f20905b81548152906001019060200180831161080657829003601f168201915b5050505050905090565b5f61083782612697565b506108418261271d565b9050919050565b61085a8282610855612756565b61275d565b5050565b5f73ffffffffffffffffffffffffffffffffffffffff168273ffffffffffffffffffffffffffffffffffffffff16036108ce575f6040517f64a0ae920000000000000000000000000000000000000000000000000000000081526004016108c59190613e46565b60405180910390fd5b5f6108e183836108dc612756565b61276f565b90508373ffffffffffffffffffffffffffffffffffffffff168173ffffffffffffffffffffffffffffffffffffffff1614610957578382826040517f64283d7b00000000000000000000000000000000000000000000000000000000815260040161094e93929190614a2a565b60405180910390fd5b50505050565b610965613bec565b815f8111801561097757506008548111155b6109b6576040517f08c379a00000000000000000000000000000000000000000000000000000000081526004016109ad90614aa9565b60405180910390fd5b60095f8481526020019081526020015f20604051806101600160405290815f820180546109e2906149fa565b80601f0160208091040260200160405190810160405280929190818152602001828054610a0e906149fa565b8015610a595780601f10610a3057610100808354040283529160200191610a59565b820191905f5260205f20905b815481529060010190602001808311610a3c57829003601f168201915b50505050508152602001600182018054610a72906149fa565b80601f0160208091040260200160405190810160405280929190818152602001828054610a9e906149fa565b8015610ae95780601f10610ac057610100808354040283529160200191610ae9565b820191905f5260205f20905b815481529060010190602001808311610acc57829003601f168201915b50505050508152602001600282018054610b02906149fa565b80601f0160208091040260200160405190810160405280929190818152602001828054610b2e906149fa565b8015610b795780601f10610b5057610100808354040283529160200191610b79565b820191905f5260205f20905b815481529060010190602001808311610b5c57829003601f168201915b50505050508152602001600382018054610b92906149fa565b80601f0160208091040260200160405190810160405280929190818152602001828054610bbe906149fa565b8015610c095780601f10610be057610100808354040283529160200191610c09565b820191905f5260205f20905b815481529060010190602001808311610bec57829003601f168201915b5050505050815260200160048201548152602001600582018054610c2c906149fa565b80601f0160208091040260200160405190810160405280929190818152602001828054610c58906149fa565b8015610ca35780601f10610c7a57610100808354040283529160200191610ca3565b820191905f5260205f20905b815481529060010190602001808311610c8657829003601f168201915b5050505050815260200160068201548152602001600782018054610cc6906149fa565b80601f0160208091040260200160405190810160405280929190818152602001828054610cf2906149fa565b8015610d3d5780601f10610d1457610100808354040283529160200191610d3d565b820191905f5260205f20905b815481529060010190602001808311610d2057829003601f168201915b50505050508152602001600882018054610d56906149fa565b80601f0160208091040260200160405190810160405280929190818152602001828054610d82906149fa565b8015610dcd5780601f10610da457610100808354040283529160200191610dcd565b820191905f5260205f20905b815481529060010190602001808311610db057829003601f168201915b50505050508152602001600982015f9054906101000a900460ff166002811115610dfa57610df9613fd8565b5b6002811115610e0c57610e0b613fd8565b5b8152602001600a8201805480602002602001604051908101604052809291908181526020018280548015610e9257602002820191905f5260205f20905b815f9054906101000a900473ffffffffffffffffffffffffffffffffffffffff1673ffffffffffffffffffffffffffffffffffffffff1681526020019060010190808311610e49575b505050505081525050915050919050565b600b5f9054906101000a900473ffffffffffffffffffffffffffffffffffffffff1673ffffffffffffffffffffffffffffffffffffffff163373ffffffffffffffffffffffffffffffffffffffff1614610f32576040517f08c379a0000000000000000000000000000000000000000000000000000000008152600401610f2990614b11565b60405180910390fd5b815f81118015610f4457506008548111155b610f83576040517f08c379a0000000000000000000000000000000000000000000000000000000008152600401610f7a90614aa9565b60405180910390fd5b8160095f8581526020019081526020015f206009015f6101000a81548160ff02191690836002811115610fb957610fb8613fd8565b5b0217905550827f2da7b23ca63c1eb969eee5fae4acb98186abecf5358b0354a82a5183ebca6b2a83604051610fee9190614b2f565b60405180910390a2505050565b61100361285a565b61100b6128e1565b565b61102783838360405180602001604052805f815250611b4e565b505050565b5f600a5f3373ffffffffffffffffffffffffffffffffffffffff1673ffffffffffffffffffffffffffffffffffffffff1681526020019081526020015f205f9054906101000a900460ff166110b6576040517f08c379a00000000000000000000000000000000000000000000000000000000081526004016110ad90614b92565b60405180910390fd5b6110be612943565b5f8511611100576040517f08c379a00000000000000000000000000000000000000000000000000000000081526004016110f790614bfa565b60405180910390fd5b5f895111611143576040517f08c379a000000000000000000000000000000000000000000000000000000000815260040161113a90614c62565b60405180910390fd5b5f885111611186576040517f08c379a000000000000000000000000000000000000000000000000000000000815260040161117d90614cca565b60405180910390fd5b5f8751116111c9576040517f08c379a00000000000000000000000000000000000000000000000000000000081526004016111c090614d32565b60405180910390fd5b5f5f1b830361120d576040517f08c379a000000000000000000000000000000000000000000000000000000000815260040161120490614d9a565b60405180910390fd5b5f89898989898860405160200161122996959493929190614e32565b6040516020818303038152906040528051906020012090505f61124b82612984565b90505f61125882866129b7565b90503373ffffffffffffffffffffffffffffffffffffffff168173ffffffffffffffffffffffffffffffffffffffff16146112c8576040517f08c379a00000000000000000000000000000000000000000000000000000000081526004016112bf90614edb565b60405180910390fd5b60085f8154809291906112da90614f26565b91905055505f60085490508c60095f8381526020019081526020015f205f019081611305919061510d565b508b60095f8381526020019081526020015f206001019081611327919061510d565b508a60095f8381526020019081526020015f206002019081611349919061510d565b508960095f8381526020019081526020015f20600301908161136b919061510d565b508860095f8381526020019081526020015f20600401819055508760095f8381526020019081526020015f2060050190816113a6919061510d565b508660095f8381526020019081526020015f20600601819055508560095f8381526020019081526020015f2060070190816113e19190615234565b505f60095f8381526020019081526020015f206009015f6101000a81548160ff0219169083600281111561141857611417613fd8565b5b021790555061142733826129e1565b3373ffffffffffffffffffffffffffffffffffffffff16817f61e22366f1dd402972b7fac9c9b73534fc1a7a60eb41141b60d9f210949575838f60405161146e9190613d89565b60405180910390a38094505050505098975050505050505050565b600b5f9054906101000a900473ffffffffffffffffffffffffffffffffffffffff1673ffffffffffffffffffffffffffffffffffffffff163373ffffffffffffffffffffffffffffffffffffffff1614611518576040517f08c379a000000000000000000000000000000000000000000000000000000000815260040161150f90614b11565b60405180910390fd5b815f8111801561152a57506008548111155b611569576040517f08c379a000000000000000000000000000000000000000000000000000000000815260040161156090614aa9565b60405180910390fd5b5f8251116115ac576040517f08c379a00000000000000000000000000000000000000000000000000000000081526004016115a39061534d565b60405180910390fd5b8160095f8581526020019081526020015f2060080190816115cd9190615234565b50505050565b5f600760149054906101000a900460ff16905090565b5f6115f382612697565b9050919050565b5f5f73ffffffffffffffffffffffffffffffffffffffff168273ffffffffffffffffffffffffffffffffffffffff160361166b575f6040517f89c62b640000000000000000000000000000000000000000000000000000000081526004016116629190613e46565b60405180910390fd5b60035f8373ffffffffffffffffffffffffffffffffffffffff1673ffffffffffffffffffffffffffffffffffffffff1681526020019081526020015f20549050919050565b6116b861285a565b6116c15f6129fe565b565b5f6116cc612756565b90508073ffffffffffffffffffffffffffffffffffffffff166116ed611c1e565b73ffffffffffffffffffffffffffffffffffffffff161461174557806040517f118cdaa700000000000000000000000000000000000000000000000000000000815260040161173c9190613e46565b60405180910390fd5b61174e816129fe565b50565b61175961285a565b611761612a2e565b565b5f60065f9054906101000a900473ffffffffffffffffffffffffffffffffffffffff16905090565b60606001805461179a906149fa565b80601f01602080910402602001604051908101604052809291908181526020018280546117c6906149fa565b80156118115780601f106117e857610100808354040283529160200191611811565b820191905f5260205f20905b8154815290600101906020018083116117f457829003601f168201915b5050505050905090565b60085481565b61183361182c612756565b8383612a91565b5050565b600b5f9054906101000a900473ffffffffffffffffffffffffffffffffffffffff1673ffffffffffffffffffffffffffffffffffffffff163373ffffffffffffffffffffffffffffffffffffffff16146118c6576040517f08c379a00000000000000000000000000000000000000000000000000000000081526004016118bd90614b11565b60405180910390fd5b825f811180156118d857506008548111155b611917576040517f08c379a000000000000000000000000000000000000000000000000000000000815260040161190e90614aa9565b60405180910390fd5b5f73ffffffffffffffffffffffffffffffffffffffff168373ffffffffffffffffffffffffffffffffffffffff161415801561197f57505f73ffffffffffffffffffffffffffffffffffffffff168273ffffffffffffffffffffffffffffffffffffffff1614155b6119be576040517f08c379a00000000000000000000000000000000000000000000000000000000081526004016119b5906153b5565b60405180910390fd5b8273ffffffffffffffffffffffffffffffffffffffff166119de856115e9565b73ffffffffffffffffffffffffffffffffffffffff1614611a34576040517f08c379a0000000000000000000000000000000000000000000000000000000008152600401611a2b9061541d565b60405180910390fd5b60095f8581526020019081526020015f20600a0183908060018154018082558091505060019003905f5260205f20015f9091909190916101000a81548173ffffffffffffffffffffffffffffffffffffffff021916908373ffffffffffffffffffffffffffffffffffffffff160217905550600260095f8681526020019081526020015f206009015f6101000a81548160ff02191690836002811115611add57611adc613fd8565b5b0217905550611aed838386612c6a565b8173ffffffffffffffffffffffffffffffffffffffff168373ffffffffffffffffffffffffffffffffffffffff16857f2231fc8bc2c20e26d85d66dc7f13a6b6d535c86d2a4d678bb2de61f5b713608360405160405180910390a450505050565b611b5984848461085e565b611b6d611b64612756565b85858585612dd2565b50505050565b5f600b5f9054906101000a900473ffffffffffffffffffffffffffffffffffffffff16905090565b6060611ba682612697565b505f611bb0612f7e565b90505f815111611bce5760405180602001604052805f815250611bf9565b80611bd884612f94565b604051602001611be992919061543b565b6040516020818303038152906040525b915050919050565b600a602052805f5260405f205f915054906101000a900460ff1681565b5f60075f9054906101000a900473ffffffffffffffffffffffffffffffffffffffff16905090565b600b5f9054906101000a900473ffffffffffffffffffffffffffffffffffffffff1681565b5f60055f8473ffffffffffffffffffffffffffffffffffffffff1673ffffffffffffffffffffffffffffffffffffffff1681526020019081526020015f205f8373ffffffffffffffffffffffffffffffffffffffff1673ffffffffffffffffffffffffffffffffffffffff1681526020019081526020015f205f9054906101000a900460ff16905092915050565b6060815f81118015611d0d57506008548111155b611d4c576040517f08c379a0000000000000000000000000000000000000000000000000000000008152600401611d4390614aa9565b60405180910390fd5b60095f8481526020019081526020015f20600a01805480602002602001604051908101604052809291908181526020018280548015611ddd57602002820191905f5260205f20905b815f9054906101000a900473ffffffffffffffffffffffffffffffffffffffff1673ffffffffffffffffffffffffffffffffffffffff1681526020019060010190808311611d94575b5050505050915050919050565b600b60149054906101000a900460ff1681565b611e0561285a565b8060075f6101000a81548173ffffffffffffffffffffffffffffffffffffffff021916908373ffffffffffffffffffffffffffffffffffffffff1602179055508073ffffffffffffffffffffffffffffffffffffffff16611e64611763565b73ffffffffffffffffffffffffffffffffffffffff167f38d16b8cac22d99fc7c124b9cd0de2d3fa1faef420bfe791d8c362d765e2270060405160405180910390a350565b611eb161285a565b5f73ffffffffffffffffffffffffffffffffffffffff168273ffffffffffffffffffffffffffffffffffffffff1603611f1f576040517f08c379a0000000000000000000000000000000000000000000000000000000008152600401611f16906154a8565b60405180910390fd5b80600a5f8473ffffffffffffffffffffffffffffffffffffffff1673ffffffffffffffffffffffffffffffffffffffff1681526020019081526020015f205f6101000a81548160ff0219169083151502179055508173ffffffffffffffffffffffffffffffffffffffff167fc400f022e2e45f1511d284022346c608f4816ef82226edce51cc59814a1b9b4482604051611fb99190613d00565b60405180910390a25050565b611fcd61285a565b600b60149054906101000a900460ff161561201d576040517f08c379a000000000000000000000000000000000000000000000000000000000815260040161201490615510565b60405180910390fd5b5f73ffffffffffffffffffffffffffffffffffffffff168173ffffffffffffffffffffffffffffffffffffffff160361208b576040517f08c379a000000000000000000000000000000000000000000000000000000000815260040161208290615578565b60405180910390fd5b80600b5f6101000a81548173ffffffffffffffffffffffffffffffffffffffff021916908373ffffffffffffffffffffffffffffffffffffffff1602179055506001600b60146101000a81548160ff0219169083151502179055508073ffffffffffffffffffffffffffffffffffffffff167fded808e17a47bf48d1a08e83e02563c8ff7f91d526f96d395bbce60d720d9d2960405160405180910390a250565b6009602052805f5260405f205f91509050805f01805461214b906149fa565b80601f0160208091040260200160405190810160405280929190818152602001828054612177906149fa565b80156121c25780601f10612199576101008083540402835291602001916121c2565b820191905f5260205f20905b8154815290600101906020018083116121a557829003601f168201915b5050505050908060010180546121d7906149fa565b80601f0160208091040260200160405190810160405280929190818152602001828054612203906149fa565b801561224e5780601f106122255761010080835404028352916020019161224e565b820191905f5260205f20905b81548152906001019060200180831161223157829003601f168201915b505050505090806002018054612263906149fa565b80601f016020809104026020016040519081016040528092919081815260200182805461228f906149fa565b80156122da5780601f106122b1576101008083540402835291602001916122da565b820191905f5260205f20905b8154815290600101906020018083116122bd57829003601f168201915b5050505050908060030180546122ef906149fa565b80601f016020809104026020016040519081016040528092919081815260200182805461231b906149fa565b80156123665780601f1061233d57610100808354040283529160200191612366565b820191905f5260205f20905b81548152906001019060200180831161234957829003601f168201915b505050505090806004015490806005018054612381906149fa565b80601f01602080910402602001604051908101604052809291908181526020018280546123ad906149fa565b80156123f85780601f106123cf576101008083540402835291602001916123f8565b820191905f5260205f20905b8154815290600101906020018083116123db57829003601f168201915b505050505090806006015490806007018054612413906149fa565b80601f016020809104026020016040519081016040528092919081815260200182805461243f906149fa565b801561248a5780601f106124615761010080835404028352916020019161248a565b820191905f5260205f20905b81548152906001019060200180831161246d57829003601f168201915b50505050509080600801805461249f906149fa565b80601f01602080910402602001604051908101604052809291908181526020018280546124cb906149fa565b80156125165780601f106124ed57610100808354040283529160200191612516565b820191905f5260205f20905b8154815290600101906020018083116124f957829003601f168201915b505050505090806009015f9054906101000a900460ff1690508a565b61253a61285a565b5f73ffffffffffffffffffffffffffffffffffffffff168173ffffffffffffffffffffffffffffffffffffffff16036125a8576040517f08c379a000000000000000000000000000000000000000000000000000000000815260040161259f90615578565b60405180910390fd5b80600b5f6101000a81548173ffffffffffffffffffffffffffffffffffffffff021916908373ffffffffffffffffffffffffffffffffffffffff1602179055508073ffffffffffffffffffffffffffffffffffffffff167fded808e17a47bf48d1a08e83e02563c8ff7f91d526f96d395bbce60d720d9d2960405160405180910390a250565b5f7f01ffc9a7000000000000000000000000000000000000000000000000000000007bffffffffffffffffffffffffffffffffffffffffffffffffffffffff1916827bffffffffffffffffffffffffffffffffffffffffffffffffffffffff1916149050919050565b5f5f6126a28361305e565b90505f73ffffffffffffffffffffffffffffffffffffffff168173ffffffffffffffffffffffffffffffffffffffff160361271457826040517f7e27328900000000000000000000000000000000000000000000000000000000815260040161270b91906145fc565b60405180910390fd5b80915050919050565b5f60045f8381526020019081526020015f205f9054906101000a900473ffffffffffffffffffffffffffffffffffffffff169050919050565b5f33905090565b61276a8383836001613097565b505050565b5f5f61277a8461305e565b90505f73ffffffffffffffffffffffffffffffffffffffff168173ffffffffffffffffffffffffffffffffffffffff16141580156128055750600b5f9054906101000a900473ffffffffffffffffffffffffffffffffffffffff1673ffffffffffffffffffffffffffffffffffffffff163373ffffffffffffffffffffffffffffffffffffffff1614155b15612845576040517f08c379a000000000000000000000000000000000000000000000000000000000815260040161283c906155e0565b60405180910390fd5b612850858585613256565b9150509392505050565b612862612756565b73ffffffffffffffffffffffffffffffffffffffff16612880611763565b73ffffffffffffffffffffffffffffffffffffffff16146128df576128a3612756565b6040517f118cdaa70000000000000000000000000000000000000000000000000000000081526004016128d69190613e46565b60405180910390fd5b565b6128e9613461565b5f600760146101000a81548160ff0219169083151502179055507f5db9ee0a495bf2e6ff9c91a7834c1ba4fdd244a5e8aa4e537bd38aeae4b073aa61292c612756565b6040516129399190613e46565b60405180910390a1565b61294b6115d3565b15612982576040517fd93c066500000000000000000000000000000000000000000000000000000000815260040160405180910390fd5b565b5f7f19457468657265756d205369676e6564204d6573736167653a0a3332000000005f5281601c52603c5f209050919050565b5f5f5f5f6129c586866134a1565b9250925092506129d582826134f6565b82935050505092915050565b6129fa828260405180602001604052805f815250613658565b5050565b60075f6101000a81549073ffffffffffffffffffffffffffffffffffffffff0219169055612a2b8161367b565b50565b612a36612943565b6001600760146101000a81548160ff0219169083151502179055507f62e78cea01bee320cd4e420270b5ea74000d11b0c9f74754ebdbfc544b05a258612a7a612756565b604051612a879190613e46565b60405180910390a1565b5f73ffffffffffffffffffffffffffffffffffffffff168373ffffffffffffffffffffffffffffffffffffffff1603612b01575f6040517fa9fbf51f000000000000000000000000000000000000000000000000000000008152600401612af89190613e46565b60405180910390fd5b5f73ffffffffffffffffffffffffffffffffffffffff168273ffffffffffffffffffffffffffffffffffffffff1603612b7157816040517f5b08ba18000000000000000000000000000000000000000000000000000000008152600401612b689190613e46565b60405180910390fd5b8060055f8573ffffffffffffffffffffffffffffffffffffffff1673ffffffffffffffffffffffffffffffffffffffff1681526020019081526020015f205f8473ffffffffffffffffffffffffffffffffffffffff1673ffffffffffffffffffffffffffffffffffffffff1681526020019081526020015f205f6101000a81548160ff0219169083151502179055508173ffffffffffffffffffffffffffffffffffffffff168373ffffffffffffffffffffffffffffffffffffffff167f17307eab39ab6107e8899845ad3d59bd9653f200f220920489ca2b5937696c3183604051612c5d9190613d00565b60405180910390a3505050565b5f73ffffffffffffffffffffffffffffffffffffffff168273ffffffffffffffffffffffffffffffffffffffff1603612cda575f6040517f64a0ae92000000000000000000000000000000000000000000000000000000008152600401612cd19190613e46565b60405180910390fd5b5f612ce683835f61276f565b90505f73ffffffffffffffffffffffffffffffffffffffff168173ffffffffffffffffffffffffffffffffffffffff1603612d5857816040517f7e273289000000000000000000000000000000000000000000000000000000008152600401612d4f91906145fc565b60405180910390fd5b8373ffffffffffffffffffffffffffffffffffffffff168173ffffffffffffffffffffffffffffffffffffffff1614612dcc578382826040517f64283d7b000000000000000000000000000000000000000000000000000000008152600401612dc393929190614a2a565b60405180910390fd5b50505050565b5f8373ffffffffffffffffffffffffffffffffffffffff163b1115612f77578273ffffffffffffffffffffffffffffffffffffffff1663150b7a02868685856040518563ffffffff1660e01b8152600401612e3094939291906155fe565b6020604051808303815f875af1925050508015612e6b57506040513d601f19601f82011682018060405250810190612e68919061565c565b60015b612eec573d805f8114612e99576040519150601f19603f3d011682016040523d82523d5f602084013e612e9e565b606091505b505f815103612ee457836040517f64a0ae92000000000000000000000000000000000000000000000000000000008152600401612edb9190613e46565b60405180910390fd5b805160208201fd5b63150b7a0260e01b7bffffffffffffffffffffffffffffffffffffffffffffffffffffffff1916817bffffffffffffffffffffffffffffffffffffffffffffffffffffffff191614612f7557836040517f64a0ae92000000000000000000000000000000000000000000000000000000008152600401612f6c9190613e46565b60405180910390fd5b505b5050505050565b606060405180602001604052805f815250905090565b60605f6001612fa28461373e565b0190505f8167ffffffffffffffff811115612fc057612fbf6142a8565b5b6040519080825280601f01601f191660200182016040528015612ff25781602001600182028036833780820191505090505b5090505f82602083010190505b600115613053578080600190039150507f3031323334353637383961626364656600000000000000000000000000000000600a86061a8153600a858161304857613047615687565b5b0494505f8503612fff575b819350505050919050565b5f60025f8381526020019081526020015f205f9054906101000a900473ffffffffffffffffffffffffffffffffffffffff169050919050565b80806130cf57505f73ffffffffffffffffffffffffffffffffffffffff168273ffffffffffffffffffffffffffffffffffffffff1614155b15613201575f6130de84612697565b90505f73ffffffffffffffffffffffffffffffffffffffff168373ffffffffffffffffffffffffffffffffffffffff161415801561314857508273ffffffffffffffffffffffffffffffffffffffff168173ffffffffffffffffffffffffffffffffffffffff1614155b801561315b57506131598184611c6b565b155b1561319d57826040517fa9fbf51f0000000000000000000000000000000000000000000000000000000081526004016131949190613e46565b60405180910390fd5b81156131ff57838573ffffffffffffffffffffffffffffffffffffffff168273ffffffffffffffffffffffffffffffffffffffff167f8c5be1e5ebec7d5bd14f71427d1e84f3dd0314c0f7b2291e5b200ac8c7c3b92560405160405180910390a45b505b8360045f8581526020019081526020015f205f6101000a81548173ffffffffffffffffffffffffffffffffffffffff021916908373ffffffffffffffffffffffffffffffffffffffff16021790555050505050565b5f5f6132618461305e565b90505f73ffffffffffffffffffffffffffffffffffffffff168373ffffffffffffffffffffffffffffffffffffffff16146132a2576132a181848661388f565b5b5f73ffffffffffffffffffffffffffffffffffffffff168173ffffffffffffffffffffffffffffffffffffffff161461332d576132e15f855f5f613097565b600160035f8373ffffffffffffffffffffffffffffffffffffffff1673ffffffffffffffffffffffffffffffffffffffff1681526020019081526020015f205f82825403925050819055505b5f73ffffffffffffffffffffffffffffffffffffffff168573ffffffffffffffffffffffffffffffffffffffff16146133ac57600160035f8773ffffffffffffffffffffffffffffffffffffffff1673ffffffffffffffffffffffffffffffffffffffff1681526020019081526020015f205f82825401925050819055505b8460025f8681526020019081526020015f205f6101000a81548173ffffffffffffffffffffffffffffffffffffffff021916908373ffffffffffffffffffffffffffffffffffffffff160217905550838573ffffffffffffffffffffffffffffffffffffffff168273ffffffffffffffffffffffffffffffffffffffff167fddf252ad1be2c89b69c2b068fc378daa952ba7f163c4a11628f55a4df523b3ef60405160405180910390a4809150509392505050565b6134696115d3565b61349f576040517f8dfc202b00000000000000000000000000000000000000000000000000000000815260040160405180910390fd5b565b5f5f5f60418451036134e1575f5f5f602087015192506040870151915060608701515f1a90506134d388828585613952565b9550955095505050506134ef565b5f600285515f1b9250925092505b9250925092565b5f600381111561350957613508613fd8565b5b82600381111561351c5761351b613fd8565b5b0315613654576001600381111561353657613535613fd8565b5b82600381111561354957613548613fd8565b5b03613580576040517ff645eedf00000000000000000000000000000000000000000000000000000000815260040160405180910390fd5b6002600381111561359457613593613fd8565b5b8260038111156135a7576135a6613fd8565b5b036135eb57805f1c6040517ffce698f70000000000000000000000000000000000000000000000000000000081526004016135e291906145fc565b60405180910390fd5b6003808111156135fe576135fd613fd8565b5b82600381111561361157613610613fd8565b5b0361365357806040517fd78bce0c00000000000000000000000000000000000000000000000000000000815260040161364a91906156b4565b60405180910390fd5b5b5050565b6136628383613a39565b61367661366d612756565b5f858585612dd2565b505050565b5f60065f9054906101000a900473ffffffffffffffffffffffffffffffffffffffff1690508160065f6101000a81548173ffffffffffffffffffffffffffffffffffffffff021916908373ffffffffffffffffffffffffffffffffffffffff1602179055508173ffffffffffffffffffffffffffffffffffffffff168173ffffffffffffffffffffffffffffffffffffffff167f8be0079c531659141344cd1fd0a4f28419497f9722a3daafe3b4186f6b6457e060405160405180910390a35050565b5f5f5f90507a184f03e93ff9f4daa797ed6e38ed64bf6a1f010000000000000000831061379a577a184f03e93ff9f4daa797ed6e38ed64bf6a1f01000000000000000083816137905761378f615687565b5b0492506040810190505b6d04ee2d6d415b85acef810000000083106137d7576d04ee2d6d415b85acef810000000083816137cd576137cc615687565b5b0492506020810190505b662386f26fc10000831061380657662386f26fc1000083816137fc576137fb615687565b5b0492506010810190505b6305f5e100831061382f576305f5e100838161382557613824615687565b5b0492506008810190505b612710831061385457612710838161384a57613849615687565b5b0492506004810190505b60648310613877576064838161386d5761386c615687565b5b0492506002810190505b600a8310613886576001810190505b80915050919050565b61389a838383613b2c565b61394d575f73ffffffffffffffffffffffffffffffffffffffff168373ffffffffffffffffffffffffffffffffffffffff160361390e57806040517f7e27328900000000000000000000000000000000000000000000000000000000815260040161390591906145fc565b60405180910390fd5b81816040517f177e802f0000000000000000000000000000000000000000000000000000000081526004016139449291906156cd565b60405180910390fd5b505050565b5f5f5f7f7fffffffffffffffffffffffffffffff5d576e7357a4501ddfe92f46681b20a0845f1c111561398e575f600385925092509250613a2f565b5f6001888888886040515f81526020016040526040516139b1949392919061570f565b6020604051602081039080840390855afa1580156139d1573d5f5f3e3d5ffd5b5050506020604051035190505f73ffffffffffffffffffffffffffffffffffffffff168173ffffffffffffffffffffffffffffffffffffffff1603613a22575f60015f5f1b93509350935050613a2f565b805f5f5f1b935093509350505b9450945094915050565b5f73ffffffffffffffffffffffffffffffffffffffff168273ffffffffffffffffffffffffffffffffffffffff1603613aa9575f6040517f64a0ae92000000000000000000000000000000000000000000000000000000008152600401613aa09190613e46565b60405180910390fd5b5f613ab583835f61276f565b90505f73ffffffffffffffffffffffffffffffffffffffff168173ffffffffffffffffffffffffffffffffffffffff1614613b27575f6040517f73c6ac6e000000000000000000000000000000000000000000000000000000008152600401613b1e9190613e46565b60405180910390fd5b505050565b5f5f73ffffffffffffffffffffffffffffffffffffffff168373ffffffffffffffffffffffffffffffffffffffff1614158015613be357508273ffffffffffffffffffffffffffffffffffffffff168473ffffffffffffffffffffffffffffffffffffffff161480613ba45750613ba38484611c6b565b5b80613be257508273ffffffffffffffffffffffffffffffffffffffff16613bca8361271d565b73ffffffffffffffffffffffffffffffffffffffff16145b5b90509392505050565b604051806101600160405280606081526020016060815260200160608152602001606081526020015f8152602001606081526020015f815260200160608152602001606081526020015f6002811115613c4857613c47613fd8565b5b8152602001606081525090565b5f604051905090565b5f5ffd5b5f5ffd5b5f7fffffffff0000000000000000000000000000000000000000000000000000000082169050919050565b613c9a81613c66565b8114613ca4575f5ffd5b50565b5f81359050613cb581613c91565b92915050565b5f60208284031215613cd057613ccf613c5e565b5b5f613cdd84828501613ca7565b91505092915050565b5f8115159050919050565b613cfa81613ce6565b82525050565b5f602082019050613d135f830184613cf1565b92915050565b5f81519050919050565b5f82825260208201905092915050565b8281835e5f83830152505050565b5f601f19601f8301169050919050565b5f613d5b82613d19565b613d658185613d23565b9350613d75818560208601613d33565b613d7e81613d41565b840191505092915050565b5f6020820190508181035f830152613da18184613d51565b905092915050565b5f819050919050565b613dbb81613da9565b8114613dc5575f5ffd5b50565b5f81359050613dd681613db2565b92915050565b5f60208284031215613df157613df0613c5e565b5b5f613dfe84828501613dc8565b91505092915050565b5f73ffffffffffffffffffffffffffffffffffffffff82169050919050565b5f613e3082613e07565b9050919050565b613e4081613e26565b82525050565b5f602082019050613e595f830184613e37565b92915050565b613e6881613e26565b8114613e72575f5ffd5b50565b5f81359050613e8381613e5f565b92915050565b5f5f60408385031215613e9f57613e9e613c5e565b5b5f613eac85828601613e75565b9250506020613ebd85828601613dc8565b9150509250929050565b5f5f5f60608486031215613ede57613edd613c5e565b5b5f613eeb86828701613e75565b9350506020613efc86828701613e75565b9250506040613f0d86828701613dc8565b9150509250925092565b5f82825260208201905092915050565b5f613f3182613d19565b613f3b8185613f17565b9350613f4b818560208601613d33565b613f5481613d41565b840191505092915050565b613f6881613da9565b82525050565b5f819050919050565b613f8081613f6e565b82525050565b5f81519050919050565b5f82825260208201905092915050565b5f613faa82613f86565b613fb48185613f90565b9350613fc4818560208601613d33565b613fcd81613d41565b840191505092915050565b7f4e487b71000000000000000000000000000000000000000000000000000000005f52602160045260245ffd5b6003811061401657614015613fd8565b5b50565b5f81905061402682614005565b919050565b5f61403582614019565b9050919050565b6140458161402b565b82525050565b5f81519050919050565b5f82825260208201905092915050565b5f819050602082019050919050565b61407d81613e26565b82525050565b5f61408e8383614074565b60208301905092915050565b5f602082019050919050565b5f6140b08261404b565b6140ba8185614055565b93506140c583614065565b805f5b838110156140f55781516140dc8882614083565b97506140e78361409a565b9250506001810190506140c8565b5085935050505092915050565b5f61016083015f8301518482035f86015261411d8282613f27565b915050602083015184820360208601526141378282613f27565b915050604083015184820360408601526141518282613f27565b9150506060830151848203606086015261416b8282613f27565b91505060808301516141806080860182613f5f565b5060a083015184820360a08601526141988282613f27565b91505060c08301516141ad60c0860182613f77565b5060e083015184820360e08601526141c58282613fa0565b9150506101008301518482036101008601526141e18282613fa0565b9150506101208301516141f861012086018261403c565b5061014083015184820361014086015261421282826140a6565b9150508091505092915050565b5f6020820190508181035f8301526142378184614102565b905092915050565b6003811061424b575f5ffd5b50565b5f8135905061425c8161423f565b92915050565b5f5f6040838503121561427857614277613c5e565b5b5f61428585828601613dc8565b92505060206142968582860161424e565b9150509250929050565b5f5ffd5b5f5ffd5b7f4e487b71000000000000000000000000000000000000000000000000000000005f52604160045260245ffd5b6142de82613d41565b810181811067ffffffffffffffff821117156142fd576142fc6142a8565b5b80604052505050565b5f61430f613c55565b905061431b82826142d5565b919050565b5f67ffffffffffffffff82111561433a576143396142a8565b5b61434382613d41565b9050602081019050919050565b828183375f83830152505050565b5f61437061436b84614320565b614306565b90508281526020810184848401111561438c5761438b6142a4565b5b614397848285614350565b509392505050565b5f82601f8301126143b3576143b26142a0565b5b81356143c384826020860161435e565b91505092915050565b6143d581613f6e565b81146143df575f5ffd5b50565b5f813590506143f0816143cc565b92915050565b5f67ffffffffffffffff8211156144105761440f6142a8565b5b61441982613d41565b9050602081019050919050565b5f614438614433846143f6565b614306565b905082815260208101848484011115614454576144536142a4565b5b61445f848285614350565b509392505050565b5f82601f83011261447b5761447a6142a0565b5b813561448b848260208601614426565b91505092915050565b5f5f5f5f5f5f5f5f610100898b0312156144b1576144b0613c5e565b5b5f89013567ffffffffffffffff8111156144ce576144cd613c62565b5b6144da8b828c0161439f565b985050602089013567ffffffffffffffff8111156144fb576144fa613c62565b5b6145078b828c0161439f565b975050604089013567ffffffffffffffff81111561452857614527613c62565b5b6145348b828c0161439f565b965050606089013567ffffffffffffffff81111561455557614554613c62565b5b6145618b828c0161439f565b95505060806145728b828c01613dc8565b94505060a089013567ffffffffffffffff81111561459357614592613c62565b5b61459f8b828c0161439f565b93505060c06145b08b828c016143e2565b92505060e089013567ffffffffffffffff8111156145d1576145d0613c62565b5b6145dd8b828c01614467565b9150509295985092959890939650565b6145f681613da9565b82525050565b5f60208201905061460f5f8301846145ed565b92915050565b5f5f6040838503121561462b5761462a613c5e565b5b5f61463885828601613dc8565b925050602083013567ffffffffffffffff81111561465957614658613c62565b5b61466585828601614467565b9150509250929050565b5f6020828403121561468457614683613c5e565b5b5f61469184828501613e75565b91505092915050565b6146a381613ce6565b81146146ad575f5ffd5b50565b5f813590506146be8161469a565b92915050565b5f5f604083850312156146da576146d9613c5e565b5b5f6146e785828601613e75565b92505060206146f8858286016146b0565b9150509250929050565b5f5f5f6060848603121561471957614718613c5e565b5b5f61472686828701613dc8565b935050602061473786828701613e75565b925050604061474886828701613e75565b9150509250925092565b5f5f5f5f6080858703121561476a57614769613c5e565b5b5f61477787828801613e75565b945050602061478887828801613e75565b935050604061479987828801613dc8565b925050606085013567ffffffffffffffff8111156147ba576147b9613c62565b5b6147c687828801614467565b91505092959194509250565b5f5f604083850312156147e8576147e7613c5e565b5b5f6147f585828601613e75565b925050602061480685828601613e75565b9150509250929050565b5f82825260208201905092915050565b5f61482a8261404b565b6148348185614810565b935061483f83614065565b805f5b8381101561486f5781516148568882614083565b97506148618361409a565b925050600181019050614842565b5085935050505092915050565b5f6020820190508181035f8301526148948184614820565b905092915050565b6148a581613f6e565b82525050565b5f82825260208201905092915050565b5f6148c582613f86565b6148cf81856148ab565b93506148df818560208601613d33565b6148e881613d41565b840191505092915050565b6148fc8161402b565b82525050565b5f610140820190508181035f83015261491b818d613d51565b9050818103602083015261492f818c613d51565b90508181036040830152614943818b613d51565b90508181036060830152614957818a613d51565b905061496660808301896145ed565b81810360a08301526149788188613d51565b905061498760c083018761489c565b81810360e083015261499981866148bb565b90508181036101008301526149ae81856148bb565b90506149be6101208301846148f3565b9b9a5050505050505050505050565b7f4e487b71000000000000000000000000000000000000000000000000000000005f52602260045260245ffd5b5f6002820490506001821680614a1157607f821691505b602082108103614a2457614a236149cd565b5b50919050565b5f606082019050614a3d5f830186613e37565b614a4a60208301856145ed565b614a576040830184613e37565b949350505050565b7f546f6b656e20646f6573206e6f742065786973740000000000000000000000005f82015250565b5f614a93601483613d23565b9150614a9e82614a5f565b602082019050919050565b5f6020820190508181035f830152614ac081614a87565b9050919050565b7f4f6e6c7920657363726f7720636f6e74726163740000000000000000000000005f82015250565b5f614afb601483613d23565b9150614b0682614ac7565b602082019050919050565b5f6020820190508181035f830152614b2881614aef565b9050919050565b5f602082019050614b425f8301846148f3565b92915050565b7f4e6f742061207665726966696564206c697374657200000000000000000000005f82015250565b5f614b7c601583613d23565b9150614b8782614b48565b602082019050919050565b5f6020820190508181035f830152614ba981614b70565b9050919050565b7f5072696365206d7573742062652067726561746572207468616e207a65726f005f82015250565b5f614be4601f83613d23565b9150614bef82614bb0565b602082019050919050565b5f6020820190508181035f830152614c1181614bd8565b9050919050565b7f4c6f636174696f6e2072657175697265640000000000000000000000000000005f82015250565b5f614c4c601183613d23565b9150614c5782614c18565b602082019050919050565b5f6020820190508181035f830152614c7981614c40565b9050919050565b7f4c617469747564652072657175697265640000000000000000000000000000005f82015250565b5f614cb4601183613d23565b9150614cbf82614c80565b602082019050919050565b5f6020820190508181035f830152614ce181614ca8565b9050919050565b7f4c6f6e67697475646520726571756972656400000000000000000000000000005f82015250565b5f614d1c601283613d23565b9150614d2782614ce8565b602082019050919050565b5f6020820190508181035f830152614d4981614d10565b9050919050565b7f446f6373206861736820726571756972656400000000000000000000000000005f82015250565b5f614d84601283613d23565b9150614d8f82614d50565b602082019050919050565b5f6020820190508181035f830152614db181614d78565b9050919050565b5f81905092915050565b5f614dcc82613d19565b614dd68185614db8565b9350614de6818560208601613d33565b80840191505092915050565b5f819050919050565b614e0c614e0782613da9565b614df2565b82525050565b5f819050919050565b614e2c614e2782613f6e565b614e12565b82525050565b5f614e3d8289614dc2565b9150614e498288614dc2565b9150614e558287614dc2565b9150614e618286614dc2565b9150614e6d8285614dfb565b602082019150614e7d8284614e1b565b602082019150819050979650505050505050565b7f496e76616c69642073656c6c6572207369676e617475726500000000000000005f82015250565b5f614ec5601883613d23565b9150614ed082614e91565b602082019050919050565b5f6020820190508181035f830152614ef281614eb9565b9050919050565b7f4e487b71000000000000000000000000000000000000000000000000000000005f52601160045260245ffd5b5f614f3082613da9565b91507fffffffffffffffffffffffffffffffffffffffffffffffffffffffffffffffff8203614f6257614f61614ef9565b5b600182019050919050565b5f819050815f5260205f209050919050565b5f6020601f8301049050919050565b5f82821b905092915050565b5f60088302614fc97fffffffffffffffffffffffffffffffffffffffffffffffffffffffffffffffff82614f8e565b614fd38683614f8e565b95508019841693508086168417925050509392505050565b5f819050919050565b5f61500e61500961500484613da9565b614feb565b613da9565b9050919050565b5f819050919050565b61502783614ff4565b61503b61503382615015565b848454614f9a565b825550505050565b5f5f905090565b615052615043565b61505d81848461501e565b505050565b5b81811015615080576150755f8261504a565b600181019050615063565b5050565b601f8211156150c55761509681614f6d565b61509f84614f7f565b810160208510156150ae578190505b6150c26150ba85614f7f565b830182615062565b50505b505050565b5f82821c905092915050565b5f6150e55f19846008026150ca565b1980831691505092915050565b5f6150fd83836150d6565b9150826002028217905092915050565b61511682613d19565b67ffffffffffffffff81111561512f5761512e6142a8565b5b61513982546149fa565b615144828285615084565b5f60209050601f831160018114615175575f8415615163578287015190505b61516d85826150f2565b8655506151d4565b601f19841661518386614f6d565b5f5b828110156151aa57848901518255600182019150602085019450602081019050615185565b868310156151c757848901516151c3601f8916826150d6565b8355505b6001600288020188555050505b505050505050565b5f819050815f5260205f209050919050565b601f82111561522f57615200816151dc565b61520984614f7f565b81016020851015615218578190505b61522c61522485614f7f565b830182615062565b50505b505050565b61523d82613f86565b67ffffffffffffffff811115615256576152556142a8565b5b61526082546149fa565b61526b8282856151ee565b5f60209050601f83116001811461529c575f841561528a578287015190505b61529485826150f2565b8655506152fb565b601f1984166152aa866151dc565b5f5b828110156152d1578489015182556001820191506020850194506020810190506152ac565b868310156152ee57848901516152ea601f8916826150d6565b8355505b6001600288020188555050505b505050505050565b7f496e76616c6964206275796572207369676e61747572650000000000000000005f82015250565b5f615337601783613d23565b915061534282615303565b602082019050919050565b5f6020820190508181035f8301526153648161532b565b9050919050565b7f496e76616c6964206164647265737365730000000000000000000000000000005f82015250565b5f61539f601183613d23565b91506153aa8261536b565b602082019050919050565b5f6020820190508181035f8301526153cc81615393565b9050919050565b7f46726f6d206973206e6f74206f776e65720000000000000000000000000000005f82015250565b5f615407601183613d23565b9150615412826153d3565b602082019050919050565b5f6020820190508181035f830152615434816153fb565b9050919050565b5f6154468285614dc2565b91506154528284614dc2565b91508190509392505050565b7f496e76616c6964206164647265737300000000000000000000000000000000005f82015250565b5f615492600f83613d23565b915061549d8261545e565b602082019050919050565b5f6020820190508181035f8301526154bf81615486565b9050919050565b7f457363726f7720616c72656164792073657400000000000000000000000000005f82015250565b5f6154fa601283613d23565b9150615505826154c6565b602082019050919050565b5f6020820190508181035f830152615527816154ee565b9050919050565b7f496e76616c696420657363726f772061646472657373000000000000000000005f82015250565b5f615562601683613d23565b915061556d8261552e565b602082019050919050565b5f6020820190508181035f83015261558f81615556565b9050919050565b7f55736520657363726f7720746f207472616e736665722070726f7065727479005f82015250565b5f6155ca601f83613d23565b91506155d582615596565b602082019050919050565b5f6020820190508181035f8301526155f7816155be565b9050919050565b5f6080820190506156115f830187613e37565b61561e6020830186613e37565b61562b60408301856145ed565b818103606083015261563d81846148bb565b905095945050505050565b5f8151905061565681613c91565b92915050565b5f6020828403121561567157615670613c5e565b5b5f61567e84828501615648565b91505092915050565b7f4e487b71000000000000000000000000000000000000000000000000000000005f52601260045260245ffd5b5f6020820190506156c75f83018461489c565b92915050565b5f6040820190506156e05f830185613e37565b6156ed60208301846145ed565b9392505050565b5f60ff82169050919050565b615709816156f4565b82525050565b5f6080820190506157225f83018761489c565b61572f6020830186615700565b61573c604083018561489c565b615749606083018461489c565b9594505050505056fea26469706673582212207272306c61b997d5b565001efa7be4e53dfe6e4ec302e006a3d1c0ea6e3961e264736f6c634300081c0033",
  "linkReferences": {},
  "deployedLinkReferences": {},
  "immutableReferences": {},
  "inputSourceName": "project/contracts/PropertyRegistry.sol",
  "buildInfoId": "solc-0_8_28-808b3ef03830a6fd02af36fd9ef784163715dd4a"
}