{
  "_format": "hh3-artifact-1",
  "contractName": "PropertyEscrow",
  "sourceName": "contracts/PropertyEscrow.sol",
  "abi": [
    {
      "inputs": [
        {
          "internalType": "address",
          "name": "_registry",
          "type": "address"
        },
        {
          "internalType": "address",
          "name": "_paymentToken",
          "type": "address"
        },
        {
          "internalType": "uint256",
          "name": "_platformFeeBps",
          "type": "uint256"
        },
        {
          "internalType": "address",
          "name": "_feeRecipient",
          "type": "address"
        }
      ],
      "stateMutability": "nonpayable",
      "type": "constructor"
    },
    {
      "inputs": [],
      "name": "EnforcedPause",
      "type": "error"
    },
    {
      "inputs": [],
      "name": "ExpectedPause",
      "type": "error"
    },
    {
      "inputs": [
        {
          "internalType": "address",
          "name": "owner",
          "type": "address"
        }
      ],
      "name": "OwnableInvalidOwner",
      "type": "error"
    },
    {
      "inputs": [
        {
          "internalType": "address",
          "name": "account",
          "type": "address"
        }
      ],
      "name": "OwnableUnauthorizedAccount",
      "type": "error"
    },
    {
      "inputs": [],
      "name": "ReentrancyGuardReentrantCall",
      "type": "error"
    },
    {
      "inputs": [
        {
          "internalType": "address",
          "name": "token",
          "type": "address"
        }
      ],
      "name": "SafeERC20FailedOperation",
      "type": "error"
    },
    {
      "anonymous": false,
      "inputs": [
        {
          "indexed": true,
          "internalType": "uint256",
          "name": "dealId",
          "type": "uint256"
        },
        {
          "indexed": false,
          "internalType": "string",
          "name": "reason",
          "type": "string"
        }
      ],
      "name": "DealCancelled",
      "type": "event"
    },
    {
      "anonymous": false,
      "inputs": [
        {
          "indexed": false,
          "internalType": "uint256",
          "name": "newExpiry",
          "type": "uint256"
        }
      ],
      "name": "DealExpiryUpdated",
      "type": "event"
    },
    {
      "anonymous": false,
      "inputs": [
        {
          "indexed": true,
          "internalType": "uint256",
          "name": "dealId",
          "type": "uint256"
        },
        {
          "indexed": true,
          "internalType": "uint256",
          "name": "tokenId",
          "type": "uint256"
        },
        {
          "indexed": true,
          "internalType": "address",
          "name": "buyer",
          "type": "address"
        },
        {
          "indexed": false,
          "internalType": "uint256",
          "name": "amount",
          "type": "uint256"
        }
      ],
      "name": "DealOpened",
      "type": "event"
    },
    {
      "anonymous": false,
      "inputs": [
        {
          "indexed": true,
          "internalType": "uint256",
          "name": "dealId",
          "type": "uint256"
        },
        {
          "indexed": false,
          "internalType": "string",
          "name": "reason",
          "type": "string"
        }
      ],
      "name": "DealRejected",
      "type": "event"
    },
    {
      "anonymous": false,
      "inputs": [
        {
          "indexed": true,
          "internalType": "uint256",
          "name": "dealId",
          "type": "uint256"
        },
        {
          "indexed": true,
          "internalType": "uint256",
          "name": "tokenId",
          "type": "uint256"
        },
        {
          "indexed": true,
          "internalType": "address",
          "name": "buyer",
          "type": "address"
        }
      ],
      "name": "DealReleased",
      "type": "event"
    },
    {
      "anonymous": false,
      "inputs": [
        {
          "indexed": true,
          "internalType": "uint256",
          "name": "dealId",
          "type": "uint256"
        },
        {
          "indexed": true,
          "internalType": "address",
          "name": "seller",
          "type": "address"
        },
        {
          "indexed": false,
          "internalType": "uint256",
          "name": "amount",
          "type": "uint256"
        }
      ],
      "name": "FundsQueued",
      "type": "event"
    },
    {
      "anonymous": false,
      "inputs": [
        {
          "indexed": true,
          "internalType": "address",
          "name": "recipient",
          "type": "address"
        },
        {
          "indexed": false,
          "internalType": "uint256",
          "name": "amount",
          "type": "uint256"
        }
      ],
      "name": "FundsWithdrawn",
      "type": "event"
    },
    {
      "anonymous": false,
      "inputs": [
        {
          "indexed": true,
          "internalType": "address",
          "name": "previousOwner",
          "type": "address"
        },
        {
          "indexed": true,
          "internalType": "address",
          "name": "newOwner",
          "type": "address"
        }
      ],
      "name": "OwnershipTransferStarted",
      "type": "event"
    },
    {
      "anonymous": false,
      "inputs": [
        {
          "indexed": true,
          "internalType": "address",
          "name": "previousOwner",
          "type": "address"
        },
        {
          "indexed": true,
          "internalType": "address",
          "name": "newOwner",
          "type": "address"
        }
      ],
      "name": "OwnershipTransferred",
      "type": "event"
    },
    {
      "anonymous": false,
      "inputs": [
        {
          "indexed": false,
          "internalType": "address",
          "name": "account",
          "type": "address"
        }
      ],
      "name": "Paused",
      "type": "event"
    },
    {
      "anonymous": false,
      "inputs": [
        {
          "indexed": false,
          "internalType": "uint256",
          "name": "feeBps",
          "type": "uint256"
        },
        {
          "indexed": true,
          "internalType": "address",
          "name": "recipient",
          "type": "address"
        }
      ],
      "name": "PlatformFeeUpdated",
      "type": "event"
    },
    {
      "anonymous": false,
      "inputs": [
        {
          "indexed": false,
          "internalType": "address",
          "name": "account",
          "type": "address"
        }
      ],
      "name": "Unpaused",
      "type": "event"
    },
    {
      "inputs": [],
      "name": "acceptOwnership",
      "outputs": [],
      "stateMutability": "nonpayable",
      "type": "function"
    },
    {
      "inputs": [
        {
          "internalType": "uint256",
          "name": "",
          "type": "uint256"
        }
      ],
      "name": "activeDeal",
      "outputs": [
        {
          "internalType": "bool",
          "name": "",
          "type": "bool"
        }
      ],
      "stateMutability": "view",
      "type": "function"
    },
    {
      "inputs": [
        {
          "internalType": "uint256",
          "name": "tokenId",
          "type": "uint256"
        }
      ],
      "name": "buyNow",
      "outputs": [
        {
          "internalType": "uint256",
          "name": "",
          "type": "uint256"
        }
      ],
      "stateMutability": "nonpayable",
      "type": "function"
    },
    {
      "inputs": [],
      "name": "dealCount",
      "outputs": [
        {
          "internalType": "uint256",
          "name": "",
          "type": "uint256"
        }
      ],
      "stateMutability": "view",
      "type": "function"
    },
    {
      "inputs": [],
      "name": "dealExpiry",
      "outputs": [
        {
          "internalType": "uint256",
          "name": "",
          "type": "uint256"
        }
      ],
      "stateMutability": "view",
      "type": "function"
    },
    {
      "inputs": [
        {
          "internalType": "uint256",
          "name": "",
          "type": "uint256"
        }
      ],
      "name": "deals",
      "outputs": [
        {
          "internalType": "uint256",
          "name": "tokenId",
          "type": "uint256"
        },
        {
          "internalType": "address",
          "name": "seller",
          "type": "address"
        },
        {
          "internalType": "address",
          "name": "buyer",
          "type": "address"
        },
        {
          "internalType": "uint256",
          "name": "amount",
          "type": "uint256"
        },
        {
          "internalType": "enum PropertyEscrow.DealStatus",
          "name": "status",
          "type": "uint8"
        },
        {
          "internalType": "uint256",
          "name": "createdAt",
          "type": "uint256"
        }
      ],
      "stateMutability": "view",
      "type": "function"
    },
    {
      "inputs": [
        {
          "internalType": "uint256",
          "name": "dealId",
          "type": "uint256"
        }
      ],
      "name": "expireDeal",
      "outputs": [],
      "stateMutability": "nonpayable",
      "type": "function"
    },
    {
      "inputs": [],
      "name": "feeRecipient",
      "outputs": [
        {
          "internalType": "address",
          "name": "",
          "type": "address"
        }
      ],
      "stateMutability": "view",
      "type": "function"
    },
    {
      "inputs": [
        {
          "internalType": "uint256",
          "name": "dealId",
          "type": "uint256"
        }
      ],
      "name": "getDeal",
      "outputs": [
        {
          "components": [
            {
              "internalType": "uint256",
              "name": "tokenId",
              "type": "uint256"
            },
            {
              "internalType": "address",
              "name": "seller",
              "type": "address"
            },
            {
              "internalType": "address",
              "name": "buyer",
              "type": "address"
            },
            {
              "internalType": "uint256",
              "name": "amount",
              "type": "uint256"
            },
            {
              "internalType": "enum PropertyEscrow.DealStatus",
              "name": "status",
              "type": "uint8"
            },
            {
              "internalType": "uint256",
              "name": "createdAt",
              "type": "uint256"
            }
          ],
          "internalType": "struct PropertyEscrow.Deal",
          "name": "",
          "type": "tuple"
        }
      ],
      "stateMutability": "view",
      "type": "function"
    },
    {
      "inputs": [
        {
          "internalType": "uint256",
          "name": "tokenId",
          "type": "uint256"
        }
      ],
      "name": "getDealByToken",
      "outputs": [
        {
          "components": [
            {
              "internalType": "uint256",
              "name": "tokenId",
              "type": "uint256"
            },
            {
              "internalType": "address",
              "name": "seller",
              "type": "address"
            },
            {
              "internalType": "address",
              "name": "buyer",
              "type": "address"
            },
            {
              "internalType": "uint256",
              "name": "amount",
              "type": "uint256"
            },
            {
              "internalType": "enum PropertyEscrow.DealStatus",
              "name": "status",
              "type": "uint8"
            },
            {
              "internalType": "uint256",
              "name": "createdAt",
              "type": "uint256"
            }
          ],
          "internalType": "struct PropertyEscrow.Deal",
          "name": "",
          "type": "tuple"
        }
      ],
      "stateMutability": "view",
      "type": "function"
    },
    {
      "inputs": [
        {
          "internalType": "address",
          "name": "account",
          "type": "address"
        }
      ],
      "name": "getPendingWithdrawal",
      "outputs": [
        {
          "internalType": "uint256",
          "name": "",
          "type": "uint256"
        }
      ],
      "stateMutability": "view",
      "type": "function"
    },
    {
      "inputs": [
        {
          "internalType": "uint256",
          "name": "tokenId",
          "type": "uint256"
        }
      ],
      "name": "hasActiveDeal",
      "outputs": [
        {
          "internalType": "bool",
          "name": "",
          "type": "bool"
        }
      ],
      "stateMutability": "view",
      "type": "function"
    },
    {
      "inputs": [],
      "name": "owner",
      "outputs": [
        {
          "internalType": "address",
          "name": "",
          "type": "address"
        }
      ],
      "stateMutability": "view",
      "type": "function"
    },
    {
      "inputs": [],
      "name": "pause",
      "outputs": [],
      "stateMutability": "nonpayable",
      "type": "function"
    },
    {
      "inputs": [],
      "name": "paused",
      "outputs": [
        {
          "internalType": "bool",
          "name": "",
          "type": "bool"
        }
      ],
      "stateMutability": "view",
      "type": "function"
    },
    {
      "inputs": [],
      "name": "paymentToken",
      "outputs": [
        {
          "internalType": "contract IERC20",
          "name": "",
          "type": "address"
        }
      ],
      "stateMutability": "view",
      "type": "function"
    },
    {
      "inputs": [],
      "name": "pendingOwner",
      "outputs": [
        {
          "internalType": "address",
          "name": "",
          "type": "address"
        }
      ],
      "stateMutability": "view",
      "type": "function"
    },
    {
      "inputs": [
        {
          "internalType": "address",
          "name": "",
          "type": "address"
        }
      ],
      "name": "pendingWithdrawals",
      "outputs": [
        {
          "internalType": "uint256",
          "name": "",
          "type": "uint256"
        }
      ],
      "stateMutability": "view",
      "type": "function"
    },
    {
      "inputs": [],
      "name": "platformFeeBps",
      "outputs": [
        {
          "internalType": "uint256",
          "name": "",
          "type": "uint256"
        }
      ],
      "stateMutability": "view",
      "type": "function"
    },
    {
      "inputs": [],
      "name": "registry",
      "outputs": [
        {
          "internalType": "contract IPropertyRegistry",
          "name": "",
          "type": "address"
        }
      ],
      "stateMutability": "view",
      "type": "function"
    },
    {
      "inputs": [
        {
          "internalType": "uint256",
          "name": "dealId",
          "type": "uint256"
        },
        {
          "internalType": "string",
          "name": "reason",
          "type": "string"
        }
      ],
      "name": "rejectDeal",
      "outputs": [],
      "stateMutability": "nonpayable",
      "type": "function"
    },
    {
      "inputs": [
        {
          "internalType": "uint256",
          "name": "dealId",
          "type": "uint256"
        }
      ],
      "name": "releaseDeal",
      "outputs": [],
      "stateMutability": "nonpayable",
      "type": "function"
    },
    {
      "inputs": [],
      "name": "renounceOwnership",
      "outputs": [],
      "stateMutability": "nonpayable",
      "type": "function"
    },
    {
      "inputs": [
        {
          "internalType": "uint256",
          "name": "newExpiry",
          "type": "uint256"
        }
      ],
      "name": "setDealExpiry",
      "outputs": [],
      "stateMutability": "nonpayable",
      "type": "function"
    },
    {
      "inputs": [
        {
          "internalType": "uint256",
          "name": "feeBps",
          "type": "uint256"
        },
        {
          "internalType": "address",
          "name": "recipient",
          "type": "address"
        }
      ],
      "name": "setPlatformFee",
      "outputs": [],
      "stateMutability": "nonpayable",
      "type": "function"
    },
    {
      "inputs": [
        {
          "internalType": "uint256",
          "name": "",
          "type": "uint256"
        }
      ],
      "name": "tokenToDeal",
      "outputs": [
        {
          "internalType": "uint256",
          "name": "",
          "type": "uint256"
        }
      ],
      "stateMutability": "view",
      "type": "function"
    },
    {
      "inputs": [],
      "name": "totalEscrowedFunds",
      "outputs": [
        {
          "internalType": "uint256",
          "name": "",
          "type": "uint256"
        }
      ],
      "stateMutability": "view",
      "type": "function"
    },
    {
      "inputs": [
        {
          "internalType": "address",
          "name": "newOwner",
          "type": "address"
        }
      ],
      "name": "transferOwnership",
      "outputs": [],
      "stateMutability": "nonpayable",
      "type": "function"
    },
    {
      "inputs": [],
      "name": "unpause",
      "outputs": [],
      "stateMutability": "nonpayable",
      "type": "function"
    },
    {
      "inputs": [],
      "name": "withdrawFunds",
      "outputs": [],
      "stateMutability": "nonpayable",
      "type": "function"
    }
  ],
  "bytecode": "0x60c060405262093a80600855348015610016575f5ffd5b506040516143ec3803806143ec833981810160405281019061003891906104de565b335f73ffffffffffffffffffffffffffffffffffffffff168173ffffffffffffffffffffffffffffffffffffffff16036100a9575f6040517f1e4fbdf70000000000000000000000000000000000000000000000000000000081526004016100a09190610551565b60405180910390fd5b6100b88161032460201b60201c565b5060016100d76100cc61035a60201b60201c565b61038360201b60201c565b5f01819055505f73ffffffffffffffffffffffffffffffffffffffff168473ffffffffffffffffffffffffffffffffffffffff160361014b576040517f08c379a0000000000000000000000000000000000000000000000000000000008152600401610142906105c4565b60405180910390fd5b5f73ffffffffffffffffffffffffffffffffffffffff168373ffffffffffffffffffffffffffffffffffffffff16036101b9576040517f08c379a00000000000000000000000000000000000000000000000000000000081526004016101b09061062c565b60405180910390fd5b6103e88211156101fe576040517f08c379a00000000000000000000000000000000000000000000000000000000081526004016101f590610694565b60405180910390fd5b5f73ffffffffffffffffffffffffffffffffffffffff168173ffffffffffffffffffffffffffffffffffffffff160361026c576040517f08c379a0000000000000000000000000000000000000000000000000000000008152600401610263906106fc565b60405180910390fd5b8373ffffffffffffffffffffffffffffffffffffffff1660808173ffffffffffffffffffffffffffffffffffffffff16815250508273ffffffffffffffffffffffffffffffffffffffff1660a08173ffffffffffffffffffffffffffffffffffffffff16815250508160098190555080600a5f6101000a81548173ffffffffffffffffffffffffffffffffffffffff021916908373ffffffffffffffffffffffffffffffffffffffff1602179055505050505061071a565b60015f6101000a81549073ffffffffffffffffffffffffffffffffffffffff02191690556103578161038c60201b60201c565b50565b5f7f9b779b17422d0df92223018b32b4d1fa46e071723d6817e2486d003becc55f005f1b905090565b5f819050919050565b5f5f5f9054906101000a900473ffffffffffffffffffffffffffffffffffffffff169050815f5f6101000a81548173ffffffffffffffffffffffffffffffffffffffff021916908373ffffffffffffffffffffffffffffffffffffffff1602179055508173ffffffffffffffffffffffffffffffffffffffff168173ffffffffffffffffffffffffffffffffffffffff167f8be0079c531659141344cd1fd0a4f28419497f9722a3daafe3b4186f6b6457e060405160405180910390a35050565b5f5ffd5b5f73ffffffffffffffffffffffffffffffffffffffff82169050919050565b5f61047a82610451565b9050919050565b61048a81610470565b8114610494575f5ffd5b50565b5f815190506104a581610481565b92915050565b5f819050919050565b6104bd816104ab565b81146104c7575f5ffd5b50565b5f815190506104d8816104b4565b92915050565b5f5f5f5f608085870312156104f6576104f561044d565b5b5f61050387828801610497565b945050602061051487828801610497565b9350506040610525878288016104ca565b925050606061053687828801610497565b91505092959194509250565b61054b81610470565b82525050565b5f6020820190506105645f830184610542565b92915050565b5f82825260208201905092915050565b7f496e76616c6964207265676973747279206164647265737300000000000000005f82015250565b5f6105ae60188361056a565b91506105b98261057a565b602082019050919050565b5f6020820190508181035f8301526105db816105a2565b9050919050565b7f496e76616c6964207061796d656e7420746f6b656e00000000000000000000005f82015250565b5f61061660158361056a565b9150610621826105e2565b602082019050919050565b5f6020820190508181035f8301526106438161060a565b9050919050565b7f46656520746f6f20686967682c206d61782031302500000000000000000000005f82015250565b5f61067e60158361056a565b91506106898261064a565b602082019050919050565b5f6020820190508181035f8301526106ab81610672565b9050919050565b7f496e76616c69642066656520726563697069656e7400000000000000000000005f82015250565b5f6106e660158361056a565b91506106f1826106b2565b602082019050919050565b5f6020820190508181035f830152610713816106da565b9050919050565b60805160a051613c6b6107815f395f81816109e501528181610c900152818161102601526110c501525f81816106a1015281816107850152818161082301528181610cd701528181611379015281816117a601528181611a1d01526121050152613c6b5ff3fe608060405234801561000f575f5ffd5b50600436106101d8575f3560e01c80637b10399911610102578063cf4cb99b116100a0578063f2fde38b1161006f578063f2fde38b146104eb578063f3e31f8414610507578063f3f4370314610537578063ffa3ffd414610567576101d8565b8063cf4cb99b14610463578063e30c397814610493578063ea3d0b00146104b1578063eadb3c9c146104cd576101d8565b8063839a4641116100dc578063839a4641146104015780638456cb591461041f5780638da5cb5b14610429578063b4d884f614610447576101d8565b80637b103999146103835780637ee8b2f8146103a157806382fd5bac146103d1576101d8565b806331ce2a101161017a578063505b653811610149578063505b6538146103355780635c975abb14610351578063715018a61461036f57806379ba509714610379576101d8565b806331ce2a10146102d5578063328ff9ec146102f15780633f4ba83a1461030d5780634690484014610317576101d8565b8063226ec9eb116101b6578063226ec9eb1461027157806322dcd13e1461028f57806324600fc3146102ad5780633013ce29146102b7576101d8565b806303988f84146101dc57806308a0f32f1461021157806311d4475e14610241575b5f5ffd5b6101f660048036038101906101f19190612887565b610597565b60405161020896959493929190612973565b60405180910390f35b61022b60048036038101906102269190612887565b610619565b60405161023891906129d2565b60405180910390f35b61025b60048036038101906102569190612887565b610dc2565b6040516102689190612a91565b60405180910390f35b610279610f46565b60405161028691906129d2565b60405180910390f35b610297610f4c565b6040516102a491906129d2565b60405180910390f35b6102b5610f52565b005b6102bf6110c3565b6040516102cc9190612b05565b60405180910390f35b6102ef60048036038101906102ea9190612887565b6110e7565b005b61030b60048036038101906103069190612b7f565b611185565b005b610315611486565b005b61031f611498565b60405161032c9190612bdc565b60405180910390f35b61034f600480360381019061034a9190612887565b6114bd565b005b610359611964565b6040516103669190612c0f565b60405180910390f35b61037761197a565b005b61038161198d565b005b61038b611a1b565b6040516103989190612c48565b60405180910390f35b6103bb60048036038101906103b69190612c8b565b611a3f565b6040516103c891906129d2565b60405180910390f35b6103eb60048036038101906103e69190612887565b611a85565b6040516103f89190612a91565b60405180910390f35b610409611c03565b60405161041691906129d2565b60405180910390f35b610427611c09565b005b610431611c1b565b60405161043e9190612bdc565b60405180910390f35b610461600480360381019061045c9190612cb6565b611c42565b005b61047d60048036038101906104789190612887565b611d96565b60405161048a9190612c0f565b60405180910390f35b61049b611dbc565b6040516104a89190612bdc565b60405180910390f35b6104cb60048036038101906104c69190612887565b611de4565b005b6104d56121d2565b6040516104e291906129d2565b60405180910390f35b61050560048036038101906105009190612c8b565b6121d8565b005b610521600480360381019061051c9190612887565b612284565b60405161052e91906129d2565b60405180910390f35b610551600480360381019061054c9190612c8b565b612299565b60405161055e91906129d2565b60405180910390f35b610581600480360381019061057c9190612887565b6122ae565b60405161058e9190612c0f565b60405180910390f35b6004602052805f5260405f205f91509050805f015490806001015f9054906101000a900473ffffffffffffffffffffffffffffffffffffffff1690806002015f9054906101000a900473ffffffffffffffffffffffffffffffffffffffff1690806003015490806004015f9054906101000a900460ff16908060050154905086565b5f6106226122cb565b61062a61230c565b60065f8381526020019081526020015f205f9054906101000a900460ff1615610688576040517f08c379a000000000000000000000000000000000000000000000000000000000815260040161067f90612d74565b60405180910390fd5b3073ffffffffffffffffffffffffffffffffffffffff167f000000000000000000000000000000000000000000000000000000000000000073ffffffffffffffffffffffffffffffffffffffff1663b909acc56040518163ffffffff1660e01b8152600401602060405180830381865afa158015610708573d5f5f3e3d5ffd5b505050506040513d601f19601f8201168201806040525081019061072c9190612da6565b73ffffffffffffffffffffffffffffffffffffffff1614610782576040517f08c379a000000000000000000000000000000000000000000000000000000000815260040161077990612e41565b60405180910390fd5b5f7f000000000000000000000000000000000000000000000000000000000000000073ffffffffffffffffffffffffffffffffffffffff166332665ffb846040518263ffffffff1660e01b81526004016107dc91906129d2565b5f60405180830381865afa1580156107f6573d5f5f3e3d5ffd5b505050506040513d5f823e3d601f19601f8201168201806040525081019061081e9190613350565b90505f7f000000000000000000000000000000000000000000000000000000000000000073ffffffffffffffffffffffffffffffffffffffff16636352211e856040518263ffffffff1660e01b815260040161087a91906129d2565b602060405180830381865afa158015610895573d5f5f3e3d5ffd5b505050506040513d601f19601f820116820180604052508101906108b99190612da6565b90505f60028111156108ce576108cd612900565b5b82610120015160028111156108e6576108e5612900565b5b14610926576040517f08c379a000000000000000000000000000000000000000000000000000000000815260040161091d906133e1565b60405180910390fd5b5f82608001511161096c576040517f08c379a000000000000000000000000000000000000000000000000000000000815260040161096390613449565b60405180910390fd5b8073ffffffffffffffffffffffffffffffffffffffff163373ffffffffffffffffffffffffffffffffffffffff16036109da576040517f08c379a00000000000000000000000000000000000000000000000000000000081526004016109d1906134b1565b60405180910390fd5b5f82608001519050807f000000000000000000000000000000000000000000000000000000000000000073ffffffffffffffffffffffffffffffffffffffff1663dd62ed3e33306040518363ffffffff1660e01b8152600401610a3e9291906134cf565b602060405180830381865afa158015610a59573d5f5f3e3d5ffd5b505050506040513d601f19601f82011682018060405250810190610a7d91906134f6565b1015610abe576040517f08c379a0000000000000000000000000000000000000000000000000000000008152600401610ab590613591565b60405180910390fd5b60025f815480929190610ad0906135dc565b91905055505f60025490506040518060c001604052808781526020018473ffffffffffffffffffffffffffffffffffffffff1681526020013373ffffffffffffffffffffffffffffffffffffffff1681526020018381526020015f6002811115610b3d57610b3c612900565b5b81526020014281525060045f8381526020019081526020015f205f820151815f01556020820151816001015f6101000a81548173ffffffffffffffffffffffffffffffffffffffff021916908373ffffffffffffffffffffffffffffffffffffffff1602179055506040820151816002015f6101000a81548173ffffffffffffffffffffffffffffffffffffffff021916908373ffffffffffffffffffffffffffffffffffffffff160217905550606082015181600301556080820151816004015f6101000a81548160ff02191690836002811115610c1f57610c1e612900565b5b021790555060a082015181600501559050508060055f8881526020019081526020015f2081905550600160065f8881526020019081526020015f205f6101000a81548160ff0219169083151502179055508160035f828254610c819190613623565b92505081905550610cd53330847f000000000000000000000000000000000000000000000000000000000000000073ffffffffffffffffffffffffffffffffffffffff1661232e909392919063ffffffff16565b7f000000000000000000000000000000000000000000000000000000000000000073ffffffffffffffffffffffffffffffffffffffff16633a1b3d318760016040518363ffffffff1660e01b8152600401610d3192919061369c565b5f604051808303815f87803b158015610d48575f5ffd5b505af1158015610d5a573d5f5f3e3d5ffd5b505050503373ffffffffffffffffffffffffffffffffffffffff1686827fd03c253ac07c258c871bcbf3e1a8864bbdb266b37ae278630ac1f7b9e9d3b95e85604051610da691906129d2565b60405180910390a480945050505050610dbd612383565b919050565b610dca6127d5565b5f60055f8481526020019081526020015f205490505f8103610e21576040517f08c379a0000000000000000000000000000000000000000000000000000000008152600401610e189061370d565b60405180910390fd5b60045f8281526020019081526020015f206040518060c00160405290815f8201548152602001600182015f9054906101000a900473ffffffffffffffffffffffffffffffffffffffff1673ffffffffffffffffffffffffffffffffffffffff1673ffffffffffffffffffffffffffffffffffffffff168152602001600282015f9054906101000a900473ffffffffffffffffffffffffffffffffffffffff1673ffffffffffffffffffffffffffffffffffffffff1673ffffffffffffffffffffffffffffffffffffffff16815260200160038201548152602001600482015f9054906101000a900460ff166002811115610f1e57610f1d612900565b5b6002811115610f3057610f2f612900565b5b8152602001600582015481525050915050919050565b60035481565b60095481565b610f5a61230c565b5f60075f3373ffffffffffffffffffffffffffffffffffffffff1673ffffffffffffffffffffffffffffffffffffffff1681526020019081526020015f205490505f8111610fdd576040517f08c379a0000000000000000000000000000000000000000000000000000000008152600401610fd490613775565b60405180910390fd5b5f60075f3373ffffffffffffffffffffffffffffffffffffffff1673ffffffffffffffffffffffffffffffffffffffff1681526020019081526020015f208190555061106a33827f000000000000000000000000000000000000000000000000000000000000000073ffffffffffffffffffffffffffffffffffffffff1661239d9092919063ffffffff16565b3373ffffffffffffffffffffffffffffffffffffffff167feaff4b37086828766ad3268786972c0cd24259d4c87a80f9d3963a3c3d999b0d826040516110b091906129d2565b60405180910390a2506110c1612383565b565b7f000000000000000000000000000000000000000000000000000000000000000081565b6110ef6123f0565b620151808110158015611105575062278d008111155b611144576040517f08c379a000000000000000000000000000000000000000000000000000000000815260040161113b906137dd565b60405180910390fd5b806008819055507fd51288cc47fa91b74c14b0f64166478b661c64bce7e9c5c4f8615b0e24597a758160405161117a91906129d2565b60405180910390a150565b825f8111801561119757506002548111155b6111d6576040517f08c379a00000000000000000000000000000000000000000000000000000000081526004016111cd90613845565b60405180910390fd5b6111de6123f0565b6111e661230c565b6111ee6122cb565b5f60045f8681526020019081526020015f2090505f600281111561121557611214612900565b5b816004015f9054906101000a900460ff16600281111561123857611237612900565b5b14611278576040517f08c379a000000000000000000000000000000000000000000000000000000000815260040161126f906138ad565b60405180910390fd5b6002816004015f6101000a81548160ff0219169083600281111561129f5761129e612900565b5b02179055505f60065f835f015481526020019081526020015f205f6101000a81548160ff0219169083151502179055505f816003015490505f82600301819055505f811115611377578060035f8282546112f991906138cb565b925050819055508060075f846002015f9054906101000a900473ffffffffffffffffffffffffffffffffffffffff1673ffffffffffffffffffffffffffffffffffffffff1673ffffffffffffffffffffffffffffffffffffffff1681526020019081526020015f205f82825461136f9190613623565b925050819055505b7f000000000000000000000000000000000000000000000000000000000000000073ffffffffffffffffffffffffffffffffffffffff16633a1b3d31835f01545f6040518363ffffffff1660e01b81526004016113d592919061369c565b5f604051808303815f87803b1580156113ec575f5ffd5b505af11580156113fe573d5f5f3e3d5ffd5b50505050857fd51ceee8e9a1215169332acf908e21bcb6adf0666e57bf9b3abbba9b7f387ae08686604051611434929190613938565b60405180910390a2857fa8b8b3efbebafa658fb44a735ae6b22cee3289a25c09ff2a8cd300c915b20132868660405161146e929190613938565b60405180910390a25050611480612383565b50505050565b61148e6123f0565b611496612477565b565b600a5f9054906101000a900473ffffffffffffffffffffffffffffffffffffffff1681565b805f811180156114cf57506002548111155b61150e576040517f08c379a000000000000000000000000000000000000000000000000000000000815260040161150590613845565b60405180910390fd5b6115166123f0565b61151e61230c565b6115266122cb565b5f60045f8481526020019081526020015f2090505f600281111561154d5761154c612900565b5b816004015f9054906101000a900460ff1660028111156115705761156f612900565b5b146115b0576040517f08c379a00000000000000000000000000000000000000000000000000000000081526004016115a7906138ad565b60405180910390fd5b60085481600501546115c29190613623565b421115611604576040517f08c379a00000000000000000000000000000000000000000000000000000000081526004016115fb906139a4565b60405180910390fd5b6001816004015f6101000a81548160ff0219169083600281111561162b5761162a612900565b5b02179055505f60065f835f015481526020019081526020015f205f6101000a81548160ff0219169083151502179055505f816003015490505f82600301819055508060035f82825461167d91906138cb565b925050819055505f6127106009548361169691906139c2565b6116a09190613a30565b90505f81836116af91906138cb565b90508060075f866001015f9054906101000a900473ffffffffffffffffffffffffffffffffffffffff1673ffffffffffffffffffffffffffffffffffffffff1673ffffffffffffffffffffffffffffffffffffffff1681526020019081526020015f205f8282546117209190613623565b925050819055505f8211156117a4578160075f600a5f9054906101000a900473ffffffffffffffffffffffffffffffffffffffff1673ffffffffffffffffffffffffffffffffffffffff1673ffffffffffffffffffffffffffffffffffffffff1681526020019081526020015f205f82825461179c9190613623565b925050819055505b7f000000000000000000000000000000000000000000000000000000000000000073ffffffffffffffffffffffffffffffffffffffff1663a59f6ca3855f0154866001015f9054906101000a900473ffffffffffffffffffffffffffffffffffffffff16876002015f9054906101000a900473ffffffffffffffffffffffffffffffffffffffff166040518463ffffffff1660e01b815260040161184a93929190613a60565b5f604051808303815f87803b158015611861575f5ffd5b505af1158015611873573d5f5f3e3d5ffd5b50505050836002015f9054906101000a900473ffffffffffffffffffffffffffffffffffffffff1673ffffffffffffffffffffffffffffffffffffffff16845f0154877fd7053ec6a7755798d6d1fa1b5ccd01d60282b761dc9205c289cd6a7a371c5dac60405160405180910390a4836001015f9054906101000a900473ffffffffffffffffffffffffffffffffffffffff1673ffffffffffffffffffffffffffffffffffffffff16867f2300a73f1cda2df8a72bbf531a1e8dea67d05e38e41e44ee8def9c4c939e93018360405161194c91906129d2565b60405180910390a350505050611960612383565b5050565b5f600160149054906101000a900460ff16905090565b6119826123f0565b61198b5f6124d9565b565b5f611996612509565b90508073ffffffffffffffffffffffffffffffffffffffff166119b7611dbc565b73ffffffffffffffffffffffffffffffffffffffff1614611a0f57806040517f118cdaa7000000000000000000000000000000000000000000000000000000008152600401611a069190612bdc565b60405180910390fd5b611a18816124d9565b50565b7f000000000000000000000000000000000000000000000000000000000000000081565b5f60075f8373ffffffffffffffffffffffffffffffffffffffff1673ffffffffffffffffffffffffffffffffffffffff1681526020019081526020015f20549050919050565b611a8d6127d5565b815f81118015611a9f57506002548111155b611ade576040517f08c379a0000000000000000000000000000000000000000000000000000000008152600401611ad590613845565b60405180910390fd5b60045f8481526020019081526020015f206040518060c00160405290815f8201548152602001600182015f9054906101000a900473ffffffffffffffffffffffffffffffffffffffff1673ffffffffffffffffffffffffffffffffffffffff1673ffffffffffffffffffffffffffffffffffffffff168152602001600282015f9054906101000a900473ffffffffffffffffffffffffffffffffffffffff1673ffffffffffffffffffffffffffffffffffffffff1673ffffffffffffffffffffffffffffffffffffffff16815260200160038201548152602001600482015f9054906101000a900460ff166002811115611bdb57611bda612900565b5b6002811115611bed57611bec612900565b5b8152602001600582015481525050915050919050565b60085481565b611c116123f0565b611c19612510565b565b5f5f5f9054906101000a900473ffffffffffffffffffffffffffffffffffffffff16905090565b611c4a6123f0565b6103e8821115611c8f576040517f08c379a0000000000000000000000000000000000000000000000000000000008152600401611c8690613adf565b60405180910390fd5b5f73ffffffffffffffffffffffffffffffffffffffff168173ffffffffffffffffffffffffffffffffffffffff1603611cfd576040517f08c379a0000000000000000000000000000000000000000000000000000000008152600401611cf490613b47565b60405180910390fd5b8160098190555080600a5f6101000a81548173ffffffffffffffffffffffffffffffffffffffff021916908373ffffffffffffffffffffffffffffffffffffffff1602179055508073ffffffffffffffffffffffffffffffffffffffff167ff0c09f5238364083d828870e877edaebb364d9f19f4093fdbf24e486bbdca48483604051611d8a91906129d2565b60405180910390a25050565b5f60065f8381526020019081526020015f205f9054906101000a900460ff169050919050565b5f60015f9054906101000a900473ffffffffffffffffffffffffffffffffffffffff16905090565b805f81118015611df657506002548111155b611e35576040517f08c379a0000000000000000000000000000000000000000000000000000000008152600401611e2c90613845565b60405180910390fd5b611e3d61230c565b5f60045f8481526020019081526020015f2090505f6002811115611e6457611e63612900565b5b816004015f9054906101000a900460ff166002811115611e8757611e86612900565b5b14611ec7576040517f08c379a0000000000000000000000000000000000000000000000000000000008152600401611ebe906138ad565b60405180910390fd5b806001015f9054906101000a900473ffffffffffffffffffffffffffffffffffffffff1673ffffffffffffffffffffffffffffffffffffffff163373ffffffffffffffffffffffffffffffffffffffff161480611f725750806002015f9054906101000a900473ffffffffffffffffffffffffffffffffffffffff1673ffffffffffffffffffffffffffffffffffffffff163373ffffffffffffffffffffffffffffffffffffffff16145b611fb1576040517f08c379a0000000000000000000000000000000000000000000000000000000008152600401611fa890613baf565b60405180910390fd5b6008548160050154611fc39190613623565b4211612004576040517f08c379a0000000000000000000000000000000000000000000000000000000008152600401611ffb90613c17565b60405180910390fd5b6002816004015f6101000a81548160ff0219169083600281111561202b5761202a612900565b5b02179055505f60065f835f015481526020019081526020015f205f6101000a81548160ff0219169083151502179055505f816003015490505f82600301819055505f811115612103578060035f82825461208591906138cb565b925050819055508060075f846002015f9054906101000a900473ffffffffffffffffffffffffffffffffffffffff1673ffffffffffffffffffffffffffffffffffffffff1673ffffffffffffffffffffffffffffffffffffffff1681526020019081526020015f205f8282546120fb9190613623565b925050819055505b7f000000000000000000000000000000000000000000000000000000000000000073ffffffffffffffffffffffffffffffffffffffff16633a1b3d31835f01545f6040518363ffffffff1660e01b815260040161216192919061369c565b5f604051808303815f87803b158015612178575f5ffd5b505af115801561218a573d5f5f3e3d5ffd5b50505050837fa8b8b3efbebafa658fb44a735ae6b22cee3289a25c09ff2a8cd300c915b201326040516121bc906139a4565b60405180910390a250506121ce612383565b5050565b60025481565b6121e06123f0565b8060015f6101000a81548173ffffffffffffffffffffffffffffffffffffffff021916908373ffffffffffffffffffffffffffffffffffffffff1602179055508073ffffffffffffffffffffffffffffffffffffffff1661223f611c1b565b73ffffffffffffffffffffffffffffffffffffffff167f38d16b8cac22d99fc7c124b9cd0de2d3fa1faef420bfe791d8c362d765e2270060405160405180910390a350565b6005602052805f5260405f205f915090505481565b6007602052805f5260405f205f915090505481565b6006602052805f5260405f205f915054906101000a900460ff1681565b6122d3611964565b1561230a576040517fd93c066500000000000000000000000000000000000000000000000000000000815260040160405180910390fd5b565b612314612572565b60026123266123216125b3565b6125dc565b5f0181905550565b61233c8484848460016125e5565b61237d57836040517f5274afe70000000000000000000000000000000000000000000000000000000081526004016123749190612bdc565b60405180910390fd5b50505050565b60016123956123906125b3565b6125dc565b5f0181905550565b6123aa8383836001612656565b6123eb57826040517f5274afe70000000000000000000000000000000000000000000000000000000081526004016123e29190612bdc565b60405180910390fd5b505050565b6123f8612509565b73ffffffffffffffffffffffffffffffffffffffff16612416611c1b565b73ffffffffffffffffffffffffffffffffffffffff161461247557612439612509565b6040517f118cdaa700000000000000000000000000000000000000000000000000000000815260040161246c9190612bdc565b60405180910390fd5b565b61247f6126b8565b5f600160146101000a81548160ff0219169083151502179055507f5db9ee0a495bf2e6ff9c91a7834c1ba4fdd244a5e8aa4e537bd38aeae4b073aa6124c2612509565b6040516124cf9190612bdc565b60405180910390a1565b60015f6101000a81549073ffffffffffffffffffffffffffffffffffffffff0219169055612506816126f8565b50565b5f33905090565b6125186122cb565b60018060146101000a81548160ff0219169083151502179055507f62e78cea01bee320cd4e420270b5ea74000d11b0c9f74754ebdbfc544b05a25861255b612509565b6040516125689190612bdc565b60405180910390a1565b61257a6127b9565b156125b1576040517f3ee5aeb500000000000000000000000000000000000000000000000000000000815260040160405180910390fd5b565b5f7f9b779b17422d0df92223018b32b4d1fa46e071723d6817e2486d003becc55f005f1b905090565b5f819050919050565b5f5f6323b872dd60e01b9050604051815f525f1960601c87166004525f1960601c86166024528460445260205f60645f5f8c5af1925060015f51148316612643578383151615612637573d5f823e3d81fd5b5f883b113d1516831692505b806040525f606052505095945050505050565b5f5f63a9059cbb60e01b9050604051815f525f1960601c86166004528460245260205f60445f5f8b5af1925060015f511483166126aa57838315161561269e573d5f823e3d81fd5b5f873b113d1516831692505b806040525050949350505050565b6126c0611964565b6126f6576040517f8dfc202b00000000000000000000000000000000000000000000000000000000815260040160405180910390fd5b565b5f5f5f9054906101000a900473ffffffffffffffffffffffffffffffffffffffff169050815f5f6101000a81548173ffffffffffffffffffffffffffffffffffffffff021916908373ffffffffffffffffffffffffffffffffffffffff1602179055508173ffffffffffffffffffffffffffffffffffffffff168173ffffffffffffffffffffffffffffffffffffffff167f8be0079c531659141344cd1fd0a4f28419497f9722a3daafe3b4186f6b6457e060405160405180910390a35050565b5f60026127cc6127c76125b3565b6125dc565b5f015414905090565b6040518060c001604052805f81526020015f73ffffffffffffffffffffffffffffffffffffffff1681526020015f73ffffffffffffffffffffffffffffffffffffffff1681526020015f81526020015f600281111561283757612836612900565b5b81526020015f81525090565b5f604051905090565b5f5ffd5b5f5ffd5b5f819050919050565b61286681612854565b8114612870575f5ffd5b50565b5f813590506128818161285d565b92915050565b5f6020828403121561289c5761289b61284c565b5b5f6128a984828501612873565b91505092915050565b6128bb81612854565b82525050565b5f73ffffffffffffffffffffffffffffffffffffffff82169050919050565b5f6128ea826128c1565b9050919050565b6128fa816128e0565b82525050565b7f4e487b71000000000000000000000000000000000000000000000000000000005f52602160045260245ffd5b6003811061293e5761293d612900565b5b50565b5f81905061294e8261292d565b919050565b5f61295d82612941565b9050919050565b61296d81612953565b82525050565b5f60c0820190506129865f8301896128b2565b61299360208301886128f1565b6129a060408301876128f1565b6129ad60608301866128b2565b6129ba6080830185612964565b6129c760a08301846128b2565b979650505050505050565b5f6020820190506129e55f8301846128b2565b92915050565b6129f481612854565b82525050565b612a03816128e0565b82525050565b612a1281612953565b82525050565b60c082015f820151612a2c5f8501826129eb565b506020820151612a3f60208501826129fa565b506040820151612a5260408501826129fa565b506060820151612a6560608501826129eb565b506080820151612a786080850182612a09565b5060a0820151612a8b60a08501826129eb565b50505050565b5f60c082019050612aa45f830184612a18565b92915050565b5f819050919050565b5f612acd612ac8612ac3846128c1565b612aaa565b6128c1565b9050919050565b5f612ade82612ab3565b9050919050565b5f612aef82612ad4565b9050919050565b612aff81612ae5565b82525050565b5f602082019050612b185f830184612af6565b92915050565b5f5ffd5b5f5ffd5b5f5ffd5b5f5f83601f840112612b3f57612b3e612b1e565b5b8235905067ffffffffffffffff811115612b5c57612b5b612b22565b5b602083019150836001820283011115612b7857612b77612b26565b5b9250929050565b5f5f5f60408486031215612b9657612b9561284c565b5b5f612ba386828701612873565b935050602084013567ffffffffffffffff811115612bc457612bc3612850565b5b612bd086828701612b2a565b92509250509250925092565b5f602082019050612bef5f8301846128f1565b92915050565b5f8115159050919050565b612c0981612bf5565b82525050565b5f602082019050612c225f830184612c00565b92915050565b5f612c3282612ad4565b9050919050565b612c4281612c28565b82525050565b5f602082019050612c5b5f830184612c39565b92915050565b612c6a816128e0565b8114612c74575f5ffd5b50565b5f81359050612c8581612c61565b92915050565b5f60208284031215612ca057612c9f61284c565b5b5f612cad84828501612c77565b91505092915050565b5f5f60408385031215612ccc57612ccb61284c565b5b5f612cd985828601612873565b9250506020612cea85828601612c77565b9150509250929050565b5f82825260208201905092915050565b7f416374697665206465616c2065786973747320666f72207468697320746f6b655f8201527f6e00000000000000000000000000000000000000000000000000000000000000602082015250565b5f612d5e602183612cf4565b9150612d6982612d04565b604082019050919050565b5f6020820190508181035f830152612d8b81612d52565b9050919050565b5f81519050612da081612c61565b92915050565b5f60208284031215612dbb57612dba61284c565b5b5f612dc884828501612d92565b91505092915050565b7f5468697320636f6e7472616374206973206e6f742074686520726567697374655f8201527f72656420657363726f7700000000000000000000000000000000000000000000602082015250565b5f612e2b602a83612cf4565b9150612e3682612dd1565b604082019050919050565b5f6020820190508181035f830152612e5881612e1f565b9050919050565b5f5ffd5b5f601f19601f8301169050919050565b7f4e487b71000000000000000000000000000000000000000000000000000000005f52604160045260245ffd5b612ea982612e63565b810181811067ffffffffffffffff82111715612ec857612ec7612e73565b5b80604052505050565b5f612eda612843565b9050612ee68282612ea0565b919050565b5f5ffd5b5f5ffd5b5f67ffffffffffffffff821115612f0d57612f0c612e73565b5b612f1682612e63565b9050602081019050919050565b8281835e5f83830152505050565b5f612f43612f3e84612ef3565b612ed1565b905082815260208101848484011115612f5f57612f5e612eef565b5b612f6a848285612f23565b509392505050565b5f82601f830112612f8657612f85612b1e565b5b8151612f96848260208601612f31565b91505092915050565b5f81519050612fad8161285d565b92915050565b5f819050919050565b612fc581612fb3565b8114612fcf575f5ffd5b50565b5f81519050612fe081612fbc565b92915050565b5f67ffffffffffffffff82111561300057612fff612e73565b5b61300982612e63565b9050602081019050919050565b5f61302861302384612fe6565b612ed1565b90508281526020810184848401111561304457613043612eef565b5b61304f848285612f23565b509392505050565b5f82601f83011261306b5761306a612b1e565b5b815161307b848260208601613016565b91505092915050565b60038110613090575f5ffd5b50565b5f815190506130a181613084565b92915050565b5f67ffffffffffffffff8211156130c1576130c0612e73565b5b602082029050602081019050919050565b5f6130e46130df846130a7565b612ed1565b9050808382526020820190506020840283018581111561310757613106612b26565b5b835b81811015613130578061311c8882612d92565b845260208401935050602081019050613109565b5050509392505050565b5f82601f83011261314e5761314d612b1e565b5b815161315e8482602086016130d2565b91505092915050565b5f610160828403121561317d5761317c612e5f565b5b613188610160612ed1565b90505f82015167ffffffffffffffff8111156131a7576131a6612eeb565b5b6131b384828501612f72565b5f83015250602082015167ffffffffffffffff8111156131d6576131d5612eeb565b5b6131e284828501612f72565b602083015250604082015167ffffffffffffffff81111561320657613205612eeb565b5b61321284828501612f72565b604083015250606082015167ffffffffffffffff81111561323657613235612eeb565b5b61324284828501612f72565b606083015250608061325684828501612f9f565b60808301525060a082015167ffffffffffffffff81111561327a57613279612eeb565b5b61328684828501612f72565b60a08301525060c061329a84828501612fd2565b60c08301525060e082015167ffffffffffffffff8111156132be576132bd612eeb565b5b6132ca84828501613057565b60e08301525061010082015167ffffffffffffffff8111156132ef576132ee612eeb565b5b6132fb84828501613057565b6101008301525061012061331184828501613093565b6101208301525061014082015167ffffffffffffffff81111561333757613336612eeb565b5b6133438482850161313a565b6101408301525092915050565b5f602082840312156133655761336461284c565b5b5f82015167ffffffffffffffff81111561338257613381612850565b5b61338e84828501613167565b91505092915050565b7f50726f7065727479206e6f7420617661696c61626c65000000000000000000005f82015250565b5f6133cb601683612cf4565b91506133d682613397565b602082019050919050565b5f6020820190508181035f8301526133f8816133bf565b9050919050565b7f496e76616c6964207072696365000000000000000000000000000000000000005f82015250565b5f613433600d83612cf4565b915061343e826133ff565b602082019050919050565b5f6020820190508181035f83015261346081613427565b9050919050565b7f53656c6c65722063616e6e6f7420627579206f776e2070726f706572747900005f82015250565b5f61349b601e83612cf4565b91506134a682613467565b602082019050919050565b5f6020820190508181035f8301526134c88161348f565b9050919050565b5f6040820190506134e25f8301856128f1565b6134ef60208301846128f1565b9392505050565b5f6020828403121561350b5761350a61284c565b5b5f61351884828501612f9f565b91505092915050565b7f496e73756666696369656e74205855534420616c6c6f77616e63652c206170705f8201527f726f766520666972737400000000000000000000000000000000000000000000602082015250565b5f61357b602a83612cf4565b915061358682613521565b604082019050919050565b5f6020820190508181035f8301526135a88161356f565b9050919050565b7f4e487b71000000000000000000000000000000000000000000000000000000005f52601160045260245ffd5b5f6135e682612854565b91507fffffffffffffffffffffffffffffffffffffffffffffffffffffffffffffffff8203613618576136176135af565b5b600182019050919050565b5f61362d82612854565b915061363883612854565b92508282019050808211156136505761364f6135af565b5b92915050565b6003811061366757613666612900565b5b50565b5f81905061367782613656565b919050565b5f6136868261366a565b9050919050565b6136968161367c565b82525050565b5f6040820190506136af5f8301856128b2565b6136bc602083018461368d565b9392505050565b7f4e6f206465616c20666f756e6420666f72207468697320746f6b656e000000005f82015250565b5f6136f7601c83612cf4565b9150613702826136c3565b602082019050919050565b5f6020820190508181035f830152613724816136eb565b9050919050565b7f4e6f2066756e647320746f2077697468647261770000000000000000000000005f82015250565b5f61375f601483612cf4565b915061376a8261372b565b602082019050919050565b5f6020820190508181035f83015261378c81613753565b9050919050565b7f4f7574206f662072616e676500000000000000000000000000000000000000005f82015250565b5f6137c7600c83612cf4565b91506137d282613793565b602082019050919050565b5f6020820190508181035f8301526137f4816137bb565b9050919050565b7f4465616c20646f6573206e6f74206578697374000000000000000000000000005f82015250565b5f61382f601383612cf4565b915061383a826137fb565b602082019050919050565b5f6020820190508181035f83015261385c81613823565b9050919050565b7f4465616c206e6f74206f70656e000000000000000000000000000000000000005f82015250565b5f613897600d83612cf4565b91506138a282613863565b602082019050919050565b5f6020820190508181035f8301526138c48161388b565b9050919050565b5f6138d582612854565b91506138e083612854565b92508282039050818111156138f8576138f76135af565b5b92915050565b828183375f83830152505050565b5f6139178385612cf4565b93506139248385846138fe565b61392d83612e63565b840190509392505050565b5f6020820190508181035f83015261395181848661390c565b90509392505050565b7f4465616c206578706972656400000000000000000000000000000000000000005f82015250565b5f61398e600c83612cf4565b91506139998261395a565b602082019050919050565b5f6020820190508181035f8301526139bb81613982565b9050919050565b5f6139cc82612854565b91506139d783612854565b92508282026139e581612854565b915082820484148315176139fc576139fb6135af565b5b5092915050565b7f4e487b71000000000000000000000000000000000000000000000000000000005f52601260045260245ffd5b5f613a3a82612854565b9150613a4583612854565b925082613a5557613a54613a03565b5b828204905092915050565b5f606082019050613a735f8301866128b2565b613a8060208301856128f1565b613a8d60408301846128f1565b949350505050565b7f46656520746f6f206869676800000000000000000000000000000000000000005f82015250565b5f613ac9600c83612cf4565b9150613ad482613a95565b602082019050919050565b5f6020820190508181035f830152613af681613abd565b9050919050565b7f496e76616c696420726563697069656e740000000000000000000000000000005f82015250565b5f613b31601183612cf4565b9150613b3c82613afd565b602082019050919050565b5f6020820190508181035f830152613b5e81613b25565b9050919050565b7f4e6f74206120706172747920746f2074686973206465616c00000000000000005f82015250565b5f613b99601883612cf4565b9150613ba482613b65565b602082019050919050565b5f6020820190508181035f830152613bc681613b8d565b9050919050565b7f4e6f7420796574206578706972656400000000000000000000000000000000005f82015250565b5f613c01600f83612cf4565b9150613c0c82613bcd565b602082019050919050565b5f6020820190508181035f830152613c2e81613bf5565b905091905056fea2646970667358221220746270efc0606ca3fe0985baecbaabd3d77b286dff65bee98cc36cc71b95b91464736f6c634300081c0033",
  "linkReferences": {},
  "deployedLinkReferences": {},
  "immutableReferences": {
    "1369": [
      {
        "length": 32,
        "start": 1697
      },
      {
        "length": 32,
        "start": 1925
      },
      {
        "length": 32,
        "start": 2083
      },
      {
        "length": 32,
        "start": 3287
      },
      {
        "length": 32,
        "start": 4985
      },
      {
        "length": 32,
        "start": 6054
      },
      {
        "length": 32,
        "start": 6685
      },
      {
        "length": 32,
        "start": 8453
      }
    ],
    "1372": [
      {
        "length": 32,
        "start": 2533
      },
      {
        "length": 32,
        "start": 3216
      },
      {
        "length": 32,
        "start": 4134
      },
      {
        "length": 32,
        "start": 4293
      }
    ]
  },
  "inputSourceName": "project/contracts/PropertyEscrow.sol",
  "buildInfoId": "solc-0_8_28-293dce2d37cee4db85de7fccb3f3bd5c44f78185"
}