{
  "_format": "hh3-artifact-1",
  "contractName": "PropertyEscrow",
  "sourceName": "contracts/PropertyEscrow.sol",
  "abi": [
    {
      "inputs": [
        {
          "internalType": "address",
          "name": "_registry",
          "type": "address"
        },
        {
          "internalType": "address",
          "name": "_paymentToken",
          "type": "address"
        },
        {
          "internalType": "uint256",
          "name": "_platformFeeBps",
          "type": "uint256"
        },
        {
          "internalType": "address",
          "name": "_feeRecipient",
          "type": "address"
        }
      ],
      "stateMutability": "nonpayable",
      "type": "constructor"
    },
    {
      "inputs": [],
      "name": "ECDSAInvalidSignature",
      "type": "error"
    },
    {
      "inputs": [
        {
          "internalType": "uint256",
          "name": "length",
          "type": "uint256"
        }
      ],
      "name": "ECDSAInvalidSignatureLength",
      "type": "error"
    },
    {
      "inputs": [
        {
          "internalType": "bytes32",
          "name": "s",
          "type": "bytes32"
        }
      ],
      "name": "ECDSAInvalidSignatureS",
      "type": "error"
    },
    {
      "inputs": [],
      "name": "EnforcedPause",
      "type": "error"
    },
    {
      "inputs": [],
      "name": "ExpectedPause",
      "type": "error"
    },
    {
      "inputs": [
        {
          "internalType": "address",
          "name": "owner",
          "type": "address"
        }
      ],
      "name": "OwnableInvalidOwner",
      "type": "error"
    },
    {
      "inputs": [
        {
          "internalType": "address",
          "name": "account",
          "type": "address"
        }
      ],
      "name": "OwnableUnauthorizedAccount",
      "type": "error"
    },
    {
      "inputs": [],
      "name": "ReentrancyGuardReentrantCall",
      "type": "error"
    },
    {
      "inputs": [
        {
          "internalType": "address",
          "name": "token",
          "type": "address"
        }
      ],
      "name": "SafeERC20FailedOperation",
      "type": "error"
    },
    {
      "anonymous": false,
      "inputs": [
        {
          "indexed": true,
          "internalType": "uint256",
          "name": "dealId",
          "type": "uint256"
        },
        {
          "indexed": true,
          "internalType": "address",
          "name": "buyer",
          "type": "address"
        }
      ],
      "name": "BuyerSigned",
      "type": "event"
    },
    {
      "anonymous": false,
      "inputs": [
        {
          "indexed": true,
          "internalType": "uint256",
          "name": "dealId",
          "type": "uint256"
        },
        {
          "indexed": false,
          "internalType": "string",
          "name": "reason",
          "type": "string"
        }
      ],
      "name": "DealCancelled",
      "type": "event"
    },
    {
      "anonymous": false,
      "inputs": [
        {
          "indexed": true,
          "internalType": "uint256",
          "name": "dealId",
          "type": "uint256"
        },
        {
          "indexed": true,
          "internalType": "uint256",
          "name": "tokenId",
          "type": "uint256"
        },
        {
          "indexed": true,
          "internalType": "address",
          "name": "buyer",
          "type": "address"
        }
      ],
      "name": "DealCompleted",
      "type": "event"
    },
    {
      "anonymous": false,
      "inputs": [
        {
          "indexed": false,
          "internalType": "uint256",
          "name": "newExpiry",
          "type": "uint256"
        }
      ],
      "name": "DealExpiryUpdated",
      "type": "event"
    },
    {
      "anonymous": false,
      "inputs": [
        {
          "indexed": true,
          "internalType": "uint256",
          "name": "dealId",
          "type": "uint256"
        },
        {
          "indexed": true,
          "internalType": "uint256",
          "name": "tokenId",
          "type": "uint256"
        },
        {
          "indexed": true,
          "internalType": "address",
          "name": "buyer",
          "type": "address"
        },
        {
          "indexed": false,
          "internalType": "uint256",
          "name": "amount",
          "type": "uint256"
        }
      ],
      "name": "DealOpened",
      "type": "event"
    },
    {
      "anonymous": false,
      "inputs": [
        {
          "indexed": true,
          "internalType": "uint256",
          "name": "dealId",
          "type": "uint256"
        },
        {
          "indexed": true,
          "internalType": "address",
          "name": "seller",
          "type": "address"
        },
        {
          "indexed": false,
          "internalType": "uint256",
          "name": "amount",
          "type": "uint256"
        }
      ],
      "name": "FundsQueued",
      "type": "event"
    },
    {
      "anonymous": false,
      "inputs": [
        {
          "indexed": true,
          "internalType": "address",
          "name": "recipient",
          "type": "address"
        },
        {
          "indexed": false,
          "internalType": "uint256",
          "name": "amount",
          "type": "uint256"
        }
      ],
      "name": "FundsWithdrawn",
      "type": "event"
    },
    {
      "anonymous": false,
      "inputs": [
        {
          "indexed": true,
          "internalType": "address",
          "name": "previousOwner",
          "type": "address"
        },
        {
          "indexed": true,
          "internalType": "address",
          "name": "newOwner",
          "type": "address"
        }
      ],
      "name": "OwnershipTransferStarted",
      "type": "event"
    },
    {
      "anonymous": false,
      "inputs": [
        {
          "indexed": true,
          "internalType": "address",
          "name": "previousOwner",
          "type": "address"
        },
        {
          "indexed": true,
          "internalType": "address",
          "name": "newOwner",
          "type": "address"
        }
      ],
      "name": "OwnershipTransferred",
      "type": "event"
    },
    {
      "anonymous": false,
      "inputs": [
        {
          "indexed": false,
          "internalType": "address",
          "name": "account",
          "type": "address"
        }
      ],
      "name": "Paused",
      "type": "event"
    },
    {
      "anonymous": false,
      "inputs": [
        {
          "indexed": false,
          "internalType": "uint256",
          "name": "feeBps",
          "type": "uint256"
        },
        {
          "indexed": true,
          "internalType": "address",
          "name": "recipient",
          "type": "address"
        }
      ],
      "name": "PlatformFeeUpdated",
      "type": "event"
    },
    {
      "anonymous": false,
      "inputs": [
        {
          "indexed": false,
          "internalType": "address",
          "name": "account",
          "type": "address"
        }
      ],
      "name": "Unpaused",
      "type": "event"
    },
    {
      "inputs": [],
      "name": "acceptOwnership",
      "outputs": [],
      "stateMutability": "nonpayable",
      "type": "function"
    },
    {
      "inputs": [
        {
          "internalType": "uint256",
          "name": "",
          "type": "uint256"
        }
      ],
      "name": "activeDeal",
      "outputs": [
        {
          "internalType": "bool",
          "name": "",
          "type": "bool"
        }
      ],
      "stateMutability": "view",
      "type": "function"
    },
    {
      "inputs": [
        {
          "internalType": "uint256",
          "name": "tokenId",
          "type": "uint256"
        }
      ],
      "name": "buyNow",
      "outputs": [
        {
          "internalType": "uint256",
          "name": "",
          "type": "uint256"
        }
      ],
      "stateMutability": "nonpayable",
      "type": "function"
    },
    {
      "inputs": [
        {
          "internalType": "uint256",
          "name": "dealId",
          "type": "uint256"
        },
        {
          "internalType": "bytes",
          "name": "buyerSig",
          "type": "bytes"
        }
      ],
      "name": "buyerSign",
      "outputs": [],
      "stateMutability": "nonpayable",
      "type": "function"
    },
    {
      "inputs": [
        {
          "internalType": "uint256",
          "name": "dealId",
          "type": "uint256"
        }
      ],
      "name": "cancelDeal",
      "outputs": [],
      "stateMutability": "nonpayable",
      "type": "function"
    },
    {
      "inputs": [],
      "name": "dealCount",
      "outputs": [
        {
          "internalType": "uint256",
          "name": "",
          "type": "uint256"
        }
      ],
      "stateMutability": "view",
      "type": "function"
    },
    {
      "inputs": [],
      "name": "dealExpiry",
      "outputs": [
        {
          "internalType": "uint256",
          "name": "",
          "type": "uint256"
        }
      ],
      "stateMutability": "view",
      "type": "function"
    },
    {
      "inputs": [
        {
          "internalType": "uint256",
          "name": "",
          "type": "uint256"
        }
      ],
      "name": "deals",
      "outputs": [
        {
          "internalType": "uint256",
          "name": "tokenId",
          "type": "uint256"
        },
        {
          "internalType": "address",
          "name": "seller",
          "type": "address"
        },
        {
          "internalType": "address",
          "name": "buyer",
          "type": "address"
        },
        {
          "internalType": "uint256",
          "name": "amount",
          "type": "uint256"
        },
        {
          "internalType": "bool",
          "name": "buyerSigned",
          "type": "bool"
        },
        {
          "internalType": "enum PropertyEscrow.DealStatus",
          "name": "status",
          "type": "uint8"
        },
        {
          "internalType": "uint256",
          "name": "createdAt",
          "type": "uint256"
        }
      ],
      "stateMutability": "view",
      "type": "function"
    },
    {
      "inputs": [
        {
          "internalType": "uint256",
          "name": "dealId",
          "type": "uint256"
        }
      ],
      "name": "expireDeal",
      "outputs": [],
      "stateMutability": "nonpayable",
      "type": "function"
    },
    {
      "inputs": [],
      "name": "feeRecipient",
      "outputs": [
        {
          "internalType": "address",
          "name": "",
          "type": "address"
        }
      ],
      "stateMutability": "view",
      "type": "function"
    },
    {
      "inputs": [
        {
          "internalType": "uint256",
          "name": "dealId",
          "type": "uint256"
        }
      ],
      "name": "getDeal",
      "outputs": [
        {
          "components": [
            {
              "internalType": "uint256",
              "name": "tokenId",
              "type": "uint256"
            },
            {
              "internalType": "address",
              "name": "seller",
              "type": "address"
            },
            {
              "internalType": "address",
              "name": "buyer",
              "type": "address"
            },
            {
              "internalType": "uint256",
              "name": "amount",
              "type": "uint256"
            },
            {
              "internalType": "bool",
              "name": "buyerSigned",
              "type": "bool"
            },
            {
              "internalType": "enum PropertyEscrow.DealStatus",
              "name": "status",
              "type": "uint8"
            },
            {
              "internalType": "uint256",
              "name": "createdAt",
              "type": "uint256"
            }
          ],
          "internalType": "struct PropertyEscrow.Deal",
          "name": "",
          "type": "tuple"
        }
      ],
      "stateMutability": "view",
      "type": "function"
    },
    {
      "inputs": [
        {
          "internalType": "uint256",
          "name": "tokenId",
          "type": "uint256"
        }
      ],
      "name": "getDealByToken",
      "outputs": [
        {
          "components": [
            {
              "internalType": "uint256",
              "name": "tokenId",
              "type": "uint256"
            },
            {
              "internalType": "address",
              "name": "seller",
              "type": "address"
            },
            {
              "internalType": "address",
              "name": "buyer",
              "type": "address"
            },
            {
              "internalType": "uint256",
              "name": "amount",
              "type": "uint256"
            },
            {
              "internalType": "bool",
              "name": "buyerSigned",
              "type": "bool"
            },
            {
              "internalType": "enum PropertyEscrow.DealStatus",
              "name": "status",
              "type": "uint8"
            },
            {
              "internalType": "uint256",
              "name": "createdAt",
              "type": "uint256"
            }
          ],
          "internalType": "struct PropertyEscrow.Deal",
          "name": "",
          "type": "tuple"
        }
      ],
      "stateMutability": "view",
      "type": "function"
    },
    {
      "inputs": [
        {
          "internalType": "address",
          "name": "account",
          "type": "address"
        }
      ],
      "name": "getPendingWithdrawal",
      "outputs": [
        {
          "internalType": "uint256",
          "name": "",
          "type": "uint256"
        }
      ],
      "stateMutability": "view",
      "type": "function"
    },
    {
      "inputs": [
        {
          "internalType": "uint256",
          "name": "tokenId",
          "type": "uint256"
        }
      ],
      "name": "hasActiveDeal",
      "outputs": [
        {
          "internalType": "bool",
          "name": "",
          "type": "bool"
        }
      ],
      "stateMutability": "view",
      "type": "function"
    },
    {
      "inputs": [],
      "name": "owner",
      "outputs": [
        {
          "internalType": "address",
          "name": "",
          "type": "address"
        }
      ],
      "stateMutability": "view",
      "type": "function"
    },
    {
      "inputs": [],
      "name": "pause",
      "outputs": [],
      "stateMutability": "nonpayable",
      "type": "function"
    },
    {
      "inputs": [],
      "name": "paused",
      "outputs": [
        {
          "internalType": "bool",
          "name": "",
          "type": "bool"
        }
      ],
      "stateMutability": "view",
      "type": "function"
    },
    {
      "inputs": [],
      "name": "paymentToken",
      "outputs": [
        {
          "internalType": "contract IERC20",
          "name": "",
          "type": "address"
        }
      ],
      "stateMutability": "view",
      "type": "function"
    },
    {
      "inputs": [],
      "name": "pendingOwner",
      "outputs": [
        {
          "internalType": "address",
          "name": "",
          "type": "address"
        }
      ],
      "stateMutability": "view",
      "type": "function"
    },
    {
      "inputs": [
        {
          "internalType": "address",
          "name": "",
          "type": "address"
        }
      ],
      "name": "pendingWithdrawals",
      "outputs": [
        {
          "internalType": "uint256",
          "name": "",
          "type": "uint256"
        }
      ],
      "stateMutability": "view",
      "type": "function"
    },
    {
      "inputs": [],
      "name": "platformFeeBps",
      "outputs": [
        {
          "internalType": "uint256",
          "name": "",
          "type": "uint256"
        }
      ],
      "stateMutability": "view",
      "type": "function"
    },
    {
      "inputs": [],
      "name": "registry",
      "outputs": [
        {
          "internalType": "contract IPropertyRegistry",
          "name": "",
          "type": "address"
        }
      ],
      "stateMutability": "view",
      "type": "function"
    },
    {
      "inputs": [],
      "name": "renounceOwnership",
      "outputs": [],
      "stateMutability": "nonpayable",
      "type": "function"
    },
    {
      "inputs": [
        {
          "internalType": "uint256",
          "name": "newExpiry",
          "type": "uint256"
        }
      ],
      "name": "setDealExpiry",
      "outputs": [],
      "stateMutability": "nonpayable",
      "type": "function"
    },
    {
      "inputs": [
        {
          "internalType": "uint256",
          "name": "feeBps",
          "type": "uint256"
        },
        {
          "internalType": "address",
          "name": "recipient",
          "type": "address"
        }
      ],
      "name": "setPlatformFee",
      "outputs": [],
      "stateMutability": "nonpayable",
      "type": "function"
    },
    {
      "inputs": [
        {
          "internalType": "uint256",
          "name": "",
          "type": "uint256"
        }
      ],
      "name": "tokenToDeal",
      "outputs": [
        {
          "internalType": "uint256",
          "name": "",
          "type": "uint256"
        }
      ],
      "stateMutability": "view",
      "type": "function"
    },
    {
      "inputs": [],
      "name": "totalEscrowedFunds",
      "outputs": [
        {
          "internalType": "uint256",
          "name": "",
          "type": "uint256"
        }
      ],
      "stateMutability": "view",
      "type": "function"
    },
    {
      "inputs": [
        {
          "internalType": "address",
          "name": "newOwner",
          "type": "address"
        }
      ],
      "name": "transferOwnership",
      "outputs": [],
      "stateMutability": "nonpayable",
      "type": "function"
    },
    {
      "inputs": [],
      "name": "unpause",
      "outputs": [],
      "stateMutability": "nonpayable",
      "type": "function"
    },
    {
      "inputs": [],
      "name": "withdrawFunds",
      "outputs": [],
      "stateMutability": "nonpayable",
      "type": "function"
    }
  ],
  "bytecode": "0x60c060405262093a80600855348015610016575f5ffd5b50604051614ebd380380614ebd833981810160405281019061003891906104de565b335f73ffffffffffffffffffffffffffffffffffffffff168173ffffffffffffffffffffffffffffffffffffffff16036100a9575f6040517f1e4fbdf70000000000000000000000000000000000000000000000000000000081526004016100a09190610551565b60405180910390fd5b6100b88161032460201b60201c565b5060016100d76100cc61035a60201b60201c565b61038360201b60201c565b5f01819055505f73ffffffffffffffffffffffffffffffffffffffff168473ffffffffffffffffffffffffffffffffffffffff160361014b576040517f08c379a0000000000000000000000000000000000000000000000000000000008152600401610142906105c4565b60405180910390fd5b5f73ffffffffffffffffffffffffffffffffffffffff168373ffffffffffffffffffffffffffffffffffffffff16036101b9576040517f08c379a00000000000000000000000000000000000000000000000000000000081526004016101b09061062c565b60405180910390fd5b6103e88211156101fe576040517f08c379a00000000000000000000000000000000000000000000000000000000081526004016101f590610694565b60405180910390fd5b5f73ffffffffffffffffffffffffffffffffffffffff168173ffffffffffffffffffffffffffffffffffffffff160361026c576040517f08c379a0000000000000000000000000000000000000000000000000000000008152600401610263906106fc565b60405180910390fd5b8373ffffffffffffffffffffffffffffffffffffffff1660808173ffffffffffffffffffffffffffffffffffffffff16815250508273ffffffffffffffffffffffffffffffffffffffff1660a08173ffffffffffffffffffffffffffffffffffffffff16815250508160098190555080600a5f6101000a81548173ffffffffffffffffffffffffffffffffffffffff021916908373ffffffffffffffffffffffffffffffffffffffff1602179055505050505061071a565b60015f6101000a81549073ffffffffffffffffffffffffffffffffffffffff02191690556103578161038c60201b60201c565b50565b5f7f9b779b17422d0df92223018b32b4d1fa46e071723d6817e2486d003becc55f005f1b905090565b5f819050919050565b5f5f5f9054906101000a900473ffffffffffffffffffffffffffffffffffffffff169050815f5f6101000a81548173ffffffffffffffffffffffffffffffffffffffff021916908373ffffffffffffffffffffffffffffffffffffffff1602179055508173ffffffffffffffffffffffffffffffffffffffff168173ffffffffffffffffffffffffffffffffffffffff167f8be0079c531659141344cd1fd0a4f28419497f9722a3daafe3b4186f6b6457e060405160405180910390a35050565b5f5ffd5b5f73ffffffffffffffffffffffffffffffffffffffff82169050919050565b5f61047a82610451565b9050919050565b61048a81610470565b8114610494575f5ffd5b50565b5f815190506104a581610481565b92915050565b5f819050919050565b6104bd816104ab565b81146104c7575f5ffd5b50565b5f815190506104d8816104b4565b92915050565b5f5f5f5f608085870312156104f6576104f561044d565b5b5f61050387828801610497565b945050602061051487828801610497565b9350506040610525878288016104ca565b925050606061053687828801610497565b91505092959194509250565b61054b81610470565b82525050565b5f6020820190506105645f830184610542565b92915050565b5f82825260208201905092915050565b7f496e76616c6964207265676973747279206164647265737300000000000000005f82015250565b5f6105ae60188361056a565b91506105b98261057a565b602082019050919050565b5f6020820190508181035f8301526105db816105a2565b9050919050565b7f496e76616c6964207061796d656e7420746f6b656e00000000000000000000005f82015250565b5f61061660158361056a565b9150610621826105e2565b602082019050919050565b5f6020820190508181035f8301526106438161060a565b9050919050565b7f46656520746f6f20686967682c206d61782031302500000000000000000000005f82015250565b5f61067e60158361056a565b91506106898261064a565b602082019050919050565b5f6020820190508181035f8301526106ab81610672565b9050919050565b7f496e76616c69642066656520726563697069656e7400000000000000000000005f82015250565b5f6106e660158361056a565b91506106f1826106b2565b602082019050919050565b5f6020820190508181035f830152610713816106da565b9050919050565b60805160a0516147356107885f395f81816109f901528181610ccc0152818161107d015261111c01525f81816106b5015281816107990152818161083701528181610d13015281816114550152818161161201528181611cda0152818161213301526127b401526147355ff3fe608060405234801561000f575f5ffd5b50600436106101d8575f3560e01c80637ee8b2f811610102578063cf4cb99b116100a0578063f2fde38b1161006f578063f2fde38b146104ec578063f3e31f8414610508578063f3f4370314610538578063ffa3ffd414610568576101d8565b8063cf4cb99b14610464578063e30c397814610494578063ea3d0b00146104b2578063eadb3c9c146104ce576101d8565b80638456cb59116100dc5780638456cb59146104045780638da5cb5b1461040e578063b4d884f61461042c578063ccbda9e814610448576101d8565b80637ee8b2f81461038657806382fd5bac146103b6578063839a4641146103e6576101d8565b806331ce2a101161017a5780635c975abb116101495780635c975abb14610336578063715018a61461035457806379ba50971461035e5780637b10399914610368576101d8565b806331ce2a10146102d657806331ea1a39146102f25780633f4ba83a1461030e5780634690484014610318576101d8565b8063226ec9eb116101b6578063226ec9eb1461027257806322dcd13e1461029057806324600fc3146102ae5780633013ce29146102b8576101d8565b806303988f84146101dc57806308a0f32f1461021257806311d4475e14610242575b5f5ffd5b6101f660048036038101906101f19190612f24565b610598565b604051610209979695949392919061302a565b60405180910390f35b61022c60048036038101906102279190612f24565b61062d565b6040516102399190613097565b60405180910390f35b61025c60048036038101906102579190612f24565b610dfe565b6040516102699190613178565b60405180910390f35b61027a610f9d565b6040516102879190613097565b60405180910390f35b610298610fa3565b6040516102a59190613097565b60405180910390f35b6102b6610fa9565b005b6102c061111a565b6040516102cd91906131ec565b60405180910390f35b6102f060048036038101906102eb9190612f24565b61113e565b005b61030c60048036038101906103079190612f24565b6111dc565b005b610316611522565b005b610320611534565b60405161032d9190613205565b60405180910390f35b61033e611559565b60405161034b919061321e565b60405180910390f35b61035c61156f565b005b610366611582565b005b610370611610565b60405161037d9190613257565b60405180910390f35b6103a0600480360381019061039b919061329a565b611634565b6040516103ad9190613097565b60405180910390f35b6103d060048036038101906103cb9190612f24565b61167a565b6040516103dd9190613178565b60405180910390f35b6103ee611813565b6040516103fb9190613097565b60405180910390f35b61040c611819565b005b61041661182b565b6040516104239190613205565b60405180910390f35b610446600480360381019061044191906132c5565b611852565b005b610462600480360381019061045d919061343f565b6119a6565b005b61047e60048036038101906104799190612f24565b611dc2565b60405161048b919061321e565b60405180910390f35b61049c611de8565b6040516104a99190613205565b60405180910390f35b6104cc60048036038101906104c79190612f24565b611e10565b005b6104d6612200565b6040516104e39190613097565b60405180910390f35b6105066004803603810190610501919061329a565b612206565b005b610522600480360381019061051d9190612f24565b6122b2565b60405161052f9190613097565b60405180910390f35b610552600480360381019061054d919061329a565b6122c7565b60405161055f9190613097565b60405180910390f35b610582600480360381019061057d9190612f24565b6122dc565b60405161058f919061321e565b60405180910390f35b6004602052805f5260405f205f91509050805f015490806001015f9054906101000a900473ffffffffffffffffffffffffffffffffffffffff1690806002015f9054906101000a900473ffffffffffffffffffffffffffffffffffffffff1690806003015490806004015f9054906101000a900460ff16908060040160019054906101000a900460ff16908060050154905087565b5f6106366122f9565b61063e61233a565b60065f8381526020019081526020015f205f9054906101000a900460ff161561069c576040517f08c379a000000000000000000000000000000000000000000000000000000000815260040161069390613519565b60405180910390fd5b3073ffffffffffffffffffffffffffffffffffffffff167f000000000000000000000000000000000000000000000000000000000000000073ffffffffffffffffffffffffffffffffffffffff1663b909acc56040518163ffffffff1660e01b8152600401602060405180830381865afa15801561071c573d5f5f3e3d5ffd5b505050506040513d601f19601f82011682018060405250810190610740919061354b565b73ffffffffffffffffffffffffffffffffffffffff1614610796576040517f08c379a000000000000000000000000000000000000000000000000000000000815260040161078d906135e6565b60405180910390fd5b5f7f000000000000000000000000000000000000000000000000000000000000000073ffffffffffffffffffffffffffffffffffffffff166332665ffb846040518263ffffffff1660e01b81526004016107f09190613097565b5f60405180830381865afa15801561080a573d5f5f3e3d5ffd5b505050506040513d5f823e3d601f19601f820116820180604052508101906108329190613a3d565b90505f7f000000000000000000000000000000000000000000000000000000000000000073ffffffffffffffffffffffffffffffffffffffff16636352211e856040518263ffffffff1660e01b815260040161088e9190613097565b602060405180830381865afa1580156108a9573d5f5f3e3d5ffd5b505050506040513d601f19601f820116820180604052508101906108cd919061354b565b90505f60028111156108e2576108e1612fb7565b5b82610120015160028111156108fa576108f9612fb7565b5b1461093a576040517f08c379a000000000000000000000000000000000000000000000000000000000815260040161093190613ace565b60405180910390fd5b5f826080015111610980576040517f08c379a000000000000000000000000000000000000000000000000000000000815260040161097790613b36565b60405180910390fd5b8073ffffffffffffffffffffffffffffffffffffffff163373ffffffffffffffffffffffffffffffffffffffff16036109ee576040517f08c379a00000000000000000000000000000000000000000000000000000000081526004016109e590613b9e565b60405180910390fd5b5f82608001519050807f000000000000000000000000000000000000000000000000000000000000000073ffffffffffffffffffffffffffffffffffffffff1663dd62ed3e33306040518363ffffffff1660e01b8152600401610a52929190613bbc565b602060405180830381865afa158015610a6d573d5f5f3e3d5ffd5b505050506040513d601f19601f82011682018060405250810190610a919190613be3565b1015610ad2576040517f08c379a0000000000000000000000000000000000000000000000000000000008152600401610ac990613c7e565b60405180910390fd5b60025f815480929190610ae490613cc9565b91905055505f60025490506040518060e001604052808781526020018473ffffffffffffffffffffffffffffffffffffffff1681526020013373ffffffffffffffffffffffffffffffffffffffff1681526020018381526020015f151581526020015f6002811115610b5957610b58612fb7565b5b81526020014281525060045f8381526020019081526020015f205f820151815f01556020820151816001015f6101000a81548173ffffffffffffffffffffffffffffffffffffffff021916908373ffffffffffffffffffffffffffffffffffffffff1602179055506040820151816002015f6101000a81548173ffffffffffffffffffffffffffffffffffffffff021916908373ffffffffffffffffffffffffffffffffffffffff160217905550606082015181600301556080820151816004015f6101000a81548160ff02191690831515021790555060a08201518160040160016101000a81548160ff02191690836002811115610c5b57610c5a612fb7565b5b021790555060c082015181600501559050508060055f8881526020019081526020015f2081905550600160065f8881526020019081526020015f205f6101000a81548160ff0219169083151502179055508160035f828254610cbd9190613d10565b92505081905550610d113330847f000000000000000000000000000000000000000000000000000000000000000073ffffffffffffffffffffffffffffffffffffffff1661235c909392919063ffffffff16565b7f000000000000000000000000000000000000000000000000000000000000000073ffffffffffffffffffffffffffffffffffffffff16633a1b3d318760016040518363ffffffff1660e01b8152600401610d6d929190613d89565b5f604051808303815f87803b158015610d84575f5ffd5b505af1158015610d96573d5f5f3e3d5ffd5b505050503373ffffffffffffffffffffffffffffffffffffffff1686827fd03c253ac07c258c871bcbf3e1a8864bbdb266b37ae278630ac1f7b9e9d3b95e85604051610de29190613097565b60405180910390a480945050505050610df96123b1565b919050565b610e06612e6a565b5f60055f8481526020019081526020015f205490505f8103610e5d576040517f08c379a0000000000000000000000000000000000000000000000000000000008152600401610e5490613dfa565b60405180910390fd5b60045f8281526020019081526020015f206040518060e00160405290815f8201548152602001600182015f9054906101000a900473ffffffffffffffffffffffffffffffffffffffff1673ffffffffffffffffffffffffffffffffffffffff1673ffffffffffffffffffffffffffffffffffffffff168152602001600282015f9054906101000a900473ffffffffffffffffffffffffffffffffffffffff1673ffffffffffffffffffffffffffffffffffffffff1673ffffffffffffffffffffffffffffffffffffffff16815260200160038201548152602001600482015f9054906101000a900460ff161515151581526020016004820160019054906101000a900460ff166002811115610f7557610f74612fb7565b5b6002811115610f8757610f86612fb7565b5b8152602001600582015481525050915050919050565b60035481565b60095481565b610fb161233a565b5f60075f3373ffffffffffffffffffffffffffffffffffffffff1673ffffffffffffffffffffffffffffffffffffffff1681526020019081526020015f205490505f8111611034576040517f08c379a000000000000000000000000000000000000000000000000000000000815260040161102b90613e62565b60405180910390fd5b5f60075f3373ffffffffffffffffffffffffffffffffffffffff1673ffffffffffffffffffffffffffffffffffffffff1681526020019081526020015f20819055506110c133827f000000000000000000000000000000000000000000000000000000000000000073ffffffffffffffffffffffffffffffffffffffff166123cb9092919063ffffffff16565b3373ffffffffffffffffffffffffffffffffffffffff167feaff4b37086828766ad3268786972c0cd24259d4c87a80f9d3963a3c3d999b0d826040516111079190613097565b60405180910390a2506111186123b1565b565b7f000000000000000000000000000000000000000000000000000000000000000081565b61114661241e565b62015180811015801561115c575062278d008111155b61119b576040517f08c379a000000000000000000000000000000000000000000000000000000000815260040161119290613eca565b60405180910390fd5b806008819055507fd51288cc47fa91b74c14b0f64166478b661c64bce7e9c5c4f8615b0e24597a75816040516111d19190613097565b60405180910390a150565b805f811180156111ee57506002548111155b61122d576040517f08c379a000000000000000000000000000000000000000000000000000000000815260040161122490613f32565b60405180910390fd5b813373ffffffffffffffffffffffffffffffffffffffff1660045f8381526020019081526020015f206001015f9054906101000a900473ffffffffffffffffffffffffffffffffffffffff1673ffffffffffffffffffffffffffffffffffffffff16146112cf576040517f08c379a00000000000000000000000000000000000000000000000000000000081526004016112c690613f9a565b60405180910390fd5b6112d761233a565b6112df6122f9565b5f60045f8581526020019081526020015f2090505f600281111561130657611305612fb7565b5b8160040160019054906101000a900460ff16600281111561132a57611329612fb7565b5b1461136a576040517f08c379a000000000000000000000000000000000000000000000000000000000815260040161136190614002565b60405180910390fd5b5f73ffffffffffffffffffffffffffffffffffffffff16816002015f9054906101000a900473ffffffffffffffffffffffffffffffffffffffff1673ffffffffffffffffffffffffffffffffffffffff16146113fb576040517f08c379a00000000000000000000000000000000000000000000000000000000081526004016113f29061406a565b60405180910390fd5b60028160040160016101000a81548160ff0219169083600281111561142357611422612fb7565b5b02179055505f60065f835f015481526020019081526020015f205f6101000a81548160ff0219169083151502179055507f000000000000000000000000000000000000000000000000000000000000000073ffffffffffffffffffffffffffffffffffffffff16633a1b3d31825f01545f6040518363ffffffff1660e01b81526004016114b1929190613d89565b5f604051808303815f87803b1580156114c8575f5ffd5b505af11580156114da573d5f5f3e3d5ffd5b50505050837fa8b8b3efbebafa658fb44a735ae6b22cee3289a25c09ff2a8cd300c915b2013260405161150c906140d2565b60405180910390a25061151d6123b1565b505050565b61152a61241e565b6115326124a5565b565b600a5f9054906101000a900473ffffffffffffffffffffffffffffffffffffffff1681565b5f600160149054906101000a900460ff16905090565b61157761241e565b6115805f612507565b565b5f61158b612537565b90508073ffffffffffffffffffffffffffffffffffffffff166115ac611de8565b73ffffffffffffffffffffffffffffffffffffffff161461160457806040517f118cdaa70000000000000000000000000000000000000000000000000000000081526004016115fb9190613205565b60405180910390fd5b61160d81612507565b50565b7f000000000000000000000000000000000000000000000000000000000000000081565b5f60075f8373ffffffffffffffffffffffffffffffffffffffff1673ffffffffffffffffffffffffffffffffffffffff1681526020019081526020015f20549050919050565b611682612e6a565b815f8111801561169457506002548111155b6116d3576040517f08c379a00000000000000000000000000000000000000000000000000000000081526004016116ca90613f32565b60405180910390fd5b60045f8481526020019081526020015f206040518060e00160405290815f8201548152602001600182015f9054906101000a900473ffffffffffffffffffffffffffffffffffffffff1673ffffffffffffffffffffffffffffffffffffffff1673ffffffffffffffffffffffffffffffffffffffff168152602001600282015f9054906101000a900473ffffffffffffffffffffffffffffffffffffffff1673ffffffffffffffffffffffffffffffffffffffff1673ffffffffffffffffffffffffffffffffffffffff16815260200160038201548152602001600482015f9054906101000a900460ff161515151581526020016004820160019054906101000a900460ff1660028111156117eb576117ea612fb7565b5b60028111156117fd576117fc612fb7565b5b8152602001600582015481525050915050919050565b60085481565b61182161241e565b61182961253e565b565b5f5f5f9054906101000a900473ffffffffffffffffffffffffffffffffffffffff16905090565b61185a61241e565b6103e882111561189f576040517f08c379a00000000000000000000000000000000000000000000000000000000081526004016118969061413a565b60405180910390fd5b5f73ffffffffffffffffffffffffffffffffffffffff168173ffffffffffffffffffffffffffffffffffffffff160361190d576040517f08c379a0000000000000000000000000000000000000000000000000000000008152600401611904906141a2565b60405180910390fd5b8160098190555080600a5f6101000a81548173ffffffffffffffffffffffffffffffffffffffff021916908373ffffffffffffffffffffffffffffffffffffffff1602179055508073ffffffffffffffffffffffffffffffffffffffff167ff0c09f5238364083d828870e877edaebb364d9f19f4093fdbf24e486bbdca4848360405161199a9190613097565b60405180910390a25050565b815f811180156119b857506002548111155b6119f7576040517f08c379a00000000000000000000000000000000000000000000000000000000081526004016119ee90613f32565b60405180910390fd5b823373ffffffffffffffffffffffffffffffffffffffff1660045f8381526020019081526020015f206002015f9054906101000a900473ffffffffffffffffffffffffffffffffffffffff1673ffffffffffffffffffffffffffffffffffffffff1614611a99576040517f08c379a0000000000000000000000000000000000000000000000000000000008152600401611a909061420a565b60405180910390fd5b611aa16122f9565b611aa961233a565b5f60045f8681526020019081526020015f2090505f6002811115611ad057611acf612fb7565b5b8160040160019054906101000a900460ff166002811115611af457611af3612fb7565b5b14611b34576040517f08c379a0000000000000000000000000000000000000000000000000000000008152600401611b2b90614002565b60405180910390fd5b806004015f9054906101000a900460ff1615611b85576040517f08c379a0000000000000000000000000000000000000000000000000000000008152600401611b7c90614272565b60405180910390fd5b6008548160050154611b979190613d10565b421115611bd9576040517f08c379a0000000000000000000000000000000000000000000000000000000008152600401611bd0906142da565b60405180910390fd5b5f85825f0154836001015f9054906101000a900473ffffffffffffffffffffffffffffffffffffffff16338560030154604051602001611c1d95949392919061435d565b6040516020818303038152906040528051906020012090505f611c3f826125a0565b90505f611c4c82886125d3565b90503373ffffffffffffffffffffffffffffffffffffffff168173ffffffffffffffffffffffffffffffffffffffff1614611cbc576040517f08c379a0000000000000000000000000000000000000000000000000000000008152600401611cb390614405565b60405180910390fd5b6001846004015f6101000a81548160ff0219169083151502179055507f000000000000000000000000000000000000000000000000000000000000000073ffffffffffffffffffffffffffffffffffffffff166358131af7855f0154896040518363ffffffff1660e01b8152600401611d36929190614475565b5f604051808303815f87803b158015611d4d575f5ffd5b505af1158015611d5f573d5f5f3e3d5ffd5b505050503373ffffffffffffffffffffffffffffffffffffffff16887f7749be28cf64fe132c4475feb0aec4133f13f95a84f1869a42911a8a7a0f0f3160405160405180910390a3611db0886125fd565b50505050611dbc6123b1565b50505050565b5f60065f8381526020019081526020015f205f9054906101000a900460ff169050919050565b5f60015f9054906101000a900473ffffffffffffffffffffffffffffffffffffffff16905090565b805f81118015611e2257506002548111155b611e61576040517f08c379a0000000000000000000000000000000000000000000000000000000008152600401611e5890613f32565b60405180910390fd5b611e6961233a565b5f60045f8481526020019081526020015f2090505f6002811115611e9057611e8f612fb7565b5b8160040160019054906101000a900460ff166002811115611eb457611eb3612fb7565b5b14611ef4576040517f08c379a0000000000000000000000000000000000000000000000000000000008152600401611eeb90614002565b60405180910390fd5b806001015f9054906101000a900473ffffffffffffffffffffffffffffffffffffffff1673ffffffffffffffffffffffffffffffffffffffff163373ffffffffffffffffffffffffffffffffffffffff161480611f9f5750806002015f9054906101000a900473ffffffffffffffffffffffffffffffffffffffff1673ffffffffffffffffffffffffffffffffffffffff163373ffffffffffffffffffffffffffffffffffffffff16145b611fde576040517f08c379a0000000000000000000000000000000000000000000000000000000008152600401611fd5906144ed565b60405180910390fd5b6008548160050154611ff09190613d10565b4211612031576040517f08c379a000000000000000000000000000000000000000000000000000000000815260040161202890614555565b60405180910390fd5b60028160040160016101000a81548160ff0219169083600281111561205957612058612fb7565b5b02179055505f60065f835f015481526020019081526020015f205f6101000a81548160ff0219169083151502179055505f816003015490505f82600301819055505f811115612131578060035f8282546120b39190614573565b925050819055508060075f846002015f9054906101000a900473ffffffffffffffffffffffffffffffffffffffff1673ffffffffffffffffffffffffffffffffffffffff1673ffffffffffffffffffffffffffffffffffffffff1681526020019081526020015f205f8282546121299190613d10565b925050819055505b7f000000000000000000000000000000000000000000000000000000000000000073ffffffffffffffffffffffffffffffffffffffff16633a1b3d31835f01545f6040518363ffffffff1660e01b815260040161218f929190613d89565b5f604051808303815f87803b1580156121a6575f5ffd5b505af11580156121b8573d5f5f3e3d5ffd5b50505050837fa8b8b3efbebafa658fb44a735ae6b22cee3289a25c09ff2a8cd300c915b201326040516121ea906142da565b60405180910390a250506121fc6123b1565b5050565b60025481565b61220e61241e565b8060015f6101000a81548173ffffffffffffffffffffffffffffffffffffffff021916908373ffffffffffffffffffffffffffffffffffffffff1602179055508073ffffffffffffffffffffffffffffffffffffffff1661226d61182b565b73ffffffffffffffffffffffffffffffffffffffff167f38d16b8cac22d99fc7c124b9cd0de2d3fa1faef420bfe791d8c362d765e2270060405160405180910390a350565b6005602052805f5260405f205f915090505481565b6007602052805f5260405f205f915090505481565b6006602052805f5260405f205f915054906101000a900460ff1681565b612301611559565b15612338576040517fd93c066500000000000000000000000000000000000000000000000000000000815260040160405180910390fd5b565b612342612969565b600261235461234f6129aa565b6129d3565b5f0181905550565b61236a8484848460016129dc565b6123ab57836040517f5274afe70000000000000000000000000000000000000000000000000000000081526004016123a29190613205565b60405180910390fd5b50505050565b60016123c36123be6129aa565b6129d3565b5f0181905550565b6123d88383836001612a4d565b61241957826040517f5274afe70000000000000000000000000000000000000000000000000000000081526004016124109190613205565b60405180910390fd5b505050565b612426612537565b73ffffffffffffffffffffffffffffffffffffffff1661244461182b565b73ffffffffffffffffffffffffffffffffffffffff16146124a357612467612537565b6040517f118cdaa700000000000000000000000000000000000000000000000000000000815260040161249a9190613205565b60405180910390fd5b565b6124ad612aaf565b5f600160146101000a81548160ff0219169083151502179055507f5db9ee0a495bf2e6ff9c91a7834c1ba4fdd244a5e8aa4e537bd38aeae4b073aa6124f0612537565b6040516124fd9190613205565b60405180910390a1565b60015f6101000a81549073ffffffffffffffffffffffffffffffffffffffff021916905561253481612aef565b50565b5f33905090565b6125466122f9565b60018060146101000a81548160ff0219169083151502179055507f62e78cea01bee320cd4e420270b5ea74000d11b0c9f74754ebdbfc544b05a258612589612537565b6040516125969190613205565b60405180910390a1565b5f7f19457468657265756d205369676e6564204d6573736167653a0a3332000000005f5281601c52603c5f209050919050565b5f5f5f5f6125e18686612bb0565b9250925092506125f18282612c05565b82935050505092915050565b5f60045f8381526020019081526020015f20905060018160040160016101000a81548160ff0219169083600281111561263957612638612fb7565b5b02179055505f60065f835f015481526020019081526020015f205f6101000a81548160ff0219169083151502179055505f816003015490505f82600301819055508060035f82825461268b9190614573565b925050819055505f612710600954836126a491906145a6565b6126ae9190614614565b90505f81836126bd9190614573565b90508060075f866001015f9054906101000a900473ffffffffffffffffffffffffffffffffffffffff1673ffffffffffffffffffffffffffffffffffffffff1673ffffffffffffffffffffffffffffffffffffffff1681526020019081526020015f205f82825461272e9190613d10565b925050819055505f8211156127b2578160075f600a5f9054906101000a900473ffffffffffffffffffffffffffffffffffffffff1673ffffffffffffffffffffffffffffffffffffffff1673ffffffffffffffffffffffffffffffffffffffff1681526020019081526020015f205f8282546127aa9190613d10565b925050819055505b7f000000000000000000000000000000000000000000000000000000000000000073ffffffffffffffffffffffffffffffffffffffff1663a59f6ca3855f0154866001015f9054906101000a900473ffffffffffffffffffffffffffffffffffffffff16876002015f9054906101000a900473ffffffffffffffffffffffffffffffffffffffff166040518463ffffffff1660e01b815260040161285893929190614644565b5f604051808303815f87803b15801561286f575f5ffd5b505af1158015612881573d5f5f3e3d5ffd5b50505050836002015f9054906101000a900473ffffffffffffffffffffffffffffffffffffffff1673ffffffffffffffffffffffffffffffffffffffff16845f0154867f4c64a78d82982b8bfbb5b3bc9a6e8b4e024bb84db4aaf997d36667cd611183dc60405160405180910390a4836001015f9054906101000a900473ffffffffffffffffffffffffffffffffffffffff1673ffffffffffffffffffffffffffffffffffffffff16857f2300a73f1cda2df8a72bbf531a1e8dea67d05e38e41e44ee8def9c4c939e93018360405161295a9190613097565b60405180910390a35050505050565b612971612d67565b156129a8576040517f3ee5aeb500000000000000000000000000000000000000000000000000000000815260040160405180910390fd5b565b5f7f9b779b17422d0df92223018b32b4d1fa46e071723d6817e2486d003becc55f005f1b905090565b5f819050919050565b5f5f6323b872dd60e01b9050604051815f525f1960601c87166004525f1960601c86166024528460445260205f60645f5f8c5af1925060015f51148316612a3a578383151615612a2e573d5f823e3d81fd5b5f883b113d1516831692505b806040525f606052505095945050505050565b5f5f63a9059cbb60e01b9050604051815f525f1960601c86166004528460245260205f60445f5f8b5af1925060015f51148316612aa1578383151615612a95573d5f823e3d81fd5b5f873b113d1516831692505b806040525050949350505050565b612ab7611559565b612aed576040517f8dfc202b00000000000000000000000000000000000000000000000000000000815260040160405180910390fd5b565b5f5f5f9054906101000a900473ffffffffffffffffffffffffffffffffffffffff169050815f5f6101000a81548173ffffffffffffffffffffffffffffffffffffffff021916908373ffffffffffffffffffffffffffffffffffffffff1602179055508173ffffffffffffffffffffffffffffffffffffffff168173ffffffffffffffffffffffffffffffffffffffff167f8be0079c531659141344cd1fd0a4f28419497f9722a3daafe3b4186f6b6457e060405160405180910390a35050565b5f5f5f6041845103612bf0575f5f5f602087015192506040870151915060608701515f1a9050612be288828585612d83565b955095509550505050612bfe565b5f600285515f1b9250925092505b9250925092565b5f6003811115612c1857612c17612fb7565b5b826003811115612c2b57612c2a612fb7565b5b0315612d635760016003811115612c4557612c44612fb7565b5b826003811115612c5857612c57612fb7565b5b03612c8f576040517ff645eedf00000000000000000000000000000000000000000000000000000000815260040160405180910390fd5b60026003811115612ca357612ca2612fb7565b5b826003811115612cb657612cb5612fb7565b5b03612cfa57805f1c6040517ffce698f7000000000000000000000000000000000000000000000000000000008152600401612cf19190613097565b60405180910390fd5b600380811115612d0d57612d0c612fb7565b5b826003811115612d2057612d1f612fb7565b5b03612d6257806040517fd78bce0c000000000000000000000000000000000000000000000000000000008152600401612d599190614688565b60405180910390fd5b5b5050565b5f6002612d7a612d756129aa565b6129d3565b5f015414905090565b5f5f5f7f7fffffffffffffffffffffffffffffff5d576e7357a4501ddfe92f46681b20a0845f1c1115612dbf575f600385925092509250612e60565b5f6001888888886040515f8152602001604052604051612de294939291906146bc565b6020604051602081039080840390855afa158015612e02573d5f5f3e3d5ffd5b5050506020604051035190505f73ffffffffffffffffffffffffffffffffffffffff168173ffffffffffffffffffffffffffffffffffffffff1603612e53575f60015f5f1b93509350935050612e60565b805f5f5f1b935093509350505b9450945094915050565b6040518060e001604052805f81526020015f73ffffffffffffffffffffffffffffffffffffffff1681526020015f73ffffffffffffffffffffffffffffffffffffffff1681526020015f81526020015f151581526020015f6002811115612ed457612ed3612fb7565b5b81526020015f81525090565b5f604051905090565b5f5ffd5b5f5ffd5b5f819050919050565b612f0381612ef1565b8114612f0d575f5ffd5b50565b5f81359050612f1e81612efa565b92915050565b5f60208284031215612f3957612f38612ee9565b5b5f612f4684828501612f10565b91505092915050565b612f5881612ef1565b82525050565b5f73ffffffffffffffffffffffffffffffffffffffff82169050919050565b5f612f8782612f5e565b9050919050565b612f9781612f7d565b82525050565b5f8115159050919050565b612fb181612f9d565b82525050565b7f4e487b71000000000000000000000000000000000000000000000000000000005f52602160045260245ffd5b60038110612ff557612ff4612fb7565b5b50565b5f81905061300582612fe4565b919050565b5f61301482612ff8565b9050919050565b6130248161300a565b82525050565b5f60e08201905061303d5f83018a612f4f565b61304a6020830189612f8e565b6130576040830188612f8e565b6130646060830187612f4f565b6130716080830186612fa8565b61307e60a083018561301b565b61308b60c0830184612f4f565b98975050505050505050565b5f6020820190506130aa5f830184612f4f565b92915050565b6130b981612ef1565b82525050565b6130c881612f7d565b82525050565b6130d781612f9d565b82525050565b6130e68161300a565b82525050565b60e082015f8201516131005f8501826130b0565b50602082015161311360208501826130bf565b50604082015161312660408501826130bf565b50606082015161313960608501826130b0565b50608082015161314c60808501826130ce565b5060a082015161315f60a08501826130dd565b5060c082015161317260c08501826130b0565b50505050565b5f60e08201905061318b5f8301846130ec565b92915050565b5f819050919050565b5f6131b46131af6131aa84612f5e565b613191565b612f5e565b9050919050565b5f6131c58261319a565b9050919050565b5f6131d6826131bb565b9050919050565b6131e6816131cc565b82525050565b5f6020820190506131ff5f8301846131dd565b92915050565b5f6020820190506132185f830184612f8e565b92915050565b5f6020820190506132315f830184612fa8565b92915050565b5f613241826131bb565b9050919050565b61325181613237565b82525050565b5f60208201905061326a5f830184613248565b92915050565b61327981612f7d565b8114613283575f5ffd5b50565b5f8135905061329481613270565b92915050565b5f602082840312156132af576132ae612ee9565b5b5f6132bc84828501613286565b91505092915050565b5f5f604083850312156132db576132da612ee9565b5b5f6132e885828601612f10565b92505060206132f985828601613286565b9150509250929050565b5f5ffd5b5f5ffd5b5f601f19601f8301169050919050565b7f4e487b71000000000000000000000000000000000000000000000000000000005f52604160045260245ffd5b6133518261330b565b810181811067ffffffffffffffff821117156133705761336f61331b565b5b80604052505050565b5f613382612ee0565b905061338e8282613348565b919050565b5f67ffffffffffffffff8211156133ad576133ac61331b565b5b6133b68261330b565b9050602081019050919050565b828183375f83830152505050565b5f6133e36133de84613393565b613379565b9050828152602081018484840111156133ff576133fe613307565b5b61340a8482856133c3565b509392505050565b5f82601f83011261342657613425613303565b5b81356134368482602086016133d1565b91505092915050565b5f5f6040838503121561345557613454612ee9565b5b5f61346285828601612f10565b925050602083013567ffffffffffffffff81111561348357613482612eed565b5b61348f85828601613412565b9150509250929050565b5f82825260208201905092915050565b7f416374697665206465616c2065786973747320666f72207468697320746f6b655f8201527f6e00000000000000000000000000000000000000000000000000000000000000602082015250565b5f613503602183613499565b915061350e826134a9565b604082019050919050565b5f6020820190508181035f830152613530816134f7565b9050919050565b5f8151905061354581613270565b92915050565b5f602082840312156135605761355f612ee9565b5b5f61356d84828501613537565b91505092915050565b7f5468697320636f6e7472616374206973206e6f742074686520726567697374655f8201527f72656420657363726f7700000000000000000000000000000000000000000000602082015250565b5f6135d0602a83613499565b91506135db82613576565b604082019050919050565b5f6020820190508181035f8301526135fd816135c4565b9050919050565b5f5ffd5b5f5ffd5b5f67ffffffffffffffff8211156136265761362561331b565b5b61362f8261330b565b9050602081019050919050565b8281835e5f83830152505050565b5f61365c6136578461360c565b613379565b90508281526020810184848401111561367857613677613307565b5b61368384828561363c565b509392505050565b5f82601f83011261369f5761369e613303565b5b81516136af84826020860161364a565b91505092915050565b5f815190506136c681612efa565b92915050565b5f819050919050565b6136de816136cc565b81146136e8575f5ffd5b50565b5f815190506136f9816136d5565b92915050565b5f61371161370c84613393565b613379565b90508281526020810184848401111561372d5761372c613307565b5b61373884828561363c565b509392505050565b5f82601f83011261375457613753613303565b5b81516137648482602086016136ff565b91505092915050565b60038110613779575f5ffd5b50565b5f8151905061378a8161376d565b92915050565b5f67ffffffffffffffff8211156137aa576137a961331b565b5b602082029050602081019050919050565b5f5ffd5b5f6137d16137cc84613790565b613379565b905080838252602082019050602084028301858111156137f4576137f36137bb565b5b835b8181101561381d57806138098882613537565b8452602084019350506020810190506137f6565b5050509392505050565b5f82601f83011261383b5761383a613303565b5b815161384b8482602086016137bf565b91505092915050565b5f610160828403121561386a57613869613604565b5b613875610160613379565b90505f82015167ffffffffffffffff81111561389457613893613608565b5b6138a08482850161368b565b5f83015250602082015167ffffffffffffffff8111156138c3576138c2613608565b5b6138cf8482850161368b565b602083015250604082015167ffffffffffffffff8111156138f3576138f2613608565b5b6138ff8482850161368b565b604083015250606082015167ffffffffffffffff81111561392357613922613608565b5b61392f8482850161368b565b6060830152506080613943848285016136b8565b60808301525060a082015167ffffffffffffffff81111561396757613966613608565b5b6139738482850161368b565b60a08301525060c0613987848285016136eb565b60c08301525060e082015167ffffffffffffffff8111156139ab576139aa613608565b5b6139b784828501613740565b60e08301525061010082015167ffffffffffffffff8111156139dc576139db613608565b5b6139e884828501613740565b610100830152506101206139fe8482850161377c565b6101208301525061014082015167ffffffffffffffff811115613a2457613a23613608565b5b613a3084828501613827565b6101408301525092915050565b5f60208284031215613a5257613a51612ee9565b5b5f82015167ffffffffffffffff811115613a6f57613a6e612eed565b5b613a7b84828501613854565b91505092915050565b7f50726f7065727479206e6f7420617661696c61626c65000000000000000000005f82015250565b5f613ab8601683613499565b9150613ac382613a84565b602082019050919050565b5f6020820190508181035f830152613ae581613aac565b9050919050565b7f496e76616c6964207072696365000000000000000000000000000000000000005f82015250565b5f613b20600d83613499565b9150613b2b82613aec565b602082019050919050565b5f6020820190508181035f830152613b4d81613b14565b9050919050565b7f53656c6c65722063616e6e6f7420627579206f776e2070726f706572747900005f82015250565b5f613b88601e83613499565b9150613b9382613b54565b602082019050919050565b5f6020820190508181035f830152613bb581613b7c565b9050919050565b5f604082019050613bcf5f830185612f8e565b613bdc6020830184612f8e565b9392505050565b5f60208284031215613bf857613bf7612ee9565b5b5f613c05848285016136b8565b91505092915050565b7f496e73756666696369656e74205855534420616c6c6f77616e63652c206170705f8201527f726f766520666972737400000000000000000000000000000000000000000000602082015250565b5f613c68602a83613499565b9150613c7382613c0e565b604082019050919050565b5f6020820190508181035f830152613c9581613c5c565b9050919050565b7f4e487b71000000000000000000000000000000000000000000000000000000005f52601160045260245ffd5b5f613cd382612ef1565b91507fffffffffffffffffffffffffffffffffffffffffffffffffffffffffffffffff8203613d0557613d04613c9c565b5b600182019050919050565b5f613d1a82612ef1565b9150613d2583612ef1565b9250828201905080821115613d3d57613d3c613c9c565b5b92915050565b60038110613d5457613d53612fb7565b5b50565b5f819050613d6482613d43565b919050565b5f613d7382613d57565b9050919050565b613d8381613d69565b82525050565b5f604082019050613d9c5f830185612f4f565b613da96020830184613d7a565b9392505050565b7f4e6f206465616c20666f756e6420666f72207468697320746f6b656e000000005f82015250565b5f613de4601c83613499565b9150613def82613db0565b602082019050919050565b5f6020820190508181035f830152613e1181613dd8565b9050919050565b7f4e6f2066756e647320746f2077697468647261770000000000000000000000005f82015250565b5f613e4c601483613499565b9150613e5782613e18565b602082019050919050565b5f6020820190508181035f830152613e7981613e40565b9050919050565b7f4f7574206f662072616e676500000000000000000000000000000000000000005f82015250565b5f613eb4600c83613499565b9150613ebf82613e80565b602082019050919050565b5f6020820190508181035f830152613ee181613ea8565b9050919050565b7f4465616c20646f6573206e6f74206578697374000000000000000000000000005f82015250565b5f613f1c601383613499565b9150613f2782613ee8565b602082019050919050565b5f6020820190508181035f830152613f4981613f10565b9050919050565b7f4e6f74207468652073656c6c65720000000000000000000000000000000000005f82015250565b5f613f84600e83613499565b9150613f8f82613f50565b602082019050919050565b5f6020820190508181035f830152613fb181613f78565b9050919050565b7f4465616c206e6f74206f70656e000000000000000000000000000000000000005f82015250565b5f613fec600d83613499565b9150613ff782613fb8565b602082019050919050565b5f6020820190508181035f83015261401981613fe0565b9050919050565b7f427579657220616c7265616479206465706f73697465640000000000000000005f82015250565b5f614054601783613499565b915061405f82614020565b602082019050919050565b5f6020820190508181035f83015261408181614048565b9050919050565b7f43616e63656c6c65642062792073656c6c6572000000000000000000000000005f82015250565b5f6140bc601383613499565b91506140c782614088565b602082019050919050565b5f6020820190508181035f8301526140e9816140b0565b9050919050565b7f46656520746f6f206869676800000000000000000000000000000000000000005f82015250565b5f614124600c83613499565b915061412f826140f0565b602082019050919050565b5f6020820190508181035f83015261415181614118565b9050919050565b7f496e76616c696420726563697069656e740000000000000000000000000000005f82015250565b5f61418c601183613499565b915061419782614158565b602082019050919050565b5f6020820190508181035f8301526141b981614180565b9050919050565b7f4e6f7420746865206275796572000000000000000000000000000000000000005f82015250565b5f6141f4600d83613499565b91506141ff826141c0565b602082019050919050565b5f6020820190508181035f830152614221816141e8565b9050919050565b7f416c7265616479207369676e65640000000000000000000000000000000000005f82015250565b5f61425c600e83613499565b915061426782614228565b602082019050919050565b5f6020820190508181035f83015261428981614250565b9050919050565b7f4465616c206578706972656400000000000000000000000000000000000000005f82015250565b5f6142c4600c83613499565b91506142cf82614290565b602082019050919050565b5f6020820190508181035f8301526142f1816142b8565b9050919050565b5f819050919050565b61431261430d82612ef1565b6142f8565b82525050565b5f8160601b9050919050565b5f61432e82614318565b9050919050565b5f61433f82614324565b9050919050565b61435761435282612f7d565b614335565b82525050565b5f6143688288614301565b6020820191506143788287614301565b6020820191506143888286614346565b6014820191506143988285614346565b6014820191506143a88284614301565b6020820191508190509695505050505050565b7f496e76616c6964206275796572207369676e61747572650000000000000000005f82015250565b5f6143ef601783613499565b91506143fa826143bb565b602082019050919050565b5f6020820190508181035f83015261441c816143e3565b9050919050565b5f81519050919050565b5f82825260208201905092915050565b5f61444782614423565b614451818561442d565b935061446181856020860161363c565b61446a8161330b565b840191505092915050565b5f6040820190506144885f830185612f4f565b818103602083015261449a818461443d565b90509392505050565b7f4e6f74206120706172747920746f2074686973206465616c00000000000000005f82015250565b5f6144d7601883613499565b91506144e2826144a3565b602082019050919050565b5f6020820190508181035f830152614504816144cb565b9050919050565b7f4e6f7420796574206578706972656400000000000000000000000000000000005f82015250565b5f61453f600f83613499565b915061454a8261450b565b602082019050919050565b5f6020820190508181035f83015261456c81614533565b9050919050565b5f61457d82612ef1565b915061458883612ef1565b92508282039050818111156145a05761459f613c9c565b5b92915050565b5f6145b082612ef1565b91506145bb83612ef1565b92508282026145c981612ef1565b915082820484148315176145e0576145df613c9c565b5b5092915050565b7f4e487b71000000000000000000000000000000000000000000000000000000005f52601260045260245ffd5b5f61461e82612ef1565b915061462983612ef1565b925082614639576146386145e7565b5b828204905092915050565b5f6060820190506146575f830186612f4f565b6146646020830185612f8e565b6146716040830184612f8e565b949350505050565b614682816136cc565b82525050565b5f60208201905061469b5f830184614679565b92915050565b5f60ff82169050919050565b6146b6816146a1565b82525050565b5f6080820190506146cf5f830187614679565b6146dc60208301866146ad565b6146e96040830185614679565b6146f66060830184614679565b9594505050505056fea2646970667358221220b0decd292dc4845e29fd6fad7eac2d4953ae4e7bda20e2e9fea0b5476ff62c3d64736f6c634300081c0033",
  "linkReferences": {},
  "deployedLinkReferences": {},
  "immutableReferences": {
    "7942": [
      {
        "length": 32,
        "start": 1717
      },
      {
        "length": 32,
        "start": 1945
      },
      {
        "length": 32,
        "start": 2103
      },
      {
        "length": 32,
        "start": 3347
      },
      {
        "length": 32,
        "start": 5205
      },
      {
        "length": 32,
        "start": 5650
      },
      {
        "length": 32,
        "start": 7386
      },
      {
        "length": 32,
        "start": 8499
      },
      {
        "length": 32,
        "start": 10164
      }
    ],
    "7945": [
      {
        "length": 32,
        "start": 2553
      },
      {
        "length": 32,
        "start": 3276
      },
      {
        "length": 32,
        "start": 4221
      },
      {
        "length": 32,
        "start": 4380
      }
    ]
  },
  "inputSourceName": "project/contracts/PropertyEscrow.sol",
  "buildInfoId": "solc-0_8_28-fc7967d75906fd0b4526ee1626cda6dee05cf712"
}