{
  "_format": "hh3-artifact-1",
  "contractName": "PropertyRegistry",
  "sourceName": "contracts/PropertyRegistry.sol",
  "abi": [
    {
      "inputs": [],
      "stateMutability": "nonpayable",
      "type": "constructor"
    },
    {
      "inputs": [],
      "name": "ECDSAInvalidSignature",
      "type": "error"
    },
    {
      "inputs": [
        {
          "internalType": "uint256",
          "name": "length",
          "type": "uint256"
        }
      ],
      "name": "ECDSAInvalidSignatureLength",
      "type": "error"
    },
    {
      "inputs": [
        {
          "internalType": "bytes32",
          "name": "s",
          "type": "bytes32"
        }
      ],
      "name": "ECDSAInvalidSignatureS",
      "type": "error"
    },
    {
      "inputs": [
        {
          "internalType": "address",
          "name": "sender",
          "type": "address"
        },
        {
          "internalType": "uint256",
          "name": "tokenId",
          "type": "uint256"
        },
        {
          "internalType": "address",
          "name": "owner",
          "type": "address"
        }
      ],
      "name": "ERC721IncorrectOwner",
      "type": "error"
    },
    {
      "inputs": [
        {
          "internalType": "address",
          "name": "operator",
          "type": "address"
        },
        {
          "internalType": "uint256",
          "name": "tokenId",
          "type": "uint256"
        }
      ],
      "name": "ERC721InsufficientApproval",
      "type": "error"
    },
    {
      "inputs": [
        {
          "internalType": "address",
          "name": "approver",
          "type": "address"
        }
      ],
      "name": "ERC721InvalidApprover",
      "type": "error"
    },
    {
      "inputs": [
        {
          "internalType": "address",
          "name": "operator",
          "type": "address"
        }
      ],
      "name": "ERC721InvalidOperator",
      "type": "error"
    },
    {
      "inputs": [
        {
          "internalType": "address",
          "name": "owner",
          "type": "address"
        }
      ],
      "name": "ERC721InvalidOwner",
      "type": "error"
    },
    {
      "inputs": [
        {
          "internalType": "address",
          "name": "receiver",
          "type": "address"
        }
      ],
      "name": "ERC721InvalidReceiver",
      "type": "error"
    },
    {
      "inputs": [
        {
          "internalType": "address",
          "name": "sender",
          "type": "address"
        }
      ],
      "name": "ERC721InvalidSender",
      "type": "error"
    },
    {
      "inputs": [
        {
          "internalType": "uint256",
          "name": "tokenId",
          "type": "uint256"
        }
      ],
      "name": "ERC721NonexistentToken",
      "type": "error"
    },
    {
      "inputs": [],
      "name": "EnforcedPause",
      "type": "error"
    },
    {
      "inputs": [],
      "name": "ExpectedPause",
      "type": "error"
    },
    {
      "inputs": [
        {
          "internalType": "address",
          "name": "owner",
          "type": "address"
        }
      ],
      "name": "OwnableInvalidOwner",
      "type": "error"
    },
    {
      "inputs": [
        {
          "internalType": "address",
          "name": "account",
          "type": "address"
        }
      ],
      "name": "OwnableUnauthorizedAccount",
      "type": "error"
    },
    {
      "anonymous": false,
      "inputs": [
        {
          "indexed": true,
          "internalType": "address",
          "name": "owner",
          "type": "address"
        },
        {
          "indexed": true,
          "internalType": "address",
          "name": "approved",
          "type": "address"
        },
        {
          "indexed": true,
          "internalType": "uint256",
          "name": "tokenId",
          "type": "uint256"
        }
      ],
      "name": "Approval",
      "type": "event"
    },
    {
      "anonymous": false,
      "inputs": [
        {
          "indexed": true,
          "internalType": "address",
          "name": "owner",
          "type": "address"
        },
        {
          "indexed": true,
          "internalType": "address",
          "name": "operator",
          "type": "address"
        },
        {
          "indexed": false,
          "internalType": "bool",
          "name": "approved",
          "type": "bool"
        }
      ],
      "name": "ApprovalForAll",
      "type": "event"
    },
    {
      "anonymous": false,
      "inputs": [
        {
          "indexed": true,
          "internalType": "address",
          "name": "escrow",
          "type": "address"
        }
      ],
      "name": "EscrowContractSet",
      "type": "event"
    },
    {
      "anonymous": false,
      "inputs": [
        {
          "indexed": true,
          "internalType": "address",
          "name": "previousOwner",
          "type": "address"
        },
        {
          "indexed": true,
          "internalType": "address",
          "name": "newOwner",
          "type": "address"
        }
      ],
      "name": "OwnershipTransferStarted",
      "type": "event"
    },
    {
      "anonymous": false,
      "inputs": [
        {
          "indexed": true,
          "internalType": "address",
          "name": "previousOwner",
          "type": "address"
        },
        {
          "indexed": true,
          "internalType": "address",
          "name": "newOwner",
          "type": "address"
        }
      ],
      "name": "OwnershipTransferred",
      "type": "event"
    },
    {
      "anonymous": false,
      "inputs": [
        {
          "indexed": false,
          "internalType": "address",
          "name": "account",
          "type": "address"
        }
      ],
      "name": "Paused",
      "type": "event"
    },
    {
      "anonymous": false,
      "inputs": [
        {
          "indexed": true,
          "internalType": "uint256",
          "name": "tokenId",
          "type": "uint256"
        },
        {
          "indexed": true,
          "internalType": "address",
          "name": "seller",
          "type": "address"
        },
        {
          "indexed": false,
          "internalType": "string",
          "name": "location",
          "type": "string"
        }
      ],
      "name": "PropertyListed",
      "type": "event"
    },
    {
      "anonymous": false,
      "inputs": [
        {
          "indexed": true,
          "internalType": "uint256",
          "name": "tokenId",
          "type": "uint256"
        },
        {
          "indexed": true,
          "internalType": "address",
          "name": "from",
          "type": "address"
        },
        {
          "indexed": true,
          "internalType": "address",
          "name": "to",
          "type": "address"
        }
      ],
      "name": "PropertyTransferred",
      "type": "event"
    },
    {
      "anonymous": false,
      "inputs": [
        {
          "indexed": true,
          "internalType": "uint256",
          "name": "tokenId",
          "type": "uint256"
        },
        {
          "indexed": false,
          "internalType": "enum PropertyRegistry.Status",
          "name": "status",
          "type": "uint8"
        }
      ],
      "name": "StatusUpdated",
      "type": "event"
    },
    {
      "anonymous": false,
      "inputs": [
        {
          "indexed": true,
          "internalType": "address",
          "name": "from",
          "type": "address"
        },
        {
          "indexed": true,
          "internalType": "address",
          "name": "to",
          "type": "address"
        },
        {
          "indexed": true,
          "internalType": "uint256",
          "name": "tokenId",
          "type": "uint256"
        }
      ],
      "name": "Transfer",
      "type": "event"
    },
    {
      "anonymous": false,
      "inputs": [
        {
          "indexed": false,
          "internalType": "address",
          "name": "account",
          "type": "address"
        }
      ],
      "name": "Unpaused",
      "type": "event"
    },
    {
      "anonymous": false,
      "inputs": [
        {
          "indexed": true,
          "internalType": "address",
          "name": "lister",
          "type": "address"
        },
        {
          "indexed": false,
          "internalType": "bool",
          "name": "status",
          "type": "bool"
        }
      ],
      "name": "VerifiedListerUpdated",
      "type": "event"
    },
    {
      "inputs": [],
      "name": "acceptOwnership",
      "outputs": [],
      "stateMutability": "nonpayable",
      "type": "function"
    },
    {
      "inputs": [
        {
          "internalType": "address",
          "name": "to",
          "type": "address"
        },
        {
          "internalType": "uint256",
          "name": "tokenId",
          "type": "uint256"
        }
      ],
      "name": "approve",
      "outputs": [],
      "stateMutability": "nonpayable",
      "type": "function"
    },
    {
      "inputs": [
        {
          "internalType": "uint256",
          "name": "tokenId",
          "type": "uint256"
        },
        {
          "internalType": "bytes",
          "name": "buyerSig",
          "type": "bytes"
        }
      ],
      "name": "attachBuyerSig",
      "outputs": [],
      "stateMutability": "nonpayable",
      "type": "function"
    },
    {
      "inputs": [
        {
          "internalType": "address",
          "name": "owner",
          "type": "address"
        }
      ],
      "name": "balanceOf",
      "outputs": [
        {
          "internalType": "uint256",
          "name": "",
          "type": "uint256"
        }
      ],
      "stateMutability": "view",
      "type": "function"
    },
    {
      "inputs": [],
      "name": "escrowContract",
      "outputs": [
        {
          "internalType": "address",
          "name": "",
          "type": "address"
        }
      ],
      "stateMutability": "view",
      "type": "function"
    },
    {
      "inputs": [],
      "name": "escrowLocked",
      "outputs": [
        {
          "internalType": "bool",
          "name": "",
          "type": "bool"
        }
      ],
      "stateMutability": "view",
      "type": "function"
    },
    {
      "inputs": [
        {
          "internalType": "uint256",
          "name": "tokenId",
          "type": "uint256"
        }
      ],
      "name": "getApproved",
      "outputs": [
        {
          "internalType": "address",
          "name": "",
          "type": "address"
        }
      ],
      "stateMutability": "view",
      "type": "function"
    },
    {
      "inputs": [],
      "name": "getEscrowContract",
      "outputs": [
        {
          "internalType": "address",
          "name": "",
          "type": "address"
        }
      ],
      "stateMutability": "view",
      "type": "function"
    },
    {
      "inputs": [
        {
          "internalType": "uint256",
          "name": "tokenId",
          "type": "uint256"
        }
      ],
      "name": "getPreviousOwners",
      "outputs": [
        {
          "internalType": "address[]",
          "name": "",
          "type": "address[]"
        }
      ],
      "stateMutability": "view",
      "type": "function"
    },
    {
      "inputs": [
        {
          "internalType": "uint256",
          "name": "tokenId",
          "type": "uint256"
        }
      ],
      "name": "getProperty",
      "outputs": [
        {
          "components": [
            {
              "internalType": "string",
              "name": "location",
              "type": "string"
            },
            {
              "internalType": "string",
              "name": "latitude",
              "type": "string"
            },
            {
              "internalType": "string",
              "name": "longitude",
              "type": "string"
            },
            {
              "internalType": "string",
              "name": "size",
              "type": "string"
            },
            {
              "internalType": "uint256",
              "name": "price",
              "type": "uint256"
            },
            {
              "internalType": "string",
              "name": "description",
              "type": "string"
            },
            {
              "internalType": "bytes32",
              "name": "docsHash",
              "type": "bytes32"
            },
            {
              "internalType": "bytes",
              "name": "sellerSig",
              "type": "bytes"
            },
            {
              "internalType": "bytes",
              "name": "buyerSig",
              "type": "bytes"
            },
            {
              "internalType": "enum PropertyRegistry.Status",
              "name": "status",
              "type": "uint8"
            },
            {
              "internalType": "address[]",
              "name": "previousOwners",
              "type": "address[]"
            }
          ],
          "internalType": "struct PropertyRegistry.Property",
          "name": "",
          "type": "tuple"
        }
      ],
      "stateMutability": "view",
      "type": "function"
    },
    {
      "inputs": [
        {
          "internalType": "address",
          "name": "owner",
          "type": "address"
        },
        {
          "internalType": "address",
          "name": "operator",
          "type": "address"
        }
      ],
      "name": "isApprovedForAll",
      "outputs": [
        {
          "internalType": "bool",
          "name": "",
          "type": "bool"
        }
      ],
      "stateMutability": "view",
      "type": "function"
    },
    {
      "inputs": [
        {
          "internalType": "string",
          "name": "location",
          "type": "string"
        },
        {
          "internalType": "string",
          "name": "latitude",
          "type": "string"
        },
        {
          "internalType": "string",
          "name": "longitude",
          "type": "string"
        },
        {
          "internalType": "string",
          "name": "size",
          "type": "string"
        },
        {
          "internalType": "uint256",
          "name": "price",
          "type": "uint256"
        },
        {
          "internalType": "string",
          "name": "description",
          "type": "string"
        },
        {
          "internalType": "bytes32",
          "name": "docsHash",
          "type": "bytes32"
        },
        {
          "internalType": "bytes",
          "name": "sellerSig",
          "type": "bytes"
        }
      ],
      "name": "listProperty",
      "outputs": [
        {
          "internalType": "uint256",
          "name": "",
          "type": "uint256"
        }
      ],
      "stateMutability": "nonpayable",
      "type": "function"
    },
    {
      "inputs": [],
      "name": "name",
      "outputs": [
        {
          "internalType": "string",
          "name": "",
          "type": "string"
        }
      ],
      "stateMutability": "view",
      "type": "function"
    },
    {
      "inputs": [],
      "name": "owner",
      "outputs": [
        {
          "internalType": "address",
          "name": "",
          "type": "address"
        }
      ],
      "stateMutability": "view",
      "type": "function"
    },
    {
      "inputs": [
        {
          "internalType": "uint256",
          "name": "tokenId",
          "type": "uint256"
        }
      ],
      "name": "ownerOf",
      "outputs": [
        {
          "internalType": "address",
          "name": "",
          "type": "address"
        }
      ],
      "stateMutability": "view",
      "type": "function"
    },
    {
      "inputs": [],
      "name": "pause",
      "outputs": [],
      "stateMutability": "nonpayable",
      "type": "function"
    },
    {
      "inputs": [],
      "name": "paused",
      "outputs": [
        {
          "internalType": "bool",
          "name": "",
          "type": "bool"
        }
      ],
      "stateMutability": "view",
      "type": "function"
    },
    {
      "inputs": [],
      "name": "pendingOwner",
      "outputs": [
        {
          "internalType": "address",
          "name": "",
          "type": "address"
        }
      ],
      "stateMutability": "view",
      "type": "function"
    },
    {
      "inputs": [
        {
          "internalType": "uint256",
          "name": "",
          "type": "uint256"
        }
      ],
      "name": "properties",
      "outputs": [
        {
          "internalType": "string",
          "name": "location",
          "type": "string"
        },
        {
          "internalType": "string",
          "name": "latitude",
          "type": "string"
        },
        {
          "internalType": "string",
          "name": "longitude",
          "type": "string"
        },
        {
          "internalType": "string",
          "name": "size",
          "type": "string"
        },
        {
          "internalType": "uint256",
          "name": "price",
          "type": "uint256"
        },
        {
          "internalType": "string",
          "name": "description",
          "type": "string"
        },
        {
          "internalType": "bytes32",
          "name": "docsHash",
          "type": "bytes32"
        },
        {
          "internalType": "bytes",
          "name": "sellerSig",
          "type": "bytes"
        },
        {
          "internalType": "bytes",
          "name": "buyerSig",
          "type": "bytes"
        },
        {
          "internalType": "enum PropertyRegistry.Status",
          "name": "status",
          "type": "uint8"
        }
      ],
      "stateMutability": "view",
      "type": "function"
    },
    {
      "inputs": [],
      "name": "renounceOwnership",
      "outputs": [],
      "stateMutability": "nonpayable",
      "type": "function"
    },
    {
      "inputs": [
        {
          "internalType": "address",
          "name": "from",
          "type": "address"
        },
        {
          "internalType": "address",
          "name": "to",
          "type": "address"
        },
        {
          "internalType": "uint256",
          "name": "tokenId",
          "type": "uint256"
        }
      ],
      "name": "safeTransferFrom",
      "outputs": [],
      "stateMutability": "nonpayable",
      "type": "function"
    },
    {
      "inputs": [
        {
          "internalType": "address",
          "name": "from",
          "type": "address"
        },
        {
          "internalType": "address",
          "name": "to",
          "type": "address"
        },
        {
          "internalType": "uint256",
          "name": "tokenId",
          "type": "uint256"
        },
        {
          "internalType": "bytes",
          "name": "data",
          "type": "bytes"
        }
      ],
      "name": "safeTransferFrom",
      "outputs": [],
      "stateMutability": "nonpayable",
      "type": "function"
    },
    {
      "inputs": [
        {
          "internalType": "address",
          "name": "operator",
          "type": "address"
        },
        {
          "internalType": "bool",
          "name": "approved",
          "type": "bool"
        }
      ],
      "name": "setApprovalForAll",
      "outputs": [],
      "stateMutability": "nonpayable",
      "type": "function"
    },
    {
      "inputs": [
        {
          "internalType": "address",
          "name": "_escrow",
          "type": "address"
        }
      ],
      "name": "setEscrowContract",
      "outputs": [],
      "stateMutability": "nonpayable",
      "type": "function"
    },
    {
      "inputs": [
        {
          "internalType": "address",
          "name": "lister",
          "type": "address"
        },
        {
          "internalType": "bool",
          "name": "status",
          "type": "bool"
        }
      ],
      "name": "setVerifiedLister",
      "outputs": [],
      "stateMutability": "nonpayable",
      "type": "function"
    },
    {
      "inputs": [
        {
          "internalType": "bytes4",
          "name": "interfaceId",
          "type": "bytes4"
        }
      ],
      "name": "supportsInterface",
      "outputs": [
        {
          "internalType": "bool",
          "name": "",
          "type": "bool"
        }
      ],
      "stateMutability": "view",
      "type": "function"
    },
    {
      "inputs": [],
      "name": "symbol",
      "outputs": [
        {
          "internalType": "string",
          "name": "",
          "type": "string"
        }
      ],
      "stateMutability": "view",
      "type": "function"
    },
    {
      "inputs": [],
      "name": "tokenCount",
      "outputs": [
        {
          "internalType": "uint256",
          "name": "",
          "type": "uint256"
        }
      ],
      "stateMutability": "view",
      "type": "function"
    },
    {
      "inputs": [
        {
          "internalType": "uint256",
          "name": "tokenId",
          "type": "uint256"
        }
      ],
      "name": "tokenURI",
      "outputs": [
        {
          "internalType": "string",
          "name": "",
          "type": "string"
        }
      ],
      "stateMutability": "view",
      "type": "function"
    },
    {
      "inputs": [
        {
          "internalType": "address",
          "name": "from",
          "type": "address"
        },
        {
          "internalType": "address",
          "name": "to",
          "type": "address"
        },
        {
          "internalType": "uint256",
          "name": "tokenId",
          "type": "uint256"
        }
      ],
      "name": "transferFrom",
      "outputs": [],
      "stateMutability": "nonpayable",
      "type": "function"
    },
    {
      "inputs": [
        {
          "internalType": "address",
          "name": "newOwner",
          "type": "address"
        }
      ],
      "name": "transferOwnership",
      "outputs": [],
      "stateMutability": "nonpayable",
      "type": "function"
    },
    {
      "inputs": [
        {
          "internalType": "uint256",
          "name": "tokenId",
          "type": "uint256"
        },
        {
          "internalType": "address",
          "name": "from",
          "type": "address"
        },
        {
          "internalType": "address",
          "name": "to",
          "type": "address"
        }
      ],
      "name": "transferProperty",
      "outputs": [],
      "stateMutability": "nonpayable",
      "type": "function"
    },
    {
      "inputs": [],
      "name": "unpause",
      "outputs": [],
      "stateMutability": "nonpayable",
      "type": "function"
    },
    {
      "inputs": [
        {
          "internalType": "uint256",
          "name": "tokenId",
          "type": "uint256"
        },
        {
          "internalType": "enum PropertyRegistry.Status",
          "name": "newStatus",
          "type": "uint8"
        }
      ],
      "name": "updateStatus",
      "outputs": [],
      "stateMutability": "nonpayable",
      "type": "function"
    },
    {
      "inputs": [
        {
          "internalType": "address",
          "name": "",
          "type": "address"
        }
      ],
      "name": "verifiedListers",
      "outputs": [
        {
          "internalType": "bool",
          "name": "",
          "type": "bool"
        }
      ],
      "stateMutability": "view",
      "type": "function"
    }
  ],
  "bytecode": "0x608060405234801561000f575f5ffd5b50336040518060400160405280601081526020017f50726f70657274795265676973747279000000000000000000000000000000008152506040518060400160405280600481526020017f50524f5000000000000000000000000000000000000000000000000000000000815250815f908161008b9190610459565b50806001908161009b9190610459565b5050505f73ffffffffffffffffffffffffffffffffffffffff168173ffffffffffffffffffffffffffffffffffffffff160361010e575f6040517f1e4fbdf70000000000000000000000000000000000000000000000000000000081526004016101059190610567565b60405180910390fd5b61011d8161012360201b60201c565b50610580565b60075f6101000a81549073ffffffffffffffffffffffffffffffffffffffff02191690556101568161015960201b60201c565b50565b5f60065f9054906101000a900473ffffffffffffffffffffffffffffffffffffffff1690508160065f6101000a81548173ffffffffffffffffffffffffffffffffffffffff021916908373ffffffffffffffffffffffffffffffffffffffff1602179055508173ffffffffffffffffffffffffffffffffffffffff168173ffffffffffffffffffffffffffffffffffffffff167f8be0079c531659141344cd1fd0a4f28419497f9722a3daafe3b4186f6b6457e060405160405180910390a35050565b5f81519050919050565b7f4e487b71000000000000000000000000000000000000000000000000000000005f52604160045260245ffd5b7f4e487b71000000000000000000000000000000000000000000000000000000005f52602260045260245ffd5b5f600282049050600182168061029757607f821691505b6020821081036102aa576102a9610253565b5b50919050565b5f819050815f5260205f209050919050565b5f6020601f8301049050919050565b5f82821b905092915050565b5f6008830261030c7fffffffffffffffffffffffffffffffffffffffffffffffffffffffffffffffff826102d1565b61031686836102d1565b95508019841693508086168417925050509392505050565b5f819050919050565b5f819050919050565b5f61035a6103556103508461032e565b610337565b61032e565b9050919050565b5f819050919050565b61037383610340565b61038761037f82610361565b8484546102dd565b825550505050565b5f5f905090565b61039e61038f565b6103a981848461036a565b505050565b5b818110156103cc576103c15f82610396565b6001810190506103af565b5050565b601f821115610411576103e2816102b0565b6103eb846102c2565b810160208510156103fa578190505b61040e610406856102c2565b8301826103ae565b50505b505050565b5f82821c905092915050565b5f6104315f1984600802610416565b1980831691505092915050565b5f6104498383610422565b9150826002028217905092915050565b6104628261021c565b67ffffffffffffffff81111561047b5761047a610226565b5b6104858254610280565b6104908282856103d0565b5f60209050601f8311600181146104c1575f84156104af578287015190505b6104b9858261043e565b865550610520565b601f1984166104cf866102b0565b5f5b828110156104f6578489015182556001820191506020850194506020810190506104d1565b86831015610513578489015161050f601f891682610422565b8355505b6001600288020188555050505b505050505050565b5f73ffffffffffffffffffffffffffffffffffffffff82169050919050565b5f61055182610528565b9050919050565b61056181610547565b82525050565b5f60208201905061057a5f830184610558565b92915050565b6156658061058d5f395ff3fe608060405234801561000f575f5ffd5b506004361061020f575f3560e01c80638da5cb5b11610123578063e30c3978116100ab578063f2e76be11161007a578063f2e76be1146105eb578063f2fde38b14610609578063f330ca4e14610625578063f42375b514610641578063f7b108081461065d5761020f565b8063e30c39781461054f578063e42a96e71461056d578063e985e9c51461058b578063f1a0995c146105bb5761020f565b8063a59f6ca3116100f2578063a59f6ca314610499578063b88d4fde146104b5578063b909acc5146104d1578063c87b56dd146104ef578063e1053a6a1461051f5761020f565b80638da5cb5b1461042357806395d89b41146104415780639f181b5e1461045f578063a22cb4651461047d5761020f565b806342842e0e116101a65780636352211e116101755780636352211e146103a557806370a08231146103d5578063715018a61461040557806379ba50971461040f5780638456cb59146104195761020f565b806342842e0e1461031f5780634bed0a201461033b57806358131af71461036b5780635c975abb146103875761020f565b806323b872dd116101e257806323b872dd146102ad57806332665ffb146102c95780633a1b3d31146102f95780633f4ba83a146103155761020f565b806301ffc9a71461021357806306fdde0314610243578063081812fc14610261578063095ea7b314610291575b5f5ffd5b61022d60048036038101906102289190613b98565b610696565b60405161023a9190613bdd565b60405180910390f35b61024b610777565b6040516102589190613c66565b60405180910390f35b61027b60048036038101906102769190613cb9565b610806565b6040516102889190613d23565b60405180910390f35b6102ab60048036038101906102a69190613d66565b610821565b005b6102c760048036038101906102c29190613da4565b610837565b005b6102e360048036038101906102de9190613cb9565b610936565b6040516102f091906140fc565b60405180910390f35b610313600480360381019061030e919061413f565b610e7c565b005b61031d610fd4565b005b61033960048036038101906103349190613da4565b610fe6565b005b61035560048036038101906103509190614371565b611005565b60405161036291906144d9565b60405180910390f35b610385600480360381019061038091906144f2565b611462565b005b61038f6115ac565b60405161039c9190613bdd565b60405180910390f35b6103bf60048036038101906103ba9190613cb9565b6115c2565b6040516103cc9190613d23565b60405180910390f35b6103ef60048036038101906103ea919061454c565b6115d3565b6040516103fc91906144d9565b60405180910390f35b61040d611689565b005b61041761169c565b005b61042161172a565b005b61042b61173c565b6040516104389190613d23565b60405180910390f35b610449611764565b6040516104569190613c66565b60405180910390f35b6104676117f4565b60405161047491906144d9565b60405180910390f35b610497600480360381019061049291906145a1565b6117fa565b005b6104b360048036038101906104ae91906145df565b611810565b005b6104cf60048036038101906104ca919061462f565b611b27565b005b6104d9611b4c565b6040516104e69190613d23565b60405180910390f35b61050960048036038101906105049190613cb9565b611b74565b6040516105169190613c66565b60405180910390f35b6105396004803603810190610534919061454c565b611bda565b6040516105469190613bdd565b60405180910390f35b610557611bf7565b6040516105649190613d23565b60405180910390f35b610575611c1f565b6040516105829190613d23565b60405180910390f35b6105a560048036038101906105a091906146af565b611c44565b6040516105b29190613bdd565b60405180910390f35b6105d560048036038101906105d09190613cb9565b611cd2565b6040516105e29190614759565b60405180910390f35b6105f3611dc3565b6040516106009190613bdd565b60405180910390f35b610623600480360381019061061e919061454c565b611dd6565b005b61063f600480360381019061063a91906145a1565b611e82565b005b61065b6004803603810190610656919061454c565b611f9e565b005b61067760048036038101906106729190613cb9565b612105565b60405161068d9a999897969594939291906147df565b60405180910390f35b5f7f80ac58cd000000000000000000000000000000000000000000000000000000007bffffffffffffffffffffffffffffffffffffffffffffffffffffffff1916827bffffffffffffffffffffffffffffffffffffffffffffffffffffffff1916148061076057507f5b5e139f000000000000000000000000000000000000000000000000000000007bffffffffffffffffffffffffffffffffffffffffffffffffffffffff1916827bffffffffffffffffffffffffffffffffffffffffffffffffffffffff1916145b80610770575061076f8261250b565b5b9050919050565b60605f8054610785906148d7565b80601f01602080910402602001604051908101604052809291908181526020018280546107b1906148d7565b80156107fc5780601f106107d3576101008083540402835291602001916107fc565b820191905f5260205f20905b8154815290600101906020018083116107df57829003601f168201915b5050505050905090565b5f61081082612574565b5061081a826125fa565b9050919050565b610833828261082e612633565b61263a565b5050565b5f73ffffffffffffffffffffffffffffffffffffffff168273ffffffffffffffffffffffffffffffffffffffff16036108a7575f6040517f64a0ae9200000000000000000000000000000000000000000000000000000000815260040161089e9190613d23565b60405180910390fd5b5f6108ba83836108b5612633565b61264c565b90508373ffffffffffffffffffffffffffffffffffffffff168173ffffffffffffffffffffffffffffffffffffffff1614610930578382826040517f64283d7b00000000000000000000000000000000000000000000000000000000815260040161092793929190614907565b60405180910390fd5b50505050565b61093e613ac9565b815f8111801561095057506008548111155b61098f576040517f08c379a000000000000000000000000000000000000000000000000000000000815260040161098690614986565b60405180910390fd5b60095f8481526020019081526020015f20604051806101600160405290815f820180546109bb906148d7565b80601f01602080910402602001604051908101604052809291908181526020018280546109e7906148d7565b8015610a325780601f10610a0957610100808354040283529160200191610a32565b820191905f5260205f20905b815481529060010190602001808311610a1557829003601f168201915b50505050508152602001600182018054610a4b906148d7565b80601f0160208091040260200160405190810160405280929190818152602001828054610a77906148d7565b8015610ac25780601f10610a9957610100808354040283529160200191610ac2565b820191905f5260205f20905b815481529060010190602001808311610aa557829003601f168201915b50505050508152602001600282018054610adb906148d7565b80601f0160208091040260200160405190810160405280929190818152602001828054610b07906148d7565b8015610b525780601f10610b2957610100808354040283529160200191610b52565b820191905f5260205f20905b815481529060010190602001808311610b3557829003601f168201915b50505050508152602001600382018054610b6b906148d7565b80601f0160208091040260200160405190810160405280929190818152602001828054610b97906148d7565b8015610be25780601f10610bb957610100808354040283529160200191610be2565b820191905f5260205f20905b815481529060010190602001808311610bc557829003601f168201915b5050505050815260200160048201548152602001600582018054610c05906148d7565b80601f0160208091040260200160405190810160405280929190818152602001828054610c31906148d7565b8015610c7c5780601f10610c5357610100808354040283529160200191610c7c565b820191905f5260205f20905b815481529060010190602001808311610c5f57829003601f168201915b5050505050815260200160068201548152602001600782018054610c9f906148d7565b80601f0160208091040260200160405190810160405280929190818152602001828054610ccb906148d7565b8015610d165780601f10610ced57610100808354040283529160200191610d16565b820191905f5260205f20905b815481529060010190602001808311610cf957829003601f168201915b50505050508152602001600882018054610d2f906148d7565b80601f0160208091040260200160405190810160405280929190818152602001828054610d5b906148d7565b8015610da65780601f10610d7d57610100808354040283529160200191610da6565b820191905f5260205f20905b815481529060010190602001808311610d8957829003601f168201915b50505050508152602001600982015f9054906101000a900460ff166002811115610dd357610dd2613eb5565b5b6002811115610de557610de4613eb5565b5b8152602001600a8201805480602002602001604051908101604052809291908181526020018280548015610e6b57602002820191905f5260205f20905b815f9054906101000a900473ffffffffffffffffffffffffffffffffffffffff1673ffffffffffffffffffffffffffffffffffffffff1681526020019060010190808311610e22575b505050505081525050915050919050565b600b5f9054906101000a900473ffffffffffffffffffffffffffffffffffffffff1673ffffffffffffffffffffffffffffffffffffffff163373ffffffffffffffffffffffffffffffffffffffff1614610f0b576040517f08c379a0000000000000000000000000000000000000000000000000000000008152600401610f02906149ee565b60405180910390fd5b815f81118015610f1d57506008548111155b610f5c576040517f08c379a0000000000000000000000000000000000000000000000000000000008152600401610f5390614986565b60405180910390fd5b8160095f8581526020019081526020015f206009015f6101000a81548160ff02191690836002811115610f9257610f91613eb5565b5b0217905550827f2da7b23ca63c1eb969eee5fae4acb98186abecf5358b0354a82a5183ebca6b2a83604051610fc79190614a0c565b60405180910390a2505050565b610fdc612737565b610fe46127be565b565b61100083838360405180602001604052805f815250611b27565b505050565b5f600a5f3373ffffffffffffffffffffffffffffffffffffffff1673ffffffffffffffffffffffffffffffffffffffff1681526020019081526020015f205f9054906101000a900460ff1661108f576040517f08c379a000000000000000000000000000000000000000000000000000000000815260040161108690614a6f565b60405180910390fd5b611097612820565b5f85116110d9576040517f08c379a00000000000000000000000000000000000000000000000000000000081526004016110d090614ad7565b60405180910390fd5b5f89511161111c576040517f08c379a000000000000000000000000000000000000000000000000000000000815260040161111390614b3f565b60405180910390fd5b5f88511161115f576040517f08c379a000000000000000000000000000000000000000000000000000000000815260040161115690614ba7565b60405180910390fd5b5f8751116111a2576040517f08c379a000000000000000000000000000000000000000000000000000000000815260040161119990614c0f565b60405180910390fd5b5f5f1b83036111e6576040517f08c379a00000000000000000000000000000000000000000000000000000000081526004016111dd90614c77565b60405180910390fd5b5f89898989898860405160200161120296959493929190614d0f565b6040516020818303038152906040528051906020012090505f61122482612861565b90505f6112318286612894565b90503373ffffffffffffffffffffffffffffffffffffffff168173ffffffffffffffffffffffffffffffffffffffff16146112a1576040517f08c379a000000000000000000000000000000000000000000000000000000000815260040161129890614db8565b60405180910390fd5b60085f8154809291906112b390614e03565b91905055505f60085490508c60095f8381526020019081526020015f205f0190816112de9190614fea565b508b60095f8381526020019081526020015f2060010190816113009190614fea565b508a60095f8381526020019081526020015f2060020190816113229190614fea565b508960095f8381526020019081526020015f2060030190816113449190614fea565b508860095f8381526020019081526020015f20600401819055508760095f8381526020019081526020015f20600501908161137f9190614fea565b508660095f8381526020019081526020015f20600601819055508560095f8381526020019081526020015f2060070190816113ba9190615111565b505f60095f8381526020019081526020015f206009015f6101000a81548160ff021916908360028111156113f1576113f0613eb5565b5b021790555061140033826128be565b3373ffffffffffffffffffffffffffffffffffffffff16817f61e22366f1dd402972b7fac9c9b73534fc1a7a60eb41141b60d9f210949575838f6040516114479190613c66565b60405180910390a38094505050505098975050505050505050565b600b5f9054906101000a900473ffffffffffffffffffffffffffffffffffffffff1673ffffffffffffffffffffffffffffffffffffffff163373ffffffffffffffffffffffffffffffffffffffff16146114f1576040517f08c379a00000000000000000000000000000000000000000000000000000000081526004016114e8906149ee565b60405180910390fd5b815f8111801561150357506008548111155b611542576040517f08c379a000000000000000000000000000000000000000000000000000000000815260040161153990614986565b60405180910390fd5b5f825111611585576040517f08c379a000000000000000000000000000000000000000000000000000000000815260040161157c9061522a565b60405180910390fd5b8160095f8581526020019081526020015f2060080190816115a69190615111565b50505050565b5f600760149054906101000a900460ff16905090565b5f6115cc82612574565b9050919050565b5f5f73ffffffffffffffffffffffffffffffffffffffff168273ffffffffffffffffffffffffffffffffffffffff1603611644575f6040517f89c62b6400000000000000000000000000000000000000000000000000000000815260040161163b9190613d23565b60405180910390fd5b60035f8373ffffffffffffffffffffffffffffffffffffffff1673ffffffffffffffffffffffffffffffffffffffff1681526020019081526020015f20549050919050565b611691612737565b61169a5f6128db565b565b5f6116a5612633565b90508073ffffffffffffffffffffffffffffffffffffffff166116c6611bf7565b73ffffffffffffffffffffffffffffffffffffffff161461171e57806040517f118cdaa70000000000000000000000000000000000000000000000000000000081526004016117159190613d23565b60405180910390fd5b611727816128db565b50565b611732612737565b61173a61290b565b565b5f60065f9054906101000a900473ffffffffffffffffffffffffffffffffffffffff16905090565b606060018054611773906148d7565b80601f016020809104026020016040519081016040528092919081815260200182805461179f906148d7565b80156117ea5780601f106117c1576101008083540402835291602001916117ea565b820191905f5260205f20905b8154815290600101906020018083116117cd57829003601f168201915b5050505050905090565b60085481565b61180c611805612633565b838361296e565b5050565b600b5f9054906101000a900473ffffffffffffffffffffffffffffffffffffffff1673ffffffffffffffffffffffffffffffffffffffff163373ffffffffffffffffffffffffffffffffffffffff161461189f576040517f08c379a0000000000000000000000000000000000000000000000000000000008152600401611896906149ee565b60405180910390fd5b825f811180156118b157506008548111155b6118f0576040517f08c379a00000000000000000000000000000000000000000000000000000000081526004016118e790614986565b60405180910390fd5b5f73ffffffffffffffffffffffffffffffffffffffff168373ffffffffffffffffffffffffffffffffffffffff161415801561195857505f73ffffffffffffffffffffffffffffffffffffffff168273ffffffffffffffffffffffffffffffffffffffff1614155b611997576040517f08c379a000000000000000000000000000000000000000000000000000000000815260040161198e90615292565b60405180910390fd5b8273ffffffffffffffffffffffffffffffffffffffff166119b7856115c2565b73ffffffffffffffffffffffffffffffffffffffff1614611a0d576040517f08c379a0000000000000000000000000000000000000000000000000000000008152600401611a04906152fa565b60405180910390fd5b60095f8581526020019081526020015f20600a0183908060018154018082558091505060019003905f5260205f20015f9091909190916101000a81548173ffffffffffffffffffffffffffffffffffffffff021916908373ffffffffffffffffffffffffffffffffffffffff160217905550600260095f8681526020019081526020015f206009015f6101000a81548160ff02191690836002811115611ab657611ab5613eb5565b5b0217905550611ac6838386612b47565b8173ffffffffffffffffffffffffffffffffffffffff168373ffffffffffffffffffffffffffffffffffffffff16857f2231fc8bc2c20e26d85d66dc7f13a6b6d535c86d2a4d678bb2de61f5b713608360405160405180910390a450505050565b611b32848484610837565b611b46611b3d612633565b85858585612caf565b50505050565b5f600b5f9054906101000a900473ffffffffffffffffffffffffffffffffffffffff16905090565b6060611b7f82612574565b505f611b89612e5b565b90505f815111611ba75760405180602001604052805f815250611bd2565b80611bb184612e71565b604051602001611bc2929190615318565b6040516020818303038152906040525b915050919050565b600a602052805f5260405f205f915054906101000a900460ff1681565b5f60075f9054906101000a900473ffffffffffffffffffffffffffffffffffffffff16905090565b600b5f9054906101000a900473ffffffffffffffffffffffffffffffffffffffff1681565b5f60055f8473ffffffffffffffffffffffffffffffffffffffff1673ffffffffffffffffffffffffffffffffffffffff1681526020019081526020015f205f8373ffffffffffffffffffffffffffffffffffffffff1673ffffffffffffffffffffffffffffffffffffffff1681526020019081526020015f205f9054906101000a900460ff16905092915050565b6060815f81118015611ce657506008548111155b611d25576040517f08c379a0000000000000000000000000000000000000000000000000000000008152600401611d1c90614986565b60405180910390fd5b60095f8481526020019081526020015f20600a01805480602002602001604051908101604052809291908181526020018280548015611db657602002820191905f5260205f20905b815f9054906101000a900473ffffffffffffffffffffffffffffffffffffffff1673ffffffffffffffffffffffffffffffffffffffff1681526020019060010190808311611d6d575b5050505050915050919050565b600b60149054906101000a900460ff1681565b611dde612737565b8060075f6101000a81548173ffffffffffffffffffffffffffffffffffffffff021916908373ffffffffffffffffffffffffffffffffffffffff1602179055508073ffffffffffffffffffffffffffffffffffffffff16611e3d61173c565b73ffffffffffffffffffffffffffffffffffffffff167f38d16b8cac22d99fc7c124b9cd0de2d3fa1faef420bfe791d8c362d765e2270060405160405180910390a350565b611e8a612737565b5f73ffffffffffffffffffffffffffffffffffffffff168273ffffffffffffffffffffffffffffffffffffffff1603611ef8576040517f08c379a0000000000000000000000000000000000000000000000000000000008152600401611eef90615385565b60405180910390fd5b80600a5f8473ffffffffffffffffffffffffffffffffffffffff1673ffffffffffffffffffffffffffffffffffffffff1681526020019081526020015f205f6101000a81548160ff0219169083151502179055508173ffffffffffffffffffffffffffffffffffffffff167fc400f022e2e45f1511d284022346c608f4816ef82226edce51cc59814a1b9b4482604051611f929190613bdd565b60405180910390a25050565b611fa6612737565b600b60149054906101000a900460ff1615611ff6576040517f08c379a0000000000000000000000000000000000000000000000000000000008152600401611fed906153ed565b60405180910390fd5b5f73ffffffffffffffffffffffffffffffffffffffff168173ffffffffffffffffffffffffffffffffffffffff1603612064576040517f08c379a000000000000000000000000000000000000000000000000000000000815260040161205b90615455565b60405180910390fd5b80600b5f6101000a81548173ffffffffffffffffffffffffffffffffffffffff021916908373ffffffffffffffffffffffffffffffffffffffff1602179055506001600b60146101000a81548160ff0219169083151502179055508073ffffffffffffffffffffffffffffffffffffffff167fded808e17a47bf48d1a08e83e02563c8ff7f91d526f96d395bbce60d720d9d2960405160405180910390a250565b6009602052805f5260405f205f91509050805f018054612124906148d7565b80601f0160208091040260200160405190810160405280929190818152602001828054612150906148d7565b801561219b5780601f106121725761010080835404028352916020019161219b565b820191905f5260205f20905b81548152906001019060200180831161217e57829003601f168201915b5050505050908060010180546121b0906148d7565b80601f01602080910402602001604051908101604052809291908181526020018280546121dc906148d7565b80156122275780601f106121fe57610100808354040283529160200191612227565b820191905f5260205f20905b81548152906001019060200180831161220a57829003601f168201915b50505050509080600201805461223c906148d7565b80601f0160208091040260200160405190810160405280929190818152602001828054612268906148d7565b80156122b35780601f1061228a576101008083540402835291602001916122b3565b820191905f5260205f20905b81548152906001019060200180831161229657829003601f168201915b5050505050908060030180546122c8906148d7565b80601f01602080910402602001604051908101604052809291908181526020018280546122f4906148d7565b801561233f5780601f106123165761010080835404028352916020019161233f565b820191905f5260205f20905b81548152906001019060200180831161232257829003601f168201915b50505050509080600401549080600501805461235a906148d7565b80601f0160208091040260200160405190810160405280929190818152602001828054612386906148d7565b80156123d15780601f106123a8576101008083540402835291602001916123d1565b820191905f5260205f20905b8154815290600101906020018083116123b457829003601f168201915b5050505050908060060154908060070180546123ec906148d7565b80601f0160208091040260200160405190810160405280929190818152602001828054612418906148d7565b80156124635780601f1061243a57610100808354040283529160200191612463565b820191905f5260205f20905b81548152906001019060200180831161244657829003601f168201915b505050505090806008018054612478906148d7565b80601f01602080910402602001604051908101604052809291908181526020018280546124a4906148d7565b80156124ef5780601f106124c6576101008083540402835291602001916124ef565b820191905f5260205f20905b8154815290600101906020018083116124d257829003601f168201915b505050505090806009015f9054906101000a900460ff1690508a565b5f7f01ffc9a7000000000000000000000000000000000000000000000000000000007bffffffffffffffffffffffffffffffffffffffffffffffffffffffff1916827bffffffffffffffffffffffffffffffffffffffffffffffffffffffff1916149050919050565b5f5f61257f83612f3b565b90505f73ffffffffffffffffffffffffffffffffffffffff168173ffffffffffffffffffffffffffffffffffffffff16036125f157826040517f7e2732890000000000000000000000000000000000000000000000000000000081526004016125e891906144d9565b60405180910390fd5b80915050919050565b5f60045f8381526020019081526020015f205f9054906101000a900473ffffffffffffffffffffffffffffffffffffffff169050919050565b5f33905090565b6126478383836001612f74565b505050565b5f5f61265784612f3b565b90505f73ffffffffffffffffffffffffffffffffffffffff168173ffffffffffffffffffffffffffffffffffffffff16141580156126e25750600b5f9054906101000a900473ffffffffffffffffffffffffffffffffffffffff1673ffffffffffffffffffffffffffffffffffffffff163373ffffffffffffffffffffffffffffffffffffffff1614155b15612722576040517f08c379a0000000000000000000000000000000000000000000000000000000008152600401612719906154bd565b60405180910390fd5b61272d858585613133565b9150509392505050565b61273f612633565b73ffffffffffffffffffffffffffffffffffffffff1661275d61173c565b73ffffffffffffffffffffffffffffffffffffffff16146127bc57612780612633565b6040517f118cdaa70000000000000000000000000000000000000000000000000000000081526004016127b39190613d23565b60405180910390fd5b565b6127c661333e565b5f600760146101000a81548160ff0219169083151502179055507f5db9ee0a495bf2e6ff9c91a7834c1ba4fdd244a5e8aa4e537bd38aeae4b073aa612809612633565b6040516128169190613d23565b60405180910390a1565b6128286115ac565b1561285f576040517fd93c066500000000000000000000000000000000000000000000000000000000815260040160405180910390fd5b565b5f7f19457468657265756d205369676e6564204d6573736167653a0a3332000000005f5281601c52603c5f209050919050565b5f5f5f5f6128a2868661337e565b9250925092506128b282826133d3565b82935050505092915050565b6128d7828260405180602001604052805f815250613535565b5050565b60075f6101000a81549073ffffffffffffffffffffffffffffffffffffffff021916905561290881613558565b50565b612913612820565b6001600760146101000a81548160ff0219169083151502179055507f62e78cea01bee320cd4e420270b5ea74000d11b0c9f74754ebdbfc544b05a258612957612633565b6040516129649190613d23565b60405180910390a1565b5f73ffffffffffffffffffffffffffffffffffffffff168373ffffffffffffffffffffffffffffffffffffffff16036129de575f6040517fa9fbf51f0000000000000000000000000000000000000000000000000000000081526004016129d59190613d23565b60405180910390fd5b5f73ffffffffffffffffffffffffffffffffffffffff168273ffffffffffffffffffffffffffffffffffffffff1603612a4e57816040517f5b08ba18000000000000000000000000000000000000000000000000000000008152600401612a459190613d23565b60405180910390fd5b8060055f8573ffffffffffffffffffffffffffffffffffffffff1673ffffffffffffffffffffffffffffffffffffffff1681526020019081526020015f205f8473ffffffffffffffffffffffffffffffffffffffff1673ffffffffffffffffffffffffffffffffffffffff1681526020019081526020015f205f6101000a81548160ff0219169083151502179055508173ffffffffffffffffffffffffffffffffffffffff168373ffffffffffffffffffffffffffffffffffffffff167f17307eab39ab6107e8899845ad3d59bd9653f200f220920489ca2b5937696c3183604051612b3a9190613bdd565b60405180910390a3505050565b5f73ffffffffffffffffffffffffffffffffffffffff168273ffffffffffffffffffffffffffffffffffffffff1603612bb7575f6040517f64a0ae92000000000000000000000000000000000000000000000000000000008152600401612bae9190613d23565b60405180910390fd5b5f612bc383835f61264c565b90505f73ffffffffffffffffffffffffffffffffffffffff168173ffffffffffffffffffffffffffffffffffffffff1603612c3557816040517f7e273289000000000000000000000000000000000000000000000000000000008152600401612c2c91906144d9565b60405180910390fd5b8373ffffffffffffffffffffffffffffffffffffffff168173ffffffffffffffffffffffffffffffffffffffff1614612ca9578382826040517f64283d7b000000000000000000000000000000000000000000000000000000008152600401612ca093929190614907565b60405180910390fd5b50505050565b5f8373ffffffffffffffffffffffffffffffffffffffff163b1115612e54578273ffffffffffffffffffffffffffffffffffffffff1663150b7a02868685856040518563ffffffff1660e01b8152600401612d0d94939291906154db565b6020604051808303815f875af1925050508015612d4857506040513d601f19601f82011682018060405250810190612d459190615539565b60015b612dc9573d805f8114612d76576040519150601f19603f3d011682016040523d82523d5f602084013e612d7b565b606091505b505f815103612dc157836040517f64a0ae92000000000000000000000000000000000000000000000000000000008152600401612db89190613d23565b60405180910390fd5b805160208201fd5b63150b7a0260e01b7bffffffffffffffffffffffffffffffffffffffffffffffffffffffff1916817bffffffffffffffffffffffffffffffffffffffffffffffffffffffff191614612e5257836040517f64a0ae92000000000000000000000000000000000000000000000000000000008152600401612e499190613d23565b60405180910390fd5b505b5050505050565b606060405180602001604052805f815250905090565b60605f6001612e7f8461361b565b0190505f8167ffffffffffffffff811115612e9d57612e9c614185565b5b6040519080825280601f01601f191660200182016040528015612ecf5781602001600182028036833780820191505090505b5090505f82602083010190505b600115612f30578080600190039150507f3031323334353637383961626364656600000000000000000000000000000000600a86061a8153600a8581612f2557612f24615564565b5b0494505f8503612edc575b819350505050919050565b5f60025f8381526020019081526020015f205f9054906101000a900473ffffffffffffffffffffffffffffffffffffffff169050919050565b8080612fac57505f73ffffffffffffffffffffffffffffffffffffffff168273ffffffffffffffffffffffffffffffffffffffff1614155b156130de575f612fbb84612574565b90505f73ffffffffffffffffffffffffffffffffffffffff168373ffffffffffffffffffffffffffffffffffffffff161415801561302557508273ffffffffffffffffffffffffffffffffffffffff168173ffffffffffffffffffffffffffffffffffffffff1614155b801561303857506130368184611c44565b155b1561307a57826040517fa9fbf51f0000000000000000000000000000000000000000000000000000000081526004016130719190613d23565b60405180910390fd5b81156130dc57838573ffffffffffffffffffffffffffffffffffffffff168273ffffffffffffffffffffffffffffffffffffffff167f8c5be1e5ebec7d5bd14f71427d1e84f3dd0314c0f7b2291e5b200ac8c7c3b92560405160405180910390a45b505b8360045f8581526020019081526020015f205f6101000a81548173ffffffffffffffffffffffffffffffffffffffff021916908373ffffffffffffffffffffffffffffffffffffffff16021790555050505050565b5f5f61313e84612f3b565b90505f73ffffffffffffffffffffffffffffffffffffffff168373ffffffffffffffffffffffffffffffffffffffff161461317f5761317e81848661376c565b5b5f73ffffffffffffffffffffffffffffffffffffffff168173ffffffffffffffffffffffffffffffffffffffff161461320a576131be5f855f5f612f74565b600160035f8373ffffffffffffffffffffffffffffffffffffffff1673ffffffffffffffffffffffffffffffffffffffff1681526020019081526020015f205f82825403925050819055505b5f73ffffffffffffffffffffffffffffffffffffffff168573ffffffffffffffffffffffffffffffffffffffff161461328957600160035f8773ffffffffffffffffffffffffffffffffffffffff1673ffffffffffffffffffffffffffffffffffffffff1681526020019081526020015f205f82825401925050819055505b8460025f8681526020019081526020015f205f6101000a81548173ffffffffffffffffffffffffffffffffffffffff021916908373ffffffffffffffffffffffffffffffffffffffff160217905550838573ffffffffffffffffffffffffffffffffffffffff168273ffffffffffffffffffffffffffffffffffffffff167fddf252ad1be2c89b69c2b068fc378daa952ba7f163c4a11628f55a4df523b3ef60405160405180910390a4809150509392505050565b6133466115ac565b61337c576040517f8dfc202b00000000000000000000000000000000000000000000000000000000815260040160405180910390fd5b565b5f5f5f60418451036133be575f5f5f602087015192506040870151915060608701515f1a90506133b08882858561382f565b9550955095505050506133cc565b5f600285515f1b9250925092505b9250925092565b5f60038111156133e6576133e5613eb5565b5b8260038111156133f9576133f8613eb5565b5b0315613531576001600381111561341357613412613eb5565b5b82600381111561342657613425613eb5565b5b0361345d576040517ff645eedf00000000000000000000000000000000000000000000000000000000815260040160405180910390fd5b6002600381111561347157613470613eb5565b5b82600381111561348457613483613eb5565b5b036134c857805f1c6040517ffce698f70000000000000000000000000000000000000000000000000000000081526004016134bf91906144d9565b60405180910390fd5b6003808111156134db576134da613eb5565b5b8260038111156134ee576134ed613eb5565b5b0361353057806040517fd78bce0c0000000000000000000000000000000000000000000000000000000081526004016135279190615591565b60405180910390fd5b5b5050565b61353f8383613916565b61355361354a612633565b5f858585612caf565b505050565b5f60065f9054906101000a900473ffffffffffffffffffffffffffffffffffffffff1690508160065f6101000a81548173ffffffffffffffffffffffffffffffffffffffff021916908373ffffffffffffffffffffffffffffffffffffffff1602179055508173ffffffffffffffffffffffffffffffffffffffff168173ffffffffffffffffffffffffffffffffffffffff167f8be0079c531659141344cd1fd0a4f28419497f9722a3daafe3b4186f6b6457e060405160405180910390a35050565b5f5f5f90507a184f03e93ff9f4daa797ed6e38ed64bf6a1f0100000000000000008310613677577a184f03e93ff9f4daa797ed6e38ed64bf6a1f010000000000000000838161366d5761366c615564565b5b0492506040810190505b6d04ee2d6d415b85acef810000000083106136b4576d04ee2d6d415b85acef810000000083816136aa576136a9615564565b5b0492506020810190505b662386f26fc1000083106136e357662386f26fc1000083816136d9576136d8615564565b5b0492506010810190505b6305f5e100831061370c576305f5e100838161370257613701615564565b5b0492506008810190505b612710831061373157612710838161372757613726615564565b5b0492506004810190505b60648310613754576064838161374a57613749615564565b5b0492506002810190505b600a8310613763576001810190505b80915050919050565b613777838383613a09565b61382a575f73ffffffffffffffffffffffffffffffffffffffff168373ffffffffffffffffffffffffffffffffffffffff16036137eb57806040517f7e2732890000000000000000000000000000000000000000000000000000000081526004016137e291906144d9565b60405180910390fd5b81816040517f177e802f0000000000000000000000000000000000000000000000000000000081526004016138219291906155aa565b60405180910390fd5b505050565b5f5f5f7f7fffffffffffffffffffffffffffffff5d576e7357a4501ddfe92f46681b20a0845f1c111561386b575f60038592509250925061390c565b5f6001888888886040515f815260200160405260405161388e94939291906155ec565b6020604051602081039080840390855afa1580156138ae573d5f5f3e3d5ffd5b5050506020604051035190505f73ffffffffffffffffffffffffffffffffffffffff168173ffffffffffffffffffffffffffffffffffffffff16036138ff575f60015f5f1b9350935093505061390c565b805f5f5f1b935093509350505b9450945094915050565b5f73ffffffffffffffffffffffffffffffffffffffff168273ffffffffffffffffffffffffffffffffffffffff1603613986575f6040517f64a0ae9200000000000000000000000000000000000000000000000000000000815260040161397d9190613d23565b60405180910390fd5b5f61399283835f61264c565b90505f73ffffffffffffffffffffffffffffffffffffffff168173ffffffffffffffffffffffffffffffffffffffff1614613a04575f6040517f73c6ac6e0000000000000000000000000000000000000000000000000000000081526004016139fb9190613d23565b60405180910390fd5b505050565b5f5f73ffffffffffffffffffffffffffffffffffffffff168373ffffffffffffffffffffffffffffffffffffffff1614158015613ac057508273ffffffffffffffffffffffffffffffffffffffff168473ffffffffffffffffffffffffffffffffffffffff161480613a815750613a808484611c44565b5b80613abf57508273ffffffffffffffffffffffffffffffffffffffff16613aa7836125fa565b73ffffffffffffffffffffffffffffffffffffffff16145b5b90509392505050565b604051806101600160405280606081526020016060815260200160608152602001606081526020015f8152602001606081526020015f815260200160608152602001606081526020015f6002811115613b2557613b24613eb5565b5b8152602001606081525090565b5f604051905090565b5f5ffd5b5f5ffd5b5f7fffffffff0000000000000000000000000000000000000000000000000000000082169050919050565b613b7781613b43565b8114613b81575f5ffd5b50565b5f81359050613b9281613b6e565b92915050565b5f60208284031215613bad57613bac613b3b565b5b5f613bba84828501613b84565b91505092915050565b5f8115159050919050565b613bd781613bc3565b82525050565b5f602082019050613bf05f830184613bce565b92915050565b5f81519050919050565b5f82825260208201905092915050565b8281835e5f83830152505050565b5f601f19601f8301169050919050565b5f613c3882613bf6565b613c428185613c00565b9350613c52818560208601613c10565b613c5b81613c1e565b840191505092915050565b5f6020820190508181035f830152613c7e8184613c2e565b905092915050565b5f819050919050565b613c9881613c86565b8114613ca2575f5ffd5b50565b5f81359050613cb381613c8f565b92915050565b5f60208284031215613cce57613ccd613b3b565b5b5f613cdb84828501613ca5565b91505092915050565b5f73ffffffffffffffffffffffffffffffffffffffff82169050919050565b5f613d0d82613ce4565b9050919050565b613d1d81613d03565b82525050565b5f602082019050613d365f830184613d14565b92915050565b613d4581613d03565b8114613d4f575f5ffd5b50565b5f81359050613d6081613d3c565b92915050565b5f5f60408385031215613d7c57613d7b613b3b565b5b5f613d8985828601613d52565b9250506020613d9a85828601613ca5565b9150509250929050565b5f5f5f60608486031215613dbb57613dba613b3b565b5b5f613dc886828701613d52565b9350506020613dd986828701613d52565b9250506040613dea86828701613ca5565b9150509250925092565b5f82825260208201905092915050565b5f613e0e82613bf6565b613e188185613df4565b9350613e28818560208601613c10565b613e3181613c1e565b840191505092915050565b613e4581613c86565b82525050565b5f819050919050565b613e5d81613e4b565b82525050565b5f81519050919050565b5f82825260208201905092915050565b5f613e8782613e63565b613e918185613e6d565b9350613ea1818560208601613c10565b613eaa81613c1e565b840191505092915050565b7f4e487b71000000000000000000000000000000000000000000000000000000005f52602160045260245ffd5b60038110613ef357613ef2613eb5565b5b50565b5f819050613f0382613ee2565b919050565b5f613f1282613ef6565b9050919050565b613f2281613f08565b82525050565b5f81519050919050565b5f82825260208201905092915050565b5f819050602082019050919050565b613f5a81613d03565b82525050565b5f613f6b8383613f51565b60208301905092915050565b5f602082019050919050565b5f613f8d82613f28565b613f978185613f32565b9350613fa283613f42565b805f5b83811015613fd2578151613fb98882613f60565b9750613fc483613f77565b925050600181019050613fa5565b5085935050505092915050565b5f61016083015f8301518482035f860152613ffa8282613e04565b915050602083015184820360208601526140148282613e04565b9150506040830151848203604086015261402e8282613e04565b915050606083015184820360608601526140488282613e04565b915050608083015161405d6080860182613e3c565b5060a083015184820360a08601526140758282613e04565b91505060c083015161408a60c0860182613e54565b5060e083015184820360e08601526140a28282613e7d565b9150506101008301518482036101008601526140be8282613e7d565b9150506101208301516140d5610120860182613f19565b506101408301518482036101408601526140ef8282613f83565b9150508091505092915050565b5f6020820190508181035f8301526141148184613fdf565b905092915050565b60038110614128575f5ffd5b50565b5f813590506141398161411c565b92915050565b5f5f6040838503121561415557614154613b3b565b5b5f61416285828601613ca5565b92505060206141738582860161412b565b9150509250929050565b5f5ffd5b5f5ffd5b7f4e487b71000000000000000000000000000000000000000000000000000000005f52604160045260245ffd5b6141bb82613c1e565b810181811067ffffffffffffffff821117156141da576141d9614185565b5b80604052505050565b5f6141ec613b32565b90506141f882826141b2565b919050565b5f67ffffffffffffffff82111561421757614216614185565b5b61422082613c1e565b9050602081019050919050565b828183375f83830152505050565b5f61424d614248846141fd565b6141e3565b90508281526020810184848401111561426957614268614181565b5b61427484828561422d565b509392505050565b5f82601f8301126142905761428f61417d565b5b81356142a084826020860161423b565b91505092915050565b6142b281613e4b565b81146142bc575f5ffd5b50565b5f813590506142cd816142a9565b92915050565b5f67ffffffffffffffff8211156142ed576142ec614185565b5b6142f682613c1e565b9050602081019050919050565b5f614315614310846142d3565b6141e3565b90508281526020810184848401111561433157614330614181565b5b61433c84828561422d565b509392505050565b5f82601f8301126143585761435761417d565b5b8135614368848260208601614303565b91505092915050565b5f5f5f5f5f5f5f5f610100898b03121561438e5761438d613b3b565b5b5f89013567ffffffffffffffff8111156143ab576143aa613b3f565b5b6143b78b828c0161427c565b985050602089013567ffffffffffffffff8111156143d8576143d7613b3f565b5b6143e48b828c0161427c565b975050604089013567ffffffffffffffff81111561440557614404613b3f565b5b6144118b828c0161427c565b965050606089013567ffffffffffffffff81111561443257614431613b3f565b5b61443e8b828c0161427c565b955050608061444f8b828c01613ca5565b94505060a089013567ffffffffffffffff8111156144705761446f613b3f565b5b61447c8b828c0161427c565b93505060c061448d8b828c016142bf565b92505060e089013567ffffffffffffffff8111156144ae576144ad613b3f565b5b6144ba8b828c01614344565b9150509295985092959890939650565b6144d381613c86565b82525050565b5f6020820190506144ec5f8301846144ca565b92915050565b5f5f6040838503121561450857614507613b3b565b5b5f61451585828601613ca5565b925050602083013567ffffffffffffffff81111561453657614535613b3f565b5b61454285828601614344565b9150509250929050565b5f6020828403121561456157614560613b3b565b5b5f61456e84828501613d52565b91505092915050565b61458081613bc3565b811461458a575f5ffd5b50565b5f8135905061459b81614577565b92915050565b5f5f604083850312156145b7576145b6613b3b565b5b5f6145c485828601613d52565b92505060206145d58582860161458d565b9150509250929050565b5f5f5f606084860312156145f6576145f5613b3b565b5b5f61460386828701613ca5565b935050602061461486828701613d52565b925050604061462586828701613d52565b9150509250925092565b5f5f5f5f6080858703121561464757614646613b3b565b5b5f61465487828801613d52565b945050602061466587828801613d52565b935050604061467687828801613ca5565b925050606085013567ffffffffffffffff81111561469757614696613b3f565b5b6146a387828801614344565b91505092959194509250565b5f5f604083850312156146c5576146c4613b3b565b5b5f6146d285828601613d52565b92505060206146e385828601613d52565b9150509250929050565b5f82825260208201905092915050565b5f61470782613f28565b61471181856146ed565b935061471c83613f42565b805f5b8381101561474c5781516147338882613f60565b975061473e83613f77565b92505060018101905061471f565b5085935050505092915050565b5f6020820190508181035f83015261477181846146fd565b905092915050565b61478281613e4b565b82525050565b5f82825260208201905092915050565b5f6147a282613e63565b6147ac8185614788565b93506147bc818560208601613c10565b6147c581613c1e565b840191505092915050565b6147d981613f08565b82525050565b5f610140820190508181035f8301526147f8818d613c2e565b9050818103602083015261480c818c613c2e565b90508181036040830152614820818b613c2e565b90508181036060830152614834818a613c2e565b905061484360808301896144ca565b81810360a08301526148558188613c2e565b905061486460c0830187614779565b81810360e08301526148768186614798565b905081810361010083015261488b8185614798565b905061489b6101208301846147d0565b9b9a5050505050505050505050565b7f4e487b71000000000000000000000000000000000000000000000000000000005f52602260045260245ffd5b5f60028204905060018216806148ee57607f821691505b602082108103614901576149006148aa565b5b50919050565b5f60608201905061491a5f830186613d14565b61492760208301856144ca565b6149346040830184613d14565b949350505050565b7f546f6b656e20646f6573206e6f742065786973740000000000000000000000005f82015250565b5f614970601483613c00565b915061497b8261493c565b602082019050919050565b5f6020820190508181035f83015261499d81614964565b9050919050565b7f4f6e6c7920657363726f7720636f6e74726163740000000000000000000000005f82015250565b5f6149d8601483613c00565b91506149e3826149a4565b602082019050919050565b5f6020820190508181035f830152614a05816149cc565b9050919050565b5f602082019050614a1f5f8301846147d0565b92915050565b7f4e6f742061207665726966696564206c697374657200000000000000000000005f82015250565b5f614a59601583613c00565b9150614a6482614a25565b602082019050919050565b5f6020820190508181035f830152614a8681614a4d565b9050919050565b7f5072696365206d7573742062652067726561746572207468616e207a65726f005f82015250565b5f614ac1601f83613c00565b9150614acc82614a8d565b602082019050919050565b5f6020820190508181035f830152614aee81614ab5565b9050919050565b7f4c6f636174696f6e2072657175697265640000000000000000000000000000005f82015250565b5f614b29601183613c00565b9150614b3482614af5565b602082019050919050565b5f6020820190508181035f830152614b5681614b1d565b9050919050565b7f4c617469747564652072657175697265640000000000000000000000000000005f82015250565b5f614b91601183613c00565b9150614b9c82614b5d565b602082019050919050565b5f6020820190508181035f830152614bbe81614b85565b9050919050565b7f4c6f6e67697475646520726571756972656400000000000000000000000000005f82015250565b5f614bf9601283613c00565b9150614c0482614bc5565b602082019050919050565b5f6020820190508181035f830152614c2681614bed565b9050919050565b7f446f6373206861736820726571756972656400000000000000000000000000005f82015250565b5f614c61601283613c00565b9150614c6c82614c2d565b602082019050919050565b5f6020820190508181035f830152614c8e81614c55565b9050919050565b5f81905092915050565b5f614ca982613bf6565b614cb38185614c95565b9350614cc3818560208601613c10565b80840191505092915050565b5f819050919050565b614ce9614ce482613c86565b614ccf565b82525050565b5f819050919050565b614d09614d0482613e4b565b614cef565b82525050565b5f614d1a8289614c9f565b9150614d268288614c9f565b9150614d328287614c9f565b9150614d3e8286614c9f565b9150614d4a8285614cd8565b602082019150614d5a8284614cf8565b602082019150819050979650505050505050565b7f496e76616c69642073656c6c6572207369676e617475726500000000000000005f82015250565b5f614da2601883613c00565b9150614dad82614d6e565b602082019050919050565b5f6020820190508181035f830152614dcf81614d96565b9050919050565b7f4e487b71000000000000000000000000000000000000000000000000000000005f52601160045260245ffd5b5f614e0d82613c86565b91507fffffffffffffffffffffffffffffffffffffffffffffffffffffffffffffffff8203614e3f57614e3e614dd6565b5b600182019050919050565b5f819050815f5260205f209050919050565b5f6020601f8301049050919050565b5f82821b905092915050565b5f60088302614ea67fffffffffffffffffffffffffffffffffffffffffffffffffffffffffffffffff82614e6b565b614eb08683614e6b565b95508019841693508086168417925050509392505050565b5f819050919050565b5f614eeb614ee6614ee184613c86565b614ec8565b613c86565b9050919050565b5f819050919050565b614f0483614ed1565b614f18614f1082614ef2565b848454614e77565b825550505050565b5f5f905090565b614f2f614f20565b614f3a818484614efb565b505050565b5b81811015614f5d57614f525f82614f27565b600181019050614f40565b5050565b601f821115614fa257614f7381614e4a565b614f7c84614e5c565b81016020851015614f8b578190505b614f9f614f9785614e5c565b830182614f3f565b50505b505050565b5f82821c905092915050565b5f614fc25f1984600802614fa7565b1980831691505092915050565b5f614fda8383614fb3565b9150826002028217905092915050565b614ff382613bf6565b67ffffffffffffffff81111561500c5761500b614185565b5b61501682546148d7565b615021828285614f61565b5f60209050601f831160018114615052575f8415615040578287015190505b61504a8582614fcf565b8655506150b1565b601f19841661506086614e4a565b5f5b8281101561508757848901518255600182019150602085019450602081019050615062565b868310156150a457848901516150a0601f891682614fb3565b8355505b6001600288020188555050505b505050505050565b5f819050815f5260205f209050919050565b601f82111561510c576150dd816150b9565b6150e684614e5c565b810160208510156150f5578190505b61510961510185614e5c565b830182614f3f565b50505b505050565b61511a82613e63565b67ffffffffffffffff81111561513357615132614185565b5b61513d82546148d7565b6151488282856150cb565b5f60209050601f831160018114615179575f8415615167578287015190505b6151718582614fcf565b8655506151d8565b601f198416615187866150b9565b5f5b828110156151ae57848901518255600182019150602085019450602081019050615189565b868310156151cb57848901516151c7601f891682614fb3565b8355505b6001600288020188555050505b505050505050565b7f496e76616c6964206275796572207369676e61747572650000000000000000005f82015250565b5f615214601783613c00565b915061521f826151e0565b602082019050919050565b5f6020820190508181035f83015261524181615208565b9050919050565b7f496e76616c6964206164647265737365730000000000000000000000000000005f82015250565b5f61527c601183613c00565b915061528782615248565b602082019050919050565b5f6020820190508181035f8301526152a981615270565b9050919050565b7f46726f6d206973206e6f74206f776e65720000000000000000000000000000005f82015250565b5f6152e4601183613c00565b91506152ef826152b0565b602082019050919050565b5f6020820190508181035f830152615311816152d8565b9050919050565b5f6153238285614c9f565b915061532f8284614c9f565b91508190509392505050565b7f496e76616c6964206164647265737300000000000000000000000000000000005f82015250565b5f61536f600f83613c00565b915061537a8261533b565b602082019050919050565b5f6020820190508181035f83015261539c81615363565b9050919050565b7f457363726f7720616c72656164792073657400000000000000000000000000005f82015250565b5f6153d7601283613c00565b91506153e2826153a3565b602082019050919050565b5f6020820190508181035f830152615404816153cb565b9050919050565b7f496e76616c696420657363726f772061646472657373000000000000000000005f82015250565b5f61543f601683613c00565b915061544a8261540b565b602082019050919050565b5f6020820190508181035f83015261546c81615433565b9050919050565b7f55736520657363726f7720746f207472616e736665722070726f7065727479005f82015250565b5f6154a7601f83613c00565b91506154b282615473565b602082019050919050565b5f6020820190508181035f8301526154d48161549b565b9050919050565b5f6080820190506154ee5f830187613d14565b6154fb6020830186613d14565b61550860408301856144ca565b818103606083015261551a8184614798565b905095945050505050565b5f8151905061553381613b6e565b92915050565b5f6020828403121561554e5761554d613b3b565b5b5f61555b84828501615525565b91505092915050565b7f4e487b71000000000000000000000000000000000000000000000000000000005f52601260045260245ffd5b5f6020820190506155a45f830184614779565b92915050565b5f6040820190506155bd5f830185613d14565b6155ca60208301846144ca565b9392505050565b5f60ff82169050919050565b6155e6816155d1565b82525050565b5f6080820190506155ff5f830187614779565b61560c60208301866155dd565b6156196040830185614779565b6156266060830184614779565b9594505050505056fea264697066735822122090096ca317d29d05fa651bbac4aee804614b1e0dc78862a2d4fcb22836f871f564736f6c634300081c0033",
  "linkReferences": {},
  "deployedLinkReferences": {},
  "immutableReferences": {},
  "inputSourceName": "project/contracts/PropertyRegistry.sol",
  "buildInfoId": "solc-0_8_28-300d38dc1e674d3f447dd8a65448a7cbebd6ceac"
}