{
  "_format": "hh3-artifact-1",
  "contractName": "PropertyEscrow",
  "sourceName": "contracts/PropertyEscrow.sol",
  "abi": [
    {
      "inputs": [
        {
          "internalType": "address",
          "name": "_registry",
          "type": "address"
        },
        {
          "internalType": "address",
          "name": "_paymentToken",
          "type": "address"
        },
        {
          "internalType": "uint256",
          "name": "_platformFeeBps",
          "type": "uint256"
        },
        {
          "internalType": "address",
          "name": "_feeRecipient",
          "type": "address"
        }
      ],
      "stateMutability": "nonpayable",
      "type": "constructor"
    },
    {
      "inputs": [],
      "name": "EnforcedPause",
      "type": "error"
    },
    {
      "inputs": [],
      "name": "ExpectedPause",
      "type": "error"
    },
    {
      "inputs": [
        {
          "internalType": "address",
          "name": "owner",
          "type": "address"
        }
      ],
      "name": "OwnableInvalidOwner",
      "type": "error"
    },
    {
      "inputs": [
        {
          "internalType": "address",
          "name": "account",
          "type": "address"
        }
      ],
      "name": "OwnableUnauthorizedAccount",
      "type": "error"
    },
    {
      "inputs": [],
      "name": "ReentrancyGuardReentrantCall",
      "type": "error"
    },
    {
      "inputs": [
        {
          "internalType": "address",
          "name": "token",
          "type": "address"
        }
      ],
      "name": "SafeERC20FailedOperation",
      "type": "error"
    },
    {
      "anonymous": false,
      "inputs": [
        {
          "indexed": true,
          "internalType": "uint256",
          "name": "dealId",
          "type": "uint256"
        },
        {
          "indexed": false,
          "internalType": "string",
          "name": "reason",
          "type": "string"
        }
      ],
      "name": "DealCancelled",
      "type": "event"
    },
    {
      "anonymous": false,
      "inputs": [
        {
          "indexed": false,
          "internalType": "uint256",
          "name": "newExpiry",
          "type": "uint256"
        }
      ],
      "name": "DealExpiryUpdated",
      "type": "event"
    },
    {
      "anonymous": false,
      "inputs": [
        {
          "indexed": true,
          "internalType": "uint256",
          "name": "dealId",
          "type": "uint256"
        },
        {
          "indexed": true,
          "internalType": "uint256",
          "name": "tokenId",
          "type": "uint256"
        },
        {
          "indexed": true,
          "internalType": "address",
          "name": "buyer",
          "type": "address"
        },
        {
          "indexed": false,
          "internalType": "uint256",
          "name": "amount",
          "type": "uint256"
        }
      ],
      "name": "DealOpened",
      "type": "event"
    },
    {
      "anonymous": false,
      "inputs": [
        {
          "indexed": true,
          "internalType": "uint256",
          "name": "dealId",
          "type": "uint256"
        },
        {
          "indexed": false,
          "internalType": "string",
          "name": "reason",
          "type": "string"
        }
      ],
      "name": "DealRejected",
      "type": "event"
    },
    {
      "anonymous": false,
      "inputs": [
        {
          "indexed": true,
          "internalType": "uint256",
          "name": "dealId",
          "type": "uint256"
        },
        {
          "indexed": true,
          "internalType": "uint256",
          "name": "tokenId",
          "type": "uint256"
        },
        {
          "indexed": true,
          "internalType": "address",
          "name": "buyer",
          "type": "address"
        }
      ],
      "name": "DealReleased",
      "type": "event"
    },
    {
      "anonymous": false,
      "inputs": [
        {
          "indexed": true,
          "internalType": "uint256",
          "name": "dealId",
          "type": "uint256"
        },
        {
          "indexed": true,
          "internalType": "address",
          "name": "seller",
          "type": "address"
        },
        {
          "indexed": false,
          "internalType": "uint256",
          "name": "amount",
          "type": "uint256"
        }
      ],
      "name": "FundsQueued",
      "type": "event"
    },
    {
      "anonymous": false,
      "inputs": [
        {
          "indexed": true,
          "internalType": "address",
          "name": "recipient",
          "type": "address"
        },
        {
          "indexed": false,
          "internalType": "uint256",
          "name": "amount",
          "type": "uint256"
        }
      ],
      "name": "FundsWithdrawn",
      "type": "event"
    },
    {
      "anonymous": false,
      "inputs": [
        {
          "indexed": true,
          "internalType": "address",
          "name": "previousOwner",
          "type": "address"
        },
        {
          "indexed": true,
          "internalType": "address",
          "name": "newOwner",
          "type": "address"
        }
      ],
      "name": "OwnershipTransferStarted",
      "type": "event"
    },
    {
      "anonymous": false,
      "inputs": [
        {
          "indexed": true,
          "internalType": "address",
          "name": "previousOwner",
          "type": "address"
        },
        {
          "indexed": true,
          "internalType": "address",
          "name": "newOwner",
          "type": "address"
        }
      ],
      "name": "OwnershipTransferred",
      "type": "event"
    },
    {
      "anonymous": false,
      "inputs": [
        {
          "indexed": false,
          "internalType": "address",
          "name": "account",
          "type": "address"
        }
      ],
      "name": "Paused",
      "type": "event"
    },
    {
      "anonymous": false,
      "inputs": [
        {
          "indexed": false,
          "internalType": "uint256",
          "name": "feeBps",
          "type": "uint256"
        },
        {
          "indexed": true,
          "internalType": "address",
          "name": "recipient",
          "type": "address"
        }
      ],
      "name": "PlatformFeeUpdated",
      "type": "event"
    },
    {
      "anonymous": false,
      "inputs": [
        {
          "indexed": false,
          "internalType": "address",
          "name": "account",
          "type": "address"
        }
      ],
      "name": "Unpaused",
      "type": "event"
    },
    {
      "inputs": [],
      "name": "acceptOwnership",
      "outputs": [],
      "stateMutability": "nonpayable",
      "type": "function"
    },
    {
      "inputs": [
        {
          "internalType": "uint256",
          "name": "",
          "type": "uint256"
        }
      ],
      "name": "activeDeal",
      "outputs": [
        {
          "internalType": "bool",
          "name": "",
          "type": "bool"
        }
      ],
      "stateMutability": "view",
      "type": "function"
    },
    {
      "inputs": [
        {
          "internalType": "uint256",
          "name": "tokenId",
          "type": "uint256"
        }
      ],
      "name": "buyNow",
      "outputs": [
        {
          "internalType": "uint256",
          "name": "",
          "type": "uint256"
        }
      ],
      "stateMutability": "nonpayable",
      "type": "function"
    },
    {
      "inputs": [],
      "name": "dealCount",
      "outputs": [
        {
          "internalType": "uint256",
          "name": "",
          "type": "uint256"
        }
      ],
      "stateMutability": "view",
      "type": "function"
    },
    {
      "inputs": [],
      "name": "dealExpiry",
      "outputs": [
        {
          "internalType": "uint256",
          "name": "",
          "type": "uint256"
        }
      ],
      "stateMutability": "view",
      "type": "function"
    },
    {
      "inputs": [
        {
          "internalType": "uint256",
          "name": "",
          "type": "uint256"
        }
      ],
      "name": "deals",
      "outputs": [
        {
          "internalType": "uint256",
          "name": "tokenId",
          "type": "uint256"
        },
        {
          "internalType": "address",
          "name": "seller",
          "type": "address"
        },
        {
          "internalType": "address",
          "name": "buyer",
          "type": "address"
        },
        {
          "internalType": "uint256",
          "name": "amount",
          "type": "uint256"
        },
        {
          "internalType": "enum PropertyEscrow.DealStatus",
          "name": "status",
          "type": "uint8"
        },
        {
          "internalType": "uint256",
          "name": "createdAt",
          "type": "uint256"
        }
      ],
      "stateMutability": "view",
      "type": "function"
    },
    {
      "inputs": [
        {
          "internalType": "uint256",
          "name": "dealId",
          "type": "uint256"
        }
      ],
      "name": "expireDeal",
      "outputs": [],
      "stateMutability": "nonpayable",
      "type": "function"
    },
    {
      "inputs": [],
      "name": "feeRecipient",
      "outputs": [
        {
          "internalType": "address",
          "name": "",
          "type": "address"
        }
      ],
      "stateMutability": "view",
      "type": "function"
    },
    {
      "inputs": [
        {
          "internalType": "uint256",
          "name": "dealId",
          "type": "uint256"
        }
      ],
      "name": "getDeal",
      "outputs": [
        {
          "components": [
            {
              "internalType": "uint256",
              "name": "tokenId",
              "type": "uint256"
            },
            {
              "internalType": "address",
              "name": "seller",
              "type": "address"
            },
            {
              "internalType": "address",
              "name": "buyer",
              "type": "address"
            },
            {
              "internalType": "uint256",
              "name": "amount",
              "type": "uint256"
            },
            {
              "internalType": "enum PropertyEscrow.DealStatus",
              "name": "status",
              "type": "uint8"
            },
            {
              "internalType": "uint256",
              "name": "createdAt",
              "type": "uint256"
            }
          ],
          "internalType": "struct PropertyEscrow.Deal",
          "name": "",
          "type": "tuple"
        }
      ],
      "stateMutability": "view",
      "type": "function"
    },
    {
      "inputs": [
        {
          "internalType": "uint256",
          "name": "tokenId",
          "type": "uint256"
        }
      ],
      "name": "getDealByToken",
      "outputs": [
        {
          "components": [
            {
              "internalType": "uint256",
              "name": "tokenId",
              "type": "uint256"
            },
            {
              "internalType": "address",
              "name": "seller",
              "type": "address"
            },
            {
              "internalType": "address",
              "name": "buyer",
              "type": "address"
            },
            {
              "internalType": "uint256",
              "name": "amount",
              "type": "uint256"
            },
            {
              "internalType": "enum PropertyEscrow.DealStatus",
              "name": "status",
              "type": "uint8"
            },
            {
              "internalType": "uint256",
              "name": "createdAt",
              "type": "uint256"
            }
          ],
          "internalType": "struct PropertyEscrow.Deal",
          "name": "",
          "type": "tuple"
        }
      ],
      "stateMutability": "view",
      "type": "function"
    },
    {
      "inputs": [
        {
          "internalType": "address",
          "name": "account",
          "type": "address"
        }
      ],
      "name": "getPendingWithdrawal",
      "outputs": [
        {
          "internalType": "uint256",
          "name": "",
          "type": "uint256"
        }
      ],
      "stateMutability": "view",
      "type": "function"
    },
    {
      "inputs": [
        {
          "internalType": "uint256",
          "name": "tokenId",
          "type": "uint256"
        }
      ],
      "name": "hasActiveDeal",
      "outputs": [
        {
          "internalType": "bool",
          "name": "",
          "type": "bool"
        }
      ],
      "stateMutability": "view",
      "type": "function"
    },
    {
      "inputs": [],
      "name": "owner",
      "outputs": [
        {
          "internalType": "address",
          "name": "",
          "type": "address"
        }
      ],
      "stateMutability": "view",
      "type": "function"
    },
    {
      "inputs": [],
      "name": "pause",
      "outputs": [],
      "stateMutability": "nonpayable",
      "type": "function"
    },
    {
      "inputs": [],
      "name": "paused",
      "outputs": [
        {
          "internalType": "bool",
          "name": "",
          "type": "bool"
        }
      ],
      "stateMutability": "view",
      "type": "function"
    },
    {
      "inputs": [],
      "name": "paymentToken",
      "outputs": [
        {
          "internalType": "contract IERC20",
          "name": "",
          "type": "address"
        }
      ],
      "stateMutability": "view",
      "type": "function"
    },
    {
      "inputs": [],
      "name": "pendingOwner",
      "outputs": [
        {
          "internalType": "address",
          "name": "",
          "type": "address"
        }
      ],
      "stateMutability": "view",
      "type": "function"
    },
    {
      "inputs": [
        {
          "internalType": "address",
          "name": "",
          "type": "address"
        }
      ],
      "name": "pendingWithdrawals",
      "outputs": [
        {
          "internalType": "uint256",
          "name": "",
          "type": "uint256"
        }
      ],
      "stateMutability": "view",
      "type": "function"
    },
    {
      "inputs": [],
      "name": "platformFeeBps",
      "outputs": [
        {
          "internalType": "uint256",
          "name": "",
          "type": "uint256"
        }
      ],
      "stateMutability": "view",
      "type": "function"
    },
    {
      "inputs": [],
      "name": "registry",
      "outputs": [
        {
          "internalType": "contract IPropertyRegistry",
          "name": "",
          "type": "address"
        }
      ],
      "stateMutability": "view",
      "type": "function"
    },
    {
      "inputs": [
        {
          "internalType": "uint256",
          "name": "dealId",
          "type": "uint256"
        },
        {
          "internalType": "string",
          "name": "reason",
          "type": "string"
        }
      ],
      "name": "rejectDeal",
      "outputs": [],
      "stateMutability": "nonpayable",
      "type": "function"
    },
    {
      "inputs": [
        {
          "internalType": "uint256",
          "name": "dealId",
          "type": "uint256"
        }
      ],
      "name": "releaseDeal",
      "outputs": [],
      "stateMutability": "nonpayable",
      "type": "function"
    },
    {
      "inputs": [],
      "name": "renounceOwnership",
      "outputs": [],
      "stateMutability": "nonpayable",
      "type": "function"
    },
    {
      "inputs": [
        {
          "internalType": "uint256",
          "name": "newExpiry",
          "type": "uint256"
        }
      ],
      "name": "setDealExpiry",
      "outputs": [],
      "stateMutability": "nonpayable",
      "type": "function"
    },
    {
      "inputs": [
        {
          "internalType": "uint256",
          "name": "feeBps",
          "type": "uint256"
        },
        {
          "internalType": "address",
          "name": "recipient",
          "type": "address"
        }
      ],
      "name": "setPlatformFee",
      "outputs": [],
      "stateMutability": "nonpayable",
      "type": "function"
    },
    {
      "inputs": [
        {
          "internalType": "uint256",
          "name": "",
          "type": "uint256"
        }
      ],
      "name": "tokenToDeal",
      "outputs": [
        {
          "internalType": "uint256",
          "name": "",
          "type": "uint256"
        }
      ],
      "stateMutability": "view",
      "type": "function"
    },
    {
      "inputs": [],
      "name": "totalEscrowedFunds",
      "outputs": [
        {
          "internalType": "uint256",
          "name": "",
          "type": "uint256"
        }
      ],
      "stateMutability": "view",
      "type": "function"
    },
    {
      "inputs": [
        {
          "internalType": "address",
          "name": "newOwner",
          "type": "address"
        }
      ],
      "name": "transferOwnership",
      "outputs": [],
      "stateMutability": "nonpayable",
      "type": "function"
    },
    {
      "inputs": [],
      "name": "unpause",
      "outputs": [],
      "stateMutability": "nonpayable",
      "type": "function"
    },
    {
      "inputs": [],
      "name": "withdrawFunds",
      "outputs": [],
      "stateMutability": "nonpayable",
      "type": "function"
    }
  ],
  "bytecode": "0x60c060405262093a80600855348015610016575f5ffd5b506040516147a33803806147a3833981810160405281019061003891906104de565b335f73ffffffffffffffffffffffffffffffffffffffff168173ffffffffffffffffffffffffffffffffffffffff16036100a9575f6040517f1e4fbdf70000000000000000000000000000000000000000000000000000000081526004016100a09190610551565b60405180910390fd5b6100b88161032460201b60201c565b5060016100d76100cc61035a60201b60201c565b61038360201b60201c565b5f01819055505f73ffffffffffffffffffffffffffffffffffffffff168473ffffffffffffffffffffffffffffffffffffffff160361014b576040517f08c379a0000000000000000000000000000000000000000000000000000000008152600401610142906105c4565b60405180910390fd5b5f73ffffffffffffffffffffffffffffffffffffffff168373ffffffffffffffffffffffffffffffffffffffff16036101b9576040517f08c379a00000000000000000000000000000000000000000000000000000000081526004016101b09061062c565b60405180910390fd5b6103e88211156101fe576040517f08c379a00000000000000000000000000000000000000000000000000000000081526004016101f590610694565b60405180910390fd5b5f73ffffffffffffffffffffffffffffffffffffffff168173ffffffffffffffffffffffffffffffffffffffff160361026c576040517f08c379a0000000000000000000000000000000000000000000000000000000008152600401610263906106fc565b60405180910390fd5b8373ffffffffffffffffffffffffffffffffffffffff1660808173ffffffffffffffffffffffffffffffffffffffff16815250508273ffffffffffffffffffffffffffffffffffffffff1660a08173ffffffffffffffffffffffffffffffffffffffff16815250508160098190555080600a5f6101000a81548173ffffffffffffffffffffffffffffffffffffffff021916908373ffffffffffffffffffffffffffffffffffffffff1602179055505050505061071a565b60015f6101000a81549073ffffffffffffffffffffffffffffffffffffffff02191690556103578161038c60201b60201c565b50565b5f7f9b779b17422d0df92223018b32b4d1fa46e071723d6817e2486d003becc55f005f1b905090565b5f819050919050565b5f5f5f9054906101000a900473ffffffffffffffffffffffffffffffffffffffff169050815f5f6101000a81548173ffffffffffffffffffffffffffffffffffffffff021916908373ffffffffffffffffffffffffffffffffffffffff1602179055508173ffffffffffffffffffffffffffffffffffffffff168173ffffffffffffffffffffffffffffffffffffffff167f8be0079c531659141344cd1fd0a4f28419497f9722a3daafe3b4186f6b6457e060405160405180910390a35050565b5f5ffd5b5f73ffffffffffffffffffffffffffffffffffffffff82169050919050565b5f61047a82610451565b9050919050565b61048a81610470565b8114610494575f5ffd5b50565b5f815190506104a581610481565b92915050565b5f819050919050565b6104bd816104ab565b81146104c7575f5ffd5b50565b5f815190506104d8816104b4565b92915050565b5f5f5f5f608085870312156104f6576104f561044d565b5b5f61050387828801610497565b945050602061051487828801610497565b9350506040610525878288016104ca565b925050606061053687828801610497565b91505092959194509250565b61054b81610470565b82525050565b5f6020820190506105645f830184610542565b92915050565b5f82825260208201905092915050565b7f496e76616c6964207265676973747279206164647265737300000000000000005f82015250565b5f6105ae60188361056a565b91506105b98261057a565b602082019050919050565b5f6020820190508181035f8301526105db816105a2565b9050919050565b7f496e76616c6964207061796d656e7420746f6b656e00000000000000000000005f82015250565b5f61061660158361056a565b9150610621826105e2565b602082019050919050565b5f6020820190508181035f8301526106438161060a565b9050919050565b7f46656520746f6f20686967682c206d61782031302500000000000000000000005f82015250565b5f61067e60158361056a565b91506106898261064a565b602082019050919050565b5f6020820190508181035f8301526106ab81610672565b9050919050565b7f496e76616c69642066656520726563697069656e7400000000000000000000005f82015250565b5f6106e660158361056a565b91506106f1826106b2565b602082019050919050565b5f6020820190508181035f830152610713816106da565b9050919050565b60805160a05161401461078f5f395f81816109e501528181610d950152818161112b01526111ca01525f81816106a1015281816107850152818161082301528181610ad701528181610ddc015281816114c30152818161178a01528181611a1b01528181611c92015261238201526140145ff3fe608060405234801561000f575f5ffd5b50600436106101d8575f3560e01c80637b10399911610102578063cf4cb99b116100a0578063f2fde38b1161006f578063f2fde38b146104eb578063f3e31f8414610507578063f3f4370314610537578063ffa3ffd414610567576101d8565b8063cf4cb99b14610463578063e30c397814610493578063ea3d0b00146104b1578063eadb3c9c146104cd576101d8565b8063839a4641116100dc578063839a4641146104015780638456cb591461041f5780638da5cb5b14610429578063b4d884f614610447576101d8565b80637b103999146103835780637ee8b2f8146103a157806382fd5bac146103d1576101d8565b806331ce2a101161017a578063505b653811610149578063505b6538146103355780635c975abb14610351578063715018a61461036f57806379ba509714610379576101d8565b806331ce2a10146102d5578063328ff9ec146102f15780633f4ba83a1461030d5780634690484014610317576101d8565b8063226ec9eb116101b6578063226ec9eb1461027157806322dcd13e1461028f57806324600fc3146102ad5780633013ce29146102b7576101d8565b806303988f84146101dc57806308a0f32f1461021157806311d4475e14610241575b5f5ffd5b6101f660048036038101906101f19190612b04565b610597565b60405161020896959493929190612bf0565b60405180910390f35b61022b60048036038101906102269190612b04565b610619565b6040516102389190612c4f565b60405180910390f35b61025b60048036038101906102569190612b04565b610ec7565b6040516102689190612d0e565b60405180910390f35b61027961104b565b6040516102869190612c4f565b60405180910390f35b610297611051565b6040516102a49190612c4f565b60405180910390f35b6102b5611057565b005b6102bf6111c8565b6040516102cc9190612d82565b60405180910390f35b6102ef60048036038101906102ea9190612b04565b6111ec565b005b61030b60048036038101906103069190612dfc565b61128a565b005b6103156115d0565b005b61031f6115e2565b60405161032c9190612e59565b60405180910390f35b61034f600480360381019061034a9190612b04565b611607565b005b610359611bd9565b6040516103669190612e8c565b60405180910390f35b610377611bef565b005b610381611c02565b005b61038b611c90565b6040516103989190612ec5565b60405180910390f35b6103bb60048036038101906103b69190612f08565b611cb4565b6040516103c89190612c4f565b60405180910390f35b6103eb60048036038101906103e69190612b04565b611cfa565b6040516103f89190612d0e565b60405180910390f35b610409611e78565b6040516104169190612c4f565b60405180910390f35b610427611e7e565b005b610431611e90565b60405161043e9190612e59565b60405180910390f35b610461600480360381019061045c9190612f33565b611eb7565b005b61047d60048036038101906104789190612b04565b61200b565b60405161048a9190612e8c565b60405180910390f35b61049b612031565b6040516104a89190612e59565b60405180910390f35b6104cb60048036038101906104c69190612b04565b612059565b005b6104d561244f565b6040516104e29190612c4f565b60405180910390f35b61050560048036038101906105009190612f08565b612455565b005b610521600480360381019061051c9190612b04565b612501565b60405161052e9190612c4f565b60405180910390f35b610551600480360381019061054c9190612f08565b612516565b60405161055e9190612c4f565b60405180910390f35b610581600480360381019061057c9190612b04565b61252b565b60405161058e9190612e8c565b60405180910390f35b6004602052805f5260405f205f91509050805f015490806001015f9054906101000a900473ffffffffffffffffffffffffffffffffffffffff1690806002015f9054906101000a900473ffffffffffffffffffffffffffffffffffffffff1690806003015490806004015f9054906101000a900460ff16908060050154905086565b5f610622612548565b61062a612589565b60065f8381526020019081526020015f205f9054906101000a900460ff1615610688576040517f08c379a000000000000000000000000000000000000000000000000000000000815260040161067f90612ff1565b60405180910390fd5b3073ffffffffffffffffffffffffffffffffffffffff167f000000000000000000000000000000000000000000000000000000000000000073ffffffffffffffffffffffffffffffffffffffff1663b909acc56040518163ffffffff1660e01b8152600401602060405180830381865afa158015610708573d5f5f3e3d5ffd5b505050506040513d601f19601f8201168201806040525081019061072c9190613023565b73ffffffffffffffffffffffffffffffffffffffff1614610782576040517f08c379a0000000000000000000000000000000000000000000000000000000008152600401610779906130be565b60405180910390fd5b5f7f000000000000000000000000000000000000000000000000000000000000000073ffffffffffffffffffffffffffffffffffffffff166332665ffb846040518263ffffffff1660e01b81526004016107dc9190612c4f565b5f60405180830381865afa1580156107f6573d5f5f3e3d5ffd5b505050506040513d5f823e3d601f19601f8201168201806040525081019061081e919061359b565b90505f7f000000000000000000000000000000000000000000000000000000000000000073ffffffffffffffffffffffffffffffffffffffff16636352211e856040518263ffffffff1660e01b815260040161087a9190612c4f565b602060405180830381865afa158015610895573d5f5f3e3d5ffd5b505050506040513d601f19601f820116820180604052508101906108b99190613023565b90505f60028111156108ce576108cd612b7d565b5b82610100015160028111156108e6576108e5612b7d565b5b14610926576040517f08c379a000000000000000000000000000000000000000000000000000000000815260040161091d9061362c565b60405180910390fd5b5f82608001511161096c576040517f08c379a000000000000000000000000000000000000000000000000000000000815260040161096390613694565b60405180910390fd5b8073ffffffffffffffffffffffffffffffffffffffff163373ffffffffffffffffffffffffffffffffffffffff16036109da576040517f08c379a00000000000000000000000000000000000000000000000000000000081526004016109d1906136fc565b60405180910390fd5b5f82608001519050807f000000000000000000000000000000000000000000000000000000000000000073ffffffffffffffffffffffffffffffffffffffff1663dd62ed3e33306040518363ffffffff1660e01b8152600401610a3e92919061371a565b602060405180830381865afa158015610a59573d5f5f3e3d5ffd5b505050506040513d601f19601f82011682018060405250810190610a7d9190613741565b1015610abe576040517f08c379a0000000000000000000000000000000000000000000000000000000008152600401610ab5906137dc565b60405180910390fd5b8173ffffffffffffffffffffffffffffffffffffffff167f000000000000000000000000000000000000000000000000000000000000000073ffffffffffffffffffffffffffffffffffffffff16636352211e876040518263ffffffff1660e01b8152600401610b2e9190612c4f565b602060405180830381865afa158015610b49573d5f5f3e3d5ffd5b505050506040513d601f19601f82011682018060405250810190610b6d9190613023565b73ffffffffffffffffffffffffffffffffffffffff1614610bc3576040517f08c379a0000000000000000000000000000000000000000000000000000000008152600401610bba9061386a565b60405180910390fd5b60025f815480929190610bd5906138b5565b91905055505f60025490506040518060c001604052808781526020018473ffffffffffffffffffffffffffffffffffffffff1681526020013373ffffffffffffffffffffffffffffffffffffffff1681526020018381526020015f6002811115610c4257610c41612b7d565b5b81526020014281525060045f8381526020019081526020015f205f820151815f01556020820151816001015f6101000a81548173ffffffffffffffffffffffffffffffffffffffff021916908373ffffffffffffffffffffffffffffffffffffffff1602179055506040820151816002015f6101000a81548173ffffffffffffffffffffffffffffffffffffffff021916908373ffffffffffffffffffffffffffffffffffffffff160217905550606082015181600301556080820151816004015f6101000a81548160ff02191690836002811115610d2457610d23612b7d565b5b021790555060a082015181600501559050508060055f8881526020019081526020015f2081905550600160065f8881526020019081526020015f205f6101000a81548160ff0219169083151502179055508160035f828254610d8691906138fc565b92505081905550610dda3330847f000000000000000000000000000000000000000000000000000000000000000073ffffffffffffffffffffffffffffffffffffffff166125ab909392919063ffffffff16565b7f000000000000000000000000000000000000000000000000000000000000000073ffffffffffffffffffffffffffffffffffffffff16633a1b3d318760016040518363ffffffff1660e01b8152600401610e36929190613975565b5f604051808303815f87803b158015610e4d575f5ffd5b505af1158015610e5f573d5f5f3e3d5ffd5b505050503373ffffffffffffffffffffffffffffffffffffffff1686827fd03c253ac07c258c871bcbf3e1a8864bbdb266b37ae278630ac1f7b9e9d3b95e85604051610eab9190612c4f565b60405180910390a480945050505050610ec2612600565b919050565b610ecf612a52565b5f60055f8481526020019081526020015f205490505f8103610f26576040517f08c379a0000000000000000000000000000000000000000000000000000000008152600401610f1d906139e6565b60405180910390fd5b60045f8281526020019081526020015f206040518060c00160405290815f8201548152602001600182015f9054906101000a900473ffffffffffffffffffffffffffffffffffffffff1673ffffffffffffffffffffffffffffffffffffffff1673ffffffffffffffffffffffffffffffffffffffff168152602001600282015f9054906101000a900473ffffffffffffffffffffffffffffffffffffffff1673ffffffffffffffffffffffffffffffffffffffff1673ffffffffffffffffffffffffffffffffffffffff16815260200160038201548152602001600482015f9054906101000a900460ff16600281111561102357611022612b7d565b5b600281111561103557611034612b7d565b5b8152602001600582015481525050915050919050565b60035481565b60095481565b61105f612589565b5f60075f3373ffffffffffffffffffffffffffffffffffffffff1673ffffffffffffffffffffffffffffffffffffffff1681526020019081526020015f205490505f81116110e2576040517f08c379a00000000000000000000000000000000000000000000000000000000081526004016110d990613a4e565b60405180910390fd5b5f60075f3373ffffffffffffffffffffffffffffffffffffffff1673ffffffffffffffffffffffffffffffffffffffff1681526020019081526020015f208190555061116f33827f000000000000000000000000000000000000000000000000000000000000000073ffffffffffffffffffffffffffffffffffffffff1661261a9092919063ffffffff16565b3373ffffffffffffffffffffffffffffffffffffffff167feaff4b37086828766ad3268786972c0cd24259d4c87a80f9d3963a3c3d999b0d826040516111b59190612c4f565b60405180910390a2506111c6612600565b565b7f000000000000000000000000000000000000000000000000000000000000000081565b6111f461266d565b62015180811015801561120a575062278d008111155b611249576040517f08c379a000000000000000000000000000000000000000000000000000000000815260040161124090613ab6565b60405180910390fd5b806008819055507fd51288cc47fa91b74c14b0f64166478b661c64bce7e9c5c4f8615b0e24597a758160405161127f9190612c4f565b60405180910390a150565b825f8111801561129c57506002548111155b6112db576040517f08c379a00000000000000000000000000000000000000000000000000000000081526004016112d290613b1e565b60405180910390fd5b6112e361266d565b6112eb612589565b6112f3612548565b5f60045f8681526020019081526020015f2090505f600281111561131a57611319612b7d565b5b816004015f9054906101000a900460ff16600281111561133d5761133c612b7d565b5b1461137d576040517f08c379a000000000000000000000000000000000000000000000000000000000815260040161137490613b86565b60405180910390fd5b5f84849050116113c2576040517f08c379a00000000000000000000000000000000000000000000000000000000081526004016113b990613bee565b60405180910390fd5b6002816004015f6101000a81548160ff021916908360028111156113e9576113e8612b7d565b5b02179055505f60065f835f015481526020019081526020015f205f6101000a81548160ff0219169083151502179055505f816003015490505f82600301819055505f8111156114c1578060035f8282546114439190613c0c565b925050819055508060075f846002015f9054906101000a900473ffffffffffffffffffffffffffffffffffffffff1673ffffffffffffffffffffffffffffffffffffffff1673ffffffffffffffffffffffffffffffffffffffff1681526020019081526020015f205f8282546114b991906138fc565b925050819055505b7f000000000000000000000000000000000000000000000000000000000000000073ffffffffffffffffffffffffffffffffffffffff16633a1b3d31835f01545f6040518363ffffffff1660e01b815260040161151f929190613975565b5f604051808303815f87803b158015611536575f5ffd5b505af1158015611548573d5f5f3e3d5ffd5b50505050857fd51ceee8e9a1215169332acf908e21bcb6adf0666e57bf9b3abbba9b7f387ae0868660405161157e929190613c79565b60405180910390a2857fa8b8b3efbebafa658fb44a735ae6b22cee3289a25c09ff2a8cd300c915b2013286866040516115b8929190613c79565b60405180910390a250506115ca612600565b50505050565b6115d861266d565b6115e06126f4565b565b600a5f9054906101000a900473ffffffffffffffffffffffffffffffffffffffff1681565b805f8111801561161957506002548111155b611658576040517f08c379a000000000000000000000000000000000000000000000000000000000815260040161164f90613b1e565b60405180910390fd5b61166061266d565b611668612589565b611670612548565b5f60045f8481526020019081526020015f2090505f600281111561169757611696612b7d565b5b816004015f9054906101000a900460ff1660028111156116ba576116b9612b7d565b5b146116fa576040517f08c379a00000000000000000000000000000000000000000000000000000000081526004016116f190613b86565b60405180910390fd5b600854816005015461170c91906138fc565b42111561174e576040517f08c379a000000000000000000000000000000000000000000000000000000000815260040161174590613ce5565b60405180910390fd5b806001015f9054906101000a900473ffffffffffffffffffffffffffffffffffffffff1673ffffffffffffffffffffffffffffffffffffffff167f000000000000000000000000000000000000000000000000000000000000000073ffffffffffffffffffffffffffffffffffffffff16636352211e835f01546040518263ffffffff1660e01b81526004016117e49190612c4f565b602060405180830381865afa1580156117ff573d5f5f3e3d5ffd5b505050506040513d601f19601f820116820180604052508101906118239190613023565b73ffffffffffffffffffffffffffffffffffffffff1614611879576040517f08c379a000000000000000000000000000000000000000000000000000000000815260040161187090613d4d565b60405180910390fd5b6001816004015f6101000a81548160ff021916908360028111156118a05761189f612b7d565b5b02179055505f60065f835f015481526020019081526020015f205f6101000a81548160ff0219169083151502179055505f816003015490505f82600301819055508060035f8282546118f29190613c0c565b925050819055505f6127106009548361190b9190613d6b565b6119159190613dd9565b90505f81836119249190613c0c565b90508060075f866001015f9054906101000a900473ffffffffffffffffffffffffffffffffffffffff1673ffffffffffffffffffffffffffffffffffffffff1673ffffffffffffffffffffffffffffffffffffffff1681526020019081526020015f205f82825461199591906138fc565b925050819055505f821115611a19578160075f600a5f9054906101000a900473ffffffffffffffffffffffffffffffffffffffff1673ffffffffffffffffffffffffffffffffffffffff1673ffffffffffffffffffffffffffffffffffffffff1681526020019081526020015f205f828254611a1191906138fc565b925050819055505b7f000000000000000000000000000000000000000000000000000000000000000073ffffffffffffffffffffffffffffffffffffffff1663a59f6ca3855f0154866001015f9054906101000a900473ffffffffffffffffffffffffffffffffffffffff16876002015f9054906101000a900473ffffffffffffffffffffffffffffffffffffffff166040518463ffffffff1660e01b8152600401611abf93929190613e09565b5f604051808303815f87803b158015611ad6575f5ffd5b505af1158015611ae8573d5f5f3e3d5ffd5b50505050836002015f9054906101000a900473ffffffffffffffffffffffffffffffffffffffff1673ffffffffffffffffffffffffffffffffffffffff16845f0154877fd7053ec6a7755798d6d1fa1b5ccd01d60282b761dc9205c289cd6a7a371c5dac60405160405180910390a4836001015f9054906101000a900473ffffffffffffffffffffffffffffffffffffffff1673ffffffffffffffffffffffffffffffffffffffff16867f2300a73f1cda2df8a72bbf531a1e8dea67d05e38e41e44ee8def9c4c939e930183604051611bc19190612c4f565b60405180910390a350505050611bd5612600565b5050565b5f600160149054906101000a900460ff16905090565b611bf761266d565b611c005f612756565b565b5f611c0b612786565b90508073ffffffffffffffffffffffffffffffffffffffff16611c2c612031565b73ffffffffffffffffffffffffffffffffffffffff1614611c8457806040517f118cdaa7000000000000000000000000000000000000000000000000000000008152600401611c7b9190612e59565b60405180910390fd5b611c8d81612756565b50565b7f000000000000000000000000000000000000000000000000000000000000000081565b5f60075f8373ffffffffffffffffffffffffffffffffffffffff1673ffffffffffffffffffffffffffffffffffffffff1681526020019081526020015f20549050919050565b611d02612a52565b815f81118015611d1457506002548111155b611d53576040517f08c379a0000000000000000000000000000000000000000000000000000000008152600401611d4a90613b1e565b60405180910390fd5b60045f8481526020019081526020015f206040518060c00160405290815f8201548152602001600182015f9054906101000a900473ffffffffffffffffffffffffffffffffffffffff1673ffffffffffffffffffffffffffffffffffffffff1673ffffffffffffffffffffffffffffffffffffffff168152602001600282015f9054906101000a900473ffffffffffffffffffffffffffffffffffffffff1673ffffffffffffffffffffffffffffffffffffffff1673ffffffffffffffffffffffffffffffffffffffff16815260200160038201548152602001600482015f9054906101000a900460ff166002811115611e5057611e4f612b7d565b5b6002811115611e6257611e61612b7d565b5b8152602001600582015481525050915050919050565b60085481565b611e8661266d565b611e8e61278d565b565b5f5f5f9054906101000a900473ffffffffffffffffffffffffffffffffffffffff16905090565b611ebf61266d565b6103e8821115611f04576040517f08c379a0000000000000000000000000000000000000000000000000000000008152600401611efb90613e88565b60405180910390fd5b5f73ffffffffffffffffffffffffffffffffffffffff168173ffffffffffffffffffffffffffffffffffffffff1603611f72576040517f08c379a0000000000000000000000000000000000000000000000000000000008152600401611f6990613ef0565b60405180910390fd5b8160098190555080600a5f6101000a81548173ffffffffffffffffffffffffffffffffffffffff021916908373ffffffffffffffffffffffffffffffffffffffff1602179055508073ffffffffffffffffffffffffffffffffffffffff167ff0c09f5238364083d828870e877edaebb364d9f19f4093fdbf24e486bbdca48483604051611fff9190612c4f565b60405180910390a25050565b5f60065f8381526020019081526020015f205f9054906101000a900460ff169050919050565b5f60015f9054906101000a900473ffffffffffffffffffffffffffffffffffffffff16905090565b805f8111801561206b57506002548111155b6120aa576040517f08c379a00000000000000000000000000000000000000000000000000000000081526004016120a190613b1e565b60405180910390fd5b6120b2612589565b6120ba612548565b5f60045f8481526020019081526020015f2090505f60028111156120e1576120e0612b7d565b5b816004015f9054906101000a900460ff16600281111561210457612103612b7d565b5b14612144576040517f08c379a000000000000000000000000000000000000000000000000000000000815260040161213b90613b86565b60405180910390fd5b806001015f9054906101000a900473ffffffffffffffffffffffffffffffffffffffff1673ffffffffffffffffffffffffffffffffffffffff163373ffffffffffffffffffffffffffffffffffffffff1614806121ef5750806002015f9054906101000a900473ffffffffffffffffffffffffffffffffffffffff1673ffffffffffffffffffffffffffffffffffffffff163373ffffffffffffffffffffffffffffffffffffffff16145b61222e576040517f08c379a000000000000000000000000000000000000000000000000000000000815260040161222590613f58565b60405180910390fd5b600854816005015461224091906138fc565b4211612281576040517f08c379a000000000000000000000000000000000000000000000000000000000815260040161227890613fc0565b60405180910390fd5b6002816004015f6101000a81548160ff021916908360028111156122a8576122a7612b7d565b5b02179055505f60065f835f015481526020019081526020015f205f6101000a81548160ff0219169083151502179055505f816003015490505f82600301819055505f811115612380578060035f8282546123029190613c0c565b925050819055508060075f846002015f9054906101000a900473ffffffffffffffffffffffffffffffffffffffff1673ffffffffffffffffffffffffffffffffffffffff1673ffffffffffffffffffffffffffffffffffffffff1681526020019081526020015f205f82825461237891906138fc565b925050819055505b7f000000000000000000000000000000000000000000000000000000000000000073ffffffffffffffffffffffffffffffffffffffff16633a1b3d31835f01545f6040518363ffffffff1660e01b81526004016123de929190613975565b5f604051808303815f87803b1580156123f5575f5ffd5b505af1158015612407573d5f5f3e3d5ffd5b50505050837fa8b8b3efbebafa658fb44a735ae6b22cee3289a25c09ff2a8cd300c915b2013260405161243990613ce5565b60405180910390a2505061244b612600565b5050565b60025481565b61245d61266d565b8060015f6101000a81548173ffffffffffffffffffffffffffffffffffffffff021916908373ffffffffffffffffffffffffffffffffffffffff1602179055508073ffffffffffffffffffffffffffffffffffffffff166124bc611e90565b73ffffffffffffffffffffffffffffffffffffffff167f38d16b8cac22d99fc7c124b9cd0de2d3fa1faef420bfe791d8c362d765e2270060405160405180910390a350565b6005602052805f5260405f205f915090505481565b6007602052805f5260405f205f915090505481565b6006602052805f5260405f205f915054906101000a900460ff1681565b612550611bd9565b15612587576040517fd93c066500000000000000000000000000000000000000000000000000000000815260040160405180910390fd5b565b6125916127ef565b60026125a361259e612830565b612859565b5f0181905550565b6125b9848484846001612862565b6125fa57836040517f5274afe70000000000000000000000000000000000000000000000000000000081526004016125f19190612e59565b60405180910390fd5b50505050565b600161261261260d612830565b612859565b5f0181905550565b61262783838360016128d3565b61266857826040517f5274afe700000000000000000000000000000000000000000000000000000000815260040161265f9190612e59565b60405180910390fd5b505050565b612675612786565b73ffffffffffffffffffffffffffffffffffffffff16612693611e90565b73ffffffffffffffffffffffffffffffffffffffff16146126f2576126b6612786565b6040517f118cdaa70000000000000000000000000000000000000000000000000000000081526004016126e99190612e59565b60405180910390fd5b565b6126fc612935565b5f600160146101000a81548160ff0219169083151502179055507f5db9ee0a495bf2e6ff9c91a7834c1ba4fdd244a5e8aa4e537bd38aeae4b073aa61273f612786565b60405161274c9190612e59565b60405180910390a1565b60015f6101000a81549073ffffffffffffffffffffffffffffffffffffffff021916905561278381612975565b50565b5f33905090565b612795612548565b60018060146101000a81548160ff0219169083151502179055507f62e78cea01bee320cd4e420270b5ea74000d11b0c9f74754ebdbfc544b05a2586127d8612786565b6040516127e59190612e59565b60405180910390a1565b6127f7612a36565b1561282e576040517f3ee5aeb500000000000000000000000000000000000000000000000000000000815260040160405180910390fd5b565b5f7f9b779b17422d0df92223018b32b4d1fa46e071723d6817e2486d003becc55f005f1b905090565b5f819050919050565b5f5f6323b872dd60e01b9050604051815f525f1960601c87166004525f1960601c86166024528460445260205f60645f5f8c5af1925060015f511483166128c05783831516156128b4573d5f823e3d81fd5b5f883b113d1516831692505b806040525f606052505095945050505050565b5f5f63a9059cbb60e01b9050604051815f525f1960601c86166004528460245260205f60445f5f8b5af1925060015f5114831661292757838315161561291b573d5f823e3d81fd5b5f873b113d1516831692505b806040525050949350505050565b61293d611bd9565b612973576040517f8dfc202b00000000000000000000000000000000000000000000000000000000815260040160405180910390fd5b565b5f5f5f9054906101000a900473ffffffffffffffffffffffffffffffffffffffff169050815f5f6101000a81548173ffffffffffffffffffffffffffffffffffffffff021916908373ffffffffffffffffffffffffffffffffffffffff1602179055508173ffffffffffffffffffffffffffffffffffffffff168173ffffffffffffffffffffffffffffffffffffffff167f8be0079c531659141344cd1fd0a4f28419497f9722a3daafe3b4186f6b6457e060405160405180910390a35050565b5f6002612a49612a44612830565b612859565b5f015414905090565b6040518060c001604052805f81526020015f73ffffffffffffffffffffffffffffffffffffffff1681526020015f73ffffffffffffffffffffffffffffffffffffffff1681526020015f81526020015f6002811115612ab457612ab3612b7d565b5b81526020015f81525090565b5f604051905090565b5f5ffd5b5f5ffd5b5f819050919050565b612ae381612ad1565b8114612aed575f5ffd5b50565b5f81359050612afe81612ada565b92915050565b5f60208284031215612b1957612b18612ac9565b5b5f612b2684828501612af0565b91505092915050565b612b3881612ad1565b82525050565b5f73ffffffffffffffffffffffffffffffffffffffff82169050919050565b5f612b6782612b3e565b9050919050565b612b7781612b5d565b82525050565b7f4e487b71000000000000000000000000000000000000000000000000000000005f52602160045260245ffd5b60038110612bbb57612bba612b7d565b5b50565b5f819050612bcb82612baa565b919050565b5f612bda82612bbe565b9050919050565b612bea81612bd0565b82525050565b5f60c082019050612c035f830189612b2f565b612c106020830188612b6e565b612c1d6040830187612b6e565b612c2a6060830186612b2f565b612c376080830185612be1565b612c4460a0830184612b2f565b979650505050505050565b5f602082019050612c625f830184612b2f565b92915050565b612c7181612ad1565b82525050565b612c8081612b5d565b82525050565b612c8f81612bd0565b82525050565b60c082015f820151612ca95f850182612c68565b506020820151612cbc6020850182612c77565b506040820151612ccf6040850182612c77565b506060820151612ce26060850182612c68565b506080820151612cf56080850182612c86565b5060a0820151612d0860a0850182612c68565b50505050565b5f60c082019050612d215f830184612c95565b92915050565b5f819050919050565b5f612d4a612d45612d4084612b3e565b612d27565b612b3e565b9050919050565b5f612d5b82612d30565b9050919050565b5f612d6c82612d51565b9050919050565b612d7c81612d62565b82525050565b5f602082019050612d955f830184612d73565b92915050565b5f5ffd5b5f5ffd5b5f5ffd5b5f5f83601f840112612dbc57612dbb612d9b565b5b8235905067ffffffffffffffff811115612dd957612dd8612d9f565b5b602083019150836001820283011115612df557612df4612da3565b5b9250929050565b5f5f5f60408486031215612e1357612e12612ac9565b5b5f612e2086828701612af0565b935050602084013567ffffffffffffffff811115612e4157612e40612acd565b5b612e4d86828701612da7565b92509250509250925092565b5f602082019050612e6c5f830184612b6e565b92915050565b5f8115159050919050565b612e8681612e72565b82525050565b5f602082019050612e9f5f830184612e7d565b92915050565b5f612eaf82612d51565b9050919050565b612ebf81612ea5565b82525050565b5f602082019050612ed85f830184612eb6565b92915050565b612ee781612b5d565b8114612ef1575f5ffd5b50565b5f81359050612f0281612ede565b92915050565b5f60208284031215612f1d57612f1c612ac9565b5b5f612f2a84828501612ef4565b91505092915050565b5f5f60408385031215612f4957612f48612ac9565b5b5f612f5685828601612af0565b9250506020612f6785828601612ef4565b9150509250929050565b5f82825260208201905092915050565b7f416374697665206465616c2065786973747320666f72207468697320746f6b655f8201527f6e00000000000000000000000000000000000000000000000000000000000000602082015250565b5f612fdb602183612f71565b9150612fe682612f81565b604082019050919050565b5f6020820190508181035f83015261300881612fcf565b9050919050565b5f8151905061301d81612ede565b92915050565b5f6020828403121561303857613037612ac9565b5b5f6130458482850161300f565b91505092915050565b7f5468697320636f6e7472616374206973206e6f742074686520726567697374655f8201527f72656420657363726f7700000000000000000000000000000000000000000000602082015250565b5f6130a8602a83612f71565b91506130b38261304e565b604082019050919050565b5f6020820190508181035f8301526130d58161309c565b9050919050565b5f5ffd5b5f601f19601f8301169050919050565b7f4e487b71000000000000000000000000000000000000000000000000000000005f52604160045260245ffd5b613126826130e0565b810181811067ffffffffffffffff82111715613145576131446130f0565b5b80604052505050565b5f613157612ac0565b9050613163828261311d565b919050565b5f5ffd5b5f5ffd5b5f67ffffffffffffffff82111561318a576131896130f0565b5b613193826130e0565b9050602081019050919050565b8281835e5f83830152505050565b5f6131c06131bb84613170565b61314e565b9050828152602081018484840111156131dc576131db61316c565b5b6131e78482856131a0565b509392505050565b5f82601f83011261320357613202612d9b565b5b81516132138482602086016131ae565b91505092915050565b5f8151905061322a81612ada565b92915050565b5f819050919050565b61324281613230565b811461324c575f5ffd5b50565b5f8151905061325d81613239565b92915050565b5f67ffffffffffffffff82111561327d5761327c6130f0565b5b613286826130e0565b9050602081019050919050565b5f6132a56132a084613263565b61314e565b9050828152602081018484840111156132c1576132c061316c565b5b6132cc8482856131a0565b509392505050565b5f82601f8301126132e8576132e7612d9b565b5b81516132f8848260208601613293565b91505092915050565b6003811061330d575f5ffd5b50565b5f8151905061331e81613301565b92915050565b5f67ffffffffffffffff82111561333e5761333d6130f0565b5b602082029050602081019050919050565b5f61336161335c84613324565b61314e565b9050808382526020820190506020840283018581111561338457613383612da3565b5b835b818110156133ad5780613399888261300f565b845260208401935050602081019050613386565b5050509392505050565b5f82601f8301126133cb576133ca612d9b565b5b81516133db84826020860161334f565b91505092915050565b5f61014082840312156133fa576133f96130dc565b5b61340561014061314e565b90505f82015167ffffffffffffffff81111561342457613423613168565b5b613430848285016131ef565b5f83015250602082015167ffffffffffffffff81111561345357613452613168565b5b61345f848285016131ef565b602083015250604082015167ffffffffffffffff81111561348357613482613168565b5b61348f848285016131ef565b604083015250606082015167ffffffffffffffff8111156134b3576134b2613168565b5b6134bf848285016131ef565b60608301525060806134d38482850161321c565b60808301525060a082015167ffffffffffffffff8111156134f7576134f6613168565b5b613503848285016131ef565b60a08301525060c06135178482850161324f565b60c08301525060e082015167ffffffffffffffff81111561353b5761353a613168565b5b613547848285016132d4565b60e08301525061010061355c84828501613310565b6101008301525061012082015167ffffffffffffffff81111561358257613581613168565b5b61358e848285016133b7565b6101208301525092915050565b5f602082840312156135b0576135af612ac9565b5b5f82015167ffffffffffffffff8111156135cd576135cc612acd565b5b6135d9848285016133e4565b91505092915050565b7f50726f7065727479206e6f7420617661696c61626c65000000000000000000005f82015250565b5f613616601683612f71565b9150613621826135e2565b602082019050919050565b5f6020820190508181035f8301526136438161360a565b9050919050565b7f496e76616c6964207072696365000000000000000000000000000000000000005f82015250565b5f61367e600d83612f71565b91506136898261364a565b602082019050919050565b5f6020820190508181035f8301526136ab81613672565b9050919050565b7f53656c6c65722063616e6e6f7420627579206f776e2070726f706572747900005f82015250565b5f6136e6601e83612f71565b91506136f1826136b2565b602082019050919050565b5f6020820190508181035f830152613713816136da565b9050919050565b5f60408201905061372d5f830185612b6e565b61373a6020830184612b6e565b9392505050565b5f6020828403121561375657613755612ac9565b5b5f6137638482850161321c565b91505092915050565b7f496e73756666696369656e74205855534420616c6c6f77616e63652c206170705f8201527f726f766520666972737400000000000000000000000000000000000000000000602082015250565b5f6137c6602a83612f71565b91506137d18261376c565b604082019050919050565b5f6020820190508181035f8301526137f3816137ba565b9050919050565b7f4f776e657273686970206368616e6765642c2063616e6e6f74206f70656e20645f8201527f65616c0000000000000000000000000000000000000000000000000000000000602082015250565b5f613854602383612f71565b915061385f826137fa565b604082019050919050565b5f6020820190508181035f83015261388181613848565b9050919050565b7f4e487b71000000000000000000000000000000000000000000000000000000005f52601160045260245ffd5b5f6138bf82612ad1565b91507fffffffffffffffffffffffffffffffffffffffffffffffffffffffffffffffff82036138f1576138f0613888565b5b600182019050919050565b5f61390682612ad1565b915061391183612ad1565b925082820190508082111561392957613928613888565b5b92915050565b600381106139405761393f612b7d565b5b50565b5f8190506139508261392f565b919050565b5f61395f82613943565b9050919050565b61396f81613955565b82525050565b5f6040820190506139885f830185612b2f565b6139956020830184613966565b9392505050565b7f4e6f206465616c20666f756e6420666f72207468697320746f6b656e000000005f82015250565b5f6139d0601c83612f71565b91506139db8261399c565b602082019050919050565b5f6020820190508181035f8301526139fd816139c4565b9050919050565b7f4e6f2066756e647320746f2077697468647261770000000000000000000000005f82015250565b5f613a38601483612f71565b9150613a4382613a04565b602082019050919050565b5f6020820190508181035f830152613a6581613a2c565b9050919050565b7f4f7574206f662072616e676500000000000000000000000000000000000000005f82015250565b5f613aa0600c83612f71565b9150613aab82613a6c565b602082019050919050565b5f6020820190508181035f830152613acd81613a94565b9050919050565b7f4465616c20646f6573206e6f74206578697374000000000000000000000000005f82015250565b5f613b08601383612f71565b9150613b1382613ad4565b602082019050919050565b5f6020820190508181035f830152613b3581613afc565b9050919050565b7f4465616c206e6f74206f70656e000000000000000000000000000000000000005f82015250565b5f613b70600d83612f71565b9150613b7b82613b3c565b602082019050919050565b5f6020820190508181035f830152613b9d81613b64565b9050919050565b7f526561736f6e20726571756972656400000000000000000000000000000000005f82015250565b5f613bd8600f83612f71565b9150613be382613ba4565b602082019050919050565b5f6020820190508181035f830152613c0581613bcc565b9050919050565b5f613c1682612ad1565b9150613c2183612ad1565b9250828203905081811115613c3957613c38613888565b5b92915050565b828183375f83830152505050565b5f613c588385612f71565b9350613c65838584613c3f565b613c6e836130e0565b840190509392505050565b5f6020820190508181035f830152613c92818486613c4d565b90509392505050565b7f4465616c206578706972656400000000000000000000000000000000000000005f82015250565b5f613ccf600c83612f71565b9150613cda82613c9b565b602082019050919050565b5f6020820190508181035f830152613cfc81613cc3565b9050919050565b7f53656c6c6572206e6f206c6f6e676572206f776e7320746f6b656e00000000005f82015250565b5f613d37601b83612f71565b9150613d4282613d03565b602082019050919050565b5f6020820190508181035f830152613d6481613d2b565b9050919050565b5f613d7582612ad1565b9150613d8083612ad1565b9250828202613d8e81612ad1565b91508282048414831517613da557613da4613888565b5b5092915050565b7f4e487b71000000000000000000000000000000000000000000000000000000005f52601260045260245ffd5b5f613de382612ad1565b9150613dee83612ad1565b925082613dfe57613dfd613dac565b5b828204905092915050565b5f606082019050613e1c5f830186612b2f565b613e296020830185612b6e565b613e366040830184612b6e565b949350505050565b7f46656520746f6f206869676800000000000000000000000000000000000000005f82015250565b5f613e72600c83612f71565b9150613e7d82613e3e565b602082019050919050565b5f6020820190508181035f830152613e9f81613e66565b9050919050565b7f496e76616c696420726563697069656e740000000000000000000000000000005f82015250565b5f613eda601183612f71565b9150613ee582613ea6565b602082019050919050565b5f6020820190508181035f830152613f0781613ece565b9050919050565b7f4e6f74206120706172747920746f2074686973206465616c00000000000000005f82015250565b5f613f42601883612f71565b9150613f4d82613f0e565b602082019050919050565b5f6020820190508181035f830152613f6f81613f36565b9050919050565b7f4e6f7420796574206578706972656400000000000000000000000000000000005f82015250565b5f613faa600f83612f71565b9150613fb582613f76565b602082019050919050565b5f6020820190508181035f830152613fd781613f9e565b905091905056fea2646970667358221220d5a351b5527b5af46834e01329186b42fcf3bd67af18d3f0940ea50f276c983a64736f6c634300081c0033",
  "linkReferences": {},
  "deployedLinkReferences": {},
  "immutableReferences": {
    "9299": [
      {
        "length": 32,
        "start": 1697
      },
      {
        "length": 32,
        "start": 1925
      },
      {
        "length": 32,
        "start": 2083
      },
      {
        "length": 32,
        "start": 2775
      },
      {
        "length": 32,
        "start": 3548
      },
      {
        "length": 32,
        "start": 5315
      },
      {
        "length": 32,
        "start": 6026
      },
      {
        "length": 32,
        "start": 6683
      },
      {
        "length": 32,
        "start": 7314
      },
      {
        "length": 32,
        "start": 9090
      }
    ],
    "9302": [
      {
        "length": 32,
        "start": 2533
      },
      {
        "length": 32,
        "start": 3477
      },
      {
        "length": 32,
        "start": 4395
      },
      {
        "length": 32,
        "start": 4554
      }
    ]
  },
  "inputSourceName": "project/contracts/PropertyEscrow.sol",
  "buildInfoId": "solc-0_8_28-35db11b12f8760b931f26cd887b37b6402b37e21"
}