{
  "_format": "hh3-artifact-1",
  "contractName": "PropertyRegistry",
  "sourceName": "contracts/PropertyRegistry.sol",
  "abi": [
    {
      "inputs": [],
      "stateMutability": "nonpayable",
      "type": "constructor"
    },
    {
      "inputs": [],
      "name": "ECDSAInvalidSignature",
      "type": "error"
    },
    {
      "inputs": [
        {
          "internalType": "uint256",
          "name": "length",
          "type": "uint256"
        }
      ],
      "name": "ECDSAInvalidSignatureLength",
      "type": "error"
    },
    {
      "inputs": [
        {
          "internalType": "bytes32",
          "name": "s",
          "type": "bytes32"
        }
      ],
      "name": "ECDSAInvalidSignatureS",
      "type": "error"
    },
    {
      "inputs": [
        {
          "internalType": "address",
          "name": "sender",
          "type": "address"
        },
        {
          "internalType": "uint256",
          "name": "tokenId",
          "type": "uint256"
        },
        {
          "internalType": "address",
          "name": "owner",
          "type": "address"
        }
      ],
      "name": "ERC721IncorrectOwner",
      "type": "error"
    },
    {
      "inputs": [
        {
          "internalType": "address",
          "name": "operator",
          "type": "address"
        },
        {
          "internalType": "uint256",
          "name": "tokenId",
          "type": "uint256"
        }
      ],
      "name": "ERC721InsufficientApproval",
      "type": "error"
    },
    {
      "inputs": [
        {
          "internalType": "address",
          "name": "approver",
          "type": "address"
        }
      ],
      "name": "ERC721InvalidApprover",
      "type": "error"
    },
    {
      "inputs": [
        {
          "internalType": "address",
          "name": "operator",
          "type": "address"
        }
      ],
      "name": "ERC721InvalidOperator",
      "type": "error"
    },
    {
      "inputs": [
        {
          "internalType": "address",
          "name": "owner",
          "type": "address"
        }
      ],
      "name": "ERC721InvalidOwner",
      "type": "error"
    },
    {
      "inputs": [
        {
          "internalType": "address",
          "name": "receiver",
          "type": "address"
        }
      ],
      "name": "ERC721InvalidReceiver",
      "type": "error"
    },
    {
      "inputs": [
        {
          "internalType": "address",
          "name": "sender",
          "type": "address"
        }
      ],
      "name": "ERC721InvalidSender",
      "type": "error"
    },
    {
      "inputs": [
        {
          "internalType": "uint256",
          "name": "tokenId",
          "type": "uint256"
        }
      ],
      "name": "ERC721NonexistentToken",
      "type": "error"
    },
    {
      "inputs": [],
      "name": "EnforcedPause",
      "type": "error"
    },
    {
      "inputs": [],
      "name": "ExpectedPause",
      "type": "error"
    },
    {
      "inputs": [
        {
          "internalType": "address",
          "name": "owner",
          "type": "address"
        }
      ],
      "name": "OwnableInvalidOwner",
      "type": "error"
    },
    {
      "inputs": [
        {
          "internalType": "address",
          "name": "account",
          "type": "address"
        }
      ],
      "name": "OwnableUnauthorizedAccount",
      "type": "error"
    },
    {
      "anonymous": false,
      "inputs": [
        {
          "indexed": true,
          "internalType": "address",
          "name": "owner",
          "type": "address"
        },
        {
          "indexed": true,
          "internalType": "address",
          "name": "approved",
          "type": "address"
        },
        {
          "indexed": true,
          "internalType": "uint256",
          "name": "tokenId",
          "type": "uint256"
        }
      ],
      "name": "Approval",
      "type": "event"
    },
    {
      "anonymous": false,
      "inputs": [
        {
          "indexed": true,
          "internalType": "address",
          "name": "owner",
          "type": "address"
        },
        {
          "indexed": true,
          "internalType": "address",
          "name": "operator",
          "type": "address"
        },
        {
          "indexed": false,
          "internalType": "bool",
          "name": "approved",
          "type": "bool"
        }
      ],
      "name": "ApprovalForAll",
      "type": "event"
    },
    {
      "anonymous": false,
      "inputs": [
        {
          "indexed": true,
          "internalType": "address",
          "name": "escrow",
          "type": "address"
        }
      ],
      "name": "EscrowContractSet",
      "type": "event"
    },
    {
      "anonymous": false,
      "inputs": [
        {
          "indexed": true,
          "internalType": "address",
          "name": "oldEscrow",
          "type": "address"
        },
        {
          "indexed": true,
          "internalType": "address",
          "name": "newEscrow",
          "type": "address"
        }
      ],
      "name": "EscrowContractUpdated",
      "type": "event"
    },
    {
      "anonymous": false,
      "inputs": [
        {
          "indexed": true,
          "internalType": "address",
          "name": "proposed",
          "type": "address"
        },
        {
          "indexed": false,
          "internalType": "uint256",
          "name": "validAfter",
          "type": "uint256"
        }
      ],
      "name": "EscrowUpdateProposed",
      "type": "event"
    },
    {
      "anonymous": false,
      "inputs": [
        {
          "indexed": true,
          "internalType": "address",
          "name": "previousOwner",
          "type": "address"
        },
        {
          "indexed": true,
          "internalType": "address",
          "name": "newOwner",
          "type": "address"
        }
      ],
      "name": "OwnershipTransferStarted",
      "type": "event"
    },
    {
      "anonymous": false,
      "inputs": [
        {
          "indexed": true,
          "internalType": "address",
          "name": "previousOwner",
          "type": "address"
        },
        {
          "indexed": true,
          "internalType": "address",
          "name": "newOwner",
          "type": "address"
        }
      ],
      "name": "OwnershipTransferred",
      "type": "event"
    },
    {
      "anonymous": false,
      "inputs": [
        {
          "indexed": false,
          "internalType": "address",
          "name": "account",
          "type": "address"
        }
      ],
      "name": "Paused",
      "type": "event"
    },
    {
      "anonymous": false,
      "inputs": [
        {
          "indexed": true,
          "internalType": "uint256",
          "name": "tokenId",
          "type": "uint256"
        },
        {
          "indexed": true,
          "internalType": "address",
          "name": "seller",
          "type": "address"
        },
        {
          "indexed": false,
          "internalType": "string",
          "name": "location",
          "type": "string"
        }
      ],
      "name": "PropertyListed",
      "type": "event"
    },
    {
      "anonymous": false,
      "inputs": [
        {
          "indexed": true,
          "internalType": "uint256",
          "name": "tokenId",
          "type": "uint256"
        },
        {
          "indexed": true,
          "internalType": "address",
          "name": "from",
          "type": "address"
        },
        {
          "indexed": true,
          "internalType": "address",
          "name": "to",
          "type": "address"
        }
      ],
      "name": "PropertyTransferred",
      "type": "event"
    },
    {
      "anonymous": false,
      "inputs": [
        {
          "indexed": true,
          "internalType": "uint256",
          "name": "tokenId",
          "type": "uint256"
        },
        {
          "indexed": false,
          "internalType": "enum PropertyRegistry.Status",
          "name": "status",
          "type": "uint8"
        }
      ],
      "name": "StatusUpdated",
      "type": "event"
    },
    {
      "anonymous": false,
      "inputs": [
        {
          "indexed": true,
          "internalType": "address",
          "name": "from",
          "type": "address"
        },
        {
          "indexed": true,
          "internalType": "address",
          "name": "to",
          "type": "address"
        },
        {
          "indexed": true,
          "internalType": "uint256",
          "name": "tokenId",
          "type": "uint256"
        }
      ],
      "name": "Transfer",
      "type": "event"
    },
    {
      "anonymous": false,
      "inputs": [
        {
          "indexed": false,
          "internalType": "address",
          "name": "account",
          "type": "address"
        }
      ],
      "name": "Unpaused",
      "type": "event"
    },
    {
      "anonymous": false,
      "inputs": [
        {
          "indexed": true,
          "internalType": "address",
          "name": "lister",
          "type": "address"
        },
        {
          "indexed": false,
          "internalType": "bool",
          "name": "status",
          "type": "bool"
        }
      ],
      "name": "VerifiedListerUpdated",
      "type": "event"
    },
    {
      "inputs": [],
      "name": "ESCROW_UPDATE_DELAY",
      "outputs": [
        {
          "internalType": "uint256",
          "name": "",
          "type": "uint256"
        }
      ],
      "stateMutability": "view",
      "type": "function"
    },
    {
      "inputs": [],
      "name": "acceptOwnership",
      "outputs": [],
      "stateMutability": "nonpayable",
      "type": "function"
    },
    {
      "inputs": [
        {
          "internalType": "address",
          "name": "to",
          "type": "address"
        },
        {
          "internalType": "uint256",
          "name": "tokenId",
          "type": "uint256"
        }
      ],
      "name": "approve",
      "outputs": [],
      "stateMutability": "nonpayable",
      "type": "function"
    },
    {
      "inputs": [
        {
          "internalType": "address",
          "name": "owner",
          "type": "address"
        }
      ],
      "name": "balanceOf",
      "outputs": [
        {
          "internalType": "uint256",
          "name": "",
          "type": "uint256"
        }
      ],
      "stateMutability": "view",
      "type": "function"
    },
    {
      "inputs": [],
      "name": "cancelEscrowUpdate",
      "outputs": [],
      "stateMutability": "nonpayable",
      "type": "function"
    },
    {
      "inputs": [],
      "name": "escrowContract",
      "outputs": [
        {
          "internalType": "address",
          "name": "",
          "type": "address"
        }
      ],
      "stateMutability": "view",
      "type": "function"
    },
    {
      "inputs": [],
      "name": "escrowLocked",
      "outputs": [
        {
          "internalType": "bool",
          "name": "",
          "type": "bool"
        }
      ],
      "stateMutability": "view",
      "type": "function"
    },
    {
      "inputs": [],
      "name": "executeEscrowUpdate",
      "outputs": [],
      "stateMutability": "nonpayable",
      "type": "function"
    },
    {
      "inputs": [
        {
          "internalType": "uint256",
          "name": "tokenId",
          "type": "uint256"
        }
      ],
      "name": "getApproved",
      "outputs": [
        {
          "internalType": "address",
          "name": "",
          "type": "address"
        }
      ],
      "stateMutability": "view",
      "type": "function"
    },
    {
      "inputs": [],
      "name": "getEscrowContract",
      "outputs": [
        {
          "internalType": "address",
          "name": "",
          "type": "address"
        }
      ],
      "stateMutability": "view",
      "type": "function"
    },
    {
      "inputs": [
        {
          "internalType": "uint256",
          "name": "tokenId",
          "type": "uint256"
        }
      ],
      "name": "getPreviousOwners",
      "outputs": [
        {
          "internalType": "address[]",
          "name": "",
          "type": "address[]"
        }
      ],
      "stateMutability": "view",
      "type": "function"
    },
    {
      "inputs": [
        {
          "internalType": "uint256",
          "name": "tokenId",
          "type": "uint256"
        }
      ],
      "name": "getProperty",
      "outputs": [
        {
          "components": [
            {
              "internalType": "string",
              "name": "location",
              "type": "string"
            },
            {
              "internalType": "string",
              "name": "latitude",
              "type": "string"
            },
            {
              "internalType": "string",
              "name": "longitude",
              "type": "string"
            },
            {
              "internalType": "string",
              "name": "size",
              "type": "string"
            },
            {
              "internalType": "uint256",
              "name": "price",
              "type": "uint256"
            },
            {
              "internalType": "string",
              "name": "description",
              "type": "string"
            },
            {
              "internalType": "bytes32",
              "name": "docsHash",
              "type": "bytes32"
            },
            {
              "internalType": "bytes",
              "name": "sellerSig",
              "type": "bytes"
            },
            {
              "internalType": "enum PropertyRegistry.Status",
              "name": "status",
              "type": "uint8"
            },
            {
              "internalType": "address[]",
              "name": "previousOwners",
              "type": "address[]"
            }
          ],
          "internalType": "struct PropertyRegistry.Property",
          "name": "",
          "type": "tuple"
        }
      ],
      "stateMutability": "view",
      "type": "function"
    },
    {
      "inputs": [
        {
          "internalType": "address",
          "name": "owner",
          "type": "address"
        },
        {
          "internalType": "address",
          "name": "operator",
          "type": "address"
        }
      ],
      "name": "isApprovedForAll",
      "outputs": [
        {
          "internalType": "bool",
          "name": "",
          "type": "bool"
        }
      ],
      "stateMutability": "view",
      "type": "function"
    },
    {
      "inputs": [
        {
          "internalType": "string",
          "name": "location",
          "type": "string"
        },
        {
          "internalType": "string",
          "name": "latitude",
          "type": "string"
        },
        {
          "internalType": "string",
          "name": "longitude",
          "type": "string"
        },
        {
          "internalType": "string",
          "name": "size",
          "type": "string"
        },
        {
          "internalType": "uint256",
          "name": "price",
          "type": "uint256"
        },
        {
          "internalType": "string",
          "name": "description",
          "type": "string"
        },
        {
          "internalType": "bytes32",
          "name": "docsHash",
          "type": "bytes32"
        },
        {
          "internalType": "bytes",
          "name": "sellerSig",
          "type": "bytes"
        }
      ],
      "name": "listProperty",
      "outputs": [
        {
          "internalType": "uint256",
          "name": "",
          "type": "uint256"
        }
      ],
      "stateMutability": "nonpayable",
      "type": "function"
    },
    {
      "inputs": [],
      "name": "name",
      "outputs": [
        {
          "internalType": "string",
          "name": "",
          "type": "string"
        }
      ],
      "stateMutability": "view",
      "type": "function"
    },
    {
      "inputs": [],
      "name": "owner",
      "outputs": [
        {
          "internalType": "address",
          "name": "",
          "type": "address"
        }
      ],
      "stateMutability": "view",
      "type": "function"
    },
    {
      "inputs": [
        {
          "internalType": "uint256",
          "name": "tokenId",
          "type": "uint256"
        }
      ],
      "name": "ownerOf",
      "outputs": [
        {
          "internalType": "address",
          "name": "",
          "type": "address"
        }
      ],
      "stateMutability": "view",
      "type": "function"
    },
    {
      "inputs": [],
      "name": "pause",
      "outputs": [],
      "stateMutability": "nonpayable",
      "type": "function"
    },
    {
      "inputs": [],
      "name": "paused",
      "outputs": [
        {
          "internalType": "bool",
          "name": "",
          "type": "bool"
        }
      ],
      "stateMutability": "view",
      "type": "function"
    },
    {
      "inputs": [],
      "name": "pendingEscrow",
      "outputs": [
        {
          "internalType": "address",
          "name": "",
          "type": "address"
        }
      ],
      "stateMutability": "view",
      "type": "function"
    },
    {
      "inputs": [],
      "name": "pendingEscrowValidAfter",
      "outputs": [
        {
          "internalType": "uint256",
          "name": "",
          "type": "uint256"
        }
      ],
      "stateMutability": "view",
      "type": "function"
    },
    {
      "inputs": [],
      "name": "pendingOwner",
      "outputs": [
        {
          "internalType": "address",
          "name": "",
          "type": "address"
        }
      ],
      "stateMutability": "view",
      "type": "function"
    },
    {
      "inputs": [
        {
          "internalType": "uint256",
          "name": "",
          "type": "uint256"
        }
      ],
      "name": "properties",
      "outputs": [
        {
          "internalType": "string",
          "name": "location",
          "type": "string"
        },
        {
          "internalType": "string",
          "name": "latitude",
          "type": "string"
        },
        {
          "internalType": "string",
          "name": "longitude",
          "type": "string"
        },
        {
          "internalType": "string",
          "name": "size",
          "type": "string"
        },
        {
          "internalType": "uint256",
          "name": "price",
          "type": "uint256"
        },
        {
          "internalType": "string",
          "name": "description",
          "type": "string"
        },
        {
          "internalType": "bytes32",
          "name": "docsHash",
          "type": "bytes32"
        },
        {
          "internalType": "bytes",
          "name": "sellerSig",
          "type": "bytes"
        },
        {
          "internalType": "enum PropertyRegistry.Status",
          "name": "status",
          "type": "uint8"
        }
      ],
      "stateMutability": "view",
      "type": "function"
    },
    {
      "inputs": [
        {
          "internalType": "address",
          "name": "_escrow",
          "type": "address"
        }
      ],
      "name": "proposeEscrowUpdate",
      "outputs": [],
      "stateMutability": "nonpayable",
      "type": "function"
    },
    {
      "inputs": [],
      "name": "renounceOwnership",
      "outputs": [],
      "stateMutability": "nonpayable",
      "type": "function"
    },
    {
      "inputs": [
        {
          "internalType": "address",
          "name": "from",
          "type": "address"
        },
        {
          "internalType": "address",
          "name": "to",
          "type": "address"
        },
        {
          "internalType": "uint256",
          "name": "tokenId",
          "type": "uint256"
        }
      ],
      "name": "safeTransferFrom",
      "outputs": [],
      "stateMutability": "nonpayable",
      "type": "function"
    },
    {
      "inputs": [
        {
          "internalType": "address",
          "name": "from",
          "type": "address"
        },
        {
          "internalType": "address",
          "name": "to",
          "type": "address"
        },
        {
          "internalType": "uint256",
          "name": "tokenId",
          "type": "uint256"
        },
        {
          "internalType": "bytes",
          "name": "data",
          "type": "bytes"
        }
      ],
      "name": "safeTransferFrom",
      "outputs": [],
      "stateMutability": "nonpayable",
      "type": "function"
    },
    {
      "inputs": [
        {
          "internalType": "address",
          "name": "operator",
          "type": "address"
        },
        {
          "internalType": "bool",
          "name": "approved",
          "type": "bool"
        }
      ],
      "name": "setApprovalForAll",
      "outputs": [],
      "stateMutability": "nonpayable",
      "type": "function"
    },
    {
      "inputs": [
        {
          "internalType": "address",
          "name": "_escrow",
          "type": "address"
        }
      ],
      "name": "setEscrowContract",
      "outputs": [],
      "stateMutability": "nonpayable",
      "type": "function"
    },
    {
      "inputs": [
        {
          "internalType": "address",
          "name": "lister",
          "type": "address"
        },
        {
          "internalType": "bool",
          "name": "status",
          "type": "bool"
        }
      ],
      "name": "setVerifiedLister",
      "outputs": [],
      "stateMutability": "nonpayable",
      "type": "function"
    },
    {
      "inputs": [
        {
          "internalType": "bytes4",
          "name": "interfaceId",
          "type": "bytes4"
        }
      ],
      "name": "supportsInterface",
      "outputs": [
        {
          "internalType": "bool",
          "name": "",
          "type": "bool"
        }
      ],
      "stateMutability": "view",
      "type": "function"
    },
    {
      "inputs": [],
      "name": "symbol",
      "outputs": [
        {
          "internalType": "string",
          "name": "",
          "type": "string"
        }
      ],
      "stateMutability": "view",
      "type": "function"
    },
    {
      "inputs": [],
      "name": "tokenCount",
      "outputs": [
        {
          "internalType": "uint256",
          "name": "",
          "type": "uint256"
        }
      ],
      "stateMutability": "view",
      "type": "function"
    },
    {
      "inputs": [
        {
          "internalType": "uint256",
          "name": "tokenId",
          "type": "uint256"
        }
      ],
      "name": "tokenURI",
      "outputs": [
        {
          "internalType": "string",
          "name": "",
          "type": "string"
        }
      ],
      "stateMutability": "view",
      "type": "function"
    },
    {
      "inputs": [
        {
          "internalType": "address",
          "name": "from",
          "type": "address"
        },
        {
          "internalType": "address",
          "name": "to",
          "type": "address"
        },
        {
          "internalType": "uint256",
          "name": "tokenId",
          "type": "uint256"
        }
      ],
      "name": "transferFrom",
      "outputs": [],
      "stateMutability": "nonpayable",
      "type": "function"
    },
    {
      "inputs": [
        {
          "internalType": "address",
          "name": "newOwner",
          "type": "address"
        }
      ],
      "name": "transferOwnership",
      "outputs": [],
      "stateMutability": "nonpayable",
      "type": "function"
    },
    {
      "inputs": [
        {
          "internalType": "uint256",
          "name": "tokenId",
          "type": "uint256"
        },
        {
          "internalType": "address",
          "name": "from",
          "type": "address"
        },
        {
          "internalType": "address",
          "name": "to",
          "type": "address"
        }
      ],
      "name": "transferProperty",
      "outputs": [],
      "stateMutability": "nonpayable",
      "type": "function"
    },
    {
      "inputs": [],
      "name": "unpause",
      "outputs": [],
      "stateMutability": "nonpayable",
      "type": "function"
    },
    {
      "inputs": [
        {
          "internalType": "uint256",
          "name": "tokenId",
          "type": "uint256"
        },
        {
          "internalType": "enum PropertyRegistry.Status",
          "name": "newStatus",
          "type": "uint8"
        }
      ],
      "name": "updateStatus",
      "outputs": [],
      "stateMutability": "nonpayable",
      "type": "function"
    },
    {
      "inputs": [
        {
          "internalType": "address",
          "name": "",
          "type": "address"
        }
      ],
      "name": "verifiedListers",
      "outputs": [
        {
          "internalType": "bool",
          "name": "",
          "type": "bool"
        }
      ],
      "stateMutability": "view",
      "type": "function"
    }
  ],
  "bytecode": "0x608060405234801561000f575f5ffd5b50336040518060400160405280601081526020017f50726f70657274795265676973747279000000000000000000000000000000008152506040518060400160405280600481526020017f50524f5000000000000000000000000000000000000000000000000000000000815250815f908161008b9190610459565b50806001908161009b9190610459565b5050505f73ffffffffffffffffffffffffffffffffffffffff168173ffffffffffffffffffffffffffffffffffffffff160361010e575f6040517f1e4fbdf70000000000000000000000000000000000000000000000000000000081526004016101059190610567565b60405180910390fd5b61011d8161012360201b60201c565b50610580565b60075f6101000a81549073ffffffffffffffffffffffffffffffffffffffff02191690556101568161015960201b60201c565b50565b5f60065f9054906101000a900473ffffffffffffffffffffffffffffffffffffffff1690508160065f6101000a81548173ffffffffffffffffffffffffffffffffffffffff021916908373ffffffffffffffffffffffffffffffffffffffff1602179055508173ffffffffffffffffffffffffffffffffffffffff168173ffffffffffffffffffffffffffffffffffffffff167f8be0079c531659141344cd1fd0a4f28419497f9722a3daafe3b4186f6b6457e060405160405180910390a35050565b5f81519050919050565b7f4e487b71000000000000000000000000000000000000000000000000000000005f52604160045260245ffd5b7f4e487b71000000000000000000000000000000000000000000000000000000005f52602260045260245ffd5b5f600282049050600182168061029757607f821691505b6020821081036102aa576102a9610253565b5b50919050565b5f819050815f5260205f209050919050565b5f6020601f8301049050919050565b5f82821b905092915050565b5f6008830261030c7fffffffffffffffffffffffffffffffffffffffffffffffffffffffffffffffff826102d1565b61031686836102d1565b95508019841693508086168417925050509392505050565b5f819050919050565b5f819050919050565b5f61035a6103556103508461032e565b610337565b61032e565b9050919050565b5f819050919050565b61037383610340565b61038761037f82610361565b8484546102dd565b825550505050565b5f5f905090565b61039e61038f565b6103a981848461036a565b505050565b5b818110156103cc576103c15f82610396565b6001810190506103af565b5050565b601f821115610411576103e2816102b0565b6103eb846102c2565b810160208510156103fa578190505b61040e610406856102c2565b8301826103ae565b50505b505050565b5f82821c905092915050565b5f6104315f1984600802610416565b1980831691505092915050565b5f6104498383610422565b9150826002028217905092915050565b6104628261021c565b67ffffffffffffffff81111561047b5761047a610226565b5b6104858254610280565b6104908282856103d0565b5f60209050601f8311600181146104c1575f84156104af578287015190505b6104b9858261043e565b865550610520565b601f1984166104cf866102b0565b5f5b828110156104f6578489015182556001820191506020850194506020810190506104d1565b86831015610513578489015161050f601f891682610422565b8355505b6001600288020188555050505b505050505050565b5f73ffffffffffffffffffffffffffffffffffffffff82169050919050565b5f61055182610528565b9050919050565b61056181610547565b82525050565b5f60208201905061057a5f830184610558565b92915050565b615c418061058d5f395ff3fe608060405234801561000f575f5ffd5b5060043610610246575f3560e01c80638da5cb5b11610139578063e1053a6a116100b6578063f2e76be11161007a578063f2e76be114610690578063f2fde38b146106ae578063f330ca4e146106ca578063f42375b5146106e6578063f7b108081461070257610246565b8063e1053a6a146105c4578063e30c3978146105f4578063e42a96e714610612578063e985e9c514610630578063f1a0995c1461066057610246565b8063a59f6ca3116100fd578063a59f6ca314610534578063b88d4fde14610550578063b909acc51461056c578063be4717241461058a578063c87b56dd1461059457610246565b80638da5cb5b146104a057806395d89b41146104be5780639f02e45b146104dc5780639f181b5e146104fa578063a22cb4651461051857610246565b80634bed0a20116101c7578063715018a61161018b578063715018a61461045a57806375aa48951461046457806379ba50971461046e5780638456cb59146104785780638d7248371461048257610246565b80634bed0a20146103905780635c975abb146103c05780635e3c541b146103de5780636352211e146103fa57806370a082311461042a57610246565b806332665ffb1161020e57806332665ffb146103005780633a1b3d31146103305780633cb597aa1461034c5780633f4ba83a1461036a57806342842e0e1461037457610246565b806301ffc9a71461024a57806306fdde031461027a578063081812fc14610298578063095ea7b3146102c857806323b872dd146102e4575b5f5ffd5b610264600480360381019061025f9190613fc5565b61073a565b604051610271919061400a565b60405180910390f35b61028261081b565b60405161028f9190614093565b60405180910390f35b6102b260048036038101906102ad91906140e6565b6108aa565b6040516102bf9190614150565b60405180910390f35b6102e260048036038101906102dd9190614193565b6108c5565b005b6102fe60048036038101906102f991906141d1565b6108db565b005b61031a600480360381019061031591906140e6565b6109da565b604051610327919061450d565b60405180910390f35b61034a60048036038101906103459190614550565b610e90565b005b610354610fe8565b6040516103619190614150565b60405180910390f35b61037261100d565b005b61038e600480360381019061038991906141d1565b61101f565b005b6103aa60048036038101906103a59190614782565b61103e565b6040516103b791906148ea565b60405180910390f35b6103c86115a4565b6040516103d5919061400a565b60405180910390f35b6103f860048036038101906103f39190614903565b6115ba565b005b610414600480360381019061040f91906140e6565b611767565b6040516104219190614150565b60405180910390f35b610444600480360381019061043f9190614903565b611778565b60405161045191906148ea565b60405180910390f35b61046261182e565b005b61046c611841565b005b610476611921565b005b6104806119af565b005b61048a6119c1565b60405161049791906148ea565b60405180910390f35b6104a86119c8565b6040516104b59190614150565b60405180910390f35b6104c66119f0565b6040516104d39190614093565b60405180910390f35b6104e4611a80565b6040516104f191906148ea565b60405180910390f35b610502611a86565b60405161050f91906148ea565b60405180910390f35b610532600480360381019061052d9190614958565b611a8c565b005b61054e60048036038101906105499190614996565b611aa2565b005b61056a600480360381019061056591906149e6565b611db9565b005b610574611dde565b6040516105819190614150565b60405180910390f35b610592611e06565b005b6105ae60048036038101906105a991906140e6565b61202d565b6040516105bb9190614093565b60405180910390f35b6105de60048036038101906105d99190614903565b612093565b6040516105eb919061400a565b60405180910390f35b6105fc6120b0565b6040516106099190614150565b60405180910390f35b61061a6120d8565b6040516106279190614150565b60405180910390f35b61064a60048036038101906106459190614a66565b6120fd565b604051610657919061400a565b60405180910390f35b61067a600480360381019061067591906140e6565b61218b565b6040516106879190614b10565b60405180910390f35b61069861227c565b6040516106a5919061400a565b60405180910390f35b6106c860048036038101906106c39190614903565b61228f565b005b6106e460048036038101906106df9190614958565b61233b565b005b61070060048036038101906106fb9190614903565b612457565b005b61071c600480360381019061071791906140e6565b6125be565b60405161073199989796959493929190614b96565b60405180910390f35b5f7f80ac58cd000000000000000000000000000000000000000000000000000000007bffffffffffffffffffffffffffffffffffffffffffffffffffffffff1916827bffffffffffffffffffffffffffffffffffffffffffffffffffffffff1916148061080457507f5b5e139f000000000000000000000000000000000000000000000000000000007bffffffffffffffffffffffffffffffffffffffffffffffffffffffff1916827bffffffffffffffffffffffffffffffffffffffffffffffffffffffff1916145b80610814575061081382612938565b5b9050919050565b60605f805461082990614c78565b80601f016020809104026020016040519081016040528092919081815260200182805461085590614c78565b80156108a05780601f10610877576101008083540402835291602001916108a0565b820191905f5260205f20905b81548152906001019060200180831161088357829003601f168201915b5050505050905090565b5f6108b4826129a1565b506108be82612a27565b9050919050565b6108d782826108d2612a60565b612a67565b5050565b5f73ffffffffffffffffffffffffffffffffffffffff168273ffffffffffffffffffffffffffffffffffffffff160361094b575f6040517f64a0ae920000000000000000000000000000000000000000000000000000000081526004016109429190614150565b60405180910390fd5b5f61095e8383610959612a60565b612a79565b90508373ffffffffffffffffffffffffffffffffffffffff168173ffffffffffffffffffffffffffffffffffffffff16146109d4578382826040517f64283d7b0000000000000000000000000000000000000000000000000000000081526004016109cb93929190614ca8565b60405180910390fd5b50505050565b6109e2613efd565b815f811180156109f457506008548111155b610a33576040517f08c379a0000000000000000000000000000000000000000000000000000000008152600401610a2a90614d27565b60405180910390fd5b60095f8481526020019081526020015f20604051806101400160405290815f82018054610a5f90614c78565b80601f0160208091040260200160405190810160405280929190818152602001828054610a8b90614c78565b8015610ad65780601f10610aad57610100808354040283529160200191610ad6565b820191905f5260205f20905b815481529060010190602001808311610ab957829003601f168201915b50505050508152602001600182018054610aef90614c78565b80601f0160208091040260200160405190810160405280929190818152602001828054610b1b90614c78565b8015610b665780601f10610b3d57610100808354040283529160200191610b66565b820191905f5260205f20905b815481529060010190602001808311610b4957829003601f168201915b50505050508152602001600282018054610b7f90614c78565b80601f0160208091040260200160405190810160405280929190818152602001828054610bab90614c78565b8015610bf65780601f10610bcd57610100808354040283529160200191610bf6565b820191905f5260205f20905b815481529060010190602001808311610bd957829003601f168201915b50505050508152602001600382018054610c0f90614c78565b80601f0160208091040260200160405190810160405280929190818152602001828054610c3b90614c78565b8015610c865780601f10610c5d57610100808354040283529160200191610c86565b820191905f5260205f20905b815481529060010190602001808311610c6957829003601f168201915b5050505050815260200160048201548152602001600582018054610ca990614c78565b80601f0160208091040260200160405190810160405280929190818152602001828054610cd590614c78565b8015610d205780601f10610cf757610100808354040283529160200191610d20565b820191905f5260205f20905b815481529060010190602001808311610d0357829003601f168201915b5050505050815260200160068201548152602001600782018054610d4390614c78565b80601f0160208091040260200160405190810160405280929190818152602001828054610d6f90614c78565b8015610dba5780601f10610d9157610100808354040283529160200191610dba565b820191905f5260205f20905b815481529060010190602001808311610d9d57829003601f168201915b50505050508152602001600882015f9054906101000a900460ff166002811115610de757610de66142e2565b5b6002811115610df957610df86142e2565b5b815260200160098201805480602002602001604051908101604052809291908181526020018280548015610e7f57602002820191905f5260205f20905b815f9054906101000a900473ffffffffffffffffffffffffffffffffffffffff1673ffffffffffffffffffffffffffffffffffffffff1681526020019060010190808311610e36575b505050505081525050915050919050565b600b5f9054906101000a900473ffffffffffffffffffffffffffffffffffffffff1673ffffffffffffffffffffffffffffffffffffffff163373ffffffffffffffffffffffffffffffffffffffff1614610f1f576040517f08c379a0000000000000000000000000000000000000000000000000000000008152600401610f1690614d8f565b60405180910390fd5b815f81118015610f3157506008548111155b610f70576040517f08c379a0000000000000000000000000000000000000000000000000000000008152600401610f6790614d27565b60405180910390fd5b8160095f8581526020019081526020015f206008015f6101000a81548160ff02191690836002811115610fa657610fa56142e2565b5b0217905550827f2da7b23ca63c1eb969eee5fae4acb98186abecf5358b0354a82a5183ebca6b2a83604051610fdb9190614dad565b60405180910390a2505050565b600c5f9054906101000a900473ffffffffffffffffffffffffffffffffffffffff1681565b611015612b6b565b61101d612bf2565b565b61103983838360405180602001604052805f815250611db9565b505050565b5f600a5f3373ffffffffffffffffffffffffffffffffffffffff1673ffffffffffffffffffffffffffffffffffffffff1681526020019081526020015f205f9054906101000a900460ff166110c8576040517f08c379a00000000000000000000000000000000000000000000000000000000081526004016110bf90614e10565b60405180910390fd5b6110d0612c54565b5f8511611112576040517f08c379a000000000000000000000000000000000000000000000000000000000815260040161110990614e78565b60405180910390fd5b64e8d4a5100085111561115a576040517f08c379a000000000000000000000000000000000000000000000000000000000815260040161115190614ee0565b60405180910390fd5b5f895111801561116c575060c8895111155b6111ab576040517f08c379a00000000000000000000000000000000000000000000000000000000081526004016111a290614f48565b60405180910390fd5b5f88511180156111bd57506014885111155b6111fc576040517f08c379a00000000000000000000000000000000000000000000000000000000081526004016111f390614fb0565b60405180910390fd5b5f875111801561120e57506014875111155b61124d576040517f08c379a000000000000000000000000000000000000000000000000000000000815260040161124490615018565b60405180910390fd5b5f865111801561125f57506032865111155b61129e576040517f08c379a000000000000000000000000000000000000000000000000000000000815260040161129590615080565b60405180910390fd5b6103e8845111156112e4576040517f08c379a00000000000000000000000000000000000000000000000000000000081526004016112db906150e8565b60405180910390fd5b5f5f1b8303611328576040517f08c379a000000000000000000000000000000000000000000000000000000000815260040161131f90615150565b60405180910390fd5b5f898989898988604051602001611344969594939291906151e8565b6040516020818303038152906040528051906020012090505f61136682612c95565b90505f6113738286612cc8565b90503373ffffffffffffffffffffffffffffffffffffffff168173ffffffffffffffffffffffffffffffffffffffff16146113e3576040517f08c379a00000000000000000000000000000000000000000000000000000000081526004016113da90615291565b60405180910390fd5b60085f8154809291906113f5906152dc565b91905055505f60085490508c60095f8381526020019081526020015f205f01908161142091906154c3565b508b60095f8381526020019081526020015f20600101908161144291906154c3565b508a60095f8381526020019081526020015f20600201908161146491906154c3565b508960095f8381526020019081526020015f20600301908161148691906154c3565b508860095f8381526020019081526020015f20600401819055508760095f8381526020019081526020015f2060050190816114c191906154c3565b508660095f8381526020019081526020015f20600601819055508560095f8381526020019081526020015f2060070190816114fc91906155ea565b505f60095f8381526020019081526020015f206008015f6101000a81548160ff02191690836002811115611533576115326142e2565b5b02179055506115423382612cf2565b3373ffffffffffffffffffffffffffffffffffffffff16817f61e22366f1dd402972b7fac9c9b73534fc1a7a60eb41141b60d9f210949575838f6040516115899190614093565b60405180910390a38094505050505098975050505050505050565b5f600760149054906101000a900460ff16905090565b6115c2612b6b565b5f73ffffffffffffffffffffffffffffffffffffffff168173ffffffffffffffffffffffffffffffffffffffff1603611630576040517f08c379a000000000000000000000000000000000000000000000000000000000815260040161162790615703565b60405180910390fd5b600b5f9054906101000a900473ffffffffffffffffffffffffffffffffffffffff1673ffffffffffffffffffffffffffffffffffffffff168173ffffffffffffffffffffffffffffffffffffffff16036116bf576040517f08c379a00000000000000000000000000000000000000000000000000000000081526004016116b69061576b565b60405180910390fd5b80600c5f6101000a81548173ffffffffffffffffffffffffffffffffffffffff021916908373ffffffffffffffffffffffffffffffffffffffff1602179055506202a3004261170e9190615789565b600d819055508073ffffffffffffffffffffffffffffffffffffffff167fc84e7048837d5135cee00fd562a27a8ff9f7b7af52b217b3a24fa94294f4a84a600d5460405161175c91906148ea565b60405180910390a250565b5f611771826129a1565b9050919050565b5f5f73ffffffffffffffffffffffffffffffffffffffff168273ffffffffffffffffffffffffffffffffffffffff16036117e9575f6040517f89c62b640000000000000000000000000000000000000000000000000000000081526004016117e09190614150565b60405180910390fd5b60035f8373ffffffffffffffffffffffffffffffffffffffff1673ffffffffffffffffffffffffffffffffffffffff1681526020019081526020015f20549050919050565b611836612b6b565b61183f5f612d0f565b565b611849612b6b565b5f73ffffffffffffffffffffffffffffffffffffffff16600c5f9054906101000a900473ffffffffffffffffffffffffffffffffffffffff1673ffffffffffffffffffffffffffffffffffffffff16036118d8576040517f08c379a00000000000000000000000000000000000000000000000000000000081526004016118cf90615806565b60405180910390fd5b5f600c5f6101000a81548173ffffffffffffffffffffffffffffffffffffffff021916908373ffffffffffffffffffffffffffffffffffffffff1602179055505f600d81905550565b5f61192a612a60565b90508073ffffffffffffffffffffffffffffffffffffffff1661194b6120b0565b73ffffffffffffffffffffffffffffffffffffffff16146119a357806040517f118cdaa700000000000000000000000000000000000000000000000000000000815260040161199a9190614150565b60405180910390fd5b6119ac81612d0f565b50565b6119b7612b6b565b6119bf612d3f565b565b6202a30081565b5f60065f9054906101000a900473ffffffffffffffffffffffffffffffffffffffff16905090565b6060600180546119ff90614c78565b80601f0160208091040260200160405190810160405280929190818152602001828054611a2b90614c78565b8015611a765780601f10611a4d57610100808354040283529160200191611a76565b820191905f5260205f20905b815481529060010190602001808311611a5957829003601f168201915b5050505050905090565b600d5481565b60085481565b611a9e611a97612a60565b8383612da2565b5050565b600b5f9054906101000a900473ffffffffffffffffffffffffffffffffffffffff1673ffffffffffffffffffffffffffffffffffffffff163373ffffffffffffffffffffffffffffffffffffffff1614611b31576040517f08c379a0000000000000000000000000000000000000000000000000000000008152600401611b2890614d8f565b60405180910390fd5b825f81118015611b4357506008548111155b611b82576040517f08c379a0000000000000000000000000000000000000000000000000000000008152600401611b7990614d27565b60405180910390fd5b5f73ffffffffffffffffffffffffffffffffffffffff168373ffffffffffffffffffffffffffffffffffffffff1614158015611bea57505f73ffffffffffffffffffffffffffffffffffffffff168273ffffffffffffffffffffffffffffffffffffffff1614155b611c29576040517f08c379a0000000000000000000000000000000000000000000000000000000008152600401611c209061586e565b60405180910390fd5b8273ffffffffffffffffffffffffffffffffffffffff16611c4985611767565b73ffffffffffffffffffffffffffffffffffffffff1614611c9f576040517f08c379a0000000000000000000000000000000000000000000000000000000008152600401611c96906158d6565b60405180910390fd5b60095f8581526020019081526020015f2060090183908060018154018082558091505060019003905f5260205f20015f9091909190916101000a81548173ffffffffffffffffffffffffffffffffffffffff021916908373ffffffffffffffffffffffffffffffffffffffff160217905550600260095f8681526020019081526020015f206008015f6101000a81548160ff02191690836002811115611d4857611d476142e2565b5b0217905550611d58838386612f7b565b8173ffffffffffffffffffffffffffffffffffffffff168373ffffffffffffffffffffffffffffffffffffffff16857f2231fc8bc2c20e26d85d66dc7f13a6b6d535c86d2a4d678bb2de61f5b713608360405160405180910390a450505050565b611dc48484846108db565b611dd8611dcf612a60565b858585856130e3565b50505050565b5f600b5f9054906101000a900473ffffffffffffffffffffffffffffffffffffffff16905090565b611e0e612b6b565b5f73ffffffffffffffffffffffffffffffffffffffff16600c5f9054906101000a900473ffffffffffffffffffffffffffffffffffffffff1673ffffffffffffffffffffffffffffffffffffffff1603611e9d576040517f08c379a0000000000000000000000000000000000000000000000000000000008152600401611e9490615806565b60405180910390fd5b600d54421015611ee2576040517f08c379a0000000000000000000000000000000000000000000000000000000008152600401611ed99061593e565b60405180910390fd5b5f600b5f9054906101000a900473ffffffffffffffffffffffffffffffffffffffff169050600c5f9054906101000a900473ffffffffffffffffffffffffffffffffffffffff16600b5f6101000a81548173ffffffffffffffffffffffffffffffffffffffff021916908373ffffffffffffffffffffffffffffffffffffffff1602179055505f600c5f6101000a81548173ffffffffffffffffffffffffffffffffffffffff021916908373ffffffffffffffffffffffffffffffffffffffff1602179055505f600d81905550600b5f9054906101000a900473ffffffffffffffffffffffffffffffffffffffff1673ffffffffffffffffffffffffffffffffffffffff168173ffffffffffffffffffffffffffffffffffffffff167fb4314795ba509f4f6e4f54698ebcf794fed2c1ba8199f5d0024b3f792eb606d160405160405180910390a350565b6060612038826129a1565b505f61204261328f565b90505f8151116120605760405180602001604052805f81525061208b565b8061206a846132a5565b60405160200161207b92919061595c565b6040516020818303038152906040525b915050919050565b600a602052805f5260405f205f915054906101000a900460ff1681565b5f60075f9054906101000a900473ffffffffffffffffffffffffffffffffffffffff16905090565b600b5f9054906101000a900473ffffffffffffffffffffffffffffffffffffffff1681565b5f60055f8473ffffffffffffffffffffffffffffffffffffffff1673ffffffffffffffffffffffffffffffffffffffff1681526020019081526020015f205f8373ffffffffffffffffffffffffffffffffffffffff1673ffffffffffffffffffffffffffffffffffffffff1681526020019081526020015f205f9054906101000a900460ff16905092915050565b6060815f8111801561219f57506008548111155b6121de576040517f08c379a00000000000000000000000000000000000000000000000000000000081526004016121d590614d27565b60405180910390fd5b60095f8481526020019081526020015f2060090180548060200260200160405190810160405280929190818152602001828054801561226f57602002820191905f5260205f20905b815f9054906101000a900473ffffffffffffffffffffffffffffffffffffffff1673ffffffffffffffffffffffffffffffffffffffff1681526020019060010190808311612226575b5050505050915050919050565b600b60149054906101000a900460ff1681565b612297612b6b565b8060075f6101000a81548173ffffffffffffffffffffffffffffffffffffffff021916908373ffffffffffffffffffffffffffffffffffffffff1602179055508073ffffffffffffffffffffffffffffffffffffffff166122f66119c8565b73ffffffffffffffffffffffffffffffffffffffff167f38d16b8cac22d99fc7c124b9cd0de2d3fa1faef420bfe791d8c362d765e2270060405160405180910390a350565b612343612b6b565b5f73ffffffffffffffffffffffffffffffffffffffff168273ffffffffffffffffffffffffffffffffffffffff16036123b1576040517f08c379a00000000000000000000000000000000000000000000000000000000081526004016123a8906159c9565b60405180910390fd5b80600a5f8473ffffffffffffffffffffffffffffffffffffffff1673ffffffffffffffffffffffffffffffffffffffff1681526020019081526020015f205f6101000a81548160ff0219169083151502179055508173ffffffffffffffffffffffffffffffffffffffff167fc400f022e2e45f1511d284022346c608f4816ef82226edce51cc59814a1b9b448260405161244b919061400a565b60405180910390a25050565b61245f612b6b565b600b60149054906101000a900460ff16156124af576040517f08c379a00000000000000000000000000000000000000000000000000000000081526004016124a690615a31565b60405180910390fd5b5f73ffffffffffffffffffffffffffffffffffffffff168173ffffffffffffffffffffffffffffffffffffffff160361251d576040517f08c379a000000000000000000000000000000000000000000000000000000000815260040161251490615703565b60405180910390fd5b80600b5f6101000a81548173ffffffffffffffffffffffffffffffffffffffff021916908373ffffffffffffffffffffffffffffffffffffffff1602179055506001600b60146101000a81548160ff0219169083151502179055508073ffffffffffffffffffffffffffffffffffffffff167fded808e17a47bf48d1a08e83e02563c8ff7f91d526f96d395bbce60d720d9d2960405160405180910390a250565b6009602052805f5260405f205f91509050805f0180546125dd90614c78565b80601f016020809104026020016040519081016040528092919081815260200182805461260990614c78565b80156126545780601f1061262b57610100808354040283529160200191612654565b820191905f5260205f20905b81548152906001019060200180831161263757829003601f168201915b50505050509080600101805461266990614c78565b80601f016020809104026020016040519081016040528092919081815260200182805461269590614c78565b80156126e05780601f106126b7576101008083540402835291602001916126e0565b820191905f5260205f20905b8154815290600101906020018083116126c357829003601f168201915b5050505050908060020180546126f590614c78565b80601f016020809104026020016040519081016040528092919081815260200182805461272190614c78565b801561276c5780601f106127435761010080835404028352916020019161276c565b820191905f5260205f20905b81548152906001019060200180831161274f57829003601f168201915b50505050509080600301805461278190614c78565b80601f01602080910402602001604051908101604052809291908181526020018280546127ad90614c78565b80156127f85780601f106127cf576101008083540402835291602001916127f8565b820191905f5260205f20905b8154815290600101906020018083116127db57829003601f168201915b50505050509080600401549080600501805461281390614c78565b80601f016020809104026020016040519081016040528092919081815260200182805461283f90614c78565b801561288a5780601f106128615761010080835404028352916020019161288a565b820191905f5260205f20905b81548152906001019060200180831161286d57829003601f168201915b5050505050908060060154908060070180546128a590614c78565b80601f01602080910402602001604051908101604052809291908181526020018280546128d190614c78565b801561291c5780601f106128f35761010080835404028352916020019161291c565b820191905f5260205f20905b8154815290600101906020018083116128ff57829003601f168201915b505050505090806008015f9054906101000a900460ff16905089565b5f7f01ffc9a7000000000000000000000000000000000000000000000000000000007bffffffffffffffffffffffffffffffffffffffffffffffffffffffff1916827bffffffffffffffffffffffffffffffffffffffffffffffffffffffff1916149050919050565b5f5f6129ac8361336f565b90505f73ffffffffffffffffffffffffffffffffffffffff168173ffffffffffffffffffffffffffffffffffffffff1603612a1e57826040517f7e273289000000000000000000000000000000000000000000000000000000008152600401612a1591906148ea565b60405180910390fd5b80915050919050565b5f60045f8381526020019081526020015f205f9054906101000a900473ffffffffffffffffffffffffffffffffffffffff169050919050565b5f33905090565b612a7483838360016133a8565b505050565b5f5f612a848461336f565b90505f73ffffffffffffffffffffffffffffffffffffffff168173ffffffffffffffffffffffffffffffffffffffff1614158015612b165750600b5f9054906101000a900473ffffffffffffffffffffffffffffffffffffffff1673ffffffffffffffffffffffffffffffffffffffff16612afd612a60565b73ffffffffffffffffffffffffffffffffffffffff1614155b15612b56576040517f08c379a0000000000000000000000000000000000000000000000000000000008152600401612b4d90615a99565b60405180910390fd5b612b61858585613567565b9150509392505050565b612b73612a60565b73ffffffffffffffffffffffffffffffffffffffff16612b916119c8565b73ffffffffffffffffffffffffffffffffffffffff1614612bf057612bb4612a60565b6040517f118cdaa7000000000000000000000000000000000000000000000000000000008152600401612be79190614150565b60405180910390fd5b565b612bfa613772565b5f600760146101000a81548160ff0219169083151502179055507f5db9ee0a495bf2e6ff9c91a7834c1ba4fdd244a5e8aa4e537bd38aeae4b073aa612c3d612a60565b604051612c4a9190614150565b60405180910390a1565b612c5c6115a4565b15612c93576040517fd93c066500000000000000000000000000000000000000000000000000000000815260040160405180910390fd5b565b5f7f19457468657265756d205369676e6564204d6573736167653a0a3332000000005f5281601c52603c5f209050919050565b5f5f5f5f612cd686866137b2565b925092509250612ce68282613807565b82935050505092915050565b612d0b828260405180602001604052805f815250613969565b5050565b60075f6101000a81549073ffffffffffffffffffffffffffffffffffffffff0219169055612d3c8161398c565b50565b612d47612c54565b6001600760146101000a81548160ff0219169083151502179055507f62e78cea01bee320cd4e420270b5ea74000d11b0c9f74754ebdbfc544b05a258612d8b612a60565b604051612d989190614150565b60405180910390a1565b5f73ffffffffffffffffffffffffffffffffffffffff168373ffffffffffffffffffffffffffffffffffffffff1603612e12575f6040517fa9fbf51f000000000000000000000000000000000000000000000000000000008152600401612e099190614150565b60405180910390fd5b5f73ffffffffffffffffffffffffffffffffffffffff168273ffffffffffffffffffffffffffffffffffffffff1603612e8257816040517f5b08ba18000000000000000000000000000000000000000000000000000000008152600401612e799190614150565b60405180910390fd5b8060055f8573ffffffffffffffffffffffffffffffffffffffff1673ffffffffffffffffffffffffffffffffffffffff1681526020019081526020015f205f8473ffffffffffffffffffffffffffffffffffffffff1673ffffffffffffffffffffffffffffffffffffffff1681526020019081526020015f205f6101000a81548160ff0219169083151502179055508173ffffffffffffffffffffffffffffffffffffffff168373ffffffffffffffffffffffffffffffffffffffff167f17307eab39ab6107e8899845ad3d59bd9653f200f220920489ca2b5937696c3183604051612f6e919061400a565b60405180910390a3505050565b5f73ffffffffffffffffffffffffffffffffffffffff168273ffffffffffffffffffffffffffffffffffffffff1603612feb575f6040517f64a0ae92000000000000000000000000000000000000000000000000000000008152600401612fe29190614150565b60405180910390fd5b5f612ff783835f612a79565b90505f73ffffffffffffffffffffffffffffffffffffffff168173ffffffffffffffffffffffffffffffffffffffff160361306957816040517f7e27328900000000000000000000000000000000000000000000000000000000815260040161306091906148ea565b60405180910390fd5b8373ffffffffffffffffffffffffffffffffffffffff168173ffffffffffffffffffffffffffffffffffffffff16146130dd578382826040517f64283d7b0000000000000000000000000000000000000000000000000000000081526004016130d493929190614ca8565b60405180910390fd5b50505050565b5f8373ffffffffffffffffffffffffffffffffffffffff163b1115613288578273ffffffffffffffffffffffffffffffffffffffff1663150b7a02868685856040518563ffffffff1660e01b81526004016131419493929190615ab7565b6020604051808303815f875af192505050801561317c57506040513d601f19601f820116820180604052508101906131799190615b15565b60015b6131fd573d805f81146131aa576040519150601f19603f3d011682016040523d82523d5f602084013e6131af565b606091505b505f8151036131f557836040517f64a0ae920000000000000000000000000000000000000000000000000000000081526004016131ec9190614150565b60405180910390fd5b805160208201fd5b63150b7a0260e01b7bffffffffffffffffffffffffffffffffffffffffffffffffffffffff1916817bffffffffffffffffffffffffffffffffffffffffffffffffffffffff19161461328657836040517f64a0ae9200000000000000000000000000000000000000000000000000000000815260040161327d9190614150565b60405180910390fd5b505b5050505050565b606060405180602001604052805f815250905090565b60605f60016132b384613a4f565b0190505f8167ffffffffffffffff8111156132d1576132d0614596565b5b6040519080825280601f01601f1916602001820160405280156133035781602001600182028036833780820191505090505b5090505f82602083010190505b600115613364578080600190039150507f3031323334353637383961626364656600000000000000000000000000000000600a86061a8153600a858161335957613358615b40565b5b0494505f8503613310575b819350505050919050565b5f60025f8381526020019081526020015f205f9054906101000a900473ffffffffffffffffffffffffffffffffffffffff169050919050565b80806133e057505f73ffffffffffffffffffffffffffffffffffffffff168273ffffffffffffffffffffffffffffffffffffffff1614155b15613512575f6133ef846129a1565b90505f73ffffffffffffffffffffffffffffffffffffffff168373ffffffffffffffffffffffffffffffffffffffff161415801561345957508273ffffffffffffffffffffffffffffffffffffffff168173ffffffffffffffffffffffffffffffffffffffff1614155b801561346c575061346a81846120fd565b155b156134ae57826040517fa9fbf51f0000000000000000000000000000000000000000000000000000000081526004016134a59190614150565b60405180910390fd5b811561351057838573ffffffffffffffffffffffffffffffffffffffff168273ffffffffffffffffffffffffffffffffffffffff167f8c5be1e5ebec7d5bd14f71427d1e84f3dd0314c0f7b2291e5b200ac8c7c3b92560405160405180910390a45b505b8360045f8581526020019081526020015f205f6101000a81548173ffffffffffffffffffffffffffffffffffffffff021916908373ffffffffffffffffffffffffffffffffffffffff16021790555050505050565b5f5f6135728461336f565b90505f73ffffffffffffffffffffffffffffffffffffffff168373ffffffffffffffffffffffffffffffffffffffff16146135b3576135b2818486613ba0565b5b5f73ffffffffffffffffffffffffffffffffffffffff168173ffffffffffffffffffffffffffffffffffffffff161461363e576135f25f855f5f6133a8565b600160035f8373ffffffffffffffffffffffffffffffffffffffff1673ffffffffffffffffffffffffffffffffffffffff1681526020019081526020015f205f82825403925050819055505b5f73ffffffffffffffffffffffffffffffffffffffff168573ffffffffffffffffffffffffffffffffffffffff16146136bd57600160035f8773ffffffffffffffffffffffffffffffffffffffff1673ffffffffffffffffffffffffffffffffffffffff1681526020019081526020015f205f82825401925050819055505b8460025f8681526020019081526020015f205f6101000a81548173ffffffffffffffffffffffffffffffffffffffff021916908373ffffffffffffffffffffffffffffffffffffffff160217905550838573ffffffffffffffffffffffffffffffffffffffff168273ffffffffffffffffffffffffffffffffffffffff167fddf252ad1be2c89b69c2b068fc378daa952ba7f163c4a11628f55a4df523b3ef60405160405180910390a4809150509392505050565b61377a6115a4565b6137b0576040517f8dfc202b00000000000000000000000000000000000000000000000000000000815260040160405180910390fd5b565b5f5f5f60418451036137f2575f5f5f602087015192506040870151915060608701515f1a90506137e488828585613c63565b955095509550505050613800565b5f600285515f1b9250925092505b9250925092565b5f600381111561381a576138196142e2565b5b82600381111561382d5761382c6142e2565b5b03156139655760016003811115613847576138466142e2565b5b82600381111561385a576138596142e2565b5b03613891576040517ff645eedf00000000000000000000000000000000000000000000000000000000815260040160405180910390fd5b600260038111156138a5576138a46142e2565b5b8260038111156138b8576138b76142e2565b5b036138fc57805f1c6040517ffce698f70000000000000000000000000000000000000000000000000000000081526004016138f391906148ea565b60405180910390fd5b60038081111561390f5761390e6142e2565b5b826003811115613922576139216142e2565b5b0361396457806040517fd78bce0c00000000000000000000000000000000000000000000000000000000815260040161395b9190615b6d565b60405180910390fd5b5b5050565b6139738383613d4a565b61398761397e612a60565b5f8585856130e3565b505050565b5f60065f9054906101000a900473ffffffffffffffffffffffffffffffffffffffff1690508160065f6101000a81548173ffffffffffffffffffffffffffffffffffffffff021916908373ffffffffffffffffffffffffffffffffffffffff1602179055508173ffffffffffffffffffffffffffffffffffffffff168173ffffffffffffffffffffffffffffffffffffffff167f8be0079c531659141344cd1fd0a4f28419497f9722a3daafe3b4186f6b6457e060405160405180910390a35050565b5f5f5f90507a184f03e93ff9f4daa797ed6e38ed64bf6a1f0100000000000000008310613aab577a184f03e93ff9f4daa797ed6e38ed64bf6a1f0100000000000000008381613aa157613aa0615b40565b5b0492506040810190505b6d04ee2d6d415b85acef81000000008310613ae8576d04ee2d6d415b85acef81000000008381613ade57613add615b40565b5b0492506020810190505b662386f26fc100008310613b1757662386f26fc100008381613b0d57613b0c615b40565b5b0492506010810190505b6305f5e1008310613b40576305f5e1008381613b3657613b35615b40565b5b0492506008810190505b6127108310613b65576127108381613b5b57613b5a615b40565b5b0492506004810190505b60648310613b885760648381613b7e57613b7d615b40565b5b0492506002810190505b600a8310613b97576001810190505b80915050919050565b613bab838383613e3d565b613c5e575f73ffffffffffffffffffffffffffffffffffffffff168373ffffffffffffffffffffffffffffffffffffffff1603613c1f57806040517f7e273289000000000000000000000000000000000000000000000000000000008152600401613c1691906148ea565b60405180910390fd5b81816040517f177e802f000000000000000000000000000000000000000000000000000000008152600401613c55929190615b86565b60405180910390fd5b505050565b5f5f5f7f7fffffffffffffffffffffffffffffff5d576e7357a4501ddfe92f46681b20a0845f1c1115613c9f575f600385925092509250613d40565b5f6001888888886040515f8152602001604052604051613cc29493929190615bc8565b6020604051602081039080840390855afa158015613ce2573d5f5f3e3d5ffd5b5050506020604051035190505f73ffffffffffffffffffffffffffffffffffffffff168173ffffffffffffffffffffffffffffffffffffffff1603613d33575f60015f5f1b93509350935050613d40565b805f5f5f1b935093509350505b9450945094915050565b5f73ffffffffffffffffffffffffffffffffffffffff168273ffffffffffffffffffffffffffffffffffffffff1603613dba575f6040517f64a0ae92000000000000000000000000000000000000000000000000000000008152600401613db19190614150565b60405180910390fd5b5f613dc683835f612a79565b90505f73ffffffffffffffffffffffffffffffffffffffff168173ffffffffffffffffffffffffffffffffffffffff1614613e38575f6040517f73c6ac6e000000000000000000000000000000000000000000000000000000008152600401613e2f9190614150565b60405180910390fd5b505050565b5f5f73ffffffffffffffffffffffffffffffffffffffff168373ffffffffffffffffffffffffffffffffffffffff1614158015613ef457508273ffffffffffffffffffffffffffffffffffffffff168473ffffffffffffffffffffffffffffffffffffffff161480613eb55750613eb484846120fd565b5b80613ef357508273ffffffffffffffffffffffffffffffffffffffff16613edb83612a27565b73ffffffffffffffffffffffffffffffffffffffff16145b5b90509392505050565b604051806101400160405280606081526020016060815260200160608152602001606081526020015f8152602001606081526020015f8152602001606081526020015f6002811115613f5257613f516142e2565b5b8152602001606081525090565b5f604051905090565b5f5ffd5b5f5ffd5b5f7fffffffff0000000000000000000000000000000000000000000000000000000082169050919050565b613fa481613f70565b8114613fae575f5ffd5b50565b5f81359050613fbf81613f9b565b92915050565b5f60208284031215613fda57613fd9613f68565b5b5f613fe784828501613fb1565b91505092915050565b5f8115159050919050565b61400481613ff0565b82525050565b5f60208201905061401d5f830184613ffb565b92915050565b5f81519050919050565b5f82825260208201905092915050565b8281835e5f83830152505050565b5f601f19601f8301169050919050565b5f61406582614023565b61406f818561402d565b935061407f81856020860161403d565b6140888161404b565b840191505092915050565b5f6020820190508181035f8301526140ab818461405b565b905092915050565b5f819050919050565b6140c5816140b3565b81146140cf575f5ffd5b50565b5f813590506140e0816140bc565b92915050565b5f602082840312156140fb576140fa613f68565b5b5f614108848285016140d2565b91505092915050565b5f73ffffffffffffffffffffffffffffffffffffffff82169050919050565b5f61413a82614111565b9050919050565b61414a81614130565b82525050565b5f6020820190506141635f830184614141565b92915050565b61417281614130565b811461417c575f5ffd5b50565b5f8135905061418d81614169565b92915050565b5f5f604083850312156141a9576141a8613f68565b5b5f6141b68582860161417f565b92505060206141c7858286016140d2565b9150509250929050565b5f5f5f606084860312156141e8576141e7613f68565b5b5f6141f58682870161417f565b93505060206142068682870161417f565b9250506040614217868287016140d2565b9150509250925092565b5f82825260208201905092915050565b5f61423b82614023565b6142458185614221565b935061425581856020860161403d565b61425e8161404b565b840191505092915050565b614272816140b3565b82525050565b5f819050919050565b61428a81614278565b82525050565b5f81519050919050565b5f82825260208201905092915050565b5f6142b482614290565b6142be818561429a565b93506142ce81856020860161403d565b6142d78161404b565b840191505092915050565b7f4e487b71000000000000000000000000000000000000000000000000000000005f52602160045260245ffd5b600381106143205761431f6142e2565b5b50565b5f8190506143308261430f565b919050565b5f61433f82614323565b9050919050565b61434f81614335565b82525050565b5f81519050919050565b5f82825260208201905092915050565b5f819050602082019050919050565b61438781614130565b82525050565b5f614398838361437e565b60208301905092915050565b5f602082019050919050565b5f6143ba82614355565b6143c4818561435f565b93506143cf8361436f565b805f5b838110156143ff5781516143e6888261438d565b97506143f1836143a4565b9250506001810190506143d2565b5085935050505092915050565b5f61014083015f8301518482035f8601526144278282614231565b915050602083015184820360208601526144418282614231565b9150506040830151848203604086015261445b8282614231565b915050606083015184820360608601526144758282614231565b915050608083015161448a6080860182614269565b5060a083015184820360a08601526144a28282614231565b91505060c08301516144b760c0860182614281565b5060e083015184820360e08601526144cf82826142aa565b9150506101008301516144e6610100860182614346565b5061012083015184820361012086015261450082826143b0565b9150508091505092915050565b5f6020820190508181035f830152614525818461440c565b905092915050565b60038110614539575f5ffd5b50565b5f8135905061454a8161452d565b92915050565b5f5f6040838503121561456657614565613f68565b5b5f614573858286016140d2565b92505060206145848582860161453c565b9150509250929050565b5f5ffd5b5f5ffd5b7f4e487b71000000000000000000000000000000000000000000000000000000005f52604160045260245ffd5b6145cc8261404b565b810181811067ffffffffffffffff821117156145eb576145ea614596565b5b80604052505050565b5f6145fd613f5f565b905061460982826145c3565b919050565b5f67ffffffffffffffff82111561462857614627614596565b5b6146318261404b565b9050602081019050919050565b828183375f83830152505050565b5f61465e6146598461460e565b6145f4565b90508281526020810184848401111561467a57614679614592565b5b61468584828561463e565b509392505050565b5f82601f8301126146a1576146a061458e565b5b81356146b184826020860161464c565b91505092915050565b6146c381614278565b81146146cd575f5ffd5b50565b5f813590506146de816146ba565b92915050565b5f67ffffffffffffffff8211156146fe576146fd614596565b5b6147078261404b565b9050602081019050919050565b5f614726614721846146e4565b6145f4565b90508281526020810184848401111561474257614741614592565b5b61474d84828561463e565b509392505050565b5f82601f8301126147695761476861458e565b5b8135614779848260208601614714565b91505092915050565b5f5f5f5f5f5f5f5f610100898b03121561479f5761479e613f68565b5b5f89013567ffffffffffffffff8111156147bc576147bb613f6c565b5b6147c88b828c0161468d565b985050602089013567ffffffffffffffff8111156147e9576147e8613f6c565b5b6147f58b828c0161468d565b975050604089013567ffffffffffffffff81111561481657614815613f6c565b5b6148228b828c0161468d565b965050606089013567ffffffffffffffff81111561484357614842613f6c565b5b61484f8b828c0161468d565b95505060806148608b828c016140d2565b94505060a089013567ffffffffffffffff81111561488157614880613f6c565b5b61488d8b828c0161468d565b93505060c061489e8b828c016146d0565b92505060e089013567ffffffffffffffff8111156148bf576148be613f6c565b5b6148cb8b828c01614755565b9150509295985092959890939650565b6148e4816140b3565b82525050565b5f6020820190506148fd5f8301846148db565b92915050565b5f6020828403121561491857614917613f68565b5b5f6149258482850161417f565b91505092915050565b61493781613ff0565b8114614941575f5ffd5b50565b5f813590506149528161492e565b92915050565b5f5f6040838503121561496e5761496d613f68565b5b5f61497b8582860161417f565b925050602061498c85828601614944565b9150509250929050565b5f5f5f606084860312156149ad576149ac613f68565b5b5f6149ba868287016140d2565b93505060206149cb8682870161417f565b92505060406149dc8682870161417f565b9150509250925092565b5f5f5f5f608085870312156149fe576149fd613f68565b5b5f614a0b8782880161417f565b9450506020614a1c8782880161417f565b9350506040614a2d878288016140d2565b925050606085013567ffffffffffffffff811115614a4e57614a4d613f6c565b5b614a5a87828801614755565b91505092959194509250565b5f5f60408385031215614a7c57614a7b613f68565b5b5f614a898582860161417f565b9250506020614a9a8582860161417f565b9150509250929050565b5f82825260208201905092915050565b5f614abe82614355565b614ac88185614aa4565b9350614ad38361436f565b805f5b83811015614b03578151614aea888261438d565b9750614af5836143a4565b925050600181019050614ad6565b5085935050505092915050565b5f6020820190508181035f830152614b288184614ab4565b905092915050565b614b3981614278565b82525050565b5f82825260208201905092915050565b5f614b5982614290565b614b638185614b3f565b9350614b7381856020860161403d565b614b7c8161404b565b840191505092915050565b614b9081614335565b82525050565b5f610120820190508181035f830152614baf818c61405b565b90508181036020830152614bc3818b61405b565b90508181036040830152614bd7818a61405b565b90508181036060830152614beb818961405b565b9050614bfa60808301886148db565b81810360a0830152614c0c818761405b565b9050614c1b60c0830186614b30565b81810360e0830152614c2d8185614b4f565b9050614c3d610100830184614b87565b9a9950505050505050505050565b7f4e487b71000000000000000000000000000000000000000000000000000000005f52602260045260245ffd5b5f6002820490506001821680614c8f57607f821691505b602082108103614ca257614ca1614c4b565b5b50919050565b5f606082019050614cbb5f830186614141565b614cc860208301856148db565b614cd56040830184614141565b949350505050565b7f546f6b656e20646f6573206e6f742065786973740000000000000000000000005f82015250565b5f614d1160148361402d565b9150614d1c82614cdd565b602082019050919050565b5f6020820190508181035f830152614d3e81614d05565b9050919050565b7f4f6e6c7920657363726f7720636f6e74726163740000000000000000000000005f82015250565b5f614d7960148361402d565b9150614d8482614d45565b602082019050919050565b5f6020820190508181035f830152614da681614d6d565b9050919050565b5f602082019050614dc05f830184614b87565b92915050565b7f4e6f742061207665726966696564206c697374657200000000000000000000005f82015250565b5f614dfa60158361402d565b9150614e0582614dc6565b602082019050919050565b5f6020820190508181035f830152614e2781614dee565b9050919050565b7f5072696365206d7573742062652067726561746572207468616e207a65726f005f82015250565b5f614e62601f8361402d565b9150614e6d82614e2e565b602082019050919050565b5f6020820190508181035f830152614e8f81614e56565b9050919050565b7f50726963652065786365656473206d6178696d756d206f6620314d20585553445f82015250565b5f614eca60208361402d565b9150614ed582614e96565b602082019050919050565b5f6020820190508181035f830152614ef781614ebe565b9050919050565b7f496e76616c6964206c6f636174696f6e206c656e6774680000000000000000005f82015250565b5f614f3260178361402d565b9150614f3d82614efe565b602082019050919050565b5f6020820190508181035f830152614f5f81614f26565b9050919050565b7f496e76616c6964206c61746974756465206c656e6774680000000000000000005f82015250565b5f614f9a60178361402d565b9150614fa582614f66565b602082019050919050565b5f6020820190508181035f830152614fc781614f8e565b9050919050565b7f496e76616c6964206c6f6e676974756465206c656e67746800000000000000005f82015250565b5f61500260188361402d565b915061500d82614fce565b602082019050919050565b5f6020820190508181035f83015261502f81614ff6565b9050919050565b7f496e76616c69642073697a65206c656e677468000000000000000000000000005f82015250565b5f61506a60138361402d565b915061507582615036565b602082019050919050565b5f6020820190508181035f8301526150978161505e565b9050919050565b7f4465736372697074696f6e20746f6f206c6f6e670000000000000000000000005f82015250565b5f6150d260148361402d565b91506150dd8261509e565b602082019050919050565b5f6020820190508181035f8301526150ff816150c6565b9050919050565b7f446f6373206861736820726571756972656400000000000000000000000000005f82015250565b5f61513a60128361402d565b915061514582615106565b602082019050919050565b5f6020820190508181035f8301526151678161512e565b9050919050565b5f81905092915050565b5f61518282614023565b61518c818561516e565b935061519c81856020860161403d565b80840191505092915050565b5f819050919050565b6151c26151bd826140b3565b6151a8565b82525050565b5f819050919050565b6151e26151dd82614278565b6151c8565b82525050565b5f6151f38289615178565b91506151ff8288615178565b915061520b8287615178565b91506152178286615178565b915061522382856151b1565b60208201915061523382846151d1565b602082019150819050979650505050505050565b7f496e76616c69642073656c6c6572207369676e617475726500000000000000005f82015250565b5f61527b60188361402d565b915061528682615247565b602082019050919050565b5f6020820190508181035f8301526152a88161526f565b9050919050565b7f4e487b71000000000000000000000000000000000000000000000000000000005f52601160045260245ffd5b5f6152e6826140b3565b91507fffffffffffffffffffffffffffffffffffffffffffffffffffffffffffffffff8203615318576153176152af565b5b600182019050919050565b5f819050815f5260205f209050919050565b5f6020601f8301049050919050565b5f82821b905092915050565b5f6008830261537f7fffffffffffffffffffffffffffffffffffffffffffffffffffffffffffffffff82615344565b6153898683615344565b95508019841693508086168417925050509392505050565b5f819050919050565b5f6153c46153bf6153ba846140b3565b6153a1565b6140b3565b9050919050565b5f819050919050565b6153dd836153aa565b6153f16153e9826153cb565b848454615350565b825550505050565b5f5f905090565b6154086153f9565b6154138184846153d4565b505050565b5b818110156154365761542b5f82615400565b600181019050615419565b5050565b601f82111561547b5761544c81615323565b61545584615335565b81016020851015615464578190505b61547861547085615335565b830182615418565b50505b505050565b5f82821c905092915050565b5f61549b5f1984600802615480565b1980831691505092915050565b5f6154b3838361548c565b9150826002028217905092915050565b6154cc82614023565b67ffffffffffffffff8111156154e5576154e4614596565b5b6154ef8254614c78565b6154fa82828561543a565b5f60209050601f83116001811461552b575f8415615519578287015190505b61552385826154a8565b86555061558a565b601f19841661553986615323565b5f5b828110156155605784890151825560018201915060208501945060208101905061553b565b8683101561557d5784890151615579601f89168261548c565b8355505b6001600288020188555050505b505050505050565b5f819050815f5260205f209050919050565b601f8211156155e5576155b681615592565b6155bf84615335565b810160208510156155ce578190505b6155e26155da85615335565b830182615418565b50505b505050565b6155f382614290565b67ffffffffffffffff81111561560c5761560b614596565b5b6156168254614c78565b6156218282856155a4565b5f60209050601f831160018114615652575f8415615640578287015190505b61564a85826154a8565b8655506156b1565b601f19841661566086615592565b5f5b8281101561568757848901518255600182019150602085019450602081019050615662565b868310156156a457848901516156a0601f89168261548c565b8355505b6001600288020188555050505b505050505050565b7f496e76616c696420657363726f772061646472657373000000000000000000005f82015250565b5f6156ed60168361402d565b91506156f8826156b9565b602082019050919050565b5f6020820190508181035f83015261571a816156e1565b9050919050565b7f53616d652061732063757272656e7420657363726f77000000000000000000005f82015250565b5f61575560168361402d565b915061576082615721565b602082019050919050565b5f6020820190508181035f83015261578281615749565b9050919050565b5f615793826140b3565b915061579e836140b3565b92508282019050808211156157b6576157b56152af565b5b92915050565b7f4e6f2070656e64696e6720657363726f772075706461746500000000000000005f82015250565b5f6157f060188361402d565b91506157fb826157bc565b602082019050919050565b5f6020820190508181035f83015261581d816157e4565b9050919050565b7f496e76616c6964206164647265737365730000000000000000000000000000005f82015250565b5f61585860118361402d565b915061586382615824565b602082019050919050565b5f6020820190508181035f8301526158858161584c565b9050919050565b7f46726f6d206973206e6f742063757272656e74206f776e6572000000000000005f82015250565b5f6158c060198361402d565b91506158cb8261588c565b602082019050919050565b5f6020820190508181035f8301526158ed816158b4565b9050919050565b7f54696d656c6f636b206e6f7420657870697265640000000000000000000000005f82015250565b5f61592860148361402d565b9150615933826158f4565b602082019050919050565b5f6020820190508181035f8301526159558161591c565b9050919050565b5f6159678285615178565b91506159738284615178565b91508190509392505050565b7f496e76616c6964206164647265737300000000000000000000000000000000005f82015250565b5f6159b3600f8361402d565b91506159be8261597f565b602082019050919050565b5f6020820190508181035f8301526159e0816159a7565b9050919050565b7f457363726f7720616c72656164792073657400000000000000000000000000005f82015250565b5f615a1b60128361402d565b9150615a26826159e7565b602082019050919050565b5f6020820190508181035f830152615a4881615a0f565b9050919050565b7f55736520657363726f7720746f207472616e736665722070726f7065727479005f82015250565b5f615a83601f8361402d565b9150615a8e82615a4f565b602082019050919050565b5f6020820190508181035f830152615ab081615a77565b9050919050565b5f608082019050615aca5f830187614141565b615ad76020830186614141565b615ae460408301856148db565b8181036060830152615af68184614b4f565b905095945050505050565b5f81519050615b0f81613f9b565b92915050565b5f60208284031215615b2a57615b29613f68565b5b5f615b3784828501615b01565b91505092915050565b7f4e487b71000000000000000000000000000000000000000000000000000000005f52601260045260245ffd5b5f602082019050615b805f830184614b30565b92915050565b5f604082019050615b995f830185614141565b615ba660208301846148db565b9392505050565b5f60ff82169050919050565b615bc281615bad565b82525050565b5f608082019050615bdb5f830187614b30565b615be86020830186615bb9565b615bf56040830185614b30565b615c026060830184614b30565b9594505050505056fea2646970667358221220a0ef999a205cbb5ab4959f0b2e2cef42ff94c52300fd543366c242d9a4f912a164736f6c634300081c0033",
  "linkReferences": {},
  "deployedLinkReferences": {},
  "immutableReferences": {},
  "inputSourceName": "project/contracts/PropertyRegistry.sol",
  "buildInfoId": "solc-0_8_28-35db11b12f8760b931f26cd887b37b6402b37e21"
}