{
  "_format": "hh3-artifact-1",
  "contractName": "XylemNFT",
  "sourceName": "contracts/XylemNFT.sol",
  "abi": [
    {
      "inputs": [
        {
          "internalType": "string",
          "name": "baseURI",
          "type": "string"
        }
      ],
      "stateMutability": "nonpayable",
      "type": "constructor"
    },
    {
      "inputs": [
        {
          "internalType": "address",
          "name": "sender",
          "type": "address"
        },
        {
          "internalType": "uint256",
          "name": "tokenId",
          "type": "uint256"
        },
        {
          "internalType": "address",
          "name": "owner",
          "type": "address"
        }
      ],
      "name": "ERC721IncorrectOwner",
      "type": "error"
    },
    {
      "inputs": [
        {
          "internalType": "address",
          "name": "operator",
          "type": "address"
        },
        {
          "internalType": "uint256",
          "name": "tokenId",
          "type": "uint256"
        }
      ],
      "name": "ERC721InsufficientApproval",
      "type": "error"
    },
    {
      "inputs": [
        {
          "internalType": "address",
          "name": "approver",
          "type": "address"
        }
      ],
      "name": "ERC721InvalidApprover",
      "type": "error"
    },
    {
      "inputs": [
        {
          "internalType": "address",
          "name": "operator",
          "type": "address"
        }
      ],
      "name": "ERC721InvalidOperator",
      "type": "error"
    },
    {
      "inputs": [
        {
          "internalType": "address",
          "name": "owner",
          "type": "address"
        }
      ],
      "name": "ERC721InvalidOwner",
      "type": "error"
    },
    {
      "inputs": [
        {
          "internalType": "address",
          "name": "receiver",
          "type": "address"
        }
      ],
      "name": "ERC721InvalidReceiver",
      "type": "error"
    },
    {
      "inputs": [
        {
          "internalType": "address",
          "name": "sender",
          "type": "address"
        }
      ],
      "name": "ERC721InvalidSender",
      "type": "error"
    },
    {
      "inputs": [
        {
          "internalType": "uint256",
          "name": "tokenId",
          "type": "uint256"
        }
      ],
      "name": "ERC721NonexistentToken",
      "type": "error"
    },
    {
      "inputs": [
        {
          "internalType": "address",
          "name": "owner",
          "type": "address"
        }
      ],
      "name": "OwnableInvalidOwner",
      "type": "error"
    },
    {
      "inputs": [
        {
          "internalType": "address",
          "name": "account",
          "type": "address"
        }
      ],
      "name": "OwnableUnauthorizedAccount",
      "type": "error"
    },
    {
      "inputs": [],
      "name": "ReentrancyGuardReentrantCall",
      "type": "error"
    },
    {
      "anonymous": false,
      "inputs": [
        {
          "indexed": true,
          "internalType": "address",
          "name": "owner",
          "type": "address"
        },
        {
          "indexed": true,
          "internalType": "address",
          "name": "approved",
          "type": "address"
        },
        {
          "indexed": true,
          "internalType": "uint256",
          "name": "tokenId",
          "type": "uint256"
        }
      ],
      "name": "Approval",
      "type": "event"
    },
    {
      "anonymous": false,
      "inputs": [
        {
          "indexed": true,
          "internalType": "address",
          "name": "owner",
          "type": "address"
        },
        {
          "indexed": true,
          "internalType": "address",
          "name": "operator",
          "type": "address"
        },
        {
          "indexed": false,
          "internalType": "bool",
          "name": "approved",
          "type": "bool"
        }
      ],
      "name": "ApprovalForAll",
      "type": "event"
    },
    {
      "anonymous": false,
      "inputs": [
        {
          "indexed": true,
          "internalType": "address",
          "name": "previousOwner",
          "type": "address"
        },
        {
          "indexed": true,
          "internalType": "address",
          "name": "newOwner",
          "type": "address"
        }
      ],
      "name": "OwnershipTransferred",
      "type": "event"
    },
    {
      "anonymous": false,
      "inputs": [
        {
          "indexed": true,
          "internalType": "address",
          "name": "from",
          "type": "address"
        },
        {
          "indexed": true,
          "internalType": "address",
          "name": "to",
          "type": "address"
        },
        {
          "indexed": true,
          "internalType": "uint256",
          "name": "tokenId",
          "type": "uint256"
        }
      ],
      "name": "Transfer",
      "type": "event"
    },
    {
      "anonymous": false,
      "inputs": [
        {
          "indexed": true,
          "internalType": "address",
          "name": "wallet",
          "type": "address"
        },
        {
          "indexed": false,
          "internalType": "bool",
          "name": "status",
          "type": "bool"
        }
      ],
      "name": "Whitelisted",
      "type": "event"
    },
    {
      "anonymous": false,
      "inputs": [
        {
          "indexed": true,
          "internalType": "address",
          "name": "to",
          "type": "address"
        },
        {
          "indexed": false,
          "internalType": "uint256",
          "name": "amount",
          "type": "uint256"
        }
      ],
      "name": "Withdrawn",
      "type": "event"
    },
    {
      "inputs": [],
      "name": "MAX_SUPPLY",
      "outputs": [
        {
          "internalType": "uint256",
          "name": "",
          "type": "uint256"
        }
      ],
      "stateMutability": "view",
      "type": "function"
    },
    {
      "inputs": [],
      "name": "MINT_PRICE",
      "outputs": [
        {
          "internalType": "uint256",
          "name": "",
          "type": "uint256"
        }
      ],
      "stateMutability": "view",
      "type": "function"
    },
    {
      "inputs": [
        {
          "internalType": "address",
          "name": "wallet",
          "type": "address"
        }
      ],
      "name": "addToWhitelist",
      "outputs": [],
      "stateMutability": "nonpayable",
      "type": "function"
    },
    {
      "inputs": [
        {
          "internalType": "address[]",
          "name": "wallets",
          "type": "address[]"
        }
      ],
      "name": "addToWhitelistBatch",
      "outputs": [],
      "stateMutability": "nonpayable",
      "type": "function"
    },
    {
      "inputs": [
        {
          "internalType": "address",
          "name": "to",
          "type": "address"
        },
        {
          "internalType": "uint256",
          "name": "tokenId",
          "type": "uint256"
        }
      ],
      "name": "approve",
      "outputs": [],
      "stateMutability": "nonpayable",
      "type": "function"
    },
    {
      "inputs": [
        {
          "internalType": "address",
          "name": "owner",
          "type": "address"
        }
      ],
      "name": "balanceOf",
      "outputs": [
        {
          "internalType": "uint256",
          "name": "",
          "type": "uint256"
        }
      ],
      "stateMutability": "view",
      "type": "function"
    },
    {
      "inputs": [
        {
          "internalType": "uint256",
          "name": "tokenId",
          "type": "uint256"
        }
      ],
      "name": "getApproved",
      "outputs": [
        {
          "internalType": "address",
          "name": "",
          "type": "address"
        }
      ],
      "stateMutability": "view",
      "type": "function"
    },
    {
      "inputs": [
        {
          "internalType": "address",
          "name": "owner",
          "type": "address"
        },
        {
          "internalType": "address",
          "name": "operator",
          "type": "address"
        }
      ],
      "name": "isApprovedForAll",
      "outputs": [
        {
          "internalType": "bool",
          "name": "",
          "type": "bool"
        }
      ],
      "stateMutability": "view",
      "type": "function"
    },
    {
      "inputs": [],
      "name": "mint",
      "outputs": [],
      "stateMutability": "payable",
      "type": "function"
    },
    {
      "inputs": [],
      "name": "name",
      "outputs": [
        {
          "internalType": "string",
          "name": "",
          "type": "string"
        }
      ],
      "stateMutability": "view",
      "type": "function"
    },
    {
      "inputs": [],
      "name": "owner",
      "outputs": [
        {
          "internalType": "address",
          "name": "",
          "type": "address"
        }
      ],
      "stateMutability": "view",
      "type": "function"
    },
    {
      "inputs": [
        {
          "internalType": "uint256",
          "name": "tokenId",
          "type": "uint256"
        }
      ],
      "name": "ownerOf",
      "outputs": [
        {
          "internalType": "address",
          "name": "",
          "type": "address"
        }
      ],
      "stateMutability": "view",
      "type": "function"
    },
    {
      "inputs": [
        {
          "internalType": "address",
          "name": "wallet",
          "type": "address"
        }
      ],
      "name": "removeFromWhitelist",
      "outputs": [],
      "stateMutability": "nonpayable",
      "type": "function"
    },
    {
      "inputs": [],
      "name": "renounceOwnership",
      "outputs": [],
      "stateMutability": "nonpayable",
      "type": "function"
    },
    {
      "inputs": [
        {
          "internalType": "address",
          "name": "from",
          "type": "address"
        },
        {
          "internalType": "address",
          "name": "to",
          "type": "address"
        },
        {
          "internalType": "uint256",
          "name": "tokenId",
          "type": "uint256"
        }
      ],
      "name": "safeTransferFrom",
      "outputs": [],
      "stateMutability": "nonpayable",
      "type": "function"
    },
    {
      "inputs": [
        {
          "internalType": "address",
          "name": "from",
          "type": "address"
        },
        {
          "internalType": "address",
          "name": "to",
          "type": "address"
        },
        {
          "internalType": "uint256",
          "name": "tokenId",
          "type": "uint256"
        },
        {
          "internalType": "bytes",
          "name": "data",
          "type": "bytes"
        }
      ],
      "name": "safeTransferFrom",
      "outputs": [],
      "stateMutability": "nonpayable",
      "type": "function"
    },
    {
      "inputs": [
        {
          "internalType": "address",
          "name": "operator",
          "type": "address"
        },
        {
          "internalType": "bool",
          "name": "approved",
          "type": "bool"
        }
      ],
      "name": "setApprovalForAll",
      "outputs": [],
      "stateMutability": "nonpayable",
      "type": "function"
    },
    {
      "inputs": [
        {
          "internalType": "bytes4",
          "name": "interfaceId",
          "type": "bytes4"
        }
      ],
      "name": "supportsInterface",
      "outputs": [
        {
          "internalType": "bool",
          "name": "",
          "type": "bool"
        }
      ],
      "stateMutability": "view",
      "type": "function"
    },
    {
      "inputs": [],
      "name": "symbol",
      "outputs": [
        {
          "internalType": "string",
          "name": "",
          "type": "string"
        }
      ],
      "stateMutability": "view",
      "type": "function"
    },
    {
      "inputs": [
        {
          "internalType": "uint256",
          "name": "tokenId",
          "type": "uint256"
        }
      ],
      "name": "tokenURI",
      "outputs": [
        {
          "internalType": "string",
          "name": "",
          "type": "string"
        }
      ],
      "stateMutability": "view",
      "type": "function"
    },
    {
      "inputs": [],
      "name": "totalSupply",
      "outputs": [
        {
          "internalType": "uint256",
          "name": "",
          "type": "uint256"
        }
      ],
      "stateMutability": "view",
      "type": "function"
    },
    {
      "inputs": [
        {
          "internalType": "address",
          "name": "from",
          "type": "address"
        },
        {
          "internalType": "address",
          "name": "to",
          "type": "address"
        },
        {
          "internalType": "uint256",
          "name": "tokenId",
          "type": "uint256"
        }
      ],
      "name": "transferFrom",
      "outputs": [],
      "stateMutability": "nonpayable",
      "type": "function"
    },
    {
      "inputs": [
        {
          "internalType": "address",
          "name": "newOwner",
          "type": "address"
        }
      ],
      "name": "transferOwnership",
      "outputs": [],
      "stateMutability": "nonpayable",
      "type": "function"
    },
    {
      "inputs": [
        {
          "internalType": "address",
          "name": "",
          "type": "address"
        }
      ],
      "name": "whitelist",
      "outputs": [
        {
          "internalType": "bool",
          "name": "",
          "type": "bool"
        }
      ],
      "stateMutability": "view",
      "type": "function"
    },
    {
      "inputs": [],
      "name": "withdraw",
      "outputs": [],
      "stateMutability": "nonpayable",
      "type": "function"
    }
  ],
  "bytecode": "0x608060405234801561000f575f5ffd5b5060405161359b38038061359b833981810160405281019061003191906103bb565b336040518060400160405280600881526020017f58796c656d4e46540000000000000000000000000000000000000000000000008152506040518060400160405280600481526020017f584e465400000000000000000000000000000000000000000000000000000000815250815f90816100ac9190610612565b5080600190816100bc9190610612565b5050505f73ffffffffffffffffffffffffffffffffffffffff168173ffffffffffffffffffffffffffffffffffffffff160361012f575f6040517f1e4fbdf70000000000000000000000000000000000000000000000000000000081526004016101269190610720565b60405180910390fd5b61013e8161017960201b60201c565b50600161015d61015261023c60201b60201c565b61026560201b60201c565b5f018190555080600890816101729190610612565b5050610739565b5f60065f9054906101000a900473ffffffffffffffffffffffffffffffffffffffff1690508160065f6101000a81548173ffffffffffffffffffffffffffffffffffffffff021916908373ffffffffffffffffffffffffffffffffffffffff1602179055508173ffffffffffffffffffffffffffffffffffffffff168173ffffffffffffffffffffffffffffffffffffffff167f8be0079c531659141344cd1fd0a4f28419497f9722a3daafe3b4186f6b6457e060405160405180910390a35050565b5f7f9b779b17422d0df92223018b32b4d1fa46e071723d6817e2486d003becc55f005f1b905090565b5f819050919050565b5f604051905090565b5f5ffd5b5f5ffd5b5f5ffd5b5f5ffd5b5f601f19601f8301169050919050565b7f4e487b71000000000000000000000000000000000000000000000000000000005f52604160045260245ffd5b6102cd82610287565b810181811067ffffffffffffffff821117156102ec576102eb610297565b5b80604052505050565b5f6102fe61026e565b905061030a82826102c4565b919050565b5f67ffffffffffffffff82111561032957610328610297565b5b61033282610287565b9050602081019050919050565b8281835e5f83830152505050565b5f61035f61035a8461030f565b6102f5565b90508281526020810184848401111561037b5761037a610283565b5b61038684828561033f565b509392505050565b5f82601f8301126103a2576103a161027f565b5b81516103b284826020860161034d565b91505092915050565b5f602082840312156103d0576103cf610277565b5b5f82015167ffffffffffffffff8111156103ed576103ec61027b565b5b6103f98482850161038e565b91505092915050565b5f81519050919050565b7f4e487b71000000000000000000000000000000000000000000000000000000005f52602260045260245ffd5b5f600282049050600182168061045057607f821691505b6020821081036104635761046261040c565b5b50919050565b5f819050815f5260205f209050919050565b5f6020601f8301049050919050565b5f82821b905092915050565b5f600883026104c57fffffffffffffffffffffffffffffffffffffffffffffffffffffffffffffffff8261048a565b6104cf868361048a565b95508019841693508086168417925050509392505050565b5f819050919050565b5f819050919050565b5f61051361050e610509846104e7565b6104f0565b6104e7565b9050919050565b5f819050919050565b61052c836104f9565b6105406105388261051a565b848454610496565b825550505050565b5f5f905090565b610557610548565b610562818484610523565b505050565b5b818110156105855761057a5f8261054f565b600181019050610568565b5050565b601f8211156105ca5761059b81610469565b6105a48461047b565b810160208510156105b3578190505b6105c76105bf8561047b565b830182610567565b50505b505050565b5f82821c905092915050565b5f6105ea5f19846008026105cf565b1980831691505092915050565b5f61060283836105db565b9150826002028217905092915050565b61061b82610402565b67ffffffffffffffff81111561063457610633610297565b5b61063e8254610439565b610649828285610589565b5f60209050601f83116001811461067a575f8415610668578287015190505b61067285826105f7565b8655506106d9565b601f19841661068886610469565b5f5b828110156106af5784890151825560018201915060208501945060208101905061068a565b868310156106cc57848901516106c8601f8916826105db565b8355505b6001600288020188555050505b505050505050565b5f73ffffffffffffffffffffffffffffffffffffffff82169050919050565b5f61070a826106e1565b9050919050565b61071a81610700565b82525050565b5f6020820190506107335f830184610711565b92915050565b612e55806107465f395ff3fe608060405260043610610165575f3560e01c8063715018a6116100d0578063a617713911610089578063c87b56dd11610063578063c87b56dd146104df578063e43252d71461051b578063e985e9c514610543578063f2fde38b1461057f57610165565b8063a617713914610465578063b88d4fde1461048d578063c002d23d146104b557610165565b8063715018a61461036f5780638ab1d681146103855780638da5cb5b146103ad57806395d89b41146103d75780639b19251a14610401578063a22cb4651461043d57610165565b806323b872dd1161012257806323b872dd1461026757806332cb6b0c1461028f5780633ccfd60b146102b957806342842e0e146102cf5780636352211e146102f757806370a082311461033357610165565b806301ffc9a71461016957806306fdde03146101a5578063081812fc146101cf578063095ea7b31461020b5780631249c58b1461023357806318160ddd1461023d575b5f5ffd5b348015610174575f5ffd5b5061018f600480360381019061018a919061229e565b6105a7565b60405161019c91906122e3565b60405180910390f35b3480156101b0575f5ffd5b506101b9610688565b6040516101c6919061236c565b60405180910390f35b3480156101da575f5ffd5b506101f560048036038101906101f091906123bf565b610717565b6040516102029190612429565b60405180910390f35b348015610216575f5ffd5b50610231600480360381019061022c919061246c565b610732565b005b61023b610748565b005b348015610248575f5ffd5b50610251610893565b60405161025e91906124b9565b60405180910390f35b348015610272575f5ffd5b5061028d600480360381019061028891906124d2565b610899565b005b34801561029a575f5ffd5b506102a3610998565b6040516102b091906124b9565b60405180910390f35b3480156102c4575f5ffd5b506102cd61099d565b005b3480156102da575f5ffd5b506102f560048036038101906102f091906124d2565b610af3565b005b348015610302575f5ffd5b5061031d600480360381019061031891906123bf565b610b12565b60405161032a9190612429565b60405180910390f35b34801561033e575f5ffd5b5061035960048036038101906103549190612522565b610b23565b60405161036691906124b9565b60405180910390f35b34801561037a575f5ffd5b50610383610bd9565b005b348015610390575f5ffd5b506103ab60048036038101906103a69190612522565b610bec565b005b3480156103b8575f5ffd5b506103c1610c99565b6040516103ce9190612429565b60405180910390f35b3480156103e2575f5ffd5b506103eb610cc1565b6040516103f8919061236c565b60405180910390f35b34801561040c575f5ffd5b5061042760048036038101906104229190612522565b610d51565b60405161043491906122e3565b60405180910390f35b348015610448575f5ffd5b50610463600480360381019061045e9190612577565b610d6e565b005b348015610470575f5ffd5b5061048b60048036038101906104869190612616565b610d84565b005b348015610498575f5ffd5b506104b360048036038101906104ae9190612789565b610f35565b005b3480156104c0575f5ffd5b506104c9610f5a565b6040516104d691906124b9565b60405180910390f35b3480156104ea575f5ffd5b50610505600480360381019061050091906123bf565b610f64565b604051610512919061236c565b60405180910390f35b348015610526575f5ffd5b50610541600480360381019061053c9190612522565b610fca565b005b34801561054e575f5ffd5b5061056960048036038101906105649190612809565b6110e7565b60405161057691906122e3565b60405180910390f35b34801561058a575f5ffd5b506105a560048036038101906105a09190612522565b611175565b005b5f7f80ac58cd000000000000000000000000000000000000000000000000000000007bffffffffffffffffffffffffffffffffffffffffffffffffffffffff1916827bffffffffffffffffffffffffffffffffffffffffffffffffffffffff1916148061067157507f5b5e139f000000000000000000000000000000000000000000000000000000007bffffffffffffffffffffffffffffffffffffffffffffffffffffffff1916827bffffffffffffffffffffffffffffffffffffffffffffffffffffffff1916145b806106815750610680826111f9565b5b9050919050565b60605f805461069690612874565b80601f01602080910402602001604051908101604052809291908181526020018280546106c290612874565b801561070d5780601f106106e45761010080835404028352916020019161070d565b820191905f5260205f20905b8154815290600101906020018083116106f057829003601f168201915b5050505050905090565b5f61072182611262565b5061072b826112e8565b9050919050565b610744828261073f611321565b611328565b5050565b61075061133a565b60095f3373ffffffffffffffffffffffffffffffffffffffff1673ffffffffffffffffffffffffffffffffffffffff1681526020019081526020015f205f9054906101000a900460ff166107d9576040517f08c379a00000000000000000000000000000000000000000000000000000000081526004016107d0906128ee565b60405180910390fd5b655af3107a40003414610821576040517f08c379a000000000000000000000000000000000000000000000000000000000815260040161081890612956565b60405180910390fd5b606460075410610866576040517f08c379a000000000000000000000000000000000000000000000000000000000815260040161085d906129be565b60405180910390fd5b60075f81548092919061087890612a09565b91905055506108893360075461135c565b610891611379565b565b60075481565b5f73ffffffffffffffffffffffffffffffffffffffff168273ffffffffffffffffffffffffffffffffffffffff1603610909575f6040517f64a0ae920000000000000000000000000000000000000000000000000000000081526004016109009190612429565b60405180910390fd5b5f61091c8383610917611321565b611393565b90508373ffffffffffffffffffffffffffffffffffffffff168173ffffffffffffffffffffffffffffffffffffffff1614610992578382826040517f64283d7b00000000000000000000000000000000000000000000000000000000815260040161098993929190612a50565b60405180910390fd5b50505050565b606481565b6109a561159e565b5f4790505f81116109eb576040517f08c379a00000000000000000000000000000000000000000000000000000000081526004016109e290612acf565b60405180910390fd5b5f6109f4610c99565b73ffffffffffffffffffffffffffffffffffffffff1682604051610a1790612b1a565b5f6040518083038185875af1925050503d805f8114610a51576040519150601f19603f3d011682016040523d82523d5f602084013e610a56565b606091505b5050905080610a9a576040517f08c379a0000000000000000000000000000000000000000000000000000000008152600401610a9190612b78565b60405180910390fd5b610aa2610c99565b73ffffffffffffffffffffffffffffffffffffffff167f7084f5476618d8e60b11ef0d7d3f06914655adb8793e28ff7f018d4c76d505d583604051610ae791906124b9565b60405180910390a25050565b610b0d83838360405180602001604052805f815250610f35565b505050565b5f610b1c82611262565b9050919050565b5f5f73ffffffffffffffffffffffffffffffffffffffff168273ffffffffffffffffffffffffffffffffffffffff1603610b94575f6040517f89c62b64000000000000000000000000000000000000000000000000000000008152600401610b8b9190612429565b60405180910390fd5b60035f8373ffffffffffffffffffffffffffffffffffffffff1673ffffffffffffffffffffffffffffffffffffffff1681526020019081526020015f20549050919050565b610be161159e565b610bea5f611625565b565b610bf461159e565b5f60095f8373ffffffffffffffffffffffffffffffffffffffff1673ffffffffffffffffffffffffffffffffffffffff1681526020019081526020015f205f6101000a81548160ff0219169083151502179055508073ffffffffffffffffffffffffffffffffffffffff167fa54714518c5d275fdcd3d2a461e4858e4e8cb04fb93cd0bca9d6d34115f264405f604051610c8e91906122e3565b60405180910390a250565b5f60065f9054906101000a900473ffffffffffffffffffffffffffffffffffffffff16905090565b606060018054610cd090612874565b80601f0160208091040260200160405190810160405280929190818152602001828054610cfc90612874565b8015610d475780601f10610d1e57610100808354040283529160200191610d47565b820191905f5260205f20905b815481529060010190602001808311610d2a57829003601f168201915b5050505050905090565b6009602052805f5260405f205f915054906101000a900460ff1681565b610d80610d79611321565b83836116e8565b5050565b610d8c61159e565b5f5f90505b82829050811015610f30575f73ffffffffffffffffffffffffffffffffffffffff16838383818110610dc657610dc5612b96565b5b9050602002016020810190610ddb9190612522565b73ffffffffffffffffffffffffffffffffffffffff1603610e31576040517f08c379a0000000000000000000000000000000000000000000000000000000008152600401610e2890612c0d565b60405180910390fd5b600160095f858585818110610e4957610e48612b96565b5b9050602002016020810190610e5e9190612522565b73ffffffffffffffffffffffffffffffffffffffff1673ffffffffffffffffffffffffffffffffffffffff1681526020019081526020015f205f6101000a81548160ff021916908315150217905550828282818110610ec057610ebf612b96565b5b9050602002016020810190610ed59190612522565b73ffffffffffffffffffffffffffffffffffffffff167fa54714518c5d275fdcd3d2a461e4858e4e8cb04fb93cd0bca9d6d34115f264406001604051610f1b91906122e3565b60405180910390a28080600101915050610d91565b505050565b610f40848484610899565b610f54610f4b611321565b858585856118c1565b50505050565b655af3107a400081565b6060610f6f82611262565b505f610f79611a6d565b90505f815111610f975760405180602001604052805f815250610fc2565b80610fa184611afd565b604051602001610fb2929190612c65565b6040516020818303038152906040525b915050919050565b610fd261159e565b5f73ffffffffffffffffffffffffffffffffffffffff168173ffffffffffffffffffffffffffffffffffffffff1603611040576040517f08c379a000000000000000000000000000000000000000000000000000000000815260040161103790612cd2565b60405180910390fd5b600160095f8373ffffffffffffffffffffffffffffffffffffffff1673ffffffffffffffffffffffffffffffffffffffff1681526020019081526020015f205f6101000a81548160ff0219169083151502179055508073ffffffffffffffffffffffffffffffffffffffff167fa54714518c5d275fdcd3d2a461e4858e4e8cb04fb93cd0bca9d6d34115f2644060016040516110dc91906122e3565b60405180910390a250565b5f60055f8473ffffffffffffffffffffffffffffffffffffffff1673ffffffffffffffffffffffffffffffffffffffff1681526020019081526020015f205f8373ffffffffffffffffffffffffffffffffffffffff1673ffffffffffffffffffffffffffffffffffffffff1681526020019081526020015f205f9054906101000a900460ff16905092915050565b61117d61159e565b5f73ffffffffffffffffffffffffffffffffffffffff168173ffffffffffffffffffffffffffffffffffffffff16036111ed575f6040517f1e4fbdf70000000000000000000000000000000000000000000000000000000081526004016111e49190612429565b60405180910390fd5b6111f681611625565b50565b5f7f01ffc9a7000000000000000000000000000000000000000000000000000000007bffffffffffffffffffffffffffffffffffffffffffffffffffffffff1916827bffffffffffffffffffffffffffffffffffffffffffffffffffffffff1916149050919050565b5f5f61126d83611bc7565b90505f73ffffffffffffffffffffffffffffffffffffffff168173ffffffffffffffffffffffffffffffffffffffff16036112df57826040517f7e2732890000000000000000000000000000000000000000000000000000000081526004016112d691906124b9565b60405180910390fd5b80915050919050565b5f60045f8381526020019081526020015f205f9054906101000a900473ffffffffffffffffffffffffffffffffffffffff169050919050565b5f33905090565b6113358383836001611c00565b505050565b611342611dbf565b600261135461134f611e00565b611e29565b5f0181905550565b611375828260405180602001604052805f815250611e32565b5050565b600161138b611386611e00565b611e29565b5f0181905550565b5f5f61139e84611bc7565b90505f73ffffffffffffffffffffffffffffffffffffffff168373ffffffffffffffffffffffffffffffffffffffff16146113df576113de818486611e55565b5b5f73ffffffffffffffffffffffffffffffffffffffff168173ffffffffffffffffffffffffffffffffffffffff161461146a5761141e5f855f5f611c00565b600160035f8373ffffffffffffffffffffffffffffffffffffffff1673ffffffffffffffffffffffffffffffffffffffff1681526020019081526020015f205f82825403925050819055505b5f73ffffffffffffffffffffffffffffffffffffffff168573ffffffffffffffffffffffffffffffffffffffff16146114e957600160035f8773ffffffffffffffffffffffffffffffffffffffff1673ffffffffffffffffffffffffffffffffffffffff1681526020019081526020015f205f82825401925050819055505b8460025f8681526020019081526020015f205f6101000a81548173ffffffffffffffffffffffffffffffffffffffff021916908373ffffffffffffffffffffffffffffffffffffffff160217905550838573ffffffffffffffffffffffffffffffffffffffff168273ffffffffffffffffffffffffffffffffffffffff167fddf252ad1be2c89b69c2b068fc378daa952ba7f163c4a11628f55a4df523b3ef60405160405180910390a4809150509392505050565b6115a6611321565b73ffffffffffffffffffffffffffffffffffffffff166115c4610c99565b73ffffffffffffffffffffffffffffffffffffffff1614611623576115e7611321565b6040517f118cdaa700000000000000000000000000000000000000000000000000000000815260040161161a9190612429565b60405180910390fd5b565b5f60065f9054906101000a900473ffffffffffffffffffffffffffffffffffffffff1690508160065f6101000a81548173ffffffffffffffffffffffffffffffffffffffff021916908373ffffffffffffffffffffffffffffffffffffffff1602179055508173ffffffffffffffffffffffffffffffffffffffff168173ffffffffffffffffffffffffffffffffffffffff167f8be0079c531659141344cd1fd0a4f28419497f9722a3daafe3b4186f6b6457e060405160405180910390a35050565b5f73ffffffffffffffffffffffffffffffffffffffff168373ffffffffffffffffffffffffffffffffffffffff1603611758575f6040517fa9fbf51f00000000000000000000000000000000000000000000000000000000815260040161174f9190612429565b60405180910390fd5b5f73ffffffffffffffffffffffffffffffffffffffff168273ffffffffffffffffffffffffffffffffffffffff16036117c857816040517f5b08ba180000000000000000000000000000000000000000000000000000000081526004016117bf9190612429565b60405180910390fd5b8060055f8573ffffffffffffffffffffffffffffffffffffffff1673ffffffffffffffffffffffffffffffffffffffff1681526020019081526020015f205f8473ffffffffffffffffffffffffffffffffffffffff1673ffffffffffffffffffffffffffffffffffffffff1681526020019081526020015f205f6101000a81548160ff0219169083151502179055508173ffffffffffffffffffffffffffffffffffffffff168373ffffffffffffffffffffffffffffffffffffffff167f17307eab39ab6107e8899845ad3d59bd9653f200f220920489ca2b5937696c31836040516118b491906122e3565b60405180910390a3505050565b5f8373ffffffffffffffffffffffffffffffffffffffff163b1115611a66578273ffffffffffffffffffffffffffffffffffffffff1663150b7a02868685856040518563ffffffff1660e01b815260040161191f9493929190612d42565b6020604051808303815f875af192505050801561195a57506040513d601f19601f820116820180604052508101906119579190612da0565b60015b6119db573d805f8114611988576040519150601f19603f3d011682016040523d82523d5f602084013e61198d565b606091505b505f8151036119d357836040517f64a0ae920000000000000000000000000000000000000000000000000000000081526004016119ca9190612429565b60405180910390fd5b805160208201fd5b63150b7a0260e01b7bffffffffffffffffffffffffffffffffffffffffffffffffffffffff1916817bffffffffffffffffffffffffffffffffffffffffffffffffffffffff191614611a6457836040517f64a0ae92000000000000000000000000000000000000000000000000000000008152600401611a5b9190612429565b60405180910390fd5b505b5050505050565b606060088054611a7c90612874565b80601f0160208091040260200160405190810160405280929190818152602001828054611aa890612874565b8015611af35780601f10611aca57610100808354040283529160200191611af3565b820191905f5260205f20905b815481529060010190602001808311611ad657829003601f168201915b5050505050905090565b60605f6001611b0b84611f18565b0190505f8167ffffffffffffffff811115611b2957611b28612665565b5b6040519080825280601f01601f191660200182016040528015611b5b5781602001600182028036833780820191505090505b5090505f82602083010190505b600115611bbc578080600190039150507f3031323334353637383961626364656600000000000000000000000000000000600a86061a8153600a8581611bb157611bb0612dcb565b5b0494505f8503611b68575b819350505050919050565b5f60025f8381526020019081526020015f205f9054906101000a900473ffffffffffffffffffffffffffffffffffffffff169050919050565b8080611c3857505f73ffffffffffffffffffffffffffffffffffffffff168273ffffffffffffffffffffffffffffffffffffffff1614155b15611d6a575f611c4784611262565b90505f73ffffffffffffffffffffffffffffffffffffffff168373ffffffffffffffffffffffffffffffffffffffff1614158015611cb157508273ffffffffffffffffffffffffffffffffffffffff168173ffffffffffffffffffffffffffffffffffffffff1614155b8015611cc45750611cc281846110e7565b155b15611d0657826040517fa9fbf51f000000000000000000000000000000000000000000000000000000008152600401611cfd9190612429565b60405180910390fd5b8115611d6857838573ffffffffffffffffffffffffffffffffffffffff168273ffffffffffffffffffffffffffffffffffffffff167f8c5be1e5ebec7d5bd14f71427d1e84f3dd0314c0f7b2291e5b200ac8c7c3b92560405160405180910390a45b505b8360045f8581526020019081526020015f205f6101000a81548173ffffffffffffffffffffffffffffffffffffffff021916908373ffffffffffffffffffffffffffffffffffffffff16021790555050505050565b611dc7612069565b15611dfe576040517f3ee5aeb500000000000000000000000000000000000000000000000000000000815260040160405180910390fd5b565b5f7f9b779b17422d0df92223018b32b4d1fa46e071723d6817e2486d003becc55f005f1b905090565b5f819050919050565b611e3c8383612085565b611e50611e47611321565b5f8585856118c1565b505050565b611e60838383612178565b611f13575f73ffffffffffffffffffffffffffffffffffffffff168373ffffffffffffffffffffffffffffffffffffffff1603611ed457806040517f7e273289000000000000000000000000000000000000000000000000000000008152600401611ecb91906124b9565b60405180910390fd5b81816040517f177e802f000000000000000000000000000000000000000000000000000000008152600401611f0a929190612df8565b60405180910390fd5b505050565b5f5f5f90507a184f03e93ff9f4daa797ed6e38ed64bf6a1f0100000000000000008310611f74577a184f03e93ff9f4daa797ed6e38ed64bf6a1f0100000000000000008381611f6a57611f69612dcb565b5b0492506040810190505b6d04ee2d6d415b85acef81000000008310611fb1576d04ee2d6d415b85acef81000000008381611fa757611fa6612dcb565b5b0492506020810190505b662386f26fc100008310611fe057662386f26fc100008381611fd657611fd5612dcb565b5b0492506010810190505b6305f5e1008310612009576305f5e1008381611fff57611ffe612dcb565b5b0492506008810190505b612710831061202e57612710838161202457612023612dcb565b5b0492506004810190505b60648310612051576064838161204757612046612dcb565b5b0492506002810190505b600a8310612060576001810190505b80915050919050565b5f600261207c612077611e00565b611e29565b5f015414905090565b5f73ffffffffffffffffffffffffffffffffffffffff168273ffffffffffffffffffffffffffffffffffffffff16036120f5575f6040517f64a0ae920000000000000000000000000000000000000000000000000000000081526004016120ec9190612429565b60405180910390fd5b5f61210183835f611393565b90505f73ffffffffffffffffffffffffffffffffffffffff168173ffffffffffffffffffffffffffffffffffffffff1614612173575f6040517f73c6ac6e00000000000000000000000000000000000000000000000000000000815260040161216a9190612429565b60405180910390fd5b505050565b5f5f73ffffffffffffffffffffffffffffffffffffffff168373ffffffffffffffffffffffffffffffffffffffff161415801561222f57508273ffffffffffffffffffffffffffffffffffffffff168473ffffffffffffffffffffffffffffffffffffffff1614806121f057506121ef84846110e7565b5b8061222e57508273ffffffffffffffffffffffffffffffffffffffff16612216836112e8565b73ffffffffffffffffffffffffffffffffffffffff16145b5b90509392505050565b5f604051905090565b5f5ffd5b5f5ffd5b5f7fffffffff0000000000000000000000000000000000000000000000000000000082169050919050565b61227d81612249565b8114612287575f5ffd5b50565b5f8135905061229881612274565b92915050565b5f602082840312156122b3576122b2612241565b5b5f6122c08482850161228a565b91505092915050565b5f8115159050919050565b6122dd816122c9565b82525050565b5f6020820190506122f65f8301846122d4565b92915050565b5f81519050919050565b5f82825260208201905092915050565b8281835e5f83830152505050565b5f601f19601f8301169050919050565b5f61233e826122fc565b6123488185612306565b9350612358818560208601612316565b61236181612324565b840191505092915050565b5f6020820190508181035f8301526123848184612334565b905092915050565b5f819050919050565b61239e8161238c565b81146123a8575f5ffd5b50565b5f813590506123b981612395565b92915050565b5f602082840312156123d4576123d3612241565b5b5f6123e1848285016123ab565b91505092915050565b5f73ffffffffffffffffffffffffffffffffffffffff82169050919050565b5f612413826123ea565b9050919050565b61242381612409565b82525050565b5f60208201905061243c5f83018461241a565b92915050565b61244b81612409565b8114612455575f5ffd5b50565b5f8135905061246681612442565b92915050565b5f5f6040838503121561248257612481612241565b5b5f61248f85828601612458565b92505060206124a0858286016123ab565b9150509250929050565b6124b38161238c565b82525050565b5f6020820190506124cc5f8301846124aa565b92915050565b5f5f5f606084860312156124e9576124e8612241565b5b5f6124f686828701612458565b935050602061250786828701612458565b9250506040612518868287016123ab565b9150509250925092565b5f6020828403121561253757612536612241565b5b5f61254484828501612458565b91505092915050565b612556816122c9565b8114612560575f5ffd5b50565b5f813590506125718161254d565b92915050565b5f5f6040838503121561258d5761258c612241565b5b5f61259a85828601612458565b92505060206125ab85828601612563565b9150509250929050565b5f5ffd5b5f5ffd5b5f5ffd5b5f5f83601f8401126125d6576125d56125b5565b5b8235905067ffffffffffffffff8111156125f3576125f26125b9565b5b60208301915083602082028301111561260f5761260e6125bd565b5b9250929050565b5f5f6020838503121561262c5761262b612241565b5b5f83013567ffffffffffffffff81111561264957612648612245565b5b612655858286016125c1565b92509250509250929050565b5f5ffd5b7f4e487b71000000000000000000000000000000000000000000000000000000005f52604160045260245ffd5b61269b82612324565b810181811067ffffffffffffffff821117156126ba576126b9612665565b5b80604052505050565b5f6126cc612238565b90506126d88282612692565b919050565b5f67ffffffffffffffff8211156126f7576126f6612665565b5b61270082612324565b9050602081019050919050565b828183375f83830152505050565b5f61272d612728846126dd565b6126c3565b90508281526020810184848401111561274957612748612661565b5b61275484828561270d565b509392505050565b5f82601f8301126127705761276f6125b5565b5b813561278084826020860161271b565b91505092915050565b5f5f5f5f608085870312156127a1576127a0612241565b5b5f6127ae87828801612458565b94505060206127bf87828801612458565b93505060406127d0878288016123ab565b925050606085013567ffffffffffffffff8111156127f1576127f0612245565b5b6127fd8782880161275c565b91505092959194509250565b5f5f6040838503121561281f5761281e612241565b5b5f61282c85828601612458565b925050602061283d85828601612458565b9150509250929050565b7f4e487b71000000000000000000000000000000000000000000000000000000005f52602260045260245ffd5b5f600282049050600182168061288b57607f821691505b60208210810361289e5761289d612847565b5b50919050565b7f4e6f742077686974656c697374656400000000000000000000000000000000005f82015250565b5f6128d8600f83612306565b91506128e3826128a4565b602082019050919050565b5f6020820190508181035f830152612905816128cc565b9050919050565b7f57726f6e672045544820616d6f756e74000000000000000000000000000000005f82015250565b5f612940601083612306565b915061294b8261290c565b602082019050919050565b5f6020820190508181035f83015261296d81612934565b9050919050565b7f536f6c64206f75740000000000000000000000000000000000000000000000005f82015250565b5f6129a8600883612306565b91506129b382612974565b602082019050919050565b5f6020820190508181035f8301526129d58161299c565b9050919050565b7f4e487b71000000000000000000000000000000000000000000000000000000005f52601160045260245ffd5b5f612a138261238c565b91507fffffffffffffffffffffffffffffffffffffffffffffffffffffffffffffffff8203612a4557612a446129dc565b5b600182019050919050565b5f606082019050612a635f83018661241a565b612a7060208301856124aa565b612a7d604083018461241a565b949350505050565b7f4e6f7468696e6720746f207769746864726177000000000000000000000000005f82015250565b5f612ab9601383612306565b9150612ac482612a85565b602082019050919050565b5f6020820190508181035f830152612ae681612aad565b9050919050565b5f81905092915050565b50565b5f612b055f83612aed565b9150612b1082612af7565b5f82019050919050565b5f612b2482612afa565b9150819050919050565b7f5769746864726177206661696c656400000000000000000000000000000000005f82015250565b5f612b62600f83612306565b9150612b6d82612b2e565b602082019050919050565b5f6020820190508181035f830152612b8f81612b56565b9050919050565b7f4e487b71000000000000000000000000000000000000000000000000000000005f52603260045260245ffd5b7f5a65726f206164647265737320696e20626174636800000000000000000000005f82015250565b5f612bf7601583612306565b9150612c0282612bc3565b602082019050919050565b5f6020820190508181035f830152612c2481612beb565b9050919050565b5f81905092915050565b5f612c3f826122fc565b612c498185612c2b565b9350612c59818560208601612316565b80840191505092915050565b5f612c708285612c35565b9150612c7c8284612c35565b91508190509392505050565b7f5a65726f206164647265737300000000000000000000000000000000000000005f82015250565b5f612cbc600c83612306565b9150612cc782612c88565b602082019050919050565b5f6020820190508181035f830152612ce981612cb0565b9050919050565b5f81519050919050565b5f82825260208201905092915050565b5f612d1482612cf0565b612d1e8185612cfa565b9350612d2e818560208601612316565b612d3781612324565b840191505092915050565b5f608082019050612d555f83018761241a565b612d62602083018661241a565b612d6f60408301856124aa565b8181036060830152612d818184612d0a565b905095945050505050565b5f81519050612d9a81612274565b92915050565b5f60208284031215612db557612db4612241565b5b5f612dc284828501612d8c565b91505092915050565b7f4e487b71000000000000000000000000000000000000000000000000000000005f52601260045260245ffd5b5f604082019050612e0b5f83018561241a565b612e1860208301846124aa565b939250505056fea2646970667358221220754c0d189940f699f7e1b965f66b4ee877d4b0929fcbd64f8a5c444840043dca64736f6c634300081c0033",
  "linkReferences": {},
  "deployedLinkReferences": {},
  "immutableReferences": {},
  "inputSourceName": "project/contracts/XylemNFT.sol",
  "buildInfoId": "solc-0_8_28-2260429cdb58f14e89a4322113756fce2826b855"
}